:020000040000FA
:0600000002011A021DB608
:03002B0002249319
:03003B000224DEBE
:0300430002242074
:03005300021E2C5E
:03006B000224B0BC
:03007B0002247BE1
:10008300021CA7E5C754F84401F5C7790122000013
:100093000080FB120086B90003020104E479217891
:1000A30008B800028004F709D8FCE479297802B87B
:1000B30000028004F709D8FCE4900281785379099F
:1000C3008002F0A3D8FCD9FA781A90014A7A01BACF
:1000D30000028007E493A3F608DAF97AD37B0A9047
:1000E300014B78F579038015E493A3AD82AE838A3F
:1000F300828B83F0A3AA82AB838D828E83D8E9D9C6
:10010300E77582B0758398740312012C758291751B
:100113008300740012012C75D00075813F7518811E
:10012300751902759F00020096C09FF59FE473D076
:100133009F22D083D082C09FE493C0E0740193C018
:10014300E0740293F59F2201FF0000B40000280031
:100153002800283075A000A000A000A0000008001F
:1001630008E001F000100010001000100010001053
:100173000050005000500010001000D00700000095
:100183000000000F0001000500307507001000019A
:100193000081FF0000FF3D065B064306FF020202EB
:1001A30008025000A0000000E803021D90010000B7
:1001B300F78F020F90010000280B02FF8F01000050
:1001C300B202020F90010000290B0201900100000E
:1001D300C802020F900100002A0B020390010000E5
:1001E300CA02020F900100002B0B021390080000BB
:1001F300CB02020F900100002C0B020790010000BC
:100203002D0BFF0100FF20021D90010000F48F025F
:100213000F90010000910B02099000000000000202
:10022300FD8F03000018036D0C6D0C6D0C6D0C6DD0
:100233000C6D0C6D0C6D0C6D0C6D0C6D0C6D0C6DF3
:100243000C430F5B0F3D0F02020202020202020285
:10025300010D0000001001021D90010000FA8F0241
:100263000F90010000D20B0225900100005B0702F2
:100273000F90010000D30B022390010000138F02A3
:100283000F90010000D40B022190010000058F02A2
:100293000F90010000D50B021F90010000A38E02F6
:1002A3000F90010000D60B021B90010000B58E02D7
:1002B3000F90010000D70B021990010000918E02EC
:1002C3000F90010000D80B0217900100007F8E02EF
:1002D3000F90010000D90B023590010000F78E0248
:1002E3000F90010000DA0B021590010000DB0B01F7
:1002F300E803053F1003FFFFFF0001307503020110
:1003030006000000000000000000000000000000E4
:1003130000000000000000000000000000FFFF06D6
:1003230000800CE8030509544A47510512200320B5
:1003330003020A000201050302F0FF544A47512059
:100343006261636B7061636B00000000000000007A
:10035300BD130000CF13C913C3130A43686172614D
:100363006374657269737469632031000243686161
:100373007261637465726973746963203200084340
:1003830068617261637465726973746963203300B1
:100393001043686172616374657269737469632081
:1003A30034000243686172616374657269737469CE
:1003B30063203500021D90010000F18F020F9001B0
:1003C3000000E50C022B90030000C40A0205900113
:1003D3000000E60C020F90010000F70C022D9001C3
:1003E3000000C50A020590010000F80C020F9001FD
:1003F3000000090D022F90020000C60A02059001B9
:1004030000000A0D020F900100001B0D0231900045
:100413000000C70A02FD8F030000C80A020590010D
:1004230000001C0D020F900100002D0D02339004FB
:100433000000CE0A0205900100002E0D1201355A6C
:100443008D03120135718D03120135A08D03120145
:1004530035D98D03120135018E031201352F8E0319
:10046300120135468E031201355D8E031201357379
:100473008E031201359A8E03120135AD8E031201DC
:1004830035C38E03120135D68E03120135FB8E035D
:10049300120135828C02120135818D02120135B6AB
:1004A3008D02120135D78D02120135E78D0212013B
:1004B30035088E02120135148F02120135E18F02C5
:1004C300120135549002120135DA90021201351DE2
:1004D3009102120135549102120135DA910212018F
:1004E30035AC92021201350A9302120135229302AE
:1004F3001201359C93021201359F9302120135A21A
:1005030093021201354994021201356194021201DA
:1005130035919402120135B194021201359F95026F
:10052300120135559602120135ECD302120135142E
:10053300D40212013542D40212013579D4021201D8
:1005430035E1D4021201352AD50212013575D502DF
:10055300120135B3D502120135F0D5021201351E51
:10056300D602120135C5D602120135CFD6021201C9
:1005730035DCD6021201350FD702120135D1D7026D
:10058300120135DDD702120135F5D702120135FF0D
:10059300D702120135879503120135959503120190
:1005A30035AD9503120135C59503120135BDAE0175
:1005B3001201355BAF01120135D3AF01120135E8EA
:1005C300B00112013522B101120135CBB101120183
:1005D30035A0B20112013504B4011201355BB40137
:1005E300120135E2B401120135C9B5011201351604
:1005F300B601120135A4B601120135C8B6011201C4
:10060300359DB801120135DEB80112013500B9017B
:1006130012013581B9011201356BBA01120135316D
:10062300BB01120135EFB802120135C1B902120143
:10063300356ABA02120135ADBA021201353ABB026C
:10064300120135C6BB02120135A7BC02120135D611
:10065300BC02120135D2BD021201351ABE021201CB
:10066300351CBF0212013560BF0212013586BF027D
:10067300120135AA9703120135D0ED02120135E6B6
:10068300ED021201350CEE0212013534EF021201B4
:10069300353EEF0212013597F00212013597F10250
:1006A3001201355AC5021201358FC602120135C235
:1006B300C6021201350CC702120135CAC802120163
:1006C300353890011201359B9001120135E09101FB
:1006D300120135F091011201351392011201355EB9
:1006E3009201120135039301120135F993011201AD
:1006F30035C394011201353B96011201357D9601F4
:100703001201351B97011201356897011201358ECD
:1007130097011201357C990112013581990112016A
:1007230035629B01120135B69B01120135189C01FC
:10073300120135409C01120135E49C01120135A6DA
:100743009D01120135D79D01120135DA9D01120178
:1007530035229E01120135649E01120135CB9E01A3
:10076300120135E48203120135F7820312013510B9
:1007730083031201355B83031201353684031201AF
:1007830035C584031201351085031201354C25004C
:10079300120135582500120135912500120135D675
:1007A30025001201358D2600120135132700120191
:1007B30035782700120135A42700120135DD270003
:1007C300120135F12900120135CD2B00120135B884
:1007D3002D00120135EF2E001201354F31001201A9
:1007E300353B32001201358133001201358E34005E
:1007F300120135AB3400120135E33400120135FD2B
:100803003400120135653500120135FF390012013C
:1008130035A03A00120135F13A00120135183B00B8
:10082300120135663B00120135843B00120135D8B5
:100833003B00120135B13C00120135383E00120174
:1008430035C03E0012013542CF021201354CCF02B2
:1008530012013517D00212013532D0021201355878
:10086300D0021201359CD002120135D4D0021201FC
:1008730035FDD00212013576D1021201358BD1023A
:10088300120135A0D102120135D7D102120135EB85
:10089300D1021201351CD20212013556D2021201C5
:1008A3003582D202120135D8D2021201352CD3027D
:1008B30012013575D3021201359FD302120135C4DB
:1008C300D302120135E4E902120135AEEA02120144
:1008D3003591EB0212013507EC0212013549EC02A6
:1008E30012013576ED02120135008002120135291D
:1008F3008002120135428002120135878102120102
:100903003565820212013584820212013511830298
:10091300120135548302120135A1840212013540BC
:100923008502120135BF8702120135568802120172
:10093300352A89021201350C8A02120135788B029D
:100943001201350B8C021201359C900312013505FF
:10095300910312013559910312013580910312015C
:100963003585E102120135F2E1021201353DE20261
:1009730012013532E3021201352EE4021201351859
:10098300E50212013564A902120135A6A90212017A
:100993003580AA0212013559AB0212013554AC025B
:1009A30012013533AD021201359FAD0212013566D6
:1009B300AE02120135D1AE0212013538AF02120177
:1009C3003563AF02120135D4AF0212013567B002AD
:1009D300120135D0B002120135E5B0021201352DF6
:1009E300B10212013546B102120135ABB102120157
:1009F30035AEB10212013591FC02120135B9FC0288
:100A0300120135F7FC02120135B5FD021201352042
:100A1300FE021201353CFE0212013564FE02120190
:100A23003594FE02120135A3FE021201351DFF02A9
:100A330012013543FF02120135959F011201353230
:100A4300A10112013518A301120135E2A30112011C
:100A53003529A40112013570A40112013582A401C4
:100A6300120135C2A401120135F1A4011201353D71
:100A7300A50112013575A501120135A3A5011201C6
:100A830035F4A50112013583A60112013571A901BF
:100A93001201354BAB0112013587AB01120135E170
:100AA300AC0112013528AD011201359DAD011201D2
:100AB30035EBAD0112013522AE0112013561A00201
:100AC3001201357EA00212013518A6021201351A51
:100AD300A70212013594A80212013542A90212019C
:100AE30035273F00120135703F001201359D3F004D
:100AF300120135D03F00120135DD3F00120135E907
:100B03003F00120135FB3F00120135D040001201B6
:100B1300352E4100120135634100120135FF4200B9
:100B23001201354C4300120135704300120135DDCB
:100B330043001201358244001201353E4500120183
:100B430035BD45001201358146001201359046003E
:100B5300120135114700120135B04700120135E289
:100B630047001201357D4800120135DB48001201B0
:100B7300351549001201359649001201355F4A00C7
:100B8300120135084B001201358F4B00120135E776
:100B93004B00120135484C00120135714C00120113
:100BA30035274D00120135714E00120135B44E0048
:100BB300120135D14E00120135F04E001201353BC2
:100BC3004F00120135604F00120135894F001201A9
:100BD30035F84F001201353A50001201353E5100ED
:100BE300120135D85100120135A45200120135BD4E
:100BF3005200120135C096021201351397021201F9
:100C0300351F9702120135F497021201351B980222
:100C1300120135569802120135C29802120135F6B7
:100C230098021201352F99021201354799021201D8
:100C330035A09902120135B99902120135029A02BF
:100C4300120135159A021201352F9A021201354508
:100C53009A02120135619B02120135729C02120144
:100C630035BF9D02120135A49E02120135E97F00B2
:100C73001201359BE601120135CFE6011201353A27
:100C8300EA0112013584EB011201354EEC01120128
:100C930035D8ED01120135B3EE01120135EDEE0148
:100CA30012013510EF0112013552EF011201355BCC
:100CB300EF01120135A5EF01120135AFEF0112016A
:100CC300355BF0011201352FF10112013583F1017A
:100CD300120135E5F10112013538F20112013567D0
:100CE300F201120135A6F201120135B565001201B8
:100CF300350F6E00120135156E00120135D07300E9
:100D0300120135B6770012013567F502120135DDA0
:100D1300F502120135F3F50212013530F602120124
:100D23003568F602120135E5F60212013520F702A5
:100D33001201359BF702120135D7F702120135E094
:100D4300F702120135ECF70212013506F80212011F
:100D5300352BF80212013541F8021201356AF80207
:100D6300120135CDF80212013580CA021201359302
:100D7300CA02120135ADCA02120135D6CA021201E6
:100D83003519CB0212013558CB0212013596CB022D
:100D9300120135FBCB0212013510CC021201351BB7
:100DA300CC0212013528CC021201353FCC021201CC
:100DB300354DCC0212013558CC0212013564CC02F8
:100DC30012013577CC0212013582CC02120135A50E
:100DD300CC021201354ECD021201355ECD02120155
:100DE3003578CD0212013595CD02120135B1CD0210
:100DF300120135D6CD02120135E0CD02120135F4D0
:100E0300CD0212013513CE0212013574CE02120146
:100E1300357ACE0212013580CE0212013586CE021A
:100E230012013592CE02120135C5CE02120135E907
:100E3300CB011201356BCC0112013514CD01120126
:100E4300355CCE011201356AD00112013550D10152
:100E530012013585D101120135A7D1011201355097
:100E6300D20112013520D40112013549D4011201F6
:100E730035C1D401120135F3D40112013500D50176
:100E83001201354BD5011201356FD501120135C061
:100E9300D701120135CAD80112013526D901120131
:100EA3003566BD0112013577BE011201355BBF0105
:100EB30012013565BF0112013587BF011201359358
:100EC300BF0112013537C10112013564C10112019D
:100ED300357AC201120135CFC2011201351EC40198
:100EE300120135F3C4011201354FC501120135BAA0
:100EF300C501120135EFC50112013532C6011201D8
:100F030035FCC80112013514C901120135A5C90107
:100F1300120135B3C90112013500CA011201350EA0
:100F2300CA011201357ACA01120135F5CA0112014B
:100F3300354CCB0112013581F301120135A3F301C5
:100F4300120135B4F50112013573F8011201359D13
:100F5300F9011201355BFA0112013547FB01120158
:100F630035A18B03120135C68B031201353C8C036B
:100F7300120135D2B102120135DBB102120135E49F
:100F8300B102120135BCB2021201356DB402120175
:100F9300359DB402120135C8B402120135F8B4020A
:100FA30012013523B50212013557B50212013583FB
:100FB300B502120135C6B502120135F1B5021201AF
:100FC3003538B6021201358DB602120135CFB6029D
:100FD30012013529B70212013554B702120135A3A4
:100FE300B702120135D3B702120135FEB70212015F
:100FF300352CB8021201354FB8021201353398036C
:101003001201355F98031201358C9803120135964E
:101013009803120135A698031201350080031201CB
:101023003525800312013550800312013551990390
:10103300120135EF5200120135D054001201358CE4
:10104300560012013589570012013511580012015B
:1010530035925800120135BB58001201350B590067
:101063001201359E5C001201350F5D00120135003F
:101073005E001201353A5E001201357A5E001201FC
:1010830035AD5F0012013500600012013549600083
:10109300120135B76000120135E960001201350312
:1010A3006100120135F5610012013505620012017C
:1010B30035AB6300120135C26300120135F46300DE
:1010C300120135766500120135B699031201350810
:1010D3009903120135479903120135EAFF02120100
:1010E300359E9403120135AE9403120135C6940361
:1010F3001201357A9503120135B191031201353589
:1011030092031201359D92031201359FFE011201D4
:1011130035C1FE0112013522FF0112013535FF01F0
:1011230012013586FF01120135C5FF01120135C8D1
:10113300FF01120135DAE502120135EEE502120173
:101143003567E6021201353CE7021201350EE9026A
:1011530012013573E902120135D0E902120135F8A3
:101163007F001201357A8703120135FB88031201D0
:10117300355C8903120135A28903120135A1F102FD
:1011830012013541F20212013553F30212013523E4
:10119300F4021201354BF40212013559F402120123
:1011A30035C3F40212013546F50212013550F5023A
:1011B30012013564F502120135AD9303120135D6E0
:1011C3009303120135FF93031201351794031201A0
:1011D30035599403120135FBBF0212013505C002D4
:1011E30012013545C0021201358EC002120135C805
:1011F300C0021201351EC1021201353DC1021201A6
:101203003546C10212013597C102120135C0C10230
:10121300120135CAC1021201353BC202120135C99E
:10122300C2021201351EC3021201354DC30212015F
:1012330035C9C30212013506C4021201353DC40289
:101243001201354FC4021201356EC4021201357703
:10125300C4021201352EC5021201350D8F0312018E
:10126300355D8F03120135CF8F031201353790039C
:101273001201353A85031201356485031201352BBA
:101283008603120135078703120135B69203120153
:1012930035A58903120135DB89031201350E8A0353
:1012A300120135678B031201351597031201352B94
:1012B30097031201353597031201357F9703120106
:1012C300358BFF02120135057800120135C2780013
:1012D300120135FD78001201352E79001201359087
:1012E3007900120135DC7900120135477A001201C9
:1012F30035C17A00120135C07B00120135477D00EC
:10130300120135CA7D00120135307E0012013543CA
:101313007E001201353E7F001201358B7F001201E2
:101323003515DD021201352BDD02120135CCDD024C
:101333001201350BDE0212013528DE021201355986
:10134300DE02120135A6DE02120135DADE021201D7
:101353003515DF0212013512E10212013578E1027F
:1013630012013573D901120135AADC0112013526A8
:10137300DE011201357DDE011201359ADE01120113
:101383003518DF0112013595E00112013579E101CC
:1013930012013528E501120135F8E5011201355E28
:1013A30096031201356C9603120135D79603120189
:1013B3003594D802120135D4DA02120135C0DB02AA
:1013C30012013578DC02120135D0DC02120135F648
:1013D300DC02120135FDF80212013542F902120155
:1013E300355FF90212013515FA0212013568FA0266
:1013F3001201353FFB0212013558FC02120135D1AF
:10140300FF01120135989903E066701008A3E066A6
:10141300700A08A3E066700408A3E06622C3E79697
:101423000809E7960809E7960809E79622C3E096B4
:1014330008A3E09608A3E09608A3E09622C008C399
:10144300E096F50808A3E096420808A3E096420850
:1014530008A3E09645087001D3D00822080808EADB
:10146300C0E0EBC0E086F0E7A4FA180986F0E7A431
:101473002AFA180986F0E7A42AFA180986F0E7A4DD
:101483002AFA1986F0E7A4FBE5F02AFA190886F090
:10149300E7A42BFBE5F03AFA190886F0E7A42BFB47
:1014A300E5F03AFA18180986F0E7A4C5F02BFBE437
:1014B3003AFA1908E7C5F0C6A426F6E5F03BFBE4C3
:1014C3003AFA1886F0E7A4F6E5F00826F6E43B08B6
:1014D300F6E43A08F6D0E0FBD0E0FA22E4CFC0E02D
:1014E300E4CEC0E0E4CDC0E0E4CCC0E075F020E69B
:1014F30026F608E633F608E633F608E633F6181858
:1015030018EC33FCED33FDEE33FEEF33FFC3EC9702
:1015130009ED9709EE9709EF97191919400FFFEC99
:1015230097FC09ED97FD09EE97FE191906D5F0BF53
:10153300ECF709EDF709EEF709EFF7191919D0E000
:10154300FCD0E0FDD0E0FED0E0FF226016080808E2
:10155300C6C313C618C613C618C613C618C613C601
:10156300D5E0EA227009080808226016181818C680
:10157300C333C608C633C608C633C608C633C6D582
:10158300E0EA22E627F60809E637F60809E637F621
:101593000809E637F622E026F608A3E036F608A3A4
:1015A300E036F608A3E036F622E026F008A3E0369C
:1015B300F008A3E036F008A3E036F022C3E697F67E
:1015C3000809E697F60809E697F60809E697F6226A
:1015D300C3E096F008A3E096F008A3E096F008A312
:1015E300E096F022E056F608A3E056F608A3E0568C
:1015F300F608A3E056F622E056F008A3E056F008FA
:10160300A3E056F008A3E056F022E0F608A3E0F6C4
:1016130008A3E0F608A3E0F622E6F008A3E6F00844
:10162300A3E6F008A3E6F022E0FAA3E0FBA3E0FCC4
:10163300A3E0FD22EAF0A3EBF0A3ECF0A3EDF0228C
:10164300E0F8A3E0F9A3E0FAA3E0FB22E8F0A3E9C2
:10165300F0A3EAF0A3EBF022CAC0E0E6F0A308DAB5
:10166300FAD0E0FA22CAC0E0E0A3C582CCC582C5A5
:1016730083CDC583F0A3C582CCC582C583CDC58385
:10168300DAE6D0E0CA22C3E498F8E499F91216CA5C
:101693008026C3E49AFAE49BFBE920E7E91216CA21
:1016A300E498F8E499F922C3E498F8E499F9121656
:1016B300CAE498F8E499F9C3E49AFAE49BFB22EBB1
:1016C30020E7CFE920E7E0B90010BB0008E88AF083
:1016D30084F8AAF022E4FBC8FA22EB70227B10C83C
:1016E30033C8C933C9335007C39AC3DBF280069AA0
:1016F30050012ADBEAC833F4C8C933F4C9FA2275A6
:10170300F008E4C833C8C933C933C99AC99B500424
:10171300C92AC93BD5F0ECFBC833F4C8E4C9FA22A3
:10172300600D08C6A2E713C618C613C6D5E0F32298
:10173300600C08C6C313C618C613C6D5E0F42270DE
:101743000422600D18C6C333C608C633C6D5E0F4F9
:101753001822251810AF08F518400C15198008F544
:101763001840021519D2AF2200C0D0251810AF08B7
:10177300F518500C05198008F51850020519D2AF59
:10178300D0D0222518F58210AF08F518400C151992
:101793008008F51840021519D2AF85198322251840
:1017A300F582E43519F583222518F8E43519F92271
:1017B3002518FAE43519FB222518FCE43519FD2216
:1017C300E4732518C582C0E0E51934FFC583C0E082
:1017D300E518C3958224F810AF088583198582180C
:1017E3008008858319858218D2AFCEF0A3E520F057
:1017F300A37808E608F0A3DEFAEFF0A3E58124FA64
:10180300F8E608F0A3E608F0A3E608F0A30808E664
:1018130008F0A3E608F0A315811581D0E0FED0E01F
:10182300F8158115811581E8C0E0EEC0E022251886
:10183300C582C0E0E51934FFC583C0E0E518C39550
:101843008224F910AF08858319858218800885835F
:1018530019858218D2AFCEF0A3E520F0A37808E66D
:1018630008F0A3DEFAEFF0A3E58124FBF8E608F025
:10187300A3E608F0A30808E608F0A3E608F0A3151A
:10188300811581D0E0FED0E0F815811581E8C0E034
:10189300EEC0E022851983851882E0A3FEE0A3F55C
:1018A300207808E0A3F608DFFAE0A3FFE0A3C0E096
:1018B300E0A3C0E0E0A3C0E0E0A3C0E0E0A3C0E099
:1018C30010AF08858218858319800885821885835F
:1018D30019D2AFD083D08202013285198385188251
:1018E300E0A3FEE0A3F5207808E0A3F608DFFAE022
:1018F300A3FFE0A3C0E0E0A3C0E0E0A3C0E0E0A357
:10190300C0E010AF08858218858319800885821886
:10191300858319D2AFD083D08222C0D02518C58247
:10192300C0E0E51934FFC583C0E0E518C395822400
:10193300F310AF088583198582188008858319857C
:101943008218D2AFC8F0A3E9F0A3EAF0A3EBF0A3A7
:101953007908E709F0A3D8FAECF0A3EDF0A3EEF0D1
:10196300A3EFF0A3D0E0F0A3D0E0F0A3D0E0F0A386
:10197300E520F0A3E5F0F0A322851983851882E022
:10198300C0E0A3E0F9A3E0FAA3E0FBA37808E0F644
:1019930008A3DFFAE0FCA3E0FDA3E0FEA3E0FFA3BE
:1019A300E0C0E0A3E0C0E0A3E0F5D0A3E0F520A30E
:1019B300E0A3F5F010AF08858319858218800885A8
:1019C3008319858218D2AFD082D083D0E0F8D0E0DB
:1019D3003274048006740280027401C0E0F40412BD
:1019E3001786D0E012165B22740480047402800010
:1019F300CCC0E0EDC0E0E518C39CCCAD1950011D8F
:101A030010AF068C188D1980068C188D19D2AF1261
:101A13001668D0E0FDD0E0FC22D083D082E9C0E09C
:101A2300E493A3C386F0C5F095F0F908E493A38685
:101A3300F0C5F095F0700BE493A3C3994005E90456
:101A43008002A3E475F002A42582F582E5F03583D4
:101A5300F583D0E0F9E493A3C0E0E493C0E022D09F
:101A630083D082ECC0E0EDC0E0E493A3FCE493A355
:101A7300FDED4C600D121AAEEC24FFFCED34FFFDBE
:101A830080EFE493A3FCE493A3FDED4C600D121AE5
:101A9300EDEC24FFFCED34FFFD80EFD0E0FDD0E062
:101AA300FCE493A3C0E0E493C0E022C0E0C3E4936A
:101AB30096087401939618400FE4936670080874AF
:101AC3000193661870007019A3A3C3E49396087476
:101AD30001939618A3A3400DD0E0D0E0D0E0021A02
:101AE3009EA3A3A3A3A3A3D0E022C0E0C0F088F0E9
:101AF300E4936670080874019366187000A8F0A355
:101B0300A3700BD0F0D0E0D0E0D0E0021A9EA3A3E4
:101B1300D0F0D0E02274F5121831EAFEEBFFEE2488
:101B230034F8EF3400F988088909EE2435121C5083
:101B3300F8EE2437121C50F50AEC850AF0A4FCAA2F
:101B4300F0850AF0EDA42AFDE82CF8E43DF97A25A6
:101B53007B001216CAEA850882850983F05407F8C8
:101B63007401B800028004C333D8FCC0E0E013134F
:101B730013541FF8EE28F8EF3400F9E8245DF582DA
:101B8300E93400F583D0E0F8E058600885088285E1
:101B93000983801DEE2436121C50F5F0EA84A8F068
:101BA300EE28F8EF3400F9E82438F582E93400F53B
:101BB30083E0F97F040218DD74F5121831EAFEEBB5
:101BC300FFEE2434121C50C0E0EE2435F582EF34CE
:101BD30000F583D0E0F08E828F83A3A3A3A3A3E0B9
:101BE300FAA3E0FB8E828F83A3A3A3A3A3A3A3E003
:101BF300FCA3E0FDECC39AF50AED9BF50BEE248004
:101C0300F508EF3400F509850882F583E064017077
:101C13002BEE2481F582EF3400F5831219EF121CA9
:101C230059740212176BE960137CFD7D04EEFAEF21
:101C3300FB120B9B850882850983E4F0AC0AAD0B8C
:101C4300EEFAEFFB121B18122412021BB6F582EFF9
:101C53003400F583E022C082C0838518828519830E
:101C6300E0F8A3E0F9C3EA9CEB9D5012C3EC98EDB6
:101C7300994019C3EA98EB99501279018010C3EA8D
:101C830098EB9940F5C3EC98ED9950EE7900D08329
:101C9300D08222EAC39CFAEB9DFB220000852187B8
:101CA3008522C622C0E074EF12191D759B00906156
:101CB30082E0A2E64003021D68E591A2E64003022A
:101CC3001D687591BF9003C2E064057008120D3959
:101CD300120D458003120D3F752100120DB1E990DD
:101CE30003C3F07900120DA5120B057A017B009056
:101CF30003C1E0F9121231907803E06442600302F9
:101D03001DB190055FE014F06003021DB1C2AF1274
:101D13001D1500782AD0E0F618D0E0F6E59F5407A9
:101D2300F97005908F798003908F9D780812160DB6
:101D3300E9C4C0E07829E65508F50808E65509F531
:101D430009740B7808121733D0E02508F8906270F5
:101D5300E0A2E740F8E8C333906272F0906270E06B
:101D6300D2E0F08049E0A2E55024E591A2E5501EBF
:101D73007591DF9003C2E0640D70139003E4E004F7
:101D8300F064287002E4F07A00E0F9120E23906107
:101D930081E0A2E35009E5E9A2E3500375E9F7A363
:101DA300E0A2E75009E591A2E7500375917F7F0414
:101DB30002197CC0E0C0D0C082C083906183E0A2DE
:101DC300E05009E5BFA2E0500375BFFEE0A2E15079
:101DD30009E5BFA2E1500375BFFDE0A2E25009E5AA
:101DE300BFA2E2500375BFFBE0A2E35009E5BFA227
:101DF300E3500375BFF7E0A2E45009E5BFA2E45046
:101E03000375BFEFE0A2E55009E5BFA2E5500375F6
:101E1300BFDFE0A2E65009E5BFA2E6500375BFBFEE
:101E2300D083D082D0D0D0E032C0E074F212191D3A
:101E3300E5A7A2E4500FE5A1A2E4500953A7EF756B
:101E4300A1EF121E80E5A7A2E5500CE5A1A2E55083
:101E53000653A7DF75A1DFE5A7A2E15009E5A1A21B
:101E6300E1500375A1FDE5A7A2E2500CE5A1A2E2B2
:101E7300500653A7FB75A1FB7F0102197C74F8126E
:101E830018317521019003C2E0640670077A007B64
:101E930000120D21A2AFE433FED2AF9003C8E06479
:101EA3000170187A207B009003C1E0F91213457A80
:101EB300207B009003C1E0F9121237906182E0D2D7
:101EC300E6F090055EE0602185C62280169003C788
:101ED300E064017008E5C654F84405F5C653BEFC3A
:101EE300121CA07401652160E4EEA2E092AF7F01B1
:101EF3000218DD00008E238F2485822885832785A1
:101F03001882851983E0CEA3E0CF852882852783B5
:101F1300EBC9EAC8EDCBECCA75F010C3E833C8E9E6
:101F230033C9EA33CAEB33CBC3EA9EF526EB9FF5FD
:101F330025B35004AB25AA26EC33CCED33CDD5F035
:101F4300DAAE23AF242274E912183174FA1217554A
:101F5300EAFEEBFF8C088D099003C2E024F7C394DB
:101F6300055006908FE9022070120C9D8A0A8B0B94
:101F7300EA450B700302206D120D578A0C8B0D126C
:101F83000D57EA650C7003EB650D60ECEEFCEFFD9D
:101F9300851882851983AA82AB83120D5D850A8217
:101FA300850B83A3A3780C12160D908FC1780C12A6
:101FB30015E7851882851983781412160D908FC141
:101FC30078141215E7780C7914121420501F780C2A
:101FD30079141215BF908F6D780C12144040478509
:101FE3000C10850D11850E12850F13804185141079
:101FF3008515118516128517137810790C1215BFE4
:10200300908F6D7810121440501C751000751100DC
:10201300751200751301781079141215BF781079B1
:102023000C1215868008908FE9781012160D74092A
:102033007810121567908F71780C12160D7810793D
:102043000C1214DF9003C2E06408600AE0640660C7
:1020530005E06405701C908FC5781012144050126F
:10206300908F7578101215998008908FE17810126F
:10207300160D850882850983781012161C740612C2
:10208300176B7F100218DD74F7121831120D6F9061
:10209300055CE064017010906245E4F0A3F053F432
:1020A300F343FE0C5390F3120D0FE5C654804449DD
:1020B300F5C6E59E547F644970F8906185740FF00E
:1020C30090055AE0F47002A3E0602C7508017509CD
:1020D3000090055AE07808121742E508F4FAA3E0E5
:1020E300600814600A14600C800DEA52808008EACC
:1020F30052908003EA52A079007F020218DD74F740
:10210300121831E9FEEAFF74016E700C7A807B00CD
:102113009003C1E0F9121231902544E493F460086E
:10212300E493F9120AE7800953C680E59E547F7051
:10213300FA120D1590055CE064017003120B1D90FB
:10214300055AE0F47002A3E0602A750801750900DE
:1021530090055AE07808121742AA08A3E060081411
:10216300600A14600C800DEA42808008EA42908085
:1021730003EA42A0120C9D8A088B09A808A909E862
:10218300496017E5E170FCE82414F582E93400F5B1
:1021930083E0F874FF68600288E174016F700A7A63
:1021A300019003C1E0F91212B50220FC74F1121878
:1021B300318A088B098C0A8D0B740F1217A1780CC6
:1021C30012160D908FC178081215E7908FC1780C05
:1021D3001215E77808790C12142050157808790C39
:1021E3001215BF908F6D7808121440401579018045
:1021F30013780C79081215BF908F6D780C12144068
:1022030040EB79007F080218DD74ED1218318A085B
:102213008B098C0A8D0B74131217A1780C12160DEF
:10222300908FC178081215E7908FC1780C1215E7CB
:10223300780C790812142040117808790C1215BF14
:10224300AA08AB09AC0AAD0B80227510007511000A
:102253007512007513017810790C1215BF78107977
:1022630008121586AA10AB11AC12AD137F0C02181D
:10227300DD908FC1780812160D8A828B837808123D
:1022830015FA7F040218DD74F51218318C828D83E0
:10229300780812160D8A828B8378081215D31222BE
:1022A300DEC3E098F0A3E0991222D0401E908FA1E4
:1022B300780812160D8A828B8378081215AC8E82E9
:1022C3008F83E02420F0A3E0344EF080A4F08E82CC
:1022D3008F83C3E09420A3E0944E22EA2404F8EB16
:1022E3003400F9E8FEE9FF8C828D83A3A3A3A3E066
:1022F300F8A3E0F98E828F832274F5121831E9FE78
:10230300900514E0FAA3E0FBEEC333F8E433F97469
:10231300E728F582748E39F583E02AF508A3E03BBC
:10232300F50978081219D8908FE512162B121EF8AA
:10233300740212176B8A088B098C0A8D0B74107840
:102343000812154EAA08AB097F040218DD74F112B6
:1023530018318A0C8B0D8C0E8D0F740F1217A1E0A0
:10236300FAA3E0FB74111217A1E0F508A3E0F50945
:1023730074131217A1E0FEA3E0FF78081219D8EA3C
:102383002401F508EB3400F509E4F50AF50B780CA4
:10239300790812145F908F81780812160D780C79E2
:1023A3000812145FAA0CAB0DAC0EAD0F121EF8741D
:1023B3000212176B8B09EA450960047A0180027ADD
:1023C30000EC2AFCED3400FDECF8EDF97A717B02A8
:1023D3001216CA88088909E4F50AF50B8E828F83E1
:1023E300780812161CECF8EDF97A717B021216CA02
:1023F3008A088B09740578081217428E828F83A38B
:10240300A3A3A3E508F0A3E509F07F080218DDC044
:1024130082C083E9906000F0D083D08222C0E07450
:10242300F212191DA2AFE433FED2AFC2C0E5D1A2AE
:10243300E4500653D1EF1211B3751A00EEA2E092E5
:10244300AF7F0102197CC0E074F212191DA2AFE440
:1024530033FED2AFE589A2E04006E589A2E150034D
:10246300121123758900758900C2C5751A00EEA281
:10247300E092AF7F0102197CC0E074F212191DAE25
:10248300A8D2AF121123C2EB751A00EEA2E780E1C6
:10249300C0E0C0D0E8C0E0A8A8D2AFC2C7751A0098
:1024A300E8A2E792AFD0E0F8D0D0D0E032C0E0C0ED
:1024B300D0E8C0E0C082C083A8A8D2AF758900C2AB
:1024C300C59008677401F0751A00E8A2E792AFD0CF
:1024D30083D082D0E0F8D0D0D0E032C0E0C0D0E8E2
:1024E300C0E0E9C0E0EAC0E0EBC0E0C082C083A284
:1024F300AFE433F9D2AF9009EBE0F8A3E0687008DA
:10250300539AFBA374018022C2E99009EBE0F874AB
:102513000128F0746B28F582E43409F583E0F5C1F2
:102523009009EBE0C394804002E4F0E9A2E092AFAB
:0F253300D083D082D0E0FBD0E0FAD0E0F98094E2
:10254400FFFFFFFFFFFFFFFFC082C083E9900B90F6
:10255400F00227D074F71217C5E99002E0F07C1856
:102564007D037AFF7BFF12081D9002E174FFF0A344
:10257400F0A3E4F0A3F079051207A59002E0E0F9D6
:102584001206CD7A3B7B081209FD0234DE74F41284
:1025940017C58A088B09EB548060309002E0E0F99B
:1025A4001212198A0A8B0BAE0AAF0BEE4F60138E10
:1025B400828F83E064B070031207BDEEFAEFFB1262
:1025C4001207AA08E5096480FB80047A007B0002F4
:1025D400279F74F21217C574FC121755EAFEEBFF1D
:1025E40074121217A11239C5EE4F700302267974C2
:1025F400021217A1EEF0A3EF1229DAECF0A3ED1208
:1026040029DAAA82AB831206C7E9F50A706AE508DB
:10261400450960648E828F831239ABEE4F60567A1F
:10262400067B0012129D8A0C8B0DA80CA90DE8499B
:102634007005750A13804188828983E4122686EE28
:10264400F0A3EF1239D6E508F0A3E509F09002E60D
:1026540012270D9002E67005123488801B1234761E
:102664008003EAFCEBFD8C828D8312270D70F38CC2
:10267400828D8380E3750A02A90A740412176B021F
:102684003BC5F0A312397CA32274F21217C5890A40
:10269400E975F017A4FEAFF09002E5E4F09002E3D0
:1026A40012270D600A1212A39002E3E4F0A3F0EEE5
:1026B400FAEFFB12129D8A088B09EA4509602FEE96
:1026C400FCEFFD79001211F59002E3E508F0A3E5B3
:1026D40009F07B0080081226F7E4F0A3F00BEBC3AB
:1026E400950A40F2E50A9002E5F079008002791338
:1026F400023BC5EB75F017A4F8A9F09002E3E028BB
:10270400FAA3E0398A82F5832212311AEA4B227441
:10271400F41217C5740C1217A11239A0FEE9FF7543
:102724000800750900800CE5082401F508E5093462
:1027340000F509C3E5089CE5099D503285080A8522
:10274400090B7403780A121742EA250AF8EB350BD1
:10275400F988828983A3A3A3A3A3A312355DEE659D
:102764000A7003EF650B70BFE8FAE9FB80047A0096
:102774007B00802774F41217C57900EAA2E0501B8D
:1027840075084075098F78081219D87C047D007A81
:10279400927B0B12079F740212176B7F0402189727
:1027A400C082C0839002E61227D7601C8882898386
:1027B400A3A3E06A7003A3E06B8882898370E8A313
:1027C400A3A3A312311680047A007B00D083D082A5
:1027D400020132123CABE8492274EE1217C574FCB4
:1027E400121755EAFEEBFF851882851983E4F0A3DE
:1027F400F0EE2402123468EE2405123983EE240428
:10280400F50EEF122D8FE024FE603924FC6046247F
:10281400FE605224FE605E24FE70030228F024FE53
:10282400700302295424FE700302296324FE7003FA
:1028340002297224FC700302298124FE70030229F8
:10284400900229CD9002FF7417F0A3E41229E2123A
:1028540004450229CD851882851983AC82AD831283
:1028640007C302299D851882851983AC82AD831222
:1028740007C902299D850C08850D0974021217A148
:10288400AC82AD838508828509831231161206EB6A
:102894008A0C8B0DAC0CAD0DEC4D603BE4F50CF5E6
:1028A4000D780C1219D8750CFF750D02780C1219DD
:1028B400D8750C00750D03780C1219D8740812170A
:1028C400A11219EF123E2712176BE9F50C700B12C7
:1028D400310C12045D800F750C0185088285098313
:1028E4001229D0123488850C080229A07402121708
:1028F400A1AC82AD83850C82850D83122EE1603CF0
:10290400850C82850D83A3A31219EF7510FF751131
:102914000278101219D87510007511037810121965
:10292400D874081217A11219EF123E2712176BE977
:10293400F509700B12310C120463800F75090185BF
:102944000C82850D831229D0123488850908804CA5
:10295400851882851983AC82AD831207CF803A85AE
:102964001882851983AC82AD831207D5802B851814
:1029740082851983AC82AD831207DB801C851882A3
:10298400851983AC82AD831207E1800D8518828599
:102994001983AC82AD831207E7E9F508E5086029DD
:1029A4008E828F83A3E06414601F850E82850F835B
:1029B400E09002FF1229DA123CA790030012348837
:1029C400E508A31229E212043F023377123CAB85D7
:1029D400188285198322F085188285198322F07C58
:1029E400FF7D02850A82850B8312311A2274EE124E
:1029F40017C574FC1217558A0A8B0B8C0E8D0FEABF
:102A04002405F508EB3400F5097C157D0079007A7E
:102A1400FF7B021211F5E5082402F50CE5091239D1
:102A24008685188285198385821085831178101212
:102A340019D8850882850983A3A3A3A3122ED812CB
:102A440019D8E5082405F510E5093400F5117810C6
:102A54001219D8850C82850D8312322D1206E57465
:102A64000612176B8A108B11AE10AF11E50A2402FF
:102A7400F50AE50B12346BEE4F7003022BAF80178F
:102A840074021217A112311688828983EAF0A3EB2B
:102A9400F09002FFE004F09002FFE0C394054003CD
:102AA400022BAFE4F510F51178101219D87510E85F
:102AB40075110278101219D87510E9751102781081
:102AC4001219D874061217A11219EF7910EEFCEF3F
:102AD400FD123E2912176BE9705E85088285098311
:102AE400A3A3A3A3A3A3A3E0F89002E8E06870481B
:102AF400122ED81219D87CE97D02E5082408FAE5DB
:102B0400093400FB1211EF740212176BE960298E6D
:102B1400828F83A3A3A3A31231169002FFE0F510C2
:102B24007402781012174274002510F5827403356C
:102B340011F583EAF0A3EBF074021217A185821059
:102B440085831178101219D874021217A11219EF83
:102B5400850C82850D8312313C12176B8A108B1100
:102B6400AE10AF119002FFE0F510751100740278F9
:102B74001012174274FF2510F874023511F9888277
:102B84008983A312270D7003022A7BE82403080813
:102B940008E93400F9EE4F6003022A8488828983AD
:102BA40074FFF0A3F09002FFE004F09002FFE060F5
:102BB4000A12310C1204517900800B8508828509B0
:102BC4008312347F790A02337774EA1217C574FECC
:102BD4001217558C128D13EA2405F50CEB123E11D5
:102BE4001239AF750800750900EA2402F510EB34B8
:102BF40000F51185188285198385820A85830B78EF
:102C04000A1219D8850C82850D83A3A3A3A3122DC0
:102C1400A51219D8E50C2405F50AE50D12346B78D4
:102C24000A1219D8850C82850D83122DA91206E586
:102C3400740612176B8A0A8B0BEA450B7003022D7C
:102C44004AEA2404F50EEB122D8F1239AF8A828BD7
:102C540083A3A3A3E0F98510828511831231206038
:102C640003022D4AE4F514F51578141219D87514D5
:102C7400E875150278141219D87514E975150278D7
:102C8400141219D874061217A11219EF7913AC0A89
:102C9400AD0B851082851183123E2F12176BE9F557
:102CA400096003022D4A9002E8E0F8E5087009E0A3
:102CB4002402900300F08014900300E0FCE8240256
:102CC400FAE43400FBEA6C7001EB707E850882AA9A
:102CD40082122ECF9414122EC7506B850E82850F4C
:102CE40083E0C0E074012A122D86D0E0F005088547
:102CF4000E82850F83A3E0C0E085080A7401250ACB
:102D0400122D86D0E0F005089002E8122DA51219C4
:102D1400D87CE97D0285080A7401250A122D9912CE
:102D2400176B9002E8E02508F50874FF6E700374D1
:102D3400FF6F6012EE24010EEF3400FFE508C39428
:102D4400145003022BF7E508601312312A85108210
:102D540085118312311612045779008014E5097025
:102D64000375090A851282851383EEF0A3EFF0A997
:102D740009740212176B7F0E02189785080C7401F0
:102D8400250CF58274033400F583223400F50F8595
:102D94000E82F58322FA74033400FB1211DD7402EF
:102DA400221239E522A3A3122DAF22123476FDEEAE
:102DB400FAEFFB2274EE1217C574FE1217558C0E2F
:102DC4008D0FEA2405F50CEB123986750B00900281
:102DD400FFE4F0F50AEA2402F508EB3400F5098073
:102DE400449002FFE0FA9002E8E0F8122ECF941724
:102DF400122EC7400D9002FFE0F87416C39890029B
:102E0400E8F0122ED81219D87CE97D0274002AFA4F
:102E14007403122D9C12176B9002E8E0F89002FFE5
:102E2400E028F0050AE50C2416F582E50D122D8A3A
:102E3400E0F8E50AC39850749002FFE0C39416507A
:102E44006BE50AC333F8E433F9E50C28FEE50D39E4
:102E5400FF851882851983AC82AD838E828F83129D
:102E64002EE17008750B0112347B8050E4F510F5E7
:102E74001178101219D87510E8751102781012190A
:102E8400D87510E975110278101219D87406121742
:102E9400A11219EF7916850882850983123E2F1233
:102EA400176BE9F50B7003022DE580BB7CFF7D02F7
:102EB400850882850983123116120469A90B7402EC
:102EC400023379E99400C365D03322EA28F8E43464
:102ED40000F9E822E0F51075110078102212336E23
:102EE4008A108B11AC10AD11EC4D2274EA1217C587
:102EF40074FC1217558A0C8B0D8C128D13EA240561
:102F0400F50AEB12346B750800750900E50A240212
:102F1400F510E50B3400F51174021217A185820E29
:102F240085830F780E1219D8850A82850B83A3A393
:102F3400A3A312398B1219D8E50A2405F50EE50B63
:102F44003400F50F780E1219D8851082851183127A
:102F540034711231101206E5740612176B8A0E8B47
:102F64000FAE0EAF0FE50C2402F50EE50D3400F59F
:102F74000F80388882898374FFF00508122D7F74CE
:102F8400FFF005089002E8E0F50C750D00780C12CE
:102F940019D87CE97D0285080C7401250C122D9941
:102FA40012176B9002E8E02508F508EE4F60278EB3
:102FB400828F83A3A3A3E0F9850E82850F83123148
:102FC40020EE2404123983E96027850C82850D8361
:102FD400123102123488E50870030230E812312AF3
:102FE400850E82850F8312311612046F7900023028
:102FF400FDE4F514F51578141219D87514E875154F
:103004000278141219D87514E97515027814121976
:10301400D874081217A11219EF7911EEFCEFFD858F
:103024000E82850F83123E2F12176BE9F509709AF1
:10303400850882AA82EA9002E87009E024049003D9
:1030440000F08025E0F8900300E0F514E82404FC87
:10305400E43400FDEC65147001ED7081122ECF9400
:1030640012122EC74003022FE1850C82850D83E0E6
:10307400C0E074012A122D86D0E0F00508850C8288
:10308400850D83A3E0C0E0122D7FD0E01231458589
:10309400820C85830D780C1219D874041217A112AE
:1030A40019EF85108285118312313C12176B8A0C3B
:1030B4008B0DAE0CAF0D85080C7401250CF8740350
:1030C4003400F9EE4F7003022F7785188285198337
:1030D400E088828983123145A3E0C0E0122D7FD0BD
:1030E400E0022F85E509700375090A850A82850BBC
:1030F40083123102123488A9097404022D77123C18
:10310400AB851282851383227CFF7D02850A82852A
:103114000B8312311A22E0FAA3E0FB2212311A12B5
:1031240006D3E9F50922900300E0F5F0E508849060
:1031340002FFF07CFF7D0222122DAF1206F174040F
:1031440022F005088518828519832274EC1217C5AC
:1031540074FE1217558A088B098C0E8D0FEA24050C
:10316400FEEB3400FF123358EE2418123983EA457B
:103174000B70030231FB12334150291232208A10A2
:103184008B11EA4511606B7912AC0AAD0B8508828C
:103194008509831231168510828511831217C3E9BC
:1031A400F50A7058E4F50AF50B780A1219D88E82DC
:1031B4008F83A3A3E0F50A780A1219D8EE24031228
:1031C4003468780A1219D88E828F8312322D12082D
:1031D4000B740612176BE9F50A7021850C82850DB4
:1031E40083E0701F850882850983123116120475E5
:1031F4008011750A0E8009750A018004E50A6003CE
:1032040012347B850C82850D83E060047900800292
:10321400A90A740212176B7F0C021897851882850D
:10322400198312311A1207F922123476FD850882A5
:1032340085098312311A2274EE1217C574FE12170F
:10324400558A088B098C0C8D0DEA2405FEEB34009D
:10325400FF750E00123358EA450B700302331F1238
:103264003341502C1232208A0E8B0FEA450F604AEC
:103274007912AC0AAD0B8508828509831231168553
:103284000E82850F831217C3E9F50E600302332201
:1032940085088285098312355DAA0AFB12333370CF
:1032A400147AFF7BFF123333606C88828983E50ACA
:1032B400F0A3E50BF0750A008007750E0E805F051C
:1032C4000A9002E5E0FAE50AC39A504AE50A75F065
:1032D40017A4FAABF088828983A3A3E02AFAA3E0B7
:1032E4003BFB8A828B83123471EC4D70D2750A17C2
:1032F400750B00780A1219D8EEFCEFFD1211DD747B
:103304000212176BEEFCEFFD8508828509831231EA
:103314001612047B8014750E098003750E01123C8D
:10332400A3850C82850D83123488A90E022EC21245
:1033340007ED8A108B11A810A911E84922E5082489
:1033440002F508E5093400F5098A828B83A3A3A357
:10335400E0A2E522851882851983AC82AD838E8232
:103364008F8312336E8A0A8B0B22E0FAA3E0FB12DE
:1033740006EB22740412176B7F0A02189774EC127E
:1033840017C58C108D11EA2405F50CEB12398675DE
:103394000F00EA2402F50AEB12346B850A82F583E6
:1033A400123116123EB5700302345D750E00807141
:1033B400850C82850D83E06401704F8E828F83A318
:1033C400A31219EF8E828F83A3A3A3A3E0F5127532
:1033D400130078121219D8EE2405F512EF3400F513
:1033E4001378121219D812311012080B740612171E
:1033F4006BE9F50F6014850C82850D83E4F0123CB3
:10340400A38510828511831234887C177D0079008E
:10341400EEFAEFFB1211F58E828F83E4F0A3F00530
:103424000E9002E5E0F8E50EC398501EE50E75F027
:1034340017A4F8A9F0850882850983A3A3123E1B6B
:10344400123471EC4D60030233B48508828509831C
:1034540074FFF0A3F0E50F7006123110120481A975
:103464000F02321BF50AEF3400F50B22A312347657
:10347400FD22E0FCA3E0228E828F83123CAB850EFA
:1034840082850F83E8F0A3E9F022C082C083900212
:10349400E1E06A7003A3E06B70067AE17B028004CA
:1034A4007A007B000227D074F71217C57F00EF75EE
:1034B400F003A4F8A9F0EC28F8ED39F9888289839F
:1034C400E06A7003A3E06B7006E8FAE9FB800B0F77
:1034D400EFC3940240D87A007B007F0102189774EE
:1034E400F61217C5123A9470067A007B008007A37F
:1034F400A3A3A3123116023B5574F21217C5E9FEB9
:10350400740E1217A112355D74101217A11239C569
:103514008C828D83E06402703BA3123CA78882896D
:1035240083E0F50CA3E0F9A80C7402687003742915
:10353400697021750C02750D00780C1219D8780881
:103544001219D8780A1219D8EEF912082F74061233
:10355400176B80027901023BC5E0F50AA3E0F50B85
:103564002274E81217C574FB121755E98518828571
:103574001983F08A168B178C0E8D0F741F1217A1E6
:103584001239C574211217A112355D74231217A1C3
:103594001239AF7510008C828D83A3A3A3E0A2E43B
:1035A400502A741D1217A11232268A828B83E58257
:1035B40045837003023671790AAC0EAD0FAA16ABBF
:1035C400171217C3E9F5106003023674850E82855D
:1035D4000F83E06402600302392AA3123CA7850822
:1035E40082850983A3858212858313E50E2406F55B
:1035F4000CE50F12398688828983E0FAA3E0F9EAA0
:103604002400F514E439F5157814121A6201000047
:10361400280128393607000228103703288036008D
:10362400293A38012962380229093803293A380429
:1036340029CB382A39EE4F703E850C82850D8312D2
:1036440039A0FAE9FB8A828B83E0850A82850B83A1
:103654001239DC1219D88A828B83A3123476FDAA1C
:1036640008AB091211DD740212176B800375100E7A
:10367400A9107405023E0975100B80F4EE4F70F723
:10368400850A82850B837401F01239B58508828519
:103694000983F07C007D00850E82850F83A3A3A39C
:1036A400A3E02401FAA3E03400FB1206EBEA4B602A
:1036B400418A828B83E02402F8850A82850B83E0A9
:1036C40028F0EA2404F8EB3400F988828983E08541
:1036D40012828513831239EE1239DC1219D88A82C8
:1036E4008B83123470E5082403FAE5093400FB02E5
:1036F4003667850A82850B83E02404F07C047D0010
:103704007900AA12AB131211F5023674EE4F60035E
:1037140002367B1239B5FEA3E0FF850A82850B834E
:103724007404F0EE850882850983F0EF85128285A2
:103734001383F074031217A1AC82AD83EEFAEFFB8E
:10374400123A8270030237E68A828B83A3A312396A
:10375400AB74011217A185820E85830F780E12199E
:10376400D874051217A11219EF7CFF7DFF1206F120
:10377400740412176B8B0FEA450F7033850C828526
:103784000D8312398B1219D8850C82850D83A312EF
:1037940019EF7C027D007A117B9012051D740412CE
:1037A400176BE9700A74011217A174FFF0A3F08E6D
:1037B400828F83E064027034750C02750D00780CFE
:1037C4001219D88E828F83123470E5082404FAE526
:1037D40009122D9C12176B850A82850B83E0240243
:1037E400800974011217A1EEF0A3EFF0740112170F
:1037F400A112399CF074011217A1A3123994A3A346
:10380400A3F0023674EE4F600302367B850C82858A
:103814000D83123471AA16AB17120823850A828508
:103824000B837402F0EA850882850983F08512828D
:10383400851383EB80CBEE4F600302367B1239B5E0
:10384400F8A3E0F9850A82850B837402F0E8850801
:1038540082850983F0E985128285138380A3850C10
:1038640082850D831231161211D7EAFC8C82A8824C
:10387400C39EE49F404BE86E7001EF70047C0080AF
:103884001F851882851983E0FAEE2AFAEF3400FBCB
:10389400C3EA98EB94005003E08004EECCC39CFC94
:1038A400EC850A82850B83F08C0A750B00780A126A
:1038B40019D8850C82850D83E02EFCA3E03F0236E7
:1038C40062751007023674EE4F600302367B850C76
:1038D40082850D83123CA7850A82850B837407F0C9
:1038E4008882898312399412397CE0851282851387
:1038F40083F0E82402FAE93400FB8A828B831239CC
:10390400941239CD12399CA31239D61239A5F0E894
:103914002405F8E93400F9888289831239A5A312B1
:1039240039EEA3023802741D1217A1123A8D7003E6
:10393400023671123CA7880C890DE8450D7003020C
:1039440036718E108F1178101219D8780A1219D87E
:1039540078081219D874061217A1E0F9AC0EAD0F4D
:10396400AA16AB17850C82850D831217C374061231
:10397400176BE9F510023674F088828983A322F567
:103984000CEF3400F50D22E0F50E750F00780E22D1
:10399400E0850882850983221239F522123CABE8BE
:1039A400221239F5A3A322A3A3A3A3E0FEA3E0FF5D
:1039B40022850C82850D83E0F8A3E0F5838882E0FC
:1039C40022E0F508A3E0F50922A3A3F08A828B8301
:1039D400A322122688A3A322F08A828B831239E5BC
:1039E40022E0F50A750B00780A2212397C1239F5A7
:1039F40022E0850882850983A3A32274EE1217C5E9
:103A040074FE1217558A0A8B0BECFAEDFB74141230
:103A140017A1E0F510A3E0F51174161217A1E0FE4A
:103A240074181217A1E0F50EA3E0F50F851882852E
:103A34001983AC82AD83123A82603E85188285195F
:103A440083123A8D602FA3A31239C5E50845096096
:103A540024780E1219D878101219D8EEF9AC0CADDE
:103A64000DAA0AAB0B8508828509831217C3740457
:103A740012176B8006790E80027901022EC212069B
:103A8400EB8A0C8B0DEA450D2212311A123A94225C
:103A94001207B78A828B83E58245832274F6121754
:103AA400C574FE121755740C1217A11239A085188B
:103AB40082851983F074011217A1E9F0E4F508F581
:103AC4000978081219D875080278081219D87404EC
:103AD4001217A185820885830978081219D812085B
:103AE4000B740612176B740212176B806474F7124E
:103AF40017C5EAFEEBFF89087C187D03120823EA48
:103B04005402600BA908EEFAEFFB1206DF8002797B
:103B1400010234DE74F61217C574FF6A700374FF71
:103B24006B701C7B00EB75F003A4F8A9F0EC28F88B
:103B3400ED39F9123B5A0BEBC39402501480E61290
:103B440007F38A088B09A808A909E8496003123B0E
:103B54005A7F020218978882898374FF122686E4AA
:103B6400F02274F61217C51207F38A828B83E5825A
:103B740045836006A3A3E0FA80027A007B0080D12B
:103B840074F21217C58A088B09ECFEEDFF740E124D
:103B940017A1E0F50A123BCA701CEEFCEFFD7AFF98
:103BA4007BFF123BCA70047911801688828983E5F1
:103BB40008F0A3E509F088828983A3A3E50AF079D4
:103BC400007F060218971207F38A0C8B0DA80CA924
:103BD4000DE8492274EE1217C5EAFEEBFF8C088D3E
:103BE40009890C74121217A1123CA774141217A19C
:103BF40012347174161217A1123116750D00EC4DA2
:103C04006003023C9B7402650C6003023C9688824C
:103C14008983123476F9EC2400F50EE439F50FEAC1
:103C2400F4F8EBF4F9EC58F8E50F59F9E849705D4C
:103C3400E5082406F8E5093400F9880A890B888226
:103C4400F583122DAB1208238A108B11E50E651033
:103C54007004E50F65116042780E1219D8850A8246
:103C6400850B83122DAB120829740212176BE9F528
:103C74000D7027780E1219D8850882850983A3A3AD
:103C8400122DA9120841740212176B800D750D8054
:103C94008008750D0D8003750D0BA90D02337C8E04
:103CA400828F83123CAB22E0F8A3E0F92274E8127D
:103CB40017C574E7121755851882851983EAF0A38E
:103CC400EBF08C168D17890E74311217A1E0F512E2
:103CD400A3E0F51374331217A1E0F514A3E0F5156E
:103CE40074351217A1E0F50F750800750900E50990
:103CF40075F003A4F8A9F0851882851983123E1B78
:103D0400E0F47003A3E0F47003023DF9EE2402F53D
:103D14000CEF123E11E07003023DF985160A851777
:103D24000B780A1219D8AC14AD15AA12AB131207EA
:103D3400AB740212176B8A0A8B0BEA450B700302F1
:103D44003DF9E4F510F51178101219D8740612171C
:103D5400A185821085831178101219D8740912175D
:103D6400A185821085831178101219D88512828555
:103D74001383A3A3A3A31219EF7914AC0AAD0B8E7A
:103D8400828F83123E2F12176BE97069850A828530
:103D94000B83A3A3A3A3123CA774021217A112348A
:103DA40088850C82850D83E0A2E05018A90E740268
:103DB4001217A1AC82AD838E828F83123116120743
:103DC40003E94208850C82850D83E0A2E15026E5D3
:103DD4000FF50A780A1219DCA90E74031217A1ACA4
:103DE40082AD838E828F831231161206FD74011206
:103DF400176BE942080509E509C394025003023C24
:103E0400F2A908741912176B7F100218973400F581
:103E14000D850C82F58322E028FEA3E039FF8E8213
:103E24008F83227916850A82850B8312311A120830
:103E34000574082274F21217C5EAFEEBFF890B74AD
:103E440001650B600E7402650B70637901120A1B25
:103E5400E9705BEEFAEFFB123EB56047750A00802D
:103E64000B7C177D0079001211F5050A9002E5E03C
:103E7400F8E50AC3985021E50A75F017A4F8A9F0EB
:103E8400850882850983A3A3E028FAA3E039FB8A85
:103E9400828B831227D770C985088285098374FFB2
:103EA400F0A3F07C187D03EEFAEFFB12081D023B31
:103EB400C51207ED8A088B09EA45092274F2121724
:103EC400C58A088B09ECFEEDFF740E1217A112359A
:103ED4005D900B90E0F4603D7A097B00121201EAD8
:103EE4004B60328A828B8374B1F0A3E41239CFA37E
:103EF4001239CDA3E508F0A3E509123F1CEEF0A3A7
:103F0400EF123F1CA3A3E50AF0A3E50BF0900B907E
:103F1400E0F912120D023BC5F08A828B83A3A3A39E
:103F2400A3A322C082C0839061907404F0A3744858
:103F3400F0A3E4F09061807440F09061BC7407F0E9
:103F44009061877469F09061B67416F07900120B71
:103F54000B7902120B11902544E493F46006E49368
:103F6400F9120AE77905120E05024369C082C0837B
:103F7400E9540FF9906185E0696012E5C654804404
:103F840049F5C6E59E547F644970F8E9F053C6804C
:103F9400E59E547F70FA02436974F71217C5E5A8C9
:103FA400FE53A87E120AF3C2BA539AFEC289759BC5
:103FB40000C2C2120AF975A91175B905120AFFD215
:103FC400BA439A0174805E42A80248F6C082C08354
:103FD400906181E4F0A302436675E9007591007570
:103FE400BF00020132C082C083906181E4F0A374F7
:103FF400C0F0A3E4024368C082C08374F81217556A
:104004009003C41247D8E84970030240B29003C435
:10401400E0544060237908851882851983AA82AB0D
:1040240083120C01851882851983AA82AB83120836
:10403400AD9003C4E054BFF0E054806010790C7A72
:10404400807B05120C019003C4E0547FF0E0A2E0F1
:10405400500879001240BA54FEF0E0540260087926
:10406400011240BA54FDF0E0540460087900124093
:10407400C554FBF0E05408600879011240C554F7B8
:10408400F0E05410600879021240C554EFF0E05497
:1040940020600879031240C554DFF0A3E0540160A6
:1040A4000D120B1D1208BF9003C5E054FEF07408F6
:1040B40012176B024369120B0B1208B39003C4E08E
:1040C40022120B111208B99003C4E022C082C083EB
:1040D400E9600514602A804F90619A7433F0A374E8
:1040E40055F09061A0743AF090055CE064017009A9
:1040F400C2919003C67467802D9003C674618026B4
:1041040090619A743FF0A3745AF09061A0747FF0A8
:1041140090055CE064017009D2919003C6747180CB
:10412400059003C6746AF0024369C082C083E960E3
:104134000B14600D14600F146011802090254880CA
:1041440015902549801090254A800B90055CE06409
:104154000160F390254BE493906186F00243697407
:10416400EE1217C574F4121755851882851983AC9D
:1041740082AD8375838F75828D74041216689025C1
:104184004893F460030242F5907808E0C394025027
:10419400030242D574041217A1AC82AD8375838FD8
:1041A4007582267408121668F97AFF7BFF7FFF7EFA
:1041B400008982858210801874086E700302428A16
:1041C40074096E700302428A740A6E700302428A92
:1041D400E510C333FCE433FD74041217A1E5822C0B
:1041E400F582E5833DF583E0F50EA3E0F50F8E0837
:1041F4007509007402780812174274482508FC7483
:10420400783509FD8C828D83780812160D74087830
:104214000812154E85080C85090D8C828D8378084B
:1042240012160D7418780812154EE50C4508F50899
:10423400E50DF509C3E50E9508E50F95098C828D0A
:1042440083780812160D8C828D83780812160D74EB
:10425400187808401412154EE50C4508FCAD0DE520
:104264000EC39CFCE50F9D800F12154EE50C45080E
:10427400C3950EFCE50D950FFDC3EC9AED9B50061E
:10428400ECFAEDFBEEFF0EEEC3941350030241BCB7
:1042940074FF6A700374FF6B602D8F0874027808D2
:1042A4001217427448124F8474783509F5837808DC
:1042B40012160D851882851983E5822510F582E58D
:1042C40083124D11E508F009E9C394045003024137
:1042D400AD75080175090078081219D8740212170F
:1042E400A1AC82AD837A527B091210FF74021217BB
:1042F4006B740C12176B7F0A021897C082C08390EC
:104304006186E0F890254BE49368700990254AE4AF
:1043140093906186F09061AE7468F0A3746AF09033
:10432400624574FBF0A304F053F4FD43FE029005D0
:104334005C7401F09061A0E0643A7004790080023A
:104344007901120B0B024369C082C08390050EE011
:104354006401700A900513E06004790C800279000E
:104364008003F0A3F0D083D082020132C082C083E4
:1043740075E1F1900511E0604D146008146051146A
:1043840060498051120B2F900507E0F97A087B05EC
:10439400120D87908F8912162B120DBD908FC912A2
:1043A400162B120D93900512E0F9120D9F7901124C
:1043B4000DF9900505E024161244FE7447F0A37429
:1043C4000BF07900809F120B3580BC120B3B80B739
:1043D400120B4180B2791280EB74F41217C575D9AF
:1043E4000D9004F6E0A2E0E4331313F812446A4893
:1043F4004401F5D978001244E840FB780088087439
:10440400F7124F8474041244F240F275E19590045B
:10441400F6E0F97AF77B04120D8D900BB274BDF0BF
:10442400A3740A12450D12452D1245241246651235
:104434004474780812160D908F8578081215999097
:104444008FC178081215E71244F8780812161C90E8
:104454000505E024141244FE7413F09003C27402A0
:10446400F07F04021897900507E0C4333354C02248
:10447400900505E0F8A3E0F5838882A3A32274F6EF
:104484001217C51246368AD978001244E840FB78E0
:1044940000800612459C1246E8E8C39940F512468E
:1044A400281244E840FB78008008124F80740512FB
:1044B40046E8E8C39940F375E195900BB274C9F0EE
:1044C400A3740A12450D12451712162B1244F81242
:1044D4001637900505E024141244FE7412F090037C
:1044E400C20248D3880874082508F5827405124866
:1044F40044940622900505E0240EF8A3E012450535
:10450400223400F9888289832212464E74C3F0A3B0
:10451400740A2212452D124524124669908FA12255
:10452400F0A374DBF0A3740A22124531221245353C
:1045340022F0A3746DF0A3740C2274F61217C51242
:10454400459112446A4402F5D978001244E840FBCC
:104554007800800612459C1246E8E8C39940F57538
:10456400E195900BB21245A7F0A31245A712451A84
:1045740012162B1244F8121637900505E024141273
:1045840044FE7414F09003C274040248D5900517D5
:10459400E0F9740729F5D922880874182508F582EA
:1045A40074052274D51245B41245B4F0A3740A22DA
:1045B400F0A3740AF0A374D52274F61217C5124638
:1045C4003674064AF5D978001244E840FB78008036
:1045D4000612459C1246E8E8C39940F51246281293
:1045E40044E840FB78008008124F8074051246E8C6
:1045F400E8C39940F375E195900BB274CFF0A374BE
:104604000A12464412451712162B1244F812163792
:10461400900505E024141244FE7415F09003C2744E
:10462400030248D590053712459474044AF5D978A5
:104634000022124591900507E0C4333354C0FA2296
:1046440012464E746DF0A3740C2212465222124686
:104654005F746DF0A3740C12465F22124535F0A30B
:104664002212466922F0900BC0746DF0A3740C12F0
:104674004652746DF0A3740C124531F022C082C00E
:1046840083124474A3A3A3A3E402436674F712172A
:10469400C51251C6F8740339F9E82405FAE934005F
:1046A400FB8A828B83124F3588828983A3A3A3A3B9
:1046B400A3A3A3A3A3ECF0A3EDF088828983A3A30F
:1046C400A3A3A3A3A3E024FFF8A3E034FFF98A8201
:1046D4008B83E8F0A3E9F00248F6880874602508A3
:1046E400F5827405124E5CF5D90822EAFEEBFF90C0
:1046F40061D0E0F87480C398FAEE2483221247074D
:10470400940422124D1FE0F5D90AEAC32274F6126A
:1047140017C5EAFEEBFF9061D0E0707575D90E7590
:10472400D90375D9047A008A08EE25081252942414
:104734008C1247AA40F17A008A08EE250812529496
:10474400248412470140F175E1957908EE248C1216
:1047540047A3248412479A7C008C82AA82C3E49AD9
:10476400F895E0F9EE28F8EF39F9E8248BF582E9B9
:10477400124E58C0E0EE2A12529424ABF582E9128C
:104784004D11D0E0F00CECC3940840CD1248608089
:104794000279000248D6FAEF3400FB120BF522121C
:1047A400479A7904EE22124707940822C082C083F4
:1047B40075D90275D90375D90575E195EA2470F5A3
:1047C40082EB1247D5EA2472F582EB124872024357
:1047D40069124D221247DC22E0F8A3E0F92274F6B4
:1047E4001217C5EAFEEBFF900560740612484E12DC
:1047F40019D87C017903124B7A12176B75D9067597
:10480400D903780012483440FB75E1959003C2E067
:1048140064087017EE2470F582EF1247D5EE247207
:10482400F582EF124D11E8F0A3E9F079010248D6C0
:10483400880874602508F58274051248449405229A
:10484400124D22E0F5D908E8C322F0750860750915
:104854000578082275E1957904120DC3EE2470F5EC
:1048640082EF124D221247DCEE2472F582EF124DD4
:1048740022E8F0A3E9F079012274F61217C5EAFEE2
:10488400EBFF9061D0E070437901900560740BF008
:104894009003C2E06407701775086075090578080D
:1048A4001219D87C010909124B7A12176B79057415
:1048B4000129F5D975D903780080031246DEE8C3CF
:1048C4009940F875E195124860800279008003747C
:1048D40001F07F0202189774F71217C5EAFEEBFF86
:1048E40075D90375D90375D90DEE24DE1248FB1270
:1048F40048587F01021897F582EF124E5CF5D922D1
:104904007F030218977401250AF5D975D903780035
:104914002274F51217C512498A600478048002785B
:1049240000E8240BF8EAC3984041750A0990056031
:104934007409F079081249736014750860750905E3
:1049440078081219D8124B7212176B750A0D124996
:104954000980031246DEE8C3950A40F775E19579AC
:1049640004120DC3124AEF7901800279008091EE9E
:1049740024E3FCEF3400FD7A617B05120BEF85081C
:1049840082850983E0221246EFF8EF124F29F5835E
:10499400E02274F31217C58A088B09124B85FAE5D5
:1049A400082483F50AEB124A5460047804800278E0
:1049B40000E82408F8EAC3985003024A4D750C062F
:1049C400900560740CF09003DFE0900561F07402D0
:1049D400C0E0F97CE07D037A627B05120BEFD0E046
:1049E400F97CE27D03120BEF850A82850B83E0607C
:1049F4001C750A60750B05780A1219D87C067903B0
:104A0400AA08AB09124B7A12176B750C0A740125AC
:104A14000CF5D975D90378008009880A7460250AD1
:104A24001246E4E8C3950C40F175E1957904120D42
:104A3400C3E5082470F582E5091247D5E508247218
:104A4400F582E509124872800279007F0502189701
:104A54003400F50B850A82F583E02274F61217C53B
:104A6400EAFEEBFF124B85FCEE2483F8EF124B8039
:104A740060047A0480027A00EA2404FAECC39A40BF
:104A84005E7A02900560EAF0EE24F5F582EF124AB0
:104A9400FB601975086075090578081219D87C023D
:104AA4007903EEFA124B7A12176B7A0674012AF51F
:104AB400D975D903780080031246DEE8C39A40F81A
:104AC40075E195EE2474124AE8EE2480124AE81245
:104AD4004AEF7904120DC3EE240D12486380027963
:104AE400000248D6F582EF124C6B22EE241DF582AB
:104AF400EF124C6BA3F022124E5C900561F0888299
:104B04008983E02274F61217C5124B85FEEA2483CA
:104B1400F8EB124B8060047C0480027C00EC2404DB
:104B2400FCEEC39C40437C029005607407F0EA24C9
:104B3400F6F582EB124AFB60157508607509057875
:104B4400081219D87903124B7A12176B7C06740178
:104B54002CF5D975D903780080031246DEE8C39C8E
:104B640040F875E1957901800279000248D67C0904
:104B74007903EEFAEFFB120C61740222124505E090
:104B8400229061D0E0F87480C3982274F51217C59E
:104B9400E9FEA2AFE433F50AC2AF7F00EA246FF85E
:104BA400EB3400F980010F88828983E0FCEFC39C19
:104BB40050188F08EA2508FCEB3400FDEC246BF553
:104BC40082ED124E586E70DE8010EA2CFAEB34003F
:104BD400FB124D0BEE124B0104F0E50AA2E092AF7A
:104BE40002490474F61217C5A2AFE433FFC2AFEA58
:104BF400246FF8EB125296FCE9FD8C828D83E0144D
:104C0400F07E0080218E08EA2508F8EB12529624E3
:104C14006CF582E9124E58C0E0E8246BF582E91283
:104C24004D11D0E0F00E8C828D83E0F8EEC39840F5
:104C3400D4EA246E124D0E74FF124C60EFA2E0927F
:104C4400AF0248D6C082C083E5A8F8C2AF124D0BAC
:104C5400E9124C60E8A2E792AF024369F0EA246AE1
:104C6400F582EB124C6B22124D22E4F02274F21204
:104C740017C58C828D83A3A3A3A3E0541FF0EA2459
:104C840036124FCD8E828F83E4F0F50C850C82852D
:104C9400820AEC250AF8ED124F25F583E0C0E0EA1C
:104CA400250AF8EB124D15D0E0F0750D0085088249
:104CB400850983E0F50A750B00E50D780A121723C0
:104CC400E50AA2E0502AE50C33333354F8250DC02D
:104CD400E08E828F83E0F8EA28F8EB1252962438AB
:104CE400F582E9124D11D0E0F08E828F83E004F05A
:104CF400050DE50DC3940840B4050CE50CC39405FB
:104D0400408A7F06021897EA246BF582EB124D2243
:104D1400223400F9E8245D124D1F22F582E93400A3
:104D2400F5832274F61217C59003EEE06401700750
:104D34007A007B00024E527E009003F4E070F1741E
:104D440001F0A3E4F0A3F090045404F0900457E4B9
:104D5400F0A3F090045A04F09003F7E4124E699023
:104D6400040104F0900427E4F0908FE112162B90D4
:104D7400040A12163790040EE4F0A3F0A3F0900492
:104D840072F0900466F090045B7480F0A3E4F090F9
:104D94000461F0900459F09004DD124E619004E631
:104DA400F0900475F09004C5F0A3F0908FE1121612
:104DB4002B9004C7121637908FE112162B9004CB58
:104DC4001216379004D1E4F09004D3F09004CFF09D
:104DD4009004E9124E618E08745D124F84740412BB
:104DE4004D1174FFF00EEEC3940440EA7E008E82EF
:104DF400A88274FD28F5827404124E58C0E0744FE2
:104E040028F5827404124D11D0E0F00EEEC394051F
:104E140040DC7E008E82A88274D628F58274031248
:104E24004E58C0E074D528F5827404124D11D0E0B8
:104E3400F00EEEC3940840DC9003EEE004F064014D
:104E440070089003F6E09003F0F07AF27B030248D6
:104E5400D6F582EF124E5C22124D22E022124E69E8
:104E6400A3124E6922F0A3F0A3F0A3F022C082C0E3
:104E740083EA2403F582EB124E586008E4F09003B1
:104E8400EFE014F09003EEE014F070069003F07479
:104E9400FFF08A828B83A3A3E4F0900502E0700DF7
:104EA4009003EFE0640170057900120DA5024369D7
:104EB400C082C0839003F5E4F09003F4F09003EE15
:104EC400F0A3F0A374FFF075E1F1024369C082C05E
:104ED40083780079009003F5E0600478F279038820
:104EE400828983A3A3A3A3E0F902436974F612178A
:104EF400C5EAFEEBFF120BA7EE2465F8EF124F256F
:104F0400124F33EC4D60109003F01251BE850882AD
:104F1400850983E4F0A3F0EEFAEFFB120C97024844
:104F2400D6124F29223400F988088909888222F58B
:104F340083E0FCA3E0FD2274F71217C5EAFEEBFF41
:104F44008E828F83A3A3A3A3E0FA7B00120925EE2C
:104F5400FAEFFB120BB9120C790248F674F6121729
:104F6400C57800880874D6124F847403124AEB087B
:104F7400E8C3940840ED9003D60248D388087438F7
:104F84002508F5822274F61217C5EA240D124FCDB6
:104F9400EC2403F8ED3400F988088909EC2407F8B7
:104FA400ED125296FCE9FD124FD71216CA8E828F6B
:104FB40083E8F0A3E9F0124FD71216CA8B09EA4529
:104FC400096003124FEA0248D6F8EB3400F9E8FE10
:104FD400E9FF228C828D831247DC85088285098350
:104FE400E0FAA3E0FB228E828F83E02401F0A3E0A9
:104FF4003400F02274F61217C5EA242EF582EB343D
:1050040000124F33EA2470124FCD780079FAECFA8B
:10501400EDFB1216CA8E828F83E8F0A3E9F07800C4
:1050240079FAECFAEDFB1216CA8B09EA450960031A
:10503400124FEA0248D674F01217C5EAFEEBFF7469
:10504400101217A1780812160D120D518A0C8B0D2F
:105054008C0E8D0F908F7D780C121599908FC178DE
:105064000C1215E7780C1219D48E828F83124477B0
:1050740012162B1221AF740412176BE9600302514C
:10508400228E828F83E02402F8A3E0125296FAE97A
:10509400FB8A828B8378081215AC908FC178081232
:1050A400160D8A828B8378081215FAEE240BF5828A
:1050B400EF124D11C082C0838E828F83A3A3A3A35A
:1050C400A3E02401F8A3E03400F9D083D082E0689F
:1050D4007003A3E069700479018045EE2407F8EFBA
:1050E400124505124FEEEE247412529B7014EE24F6
:1050F400751251297003A3E06D70078A828B8312A5
:105104004FEEEE248012529B7014EE24811251292A
:105114007003A3E06D70078A828B83124FEE7900CF
:105124007F08021897FAEF3400FB8A828B83E0FC35
:10513400A3E0FD88828983E06C2274F31217C51200
:1051440051C6FE740339FFEE2404F50AEF3400F56A
:105154000BEE2465F508EF3400F5098010124F3585
:10516400850882850983E4F0A3F01251B88508828A
:10517400850983124F35EC4D6030EE2464124E5590
:10518400F50C780C1219DCEE2463124E55F9EEFA84
:10519400EFFB120BE3740112176BE9850882850992
:1051A4008360BA1247D8E84970077C007D00125129
:1051B400B8024A4F850A82850B83E0FA7B00120805
:1051C400E3229003F0E0F875F004A4C8AAF02AF9E9
:1051D40074F2282274F21217C5EAFEEBFF890A74EE
:1051E4000E1217A1E0FAEE246212529B60030252DF
:1051F4008F124B85F50CEE2483124E55FB60047818
:1052040004800278008908E928F8E41252962402FE
:105214000808E93400F9E50C98E499A2D265D03382
:105224004065EA7005750B028003750B01EB603372
:1052340075090078081219D87A607B05120C2B7452
:105244000212176B75086075090578081219D8AC35
:105254000AA90B124B7612176B7404250AF50A7C03
:10526400607D057401250AF5D9850BD97800800A7B
:105274008808EC124F84ED1246E8E8C3950A40F022
:1052840075E195790080067907800279FF024D0661
:10529400F8EF3400F9E822F582EF124E5C64012243
:1052A400C082C08380031252D2E9F874FF28190423
:1052B40070F4ECFAEDFB024369C082C083800312F0
:1052C40052D2E9F874FF28190470F40243698C82FD
:1052D4008D83E08A828B83F08C828D83A3AC82AD34
:1052E400838A828B83A3AA82AB832274F41217C5A8
:1052F400E9FF7E008A088B097808121A1C00040D45
:10530400955422533F5358536F538C53A353C45350
:10531400DB53EE53175431544154575471547401B0
:105324006F60030254918C828D83E0F8C394034030
:1053340003025491E8900C7A02546E74026F600375
:105344000254918C828D83125C7A900C7BE8F0A3DA
:10535400E902546E74016F60030254911254B74011
:1053640003025491E890076402546E74016F600361
:105374000254918C828D83E0F8C394054003025457
:1053840091E890076502546E74016F6003025491B2
:105394001254B74003025491E890076602546E74A5
:1053A400106F60030254917508108E097808121961
:1053B400D87A677B071211DD740212176B0254B39B
:1053C40074016F60030254911254B7400302549164
:1053D400E890077702546E74016F60030254918C55
:1053E400828D83E0900C7E02546E74046F6003021D
:1053F40054918C828D83780812160D908FE578086D
:105404001214405003025491900779780812161C24
:105414000254B3EF707712068BE9700A121099796F
:105424005012131B806290080C7401803D74016F4C
:10543400705B1254B75056E8900778802D74016F52
:10544400704B8C828D83E0F8C3940A5040E8900C32
:105454007D801774016F70358C828D83E0F874F948
:1054640028C3940A5027E8900C7FF0804274016F9F
:10547400701B90080BE0F88C828D83E090080BF091
:10548400E8702CE06401702712108D80227E188051
:105494001EC3EA9426EB9400501374026F700E8CB2
:1054A400828D83125C74120529E9FE80027E02EE6D
:1054B400F9800F8C828D83E0F8C3940222740E125B
:1054C400176B7F04021897A9080254C674F01217C8
:1054D400C574B11217558C0A8D0B908F3A74201233
:1054E40017BB740612166874201217BB12103FE91A
:1054F400FF745F1217A1E0F509EFC3940A40030299
:10550400565275F006EFA4F50874411217BB7A0ED3
:1055140074202508F9121315E97009744D1217A1A6
:10552400E0FE80027E00900C7AE064027005750E45
:10553400018003750E0074086509700474228002EA
:1055440074212508F50D7C1B7D0079007426121743
:10555400B31211F574261217BB7A1BA90D12131579
:10556400E9702D74401217A1E024F9C3940A502065
:10557400E50EF50D780D1219DC74271217BBEEA297
:10558400E0E433F9AA0AAB0B1205CB740112176BD2
:105594007C147D007900740C1217B31211F5740C8D
:1055A4001217BB7A1074242508F9121315E9703404
:1055B4007C1079FF740C1217B3121255E97025741C
:1055C4001C1217A1AC82AD837A0474252508F91244
:1055D4001315740C1217BBEEA2E0E433F9AA0AAB5C
:1055E4000B1205B3AC18AD197A0C74702FF91213A1
:1055F40015E97049AA18AB191210757F00EF75F000
:1056040003A4F8A9F0851882851983E58228F8E5B2
:1056140083125E33125FA5601D88828983A3A3E091
:10562400F50E750F00780E1219D8AA0AAB0B1208E2
:1056340011740212176B0FEFC3940440C0EEA2E181
:10564400500C900763E0F9AA0AAB0B120817740414
:1056540065097028900C7AE0640270207A00900743
:1056640077E060027A01900764E0600478048002C5
:105674007800E84AF9AA0AAB0B1206737900744F52
:1056840012176B7F0802189774F01217C574F01282
:105694001755EAFEEBFF8C088D09750A0AE9600CC0
:1056A40014600914603B14607D025782121087E96C
:1056B400F50AC3940A4003025782E50845097003BA
:1056C400025782750C06750D00780C1219D8EEFC81
:1056D400EFFDAA08AB091211DD740212176B025711
:1056E40082750C00750E06750F00780E1219D8EE2F
:1056F400FCEFFDE50C75F00EA4F8A9F0748528FA0A
:10570400740739FB1211EF740212176BE9700B0561
:105714000CE50CC3940A506680CA850C0AE50AC3DA
:10572400940A505A8049750C00AC18AD197A10755A
:10573400F006E50CA42423F9121315E9701C7C105F
:1057440079FFAA18AB19121255E9700EEEFCEFFDA1
:10575400AA18AB19120595E9600B050CE50CC39466
:105764000A501B80C4850C0AE50AC3940A500FE54D
:105774000845096009AA08AB09A90A121081A90AF7
:10578400741002568474F41217C5890975081574C7
:10579400FF6A700374FF6B70277E00AC097A027B8A
:1057A40000EEF9121063E960037508000EEEC3946D
:1057B4000A40E8E50960537AB17B10120A2D804A49
:1057C400120A0F8A0A8B0BAE0AAF0BEE4F60387CBD
:1057D400007D00EE2405FAE43FFB8E828F83A3A3B1
:1057E400A3A3E0F912103FE9F9C3940A500CAC09E1
:1057F4007A027B00121063750800E509600CEEFA6A
:10580400EFFB1210B180037508140254CB74F2122A
:1058140017C5ECFEEDFF750815740E1217A1125C86
:105824006774FF6A700374FF6B7021750900AC0A1A
:10583400AD0BEEFAEFFBA909121069E960037508D4
:10584400000509E509C3940A503F80E2120A0F8A51
:10585400828B83E5824583602D7C007D00E5822474
:1058640005FAE43583FBA3A3A3A3E0F912103FE9EF
:10587400F9C3940A5013AC0AAD0BEEFAEFFB121005
:10588400697508008003750814A908025DFBC082CD
:10589400C08390077DEAF0A3EBF0900763E0FC7D02
:1058A400007A257B00120529900763E0F912078D21
:1058B400D083D08202013274EC1217C58A088B0996
:1058C400E97E00703878081219D874161217A17876
:1058D4000C12160D908FE5781012160D780C7910B5
:1058E4001214DFAA10AB11AC12AD131205C5740269
:1058F40012176BE9FE60097901AA08AB091205BF0A
:10590400EEF97F0C02189774EA1217C574EC12179B
:1059140055EAFEEBFFEE240CF514E43FF5158E82F8
:105924008F83A3858210858311EE240AF50CE43F4E
:10593400F50DEE2405F50EE43FF50FEE2409F50A06
:10594400E43FF50BEE2403F508E43FF5098E828F5E
:1059540083A3A3E024FA7003025C3F24FD700302D6
:105964005B611470030259F514601024FD70030286
:105974005B44147003025B95025C5D125C806049B9
:10598400E0F5838882125C7A880C890DE8450D6005
:1059940038851482851583E0F50E780E1219DCEE35
:1059A400240BF582E43FF583E0F9850A82850B83B5
:1059B400125C740A0A0AAB09850C82850D831217DE
:1059C400C3740112176B025C5D850A82850B831216
:1059D40019EF90077912162B1205C5740212176B72
:1059E400E97003025C5D7901850A82850B83025CA0
:1059F4000B851082851183E06003025B27850E828C
:105A0400850F83E0A2E04003025B277C0E7D0079D2
:105A140000AA18AB191211F5EE2408F512E43FF5AB
:105A240013851282F5831263A5EA4B6010750A068A
:105A3400750B00780A1219D8EA2410801B12639F90
:105A4400120A0FEA4B7003025C5D750A06750B00BF
:105A5400780A1219D8EA2405FCE43BFD74021217F3
:105A6400B31211DD740212176B850E82850F83E069
:105A7400A2E25004D2F08002C2F0A2F0E433F8743F
:105A84000C1217A1E048F0850C82850D83125C6727
:105A9400E50A450B6012E50A2410F582E4350BF59E
:105AA40083780C12160D800C750CFF750DFF750EA6
:105AB400FF750FFFE50A450B7006750A00750B00AC
:105AC400851282851383E0F512A3E0F513E51245F0
:105AD400137006751200751300780C1219D4780A25
:105AE4001219D878121219D88514828515831219BF
:105AF400EF8E828F83A3125C6F740A1217B3121095
:105B04007B740A12176B850882850983125C7A906C
:105B1400080DE8F0A3E9F07A017B00900763E0F94F
:105B2400121231125C807003025C5D125C8B700394
