:020000040000FA
:0600000002011A021DBA04
:03002B0002245656
:03005300021E305A
:03006B0002242448
:10008300021CABE5C754F84401F5C779012200000F
:100093000080FB120086B90003020104E479217891
:1000A30008B800028004F709D8FCE479297802B87B
:1000B30000028004F709D8FCE490028178D2790722
:1000C3008002F0A3D8FCD9FA781A90014A7A01BACF
:1000D30000028007E493A3F608DAF97A527B0990C9
:1000E300014B783879048015E493A3AD82AE838AFB
:1000F300828B83F0A3AA82AB838D828E83D8E9D9C6
:10010300E7758249758394740312012C7582917586
:100113008300740012012C75D00075813F7518811E
:10012300751902759F00020096C09FF59FE473D076
:100133009F22D083D082C09FE493C0E0740193C018
:10014300E0740293F59F2201FF0000B40000280031
:100153002800283075A000A000A000A0000008001F
:1001630008E001F000100010001000100010001053
:100173000050005000500010001000D00700000095
:100183000000000F0001000500307507001000019A
:100193000081FF0000FF80069E068606FF02020222
:1001A30008025000A0000000E803021690010000BE
:1001B300FC8F021290010000A709020290010000C7
:1001C300B202021290010000A8090204900100008B
:1001D300C802021290010000A90902069001000062
:1001E300CA02021290010000AA0902089008000046
:1001F300CB02021290010000AB09020A9001000039
:10020300AC09FF0100FF20021690010000F38F02EA
:100213001290010000100A020C900000000000027E
:100223000E900300001803B00CB00CB00CB00CB06F
:100233000CB00CB00CB00CB00CB00CB00CB00CB0DB
:100243000C860F9E0F800F020202020202020202BC
:10025300010D0000001001021690010000FF8F0243
:100263001290010000510A0238900100005B07025E
:100273001290010000520A023690010000138F020F
:100283001290010000530A022890010000F78E0229
:100293001290010000540A022690010000A38E026E
:1002A3001290010000550A0224900100007F8E0283
:1002B3001290010000560A022290010000B58E023E
:1002C3001290010000570A021E90010000918E0255
:1002D3001290010000580A021C90010000058F02D1
:1002E3001290010000590A021A900100005A0A01F3
:1002F300E803053F10FFFFFF00013075030201060D
:1003030000000000000000000000000000000000EA
:10031300000000000000000000000000FFFF0600D6
:10032300800CE803140953696D706C65424C4550A9
:1003330065726970686572616C0512500020030272
:100343000A000201050302F0FF53696D706C65201A
:10035300424C45205065726970686572616CAC13DC
:100363000000B2130A436861726163746572697352
:10037300746963203100024368617261637465725A
:10038300697374696320320008436861726163743E
:100393006572697374696320330010436861726125
:1003A300637465726973746963203400024368611E
:1003B3007261637465726973746963203500021630
:1003C30090010000F68F0212900100006E0B022CC8
:1003D300900300003C090210900100006F0B021211
:1003E30090010000800B022E900100003D090210D5
:1003F30090010000810B021290010000920B023069
:10040300900200003E09021090010000930B0212BB
:1004130090010000A40B0232900000003F09020E7D
:10042300900300004009021090010000A50B021286
:1004330090010000B60B023490040000460902103C
:1004430090010000B70B104B6579205072657373F0
:1004530020537461746500021690010000F98F0245
:100463001290010000500C023C900000004B090266
:100473000E900300004C09021090010000510C1271
:100483000135208803120135378803120135668848
:10049300031201359F8803120135C7880312013502
:1004A300F588031201350C890312013523890312E0
:1004B30001353989031201356089031201357389C6
:1004C300031201358989031201359C890312013511
:1004D300C18903120135828C02120135818D02120A
:1004E3000135B68D02120135D78D02120135E78D24
:1004F30002120135088E02120135148F02120135E2
:10050300E18F02120135549002120135DA90021282
:1005130001351D9102120135549102120135DA9110
:1005230002120135AC92021201350A93021201350F
:100533002293021201359C93021201359F930212FA
:100543000135A293021201354994021201356194D7
:1005530002120135919402120135B1940212013550
:100563009F9502120135559602120135CDD2021222
:100573000135F5D20212013523D3021201355AD3C4
:1005830002120135C2D3021201350BD40212013516
:1005930056D40212013594D402120135D1D4021279
:1005A3000135FFD402120135A6D502120135B0D5AB
:1005B30002120135BDD502120135F0D50212013503
:1005C300B2D602120135BED602120135D6D60212B8
:1005D3000135E0D602120135F5910312013503927C
:1005E300031201351B9203120135339203120135B5
:1005F300C6AE0112013564AF01120135DCAF011241
:100603000135F1B0011201352BB101120135D4B11D
:1006130001120135A9B2011201350DB401120135E0
:1006230064B401120135EBB401120135D2B50112E4
:1006330001351FB601120135ADB601120135D1B630
:1006430001120135A6B801120135E7B801120135CF
:1006530009B9011201358AB90112013574BA0112BF
:1006630001353ABB01120135D0B702120135A2B8E8
:10067300021201354BB9021201358EB9021201354E
:100683001BBA02120135A7BA0212013588BB021246
:100693000135B7BB02120135B3BC02120135FBBCF5
:1006A30002120135FDBD0212013541BE02120135B0
:1006B30067BE021201356193031201354CEC02123D
:1006C300013562EC0212013588EC02120135B0EDFE
:1006D30002120135BAED0212013513EF0212013590
:1006E30013F0021201353BC40212013570C5021228
:1006F3000135A3C502120135EDC502120135ABC7A1
:1007030002120135419001120135A4900112013505
:10071300E99101120135F991011201351C9201127F
:1007230001356792011201350C93011201350294D0
:1007330001120135CC9401120135449601120135A1
:100743008696011201352497011201357197011222
:1007530001359797011201358599011201358A995F
:10076300011201356B9B01120135BF9B011201354B
:10077300219C01120135499C01120135ED9C0112A6
:100783000135AF9D01120135E09D01120135E39D55
:10079300011201352B9E011201356D9E01120135A7
:1007A300D49E0112013525FD0212013538FD0212D6
:1007B300013551FD021201359CFD0212013577FE10
:1007C3000212013506FF0212013551FF02120135F3
:1007D3007C2400120135882400120135C124001243
:1007E3000135062500120135BD25001201354326CA
:1007F30000120135A82600120135D4260012013556
:100803000D2700120135212900120135FD2A00129E
:100813000135E82C001201351F2E001201357F30FF
:10082300001201356B3100120135B132001201356E
:10083300BE3300120135DB330012013513340012CD
:1008430001352D34001201359534001201352F394D
:1008530000120135D03900120135213A0012013559
:10086300483A00120135963A00120135B43A0012A3
:100873000135083B00120135E13B00120135683DAB
:1008830000120135F03D0012013523CE021201356D
:100893002DCE02120135F8CE0212013513CF02120A
:1008A300013539CF021201357DCF02120135B5CFA3
:1008B30002120135DECF0212013557D00212013583
:1008C3006CD00212013581D002120135B8D0021268
:1008D3000135CCD002120135FDD00212013537D1DA
:1008E3000212013563D102120135B9D10212013569
:1008F3000DD20212013556D20212013580D20212F4
:100903000135A5D20212013560E8021201352AE948
:10091300021201350DEA0212013583EA0212013592
:10092300C5EA02120135F2EB021201350080021210
:100933000135298002120135428002120135878177
:1009430002120135658202120135848202120135D9
:10095300118302120135548302120135A18402125C
:100963000135408502120135BF87021201355688D1
:10097300021201352A89021201350C8A021201354D
:10098300788B021201350B8C02120135148D031280
:1009930001357D8D03120135D18D03120135F88D9B
:1009A30003120135E5DB0212013552DC0212013577
:1009B3009DDC0212013592DD021201358EDE021238
:1009C300013578DF0212013561A002120135A3A0BF
:1009D300021201357DA10212013556A20212013520
:1009E30051A30212013530A4021201359CA4021254
:1009F300013563A502120135CEA50212013535A6D4
:100A03000212013560A602120135D1A60212013588
:100A130064A702120135CDA702120135E2A7021223
:100A230001352AA80212013543A802120135A8A8EC
:100A330002120135ABA80212013547F70212013544
:100A43006FF702120135ADF7021201356BF802128E
:100A53000135D6F802120135F2F8021201351AF9FE
:100A6300021201354AF90212013559F90212013510
:100A7300D3F902120135F9F9021201359E9F0112D1
:100A830001353BA10112013521A301120135EBA36D
:100A93000112013532A40112013579A40112013585
:100AA3008BA401120135CBA401120135FAA4011262
:100AB300013546A5011201357EA501120135ACA50C
:100AC30001120135FDA5011201358CA60112013574
:100AD3007AA90112013554AB0112013590AB011211
:100AE3000135EAAC0112013531AD01120135A6AD74
:100AF30001120135F4AD011201352BAE011201359E
:100B0300E576001201350277001201359C7C001254
:100B130001359E7D00120135187F00120135C67F15
:100B230000120135573E00120135A03E0012013577
:100B3300CD3E00120135003F001201350D3F00127A
:100B43000135193F001201352B3F001201350040DA
:100B5300001201355E400012013593400012013549
:100B63002F42001201357C4200120135A0420012CF
:100B730001350D4300120135B243001201356E44B5
:100B830000120135ED4400120135B1450012013563
:100B9300C04500120135414600120135E0460012FE
:100BA3000135124700120135AD47001201350B48DC
:100BB30000120135454800120135C64800120135BF
:100BC3008F4900120135384A00120135BF4A00121D
:100BD3000135174B00120135784B00120135A14B3B
:100BE30000120135574C00120135A14D0012013599
:100BF300E44D00120135014E00120135204E001262
:100C030001356B4E00120135904E00120135B94E7D
:100C130000120135284F001201356A4F00120135C9
:100C23006E5000120135085100120135D4510012E3
:100C33000135ED5100120135C096021201351397AB
:100C4300021201351F9702120135F4970212013582
:100C53001B9802120135569802120135C2980212EE
:100C63000135F698021201352F9902120135479981
:100C730002120135A09902120135B9990212013508
:100C8300029A02120135159A021201352F9A0212A5
:100C93000135459A02120135619B02120135729C9E
:100CA30002120135BF9D02120135A49E02120135C5
:100CB300E87F00120135A4E601120135D8E60112DE
:100CC300013543EA011201358DEB0112013557EC71
:100CD30001120135E1ED01120135BCEE01120135BE
:100CE300F6EE0112013519EF011201355BEF011226
:100CF300013564EF01120135AEEF01120135B8EF92
:100D03000112013564F00112013538F10112013588
:100D13008CF101120135EEF10112013541F201129C
:100D2300013570F201120135AFF2011201359564FC
:100D330000120135EF6C00120135F56C001201351C
:100D4300B072001201359676001201351DF00212C1
:100D5300013593F002120135A9F002120135E6F0D4
:100D6300021201351EF1021201359BF10212013507
:100D7300D6F10212013551F2021201358DF202123F
:100D8300013596F202120135A2F202120135BCF2CC
:100D930002120135E1F202120135F7F202120135B6
:100DA30020F30212013583F30212013561C90212E5
:100DB300013574C9021201358EC902120135B7C952
:100DC30002120135FAC90212013539CA021201357C
:100DD30077CA02120135DCCA02120135F1CA0212C6
:100DE3000135FCCA0212013509CB0212013520CBB1
:100DF300021201352ECB0212013539CB0212013515
:100E030045CB0212013558CB0212013563CB0212D6
:100E1300013586CB021201352FCC021201353FCCAE
:100E23000212013559CC0212013576CC021201357A
:100E330092CC02120135B7CC02120135C1CC021299
:100E43000135D5CC02120135F4CC0212013555CD52
:100E5300021201355BCD0212013561CD021201355B
:100E630067CD0212013573CD02120135A6CD0212F0
:100E73000135F2CB0112013574CC011201351DCDC0
:100E83000112013565CE0112013573D0011201350E
:100E930059D1011201358ED101120135B0D10112A0
:100EA300013559D20112013529D40112013552D429
:100EB30001120135CAD401120135FCD401120135E6
:100EC30009D50112013554D50112013578D5011226
:100ED3000135C9D701120135D3D8011201352FD9F4
:100EE300011201356FBD0112013580BE01120135BA
:100EF30064BF011201356EBF0112013590BF0112AB
:100F030001359CBF0112013540C1011201356DC18C
:100F13000112013583C201120135D8C20112013514
:100F230027C401120135FCC40112013558C5011251
:100F33000135C3C501120135F8C5011201353BC6A0
:100F43000112013505C9011201351DC9011201350F
:100F5300AEC901120135BCC90112013509CA01121A
:100F6300013517CA0112013583CA01120135FECAC0
:100F73000112013555CB011201358AF301120135F6
:100F8300ACF301120135BDF5011201357CF80112F4
:100F93000135A6F90112013564FA0112013550FB3E
:100FA300011201356786031201358C860312013560
:100FB300028703120135B3B002120135BCB002122D
:100FC3000135C5B0021201359DB1021201354EB390
:100FD300021201357EB302120135A9B302120135A3
:100FE300D9B30212013504B40212013538B4021226
:100FF300013564B402120135A7B402120135D2B42B
:101003000212013519B5021201356EB5021201350E
:10101300B0B5021201350AB60212013535B6021215
:10102300013584B602120135B4B602120135DFB6BA
:10103300021201350DB70212013530B70212013524
:101043007BFF02120135A7FF02120135D4FF021202
:101053000135DEFF02120135EEFF0212013541FABE
:101063000212013566FA0212013591FA02120135B4
:10107300EA94031201351F52001201350054001285
:101083000135BC5500120135B956001201354157DF
:1010930000120135C25700120135EB57001201351A
:1010A3007E5B00120135EF5B00120135E05C00123C
:1010B30001351A5D001201355A5D001201358D5E4E
:1010C30000120135E05E00120135295F001201357F
:1010D300975F00120135C95F00120135E35F00120B
:1010E3000135D56000120135E560001201358B62D0
:1010F30000120135A26200120135D46200120135DB
:10110300566400120135709503120135A194031240
:101113000135E094031201355D95031201351691F3
:10112300031201352691031201353B910312013558
:10113300EF9103120135298E03120135AD8E03128F
:101143000135158F03120135A8FE01120135CAFEC0
:10115300011201352BFF011201353EFF011201354A
:101163008FFF01120135CEFF01120135D1FF0112AC
:10117300013561E40212013575E402120135EEE432
:1011830002120135C3E50212013595E7021201355A
:10119300FAE7021201354DE802120135F87F001219
:1011A3000135408203120135C183031201352284C4
:1011B30003120135688403120135259003120135AA
:1011C3004E90031201357790031201358F9003126D
:1011D3000135D19003120135DCBE02120135E6BEA2
:1011E3000212013526BF021201356FBF021201350B
:1011F300A9BF02120135FFBF021201351EC0021240
:10120300013527C00212013578C002120135A1C091
:1012130002120135ABC0021201351CC102120135A5
:10122300AAC102120135FFC1021201352EC20212F8
:101233000135AAC202120135E7C2021201351EC3EB
:101243000212013530C3021201354FC302120135B8
:1012530058C3021201350FC402120135858B0312E4
:101263000135D58B03120135478C03120135AF8C41
:10127300031201350080031201352A800312013560
:10128300F18003120135CD81031201352E8F031234
:1012930001356B8403120135A18403120135D48413
:1012A300031201352D8603120135CC920312013549
:1012B300E29203120135EC920312013536930312C5
:1012C3000135EA9303120135CFA8021201358CA927
:1012D30002120135C7A902120135F8A9021201351C
:1012E3005AAA02120135A6AA0212013511AB021243
:1012F30001358BAB021201358AAC0212013511AEF6
:101303000212013594AE02120135FAAE0212013512
:101313000DAF0212013508B00212013555B00212A9
:10132300013575D7021201358BD7021201352CD83E
:10133300021201356BD80212013588D80212013529
:10134300B9D80212013506D9021201353AD902126F
:10135300013575D90212013572DB02120135D8DB72
:10136300021201357CD901120135B3DC01120135BA
:101373002FDE0112013586DE01120135A3DE0112D3
:10138300013521DF011201359EE00112013582E1B1
:101393000112013531E50112013501E60112013572
:1013A3003AE00212013586E20212013598E3021295
:1013B300013538E402120135B3F302120135F8F3B3
:1013C3000212013515F402120135CBF40212013574
:1013D3001EF502120135F5F5021201350EF7021260
:1013E3000135D38903120135188A031201356C8A3A
:1013F30003120135EB8A031201354C8B03120135BD
:10140300319503120135DAFF01E066701008A3E09D
:1014130066700A08A3E066700408A3E06622C3E7C7
:10142300960809E7960809E7960809E79622C3E0B4
:101433009608A3E09608A3E09608A3E09622C008C6
:10144300C3E096F50808A3E096420808A3E0964295
:101453000808A3E09645087001D3D00822080808BD
:10146300EAC0E0EBC0E086F0E7A4FA180986F0E7EB
:10147300A42AFA180986F0E7A42AFA180986F0E7DD
:10148300A42AFA1986F0E7A4FBE5F02AFA190886DC
:10149300F0E7A42BFBE5F03AFA190886F0E7A42B52
:1014A300FBE5F03AFA18180986F0E7A4C5F02BFB20
:1014B300E43AFA1908E7C5F0C6A426F6E5F03BFBC3
:1014C300E43AFA1886F0E7A4F6E5F00826F6E43BDA
:1014D30008F6E43A08F6D0E0FBD0E0FA22E4CFC005
:1014E300E0E4CEC0E0E4CDC0E0E4CCC0E075F020A1
:1014F300E626F608E633F608E633F608E633F6188A
:101503001818EC33FCED33FDEE33FEEF33FFC3EC81
:101513009709ED9709EE9709EF97191919400FFFEE
:10152300EC97FC09ED97FD09EE97FE191906D5F026
:10153300BFECF709EDF709EEF709EFF7191919D021
:10154300E0FCD0E0FDD0E0FED0E0FF22601608080A
:1015530008C6C313C618C613C618C613C618C613BF
:10156300C6D5E0EA22700908080822601618181880
:10157300C6C333C608C633C608C633C608C633C691
:10158300D5E0EA22E627F60809E637F60809E63742
:10159300F60809E637F622E026F608A3E036F60851
:1015A300A3E036F608A3E036F622E026F008A3E02F
:1015B30036F008A3E036F008A3E036F022C3E6973E
:1015C300F60809E697F60809E697F60809E697F696
:1015D30022C3E096F008A3E096F008A3E096F00893
:1015E300A3E096F022E056F608A3E056F608A3E03F
:1015F30056F608A3E056F622E056F008A3E056F0AC
:1016030008A3E056F008A3E056F022E0F608A3E0B2
:10161300F608A3E0F608A3E0F622E6F008A3E6F056
:1016230008A3E6F008A3E6F022E0FAA3E0FBA3E0B8
:10163300FCA3E0FD22EAF0A3EBF0A3ECF0A3EDF0B2
:1016430022E0F8A3E0F9A3E0FAA3E0FB22E8F0A389
:10165300E9F0A3EAF0A3EBF022CAC0E0E6F0A308A6
:10166300DAFAD0E0FA22CAC0E0E0A3C582CCC58290
:10167300C583CDC583F0A3C582CCC582C583CDC543
:1016830083DAE6D0E0CA22C3E498F8E499F91216A3
:10169300CB8026C3E49AFAE49BFBE920E7E9121620
:1016A300CBE498F8E499F922C3E498F8E499F912A1
:1016B30016CBE498F8E499F9C3E49AFAE49BFB2285
:1016C300EB20E7CFE920E7E0B90010BB0008E88A88
:1016D300F084F8AAF022E4FBC8FA22EB70227B1014
:1016E300C833C8C933C9335007C39AC3DBF2800672
:1016F3009A50012ADBEAC833F4C8C933F4C9FA2281
:1017030075F008E4C833C8C933C933C99AC99B50B3
:1017130004C92AC93BD5F0ECFBC833F4C8E4C9FAC1
:1017230022600D08C6A2E713C618C613C6D5E0F398
:1017330022600C08C6C313C618C613C6D5E0F4222C
:10174300700422600D18C6C333C608C633C6D5E07D
:10175300F41822251810AF08F518400C1519800845
:10176300F51840021519D2AF2200C0D0251810AFCA
:1017730008F518500C05198008F51850020519D200
:10178300AFD0D0222518F58210AF08F518400C15FC
:10179300198008F51840021519D2AF85198322253F
:1017A30018F582E43519F583222518F8E43519F97B
:1017B300222518FAE43519FB222518FCE43519FD16
:1017C30022E4732518C582C0E0E51934FFC583C040
:1017D300E0E518C3958224F810AF08858319858244
:1017E300188008858319858218D2AFCEF0A3E5202F
:1017F300F0A37808E608F0A3DEFAEFF0A3E581246E
:10180300FAF8E608F0A3E608F0A3E608F0A3080850
:10181300E608F0A3E608F0A315811581D0E0FED019
:10182300E0F8158115811581E8C0E0EEC0E02225BE
:1018330018C582C0E0E51934FFC583C0E0E518C3CD
:10184300958224F910AF088583198582188008854D
:101853008319858218D2AFCEF0A3E520F0A37808D0
:10186300E608F0A3DEFAEFF0A3E58124FBF8E6082F
:10187300F0A3E608F0A30808E608F0A3E608F0A33F
:1018830015811581D0E0FED0E0F815811581E8C0FF
:10189300E0EEC0E022851983851882E0A3FEE0A371
:1018A300F5207808E0A3F608DFFAE0A3FFE0A3C081
:1018B300E0E0A3C0E0E0A3C0E0E0A3C0E0E0A3C099
:1018C300E010AF0885821885831980088582188502
:1018D3008319D2AFD083D082020132851983851850
:1018E30082E0A3FEE0A3F5207808E0A3F608DFFA80
:1018F300E0A3FFE0A3C0E0E0A3C0E0E0A3C0E0E01A
:10190300A3C0E010AF0885821885831980088582FB
:1019130018858319D2AFD083D08222C0D02518C5B1
:1019230082C0E0E51934FFC583C0E0E518C39582A2
:1019330024F310AF088583198582188008858319DD
:10194300858218D2AFC8F0A3E9F0A3EAF0A3EBF0C5
:10195300A37908E709F0A3D8FAECF0A3EDF0A3EE1E
:10196300F0A3EFF0A3D0E0F0A3D0E0F0A3D0E0F039
:10197300A3E520F0A3E5F0F0A3228519838518825F
:10198300E0C0E0A3E0F9A3E0FAA3E0FBA37808E05A
:10199300F608A3DFFAE0FCA3E0FDA3E0FEA3E0FF6B
:1019A300A3E0C0E0A3E0C0E0A3E0F5D0A3E0F5200E
:1019B300A3E0A3F5F010AF0885831985821880088A
:1019C300858319858218D2AFD082D083D0E0F8D036
:1019D300E03274048006740280027401C0E0F404EF
:1019E300121787D0E012165C2274048004740280FC
:1019F30000CCC0E0EDC0E0E518C39CCCAD195001AC
:101A03001D10AF068C188D1980068C188D19D2AF56
:101A1300121669D0E0FDD0E0FC22D083D082E9C069
:101A2300E0E493A3C386F0C5F095F0F908E493A32B
:101A330086F0C5F095F0700BE493A3C3994005E9D4
:101A4300048002A3E475F002A42582F582E5F03553
:101A530083F583D0E0F9E493A3C0E0E493C0E022EC
:101A6300D083D082ECC0E0EDC0E0E493A3FCE49328
:101A7300A3FDED4C600D121AAFEC24FFFCED34FF17
:101A8300FD80EFE493A3FCE493A3FDED4C600D1202
:101A93001AEEEC24FFFCED34FFFD80EFD0E0FDD027
:101AA300E0FCE493A3C0E0E493C0E022C0E0C3E41D
:101AB3009396087401939618400FE4936670080890
:101AC300740193661870007019A3A3C3E493960876
:101AD3007401939618A3A3400DD0E0D0E0D0E002A8
:101AE3001A9FA3A3A3A3A3A3D0E022C0E0C0F088BE
:101AF300F0E4936670080874019366187000A8F008
:101B0300A3A3700BD0F0D0E0D0E0D0E0021A9FA3E3
:061B1300A3D0F0D0E02297
:101B1C0074F5121832EAFEEBFFEE2434F8EF3400C1
:101B2C00F988088909EE2435121C54F8EE24371272
:101B3C001C54F50AEC850AF0A4FCAAF0850AF0ED19
:101B4C00A42AFDE82CF8E43DF97A257B001216CB8B
:101B5C00EA850882850983F05407F87401B80002FD
:101B6C008004C333D8FCC0E0E0131313541FF8EE09
:101B7C0028F8EF3400F9E8245DF582E93400F583A8
:101B8C00D0E0F8E0586008850882850983801DEE56
:101B9C002436121C54F5F0EA84A8F0EE28F8EF3441
:101BAC0000F9E82438F582E93400F583E0F97F0484
:101BBC000218DE74F5121832EAFEEBFFEE24341232
:101BCC001C54C0E0EE2435F582EF3400F583D0E0F0
:101BDC00F08E828F83A3A3A3A3A3E0FAA3E0FB8ED2
:101BEC00828F83A3A3A3A3A3A3A3E0FCA3E0FDEC98
:101BFC00C39AF50AED9BF50BEE2480F508EF340043
:101C0C00F509850882F583E06401702BEE2481F5DB
:101C1C0082EF3400F5831219F0121C5D7402121756
:101C2C006CE960137CFD7D04EEFAEFFB120BDE8594
:101C3C000882850983E4F0AC0AAD0BEEFAEFFB12D7
:101C4C001B1C122416021BBAF582EF3400F583E03C
:101C5C0022C082C083851882851983E0F8A3E0F93D
:101C6C00C3EA9CEB9D5012C3EC98ED994019C3EA62
:101C7C0098EB99501279018010C3EA98EB9940F5D2
:101C8C00C3EC98ED9950EE7900D083D08222EAC350
:101C9C009CFAEB9DFB2200008521878522C622C081
:101CAC00E074EF12191E759B00906182E0A2E64071
:101CBC0003021D6CE591A2E64003021D6C7591BFF9
:101CCC009003C2E064057008120D7C120D8880032D
:101CDC00120D82752100120DF4E99003C3F0790006
:101CEC00120DE8120B487A017B009003C1E0F91247
:101CFC001232907803E064426003021DB590055FD8
:101D0C00E014F06003021DB5C2AF121D1900782A51
:101D1C00D0E0F618D0E0F6E59F5407F97005908FE7
:101D2C007B8003908FA7780812160EE9C4C0E07868
:101D3C0029E65508F50808E65509F509740B7808E5
:101D4C00121734D0E02508F8906270E0A2E740F852
:101D5C00E8C333906272F0906270E0D2E0F0804998
:101D6C00E0A2E55024E591A2E5501E7591DF9003A9
:101D7C00C2E0640D70139003E4E004F06428700278
:101D8C00E4F07A00E0F9120E66906181E0A2E35073
:101D9C0009E5E9A2E3500375E9F7A3E0A2E75009CE
:101DAC00E591A2E7500375917F7F0402197DC0E095
:101DBC00C0D0C082C083906183E0A2E05009E5BF2F
:101DCC00A2E0500375BFFEE0A2E15009E5BFA2E11D
:101DDC00500375BFFDE0A2E25009E5BFA2E250033B
:101DEC0075BFFBE0A2E35009E5BFA2E3500375BF4A
:101DFC00F7E0A2E45009E5BFA2E4500375BFEFE0A1
:101E0C00A2E55009E5BFA2E5500375BFDFE0A2E6ED
:101E1C005009E5BFA2E6500375BFBFD083D082D076
:101E2C00D0D0E032C0E074F212191EE5A7A2E45043
:101E3C000FE5A1A2E4500953A7EF75A1EF121E8480
:101E4C00E5A7A2E5500CE5A1A2E5500653A7DF7566
:101E5C00A1DFE5A7A2E15009E5A1A2E1500375A11C
:101E6C00FDE5A7A2E2500CE5A1A2E2500653A7FBA8
:101E7C0075A1FB7F0102197D74F8121832752101CE
:101E8C009003C2E0640670077A007B00120D64A216
:101E9C00AFE433FED2AF9003C8E0640170187A202F
:101EAC007B009003C1E0F91213467A207B0090036B
:101EBC00C1E0F9121238906182E0D2E6F090055E32
:101ECC00E0602185C62280169003C7E0640170088B
:101EDC00E5C654F84405F5C653BEFC121CA47401A7
:101EEC00652160E4EEA2E092AF7F010218DE0000F3
:101EFC008E238F24858228858327851882851983D4
:101F0C00E0CEA3E0CF852882852783EBC9EAC8ED14
:101F1C00CBECCA75F010C3E833C8E933C9EA33CA4D
:101F2C00EB33CBC3EA9EF526EB9FF525B35004AB00
:101F3C0025AA26EC33CCED33CDD5F0DAAE23AF2485
:101F4C002274E912183274FA121756EAFEEBFF8C5F
:101F5C00088D099003C2E024F7C394055006908FB6
:101F6C00B3022074120CE08A0A8B0BEA450B700347
:101F7C00022071120D9A8A0C8B0D120D9AEA650CC7
:101F8C007003EB650D60ECEEFCEFFD851882851996
:101F9C0083AA82AB83120DA0850A82850B83A3A32F
:101FAC00780C12160E908FC3780C1215E8851882D7
:101FBC00851983781412160E908FC378141215E8B5
:101FCC00780C7914121421501F780C79141215C046
:101FDC00908F73780C1214414047850C10850D11AD
:101FEC00850E12850F1380418514108515118516E9
:101FFC00128517137810790C1215C0908F73781006
:10200C00121441501C7510007511007512007513D7
:10201C0001781079141215C07810790C121587807C
:10202C0008908FB3781012160E7409781012156878
:10203C00908F97780C12160E7810790C1214E09081
:10204C0003C2E06408600AE064066005E0640570A1
:10205C001C908FC778101214415012908F77781003
:10206C0012159A8008908FE3781012160E8508824C
:10207C00850983781012161D740612176C7F1002D6
:10208C0018DE74F7121832120DB290055CE0640180
:10209C007010906245E4F0A3F053F4F343FE0C533C
:1020AC0090F3120D52E5C654804449F5C6E59E5492
:1020BC007F644970F8906185740FF090055AE0F4D4
:1020CC007002A3E0602C75080175090090055AE0B8
:1020DC007808121743E508F4FAA3E0600814600AC4
:1020EC0014600C800DEA52808008EA52908003EA5A
:1020FC0052A079007F020218DE74F7121832E9FE42
:10210C00EAFF74016E700C7A807B009003C1E0F9D9
:10211C00121232902474E493F46008E493F9120BD5
:10212C002A800953C680E59E547F70FA120D589090
:10213C00055CE064017003120B6090055AE0F470CA
:10214C0002A3E0602A75080175090090055AE07831
:10215C0008121743AA08A3E0600814600A14600C64
:10216C00800DEA42808008EA42908003EA42A01285
:10217C000CE08A088B09A808A909E8496017E5E171
:10218C0070FCE82414F582E93400F583E0F874FF60
:10219C0068600288E174016F700A7A019003C1E0F3
:1021AC00F91212B602210074F11218328A088B0946
:1021BC008C0A8D0B740F1217A2780C12160E908FBE
:1021CC00C378081215E8908FC3780C1215E87808BC
:1021DC00790C12142150157808790C1215C0908FB7
:1021EC00737808121441401579018013780C790822
:1021FC001215C0908F73780C12144140EB79007F4C
:10220C00080218DE74ED1218328A088B098C0A8DBC
:10221C000B74131217A2780C12160E908FC3780839
:10222C001215E8908FC3780C1215E8780C79081207
:10223C00142140117808790C1215C0AA08AB09AC0E
:10224C000AAD0B8022751000751100751200751304
:10225C00017810790C1215C078107908121587AA1C
:10226C0010AB11AC12AD137F0C0218DE908FC3783B
:10227C000812160E8A828B8378081215FB7F0402D3
:10228C0018DE74F51218328C828D83780812160EB3
:10229C008A828B8378081215D41222E2C3E098F05C
:1022AC00A3E0991222D4401E908FAB780812160E20
:1022BC008A828B8378081215AD8E828F83E024205E
:1022CC00F0A3E0344EF080A4F08E828F83C3E094B0
:1022DC0020A3E0944E22EA2404F8EB3400F9E8FE43
:1022EC00E9FF8C828D83A3A3A3A3E0F8A3E0F98E6E
:1022FC00828F832274F5121832E9FE900514E0FAED
:10230C00A3E0FBEEC333F8E433F974E728F58274E9
:10231C008E39F583E02AF508A3E03BF5097808121D
:10232C0019D9908FE712162C121EFC740212176C1E
:10233C008A088B098C0A8D0B7410780812154FAA19
:10234C0008AB097F040218DE74F11218328A0C8B68
:10235C000D8C0E8D0F740F1217A2E0FAA3E0FB7414
:10236C00111217A2E0F508A3E0F50974131217A2D5
:10237C00E0FEA3E0FF78081219D9EA2401F508EB76
:10238C003400F509E4F50AF50B780C7908121460A1
:10239C00908F83780812160E780C7908121460AAA4
:1023AC000CAB0DAC0EAD0F121EFC740212176C8B25
:1023BC0009EA450960047A0180027A00EC2AFCEDF6
:1023CC003400FDECF8EDF97A717B021216CB88081B
:1023DC008909E4F50AF50B8E828F83780812161D95
:1023EC00ECF8EDF97A717B021216CB8A088B097422
:1023FC000578081217438E828F83A3A3A3A3E50845
:10240C00F0A3E509F07F080218DEC082C083E990D2
:10241C006000F0D083D08222C0E074F212191EA2A8
:10242C00AFE433FED2AFE589A2E04006E589A2E134
:10243C005003121160758900758900C2C5751A00A8
:10244C00EEA2E092AF7F0102197DC0E0C0D0E8C0DF
:10245C00E0A8A8D2AFC2C7751A00E8A2E792AFD025
:07246C00E0F8D0D0D0E0320F
:10247400FFFFFFFFFFFFFFFFC082C083E9900A0F49
:10248400F002270074F71217C6E99002E0F07C18F6
:102494007D037AFF7BFF1208609002E174FFF0A3D2
:1024A400F0A3E4F0A3F079051207E89002E0E0F964
:1024B4001207107A7E7B08120A4002340E74F4125A
:1024C40017C68A088B09EB548060309002E0E0F96B
:1024D40012121A8A0A8B0BAE0AAF0BEE4F60138EE0
:1024E400828F83E064B07003120800EEFAEFFB12EF
:1024F4001208AA08E5096480FB80047A007B0002C4
:1025040026CF74F21217C674FC121756EAFEEBFFBC
:1025140074121217A21238F5EE4F70030225A97433
:10252400021217A2EEF0A3EF12290AECF0A3ED12A7
:10253400290AAA82AB8312070AE9F50A706AE50838
:10254400450960648E828F831238DBEE4F60567AC1
:10255400067B0012129E8A0C8B0DA80CA90DE8496B
:102564007005750A13804188828983E41225B6EECA
:10257400F0A3EF123906E508F0A3E509F09002E6AE
:1025840012263D9002E670051233B8801B1233A662
:102594008003EAFCEBFD8C828D8312263D70F38C64
:1025A400828D8380E3750A02A90A740412176C02EF
:1025B4003AF5F0A31238ACA32274F21217C6890AB2
:1025C400E975F017A4FEAFF09002E5E4F09002E3A1
:1025D40012263D600A1212A49002E3E4F0A3F0EE86
:1025E400FAEFFB12129E8A088B09EA4509602FEE66
:1025F400FCEFFD79001211F69002E3E508F0A3E583
:1026040009F07B008008122627E4F0A3F00BEBC34B
:10261400950A40F2E50A9002E5F079008002791308
:10262400023AF5EB75F017A4F8A9F09002E3E0285C
:10263400FAA3E0398A82F5832212304AEA4B2274E3
:10264400F41217C6740C1217A21238D0FEE9FF75E3
:102654000800750900800CE5082401F508E5093433
:1026640000F509C3E5089CE5099D503285080A85F3
:10267400090B7403780A121743EA250AF8EB350BA1
:10268400F988828983A3A3A3A3A3A312348DEE653F
:102694000A7003EF650B70BFE8FAE9FB80047A0067
:1026A4007B00802774F41217C67900EAA2E0501B5D
:1026B40075084675098F78081219D97C047D007A4B
:1026C400117B0A1207E2740212176C7F0402189835
:1026D400C082C0839002E6122707601C8882898327
:1026E400A3A3E06A7003A3E06B8882898370E8A3E4
:1026F400A3A3A312304680047A007B00D083D08247
:10270400020132123BDBE8492274EE1217C674FC54
:10271400121756EAFEEBFF851882851983E4F0A3AD
:10272400F0EE2402123398EE24051238B3EE24049A
:10273400F50EEF122CBFE024FE603924FC60462421
:10274400FE605224FE605E24FE700302282024FEF4
:10275400700302288424FE700302289324FE70036D
:102764000228A224FC70030228B124FE700302286C
:10277400C00228FD9002FF7417F0A3E4122912127C
:1027840004880228FD851882851983AC82AD8312E2
:1027940008060228CD851882851983AC82AD831280
:1027A400080C0228CD850C08850D0974021217A2A5
:1027B400AC82AD8385088285098312304612072EC8
:1027C4008A0C8B0DAC0CAD0DEC4D603BE4F50CF5B7
:1027D4000D780C1219D9750CFF750D02780C1219AD
:1027E400D9750C00750D03780C1219D974081217D9
:1027F400A21219F0123D5712176CE9F50C700B1266
:10280400303C1204A0800F750C0185088285098371
:102814001229001233B8850C080228D0740212174A
:10282400A2AC82AD83850C82850D83122E11603C8F
:10283400850C82850D83A3A31219F07510FF751101
:102844000278101219D97510007511037810121935
:10285400D974081217A21219F0123D5712176CE915
:10286400F509700B12303C1204A6800F750901851E
:102874000C82850D831229001233B8850908804C17
:10288400851882851983AC82AD83120812803A853B
:102894001882851983AC82AD83120818802B8518A1
:1028A40082851983AC82AD8312081E801C85188230
:1028B400851983AC82AD83120824800D8518828526
:1028C4001983AC82AD8312082AE9F508E50860296A
:1028D4008E828F83A3E06414601F850E82850F832C
:1028E400E09002FF12290A123BD79003001233B87A
:1028F400E508A31229121204820232A7123BDB85D7
:10290400188285198322F085188285198322F07C28
:10291400FF7D02850A82850B8312304A2274EE12EF
:1029240017C674FC1217568A0A8B0B8C0E8D0FEA8D
:102934002405F508EB3400F5097C157D0079007A4F
:10294400FF7B021211F6E5082402F50CE5091238A2
:10295400B6851882851983858210858311781012B3
:1029640019D9850882850983A3A3A3A3122E08126B
:1029740019D9E5082405F510E5093400F511781096
:102984001219D9850C82850D8312315D12072874C2
:102994000612176C8A108B11AE10AF11E50A2402CF
:1029A400F50AE50B12339BEE4F7003022ADF801702
:1029B40074021217A212304688828983EAF0A3EBCC
:1029C400F09002FFE004F09002FFE0C3940540039E
:1029D400022ADFE4F510F51178101219D97510E800
:1029E40075110278101219D97510E9751102781051
:1029F4001219D974061217A21219F07910EEFCEF0D
:102A0400FD123D5912176CE9705E850882850983B1
:102A1400A3A3A3A3A3A3A3E0F89002E8E0687048EB
:102A2400122E081219D97CE97D02E5082408FAE57A
:102A3400093400FB1211F0740212176CE960298E3C
:102A4400828F83A3A3A3A31230469002FFE0F51064
:102A54007402781012174374002510F5827403353C
:102A640011F583EAF0A3EBF074021217A285821029
:102A740085831178101219D974021217A21219F051
:102A8400850C82850D8312306C12176C8A108B11A1
:102A9400AE10AF119002FFE0F510751100740278CA
:102AA4001012174374FF2510F874023511F9888247
:102AB4008983A312263D70030229ABE82403080886
:102AC40008E93400F9EE4F60030229B4888289834F
:102AD40074FFF0A3F09002FFE004F09002FFE060C6
:102AE4000A12303C1204947900800B85088285090F
:102AF400831233AF790A0232A774EA1217C674FE3E
:102B04001217568C128D13EA2405F50CEB123D4175
:102B14001238DF750800750900EA2402F510EB3459
:102B240000F51185188285198385820A85830B78BF
:102B34000A1219D9850C82850D83A3A3A3A3122C91
:102B4400D51219D9E50C2405F50AE50D12339B7845
:102B54000A1219D9850C82850D83122CD9120728E3
:102B6400740612176C8A0A8B0BEA450B7003022C4D
:102B74007AEA2404F50EEB122CBF1238DF8A828B1A
:102B840083A3A3A3E0F985108285118312305060DA
:102B940003022C7AE4F514F51578141219D9751476
:102BA400E875150278141219D97514E975150278A7
:102BB400141219D974061217A21219F07913AC0A57
:102BC400AD0B851082851183123D5F12176CE9F5F8
:102BD400096003022C7A9002E8E0F8E5087009E045
:102BE4002402900300F08014900300E0FCE8240227
:102BF400FAE43400FBEA6C7001EB707E850882AA6B
:102C040082122DFF9414122DF7506B850E82850FBE
:102C140083E0C0E074012A122CB6D0E0F0050885E8
:102C24000E82850F83A3E0C0E085080A7401250A9B
:102C3400122CB6D0E0F005089002E8122CD5121937
:102C4400D97CE97D0285080A7401250A122CC9126F
:102C5400176C9002E8E02508F50874FF6E700374A1
:102C6400FF6F6012EE24010EEF3400FFE508C394F9
:102C7400145003022B27E508601312305A85108282
:102C840085118312304612049A79008014E5097084
:102C94000375090A851282851383EEF0A3EFF0A968
:102CA40009740212176C7F0E02189885080C7401BF
:102CB400250CF58274033400F583223400F50F8566
:102CC4000E82F58322FA74033400FB1211DE7402BF
:102CD4002212391522A3A3122CDF221233A6FDEEF1
:102CE400FAEFFB2274EE1217C674FE1217568C0EFE
:102CF4008D0FEA2405F50CEB1238B6750B00900223
:102D0400FFE4F0F50AEA2402F508EB3400F5098043
:102D1400449002FFE0FA9002E8E0F8122DFF9417C5
:102D2400122DF7400D9002FFE0F87416C39890023C
:102D3400E8F0122E081219D97CE97D0274002AFAEF
:102D44007403122CCC12176C9002E8E0F89002FF86
:102D5400E028F0050AE50C2416F582E50D122CBADC
:102D6400E0F8E50AC39850749002FFE0C39416504B
:102D74006BE50AC333F8E433F9E50C28FEE50D39B5
:102D8400FF851882851983AC82AD838E828F83126E
:102D94002E117008750B011233AB8050E4F510F559
:102DA4001178101219D97510E875110278101219DA
:102DB400D97510E975110278101219D97406121711
:102DC400A21219F07916850882850983123D5F12D3
:102DD400176CE9F50B7003022D1580BB7CFF7D0297
:102DE4008508828509831230461204ACA90B74024B
:102DF4000232A9E99400C365D03322EA28F8E43406
:102E040000F9E822E0F51075110078102212329EC4
:102E14008A108B11AC10AD11EC4D2274EA1217C656
:102E240074FC1217568A0C8B0D8C128D13EA240530
:102E3400F50AEB12339B750800750900E50A2402B4
:102E4400F510E50B3400F51174021217A285820EF9
:102E540085830F780E1219D9850A82850B83A3A363
:102E6400A3A31238BB1219D9E50A2405F50EE50B04
:102E74003400F50F780E1219D9851082851183124A
:102E840033A1123040120728740612176C8A0E8B75
:102E94000FAE0EAF0FE50C2402F50EE50D3400F570
:102EA4000F80388882898374FFF00508122CAF7470
:102EB400FFF005089002E8E0F50C750D00780C129F
:102EC40019D97CE97D0285080C7401250C122CC9E2
:102ED40012176C9002E8E02508F508EE4F60278E83
:102EE400828F83A3A3A3E0F9850E82850F8312301A
:102EF40050EE24041238B3E96027850C82850D83D3
:102F04001230321233B8E508700302301812305A06
:102F1400850E82850F831230461204B27900023086
:102F24002DE4F514F51578141219D97514E87515EE
:102F34000278141219D97514E97515027814121946
:102F4400D974081217A21219F07911EEFCEFFD855D
:102F54000E82850F83123D5F12176CE9F509709A92
:102F6400850882AA82EA9002E87009E024049003AA
:102F740000F08025E0F8900300E0F514E82404FC58
:102F8400E43400FDEC65147001ED7081122DFF94A2
:102F940012122DF74003022F11850C82850D83E058
:102FA400C0E074012A122CB6D0E0F00508850C822A
:102FB400850D83A3E0C0E0122CAFD0E012307585FC
:102FC400820C85830D780C1219D974041217A2127D
:102FD40019F085108285118312306C12176C8A0CDB
:102FE4008B0DAE0CAF0D85080C7401250CF8740321
:102FF4003400F9EE4F7003022EA7851882851983D9
:10300400E088828983123075A3E0C0E0122CAFD02F
:10301400E0022EB5E509700375090A850A82850B5D
:10302400831230321233B8A9097404022CA7123B5C
:10303400DB851282851383227CFF7D02850A8285CB
:103044000B8312304A22E0FAA3E0FB2212304A1228
:103054000716E9F50922900300E0F5F0E5088490ED
:1030640002FFF07CFF7D0222122CDF12073474046D
:1030740022F005088518828519832274EC1217C67C
:1030840074FE1217568A088B098C0E8D0FEA2405DC
:10309400FEEB3400FF123288EE24181238B3EA45EE
:1030A4000B700302312B12327150291231508A10E5
:1030B4008B11EA4511606B7912AC0AAD0B8508825D
:1030C4008509831230468510828511831217C4E95D
:1030D400F50A7058E4F50AF50B780A1219D98E82AC
:1030E4008F83A3A3E0F50A780A1219D9EE240312F8
:1030F4003398780A1219D98E828F8312315D12089F
:103104004E740612176CE9F50A7021850C82850D40
:1031140083E0701F8508828509831230461204B843
:103124008011750A0E8009750A018004E50A60039E
:103134001233AB850C82850D83E060047900800234
:10314400A90A740212176C7F0C02189885188285DC
:10315400198312304A12083C221233A6FD850882D4
:1031640085098312304A2274EE1217C674FE1217B0
:10317400568A088B098C0C8D0DEA2405FEEB34006D
:10318400FF750E00123288EA450B700302324F12AB
:103194003271502C1231508A0E8B0FEA450F604A5F
:1031A4007912AC0AAD0B85088285098312304685F5
:1031B4000E82850F831217C4E9F50E6003023252A2
:1031C40085088285098312348DAA0AFB1232637042
:1031D400147AFF7BFF123263606C88828983E50A6C
:1031E400F0A3E50BF0750A008007750E0E805F05ED
:1031F4000A9002E5E0FAE50AC39A504AE50A75F036
:1032040017A4FAABF088828983A3A3E02AFAA3E087
:103214003BFB8A828B831233A1EC4D70D2750A1763
:10322400750B00780A1219D9EEFCEFFD1211DE7449
:103234000212176CEEFCEFFD8508828509831230BB
:10324400461204BE8014750E098003750E01123BEC
:10325400D3850C82850D831233B8A90E022DF21288
:1032640008308A108B11A810A911E84922E5082416
:1032740002F508E5093400F5098A828B83A3A3A328
:10328400E0A2E522851882851983AC82AD838E8203
:103294008F8312329E8A0A8B0B22E0FAA3E0FB1280
:1032A400072E22740412176C7F0A02189874EC1209
:1032B40017C68C108D11EA2405F50CEB1238B6757F
:1032C4000F00EA2402F50AEB12339B850A82F58388
:1032D400123046123DE5700302338D750E00807185
:1032E400850C82850D83E06401704F8E828F83A3E9
:1032F400A31219F08E828F83A3A3A3A3E0F5127502
:10330400130078121219D9EE2405F512EF3400F5E2
:103314001378121219D912304012084E740612177B
:103324006CE9F50F6014850C82850D83E4F0123B83
:10333400D38510828511831233B87C177D00790000
:10334400EEFAEFFB1211F68E828F83E4F0A3F00500
:103354000E9002E5E0F8E50EC398501EE50E75F0F8
:1033640017A4F8A9F0850882850983A3A3123D4B0D
:103374001233A1EC4D60030232E48508828509838F
:1033840074FFF0A3F0E50F70061230401204C4A9D4
:103394000F02314BF50AEF3400F50B22A31233A6CA
:1033A400FD22E0FCA3E0228E828F83123BDB850E9C
:1033B40082850F83E8F0A3E9F022C082C0839002E3
:1033C400E1E06A7003A3E06B70067AE17B0280049B
:1033D4007A007B0002270074F71217C67F00EF758E
:1033E400F003A4F8A9F0EC28F8ED39F98882898370
:1033F400E06A7003A3E06B7006E8FAE9FB800B0F48
:10340400EFC3940240D87A007B007F0102189874BD
:10341400F61217C61239C470067A007B008007A31F
:10342400A3A3A3123046023A8574F21217C6E9FE2A
:10343400740E1217A212348D74101217A21238F5DA
:103444008C828D83E06402703BA3123BD78882890F
:1034540083E0F50CA3E0F9A80C74026870037429E6
:10346400697021750C02750D00780C1219D9780851
:103474001219D9780A1219D9EEF9120872740612BF
:10348400176C80027901023AF5E0F50AA3E0F50B26
:103494002274E81217C674FB121756E98518828540
:1034A4001983F08A168B178C0E8D0F741F1217A2B6
:1034B4001238F574211217A212348D74231217A234
:1034C4001238DF7510008C828D83A3A3A3E0A2E4DD
:1034D400502A741D1217A21231568A828B83E582F8
:1034E400458370030235A1790AAC0EAD0FAA16AB61
:1034F400171217C4E9F51060030235A4850E8285FE
:103504000F83E06402600302385AA3123BD7850894
:1035140082850983A3858212858313E50E2406F52B
:103524000CE50F1238B688828983E0FAA3E0F9EA41
:103534002400F514E439F5157814121A6301000017
:1035440028012869350700022840360328B03500D1
:10355400296A37012992370229393703296A37043E
:1035640029FB375A38EE4F703E850C82850D831245
:1035740038D0FAE9FB8A828B83E0850A82850B8343
:1035840012390C1219D98A828B83A31233A6FDAA8D
:1035940008AB091211DE740212176C800375100E49
:1035A400A9107405023D3975100B80F4EE4F70F7C5
:1035B400850A82850B837401F01238E585088285BB
:1035C4000983F07C007D00850E82850F83A3A3A36D
:1035D400A3E02401FAA3E03400FB12072EEA4B60B7
:1035E400418A828B83E02402F8850A82850B83E07A
:1035F40028F0EA2404F8EB3400F988828983E08512
:10360400128285138312391E12390C1219D98A8237
:103614008B831233A0E5082403FAE5093400FB0286
:103624003597850A82850B83E02404F07C047D00B1
:103634007900AA12AB131211F60235A4EE4F6003FF
:103644000235AB1238E5FEA3E0FF850A82850B83C1
:103654007404F0EE850882850983F0EF8512828573
:103664001383F074031217A2AC82AD83EEFAEFFB5E
:103674001239B270030237168A828B83A3A31238DD
:10368400DB74011217A285820E85830F780E12193E
:10369400D974051217A21219F07CFF7DFF120734AA
:1036A400740412176C8B0FEA450F7033850C8285F6
:1036B4000D831238BB1219D9850C82850D83A31290
:1036C40019F07C027D007A147B9012056074041258
:1036D400176CE9700A74011217A274FFF0A3F08E3C
:1036E400828F83E064027034750C02750D00780CCF
:1036F4001219D98E828F831233A0E5082404FAE5C7
:1037040009122CCC12176C850A82850B83E02402E3
:10371400800974011217A2EEF0A3EFF074011217DE
:10372400A21238CCF074011217A2A31238C4A3A3B6
:10373400A3F00235A4EE4F60030235AB850C8285FD
:103744000D831233A1AA16AB17120866850A828567
:103754000B837402F0EA850882850983F08512825E
:10376400851383EB80CBEE4F60030235AB1238E553
:10377400F8A3E0F9850A82850B837402F0E88508D2
:1037840082850983F0E985128285138380A3850CE1
:1037940082850D831230461211D8EAFC8C82A882ED
:1037A400C39EE49F404BE86E7001EF70047C008080
:1037B4001F851882851983E0FAEE2AFAEF3400FB9C
:1037C400C3EA98EB94005003E08004EECCC39CFC65
:1037D400EC850A82850B83F08C0A750B00780A123B
:1037E40019D9850C82850D83E02EFCA3E03F0235B8
:1037F400927510070235A4EE4F60030235AB850CB9
:1038040082850D83123BD7850A82850B837407F06A
:10381400888289831238C41238ACE08512828513F9
:1038240083F0E82402FAE93400FB8A828B8312389D
:10383400C41238FD1238CCA31239061238D5F0E878
:103844002405F8E93400F9888289831238D5A31253
:10385400391EA3023732741D1217A21239BD700328
:103864000235A1123BD7880C890DE8450D7003027F
:1038740035A18E108F1178101219D9780A1219D91E
:1038840078081219D974061217A2E0F9AC0EAD0F1C
:10389400AA16AB17850C82850D831217C474061201
:1038A400176CE9F5100235A4F088828983A322F508
:1038B4000CEF3400F50D22E0F50E750F00780E22A2
:1038C400E08508828509832212392522123BDBE830
:1038D40022123925A3A322A3A3A3A3E0FEA3E0FFFE
:1038E40022850C82850D83E0F8A3E0F5838882E0CD
:1038F40022E0F508A3E0F50922A3A3F08A828B83D2
:10390400A3221225B8A3A322F08A828B831239152D
:1039140022E0F50A750B00780A221238AC12392518
:1039240022E0850882850983A3A32274EE1217C6B8
:1039340074FE1217568A0A8B0BECFAEDFB74141200
:1039440017A2E0F510A3E0F51174161217A2E0FE19
:1039540074181217A2E0F50EA3E0F50F85188285FE
:103964001983AC82AD831239B2603E851882851901
:10397400831239BD602FA3A31238F5E50845096009
:1039840024780E1219D978101219D9EEF9AC0CADAD
:103994000DAA0AAB0B8508828509831217C4740427
:1039A40012176C8006790E80027901022DF212073B
:1039B4002E8A0C8B0DEA450D2212304A1239C4228C
:1039C4001207FA8A828B83E58245832274F61217E2
:1039D400C674FE121756740C1217A21238D085182A
:1039E40082851983F074011217A2E9F0E4F508F551
:1039F4000978081219D975080278081219D97404BB
:103A04001217A285820885830978081219D9120829
:103A14004E740612176C740212176C806474F712D9
:103A240017C6EAFEEBFF89087C187D03120866EAD4
:103A34005402600BA908EEFAEFFB12072280027908
:103A44000102340E74F61217C674FF6A700374FF11
:103A54006B701C7B00EB75F003A4F8A9F0EC28F85C
:103A6400ED39F9123A8A0BEBC39402501480E61232
:103A740008368A088B09A808A909E8496003123A9C
:103A84008A7F020218988882898374FF1225B6E41B
:103A9400F02274F61217C61208368A828B83E582E6
:103AA40045836006A3A3E0FA80027A007B0080D1FC
:103AB40074F21217C68A088B09ECFEEDFF740E121D
:103AC40017A2E0F50A123AFA701CEEFCEFFD7AFF39
:103AD4007BFF123AFA70047911801688828983E593
:103AE40008F0A3E509F088828983A3A3E50AF079A5
:103AF400007F060218981208368A0C8B0DA80CA9B0
:103B04000DE8492274EE1217C6EAFEEBFF8C088D0D
:103B140009890C74121217A2123BD774141217A23B
:103B24001233A174161217A2123046750D00EC4D13
:103B34006003023BCB7402650C6003023BC68882BF
:103B440089831233A6F9EC2400F50EE439F50FEA63
:103B5400F4F8EBF4F9EC58F8E50F59F9E849705D1D
:103B6400E5082406F8E5093400F9880A890B8882F7
:103B7400F583122CDB1208668A108B11E50E651092
:103B84007004E50F65116042780E1219D9850A8216
:103B9400850B83122CDB12086C740212176CE9F586
:103BA4000D7027780E1219D9850882850983A3A37D
:103BB400122CD9120884740212176C800D750D80B2
:103BC4008008750D0D8003750D0BA90D0232AC8EA6
:103BD400828F83123BDB22E0F8A3E0F92274E8121F
:103BE40017C674E7121756851882851983EAF0A35D
:103BF400EBF08C168D17890E74311217A2E0F512B2
:103C0400A3E0F51374331217A2E0F514A3E0F5153D
:103C140074351217A2E0F50F750800750900E5095F
:103C240075F003A4F8A9F0851882851983123D4B19
:103C3400E0F47003A3E0F47003023D29EE2402F5DE
:103C44000CEF123D41E07003023D2985160A8517E9
:103C54000B780A1219D9AC14AD15AA12AB131207BA
:103C6400EE740212176C8A0A8B0BEA450B7003027E
:103C74003D29E4F510F51178101219D974061217BC
:103C8400A285821085831178101219D9740912172C
:103C9400A285821085831178101219D98512828524
:103CA4001383A3A3A3A31219F07914AC0AAD0B8E4A
:103CB400828F83123D5F12176CE97069850A8285D1
:103CC4000B83A3A3A3A3123BD774021217A212332C
:103CD400B8850C82850D83E0A2E05018A90E740209
:103CE4001217A2AC82AD838E828F831230461207E4
:103CF40046E94208850C82850D83E0A2E15026E561
:103D04000FF50A780A1219DDA90E74031217A2AC72
:103D140082AD838E828F8312304612074074011263
:103D2400176CE942080509E509C394025003023CF3
:103D340022A908741912176C7F100218983400F520
:103D44000D850C82F58322E028FEA3E039FF8E82E4
:103D54008F83227916850A82850B8312304A1208D2
:103D64004874082274F21217C6EAFEEBFF890B743A
:103D740001650B600E7402650B70637901120A5EB3
:103D8400E9705BEEFAEFFB123DE56047750A0080CF
:103D94000B7C177D0079001211F6050A9002E5E00C
:103DA400F8E50AC3985021E50A75F017A4F8A9F0BC
:103DB400850882850983A3A3E028FAA3E039FB8A56
:103DC400828B8312270770C985088285098374FF53
:103DD400F0A3F07C187D03EEFAEFFB120860023AC0
:103DE400F51208308A088B09EA45092274F2121781
:103DF400C68A088B09ECFEEDFF740E1217A212346A
:103E04008D900A0FE0F4603D7A097B00121202EAF9
:103E14004B60328A828B8374B1F0A3E41238FFA31F
:103E24001238FDA3E508F0A3E509123E4CEEF0A319
:103E3400EF123E4CA3A3E50AF0A3E50BF0900A0FA2
:103E4400E0F912120E023AF5F08A828B83A3A3A33F
:103E5400A3A322C082C0839061907404F0A3744829
:103E6400F0A3E4F09061807440F09061BC7407F0BA
:103E74009061877469F09061B67416F07900120B42
:103E84004E7902120B54902474E493F46006E49384
:103E9400F9120B2A7905120E48024299C082C08396
:103EA400E9540FF9906185E0696012E5C6548044D5
:103EB40049F5C6E59E547F644970F8E9F053C6801D
:103EC400E59E547F70FA02429974F71217C6E5A86A
:103ED400FE53A87E120B36C2BA539AFEC289759B52
:103EE40000C2C2120B3C75A91175B905120B42D25E
:103EF400BA439A0174805E42A8024826C082C083F5
:103F0400906181E4F0A302429675E9007591007511
:103F1400BF00020132C082C083906181E4F0A374C7
:103F2400C0F0A3E4024298C082C08374F81217560A
:103F34009003C4124708E8497003023FE29003C4A7
:103F4400E0544060237908851882851983AA82ABDE
:103F540083120C44851882851983AA82AB831208C4
:103F6400F09003C4E054BFF0E054806010790C7A00
:103F7400807B05120C449003C4E0547FF0E0A2E07F
:103F840050087900123FEA54FEF0E05402600879C8
:103F940001123FEA54FDF0E0540460087900123F36
:103FA400F554FBF0E0540860087901123FF554F72A
:103FB400F0E0541060087902123FF554EFF0E05439
:103FC4002060087903123FF554DFF0A3E054016048
:103FD4000D120B601209029003C5E054FEF0740840
:103FE40012176C024299120B4E1208F69003C4E0A9
:103FF40022120B541208FC9003C4E022C082C08336
:10400400E9600514602A804F90619A7433F0A374B8
:1040140055F09061A0743AF090055CE06401700979
:10402400C2919003C67467802D9003C67461802684
:1040340090619A743FF0A3745AF09061A0747FF079
:1040440090055CE064017009D2919003C67471809C
:10405400059003C6746AF0024299C082C083E96085
:104064000B14600D14600F1460118020902478806C
:1040740015902479801090247A800B90055CE0647C
:104084000160F390247BE493906186F0024299747A
:10409400EE1217C674F4121756851882851983AC6C
:1040A40082AD8375838F75828F7404121669902490
:1040B4007893F46003024225907808E0C394025098
:1040C4000302420574041217A2AC82AD8375838F78
:1040D4007582207408121669F97AFF7BFF7FFF7ED0
:1040E400008982858210801874086E70030241BAB8
:1040F40074096E70030241BA740A6E70030241BA05
:10410400E510C333FCE433FD74041217A2E5822CDA
:10411400F582E5833DF583E0F50EA3E0F50F8E0807
:104124007509007402780812174374482508FC7452
:10413400783509FD8C828D83780812160E74087800
:104144000812154F85080C85090D8C828D8378081B
:1041540012160E7418780812154FE50C4508F50868
:10416400E50DF509C3E50E9508E50F95098C828DDB
:1041740083780812160E8C828D83780812160E74BA
:10418400187808401412154FE50C4508FCAD0DE5F0
:104194000EC39CFCE50F9D800F12154FE50C4508DE
:1041A400C3950EFCE50D950FFDC3EC9AED9B5006EF
:1041B400ECFAEDFBEEFF0EEEC3941350030240EC59
:1041C40074FF6A700374FF6B602D8F0874027808A3
:1041D4001217437448124EB474783509F58378087D
:1041E40012160E851882851983E5822510F582E55D
:1041F40083124C41E508F009E9C3940450030240DA
:10420400DD75080175090078081219D974021217AE
:10421400A2AC82AD837A1E7B0912113C7402121780
:104224006C740C12176C7F0A021898C082C08390B9
:104234006186E0F890247BE49368700990247AE422
:1042440093906186F09061AE7468F0A3746AF09004
:10425400624574FBF0A304F053F4FD43FE029005A1
:104264005C7401F09061A0E0643A7004790080020B
:104274007901120B4E024299C082C08390050EE070
:104284006401700A900513E06004790C80027900DF
:104294008003F0A3F0D083D082020132C082C083B5
:1042A40075E1F1900511E0604D146008146051143B
:1042B40060498051120B72900507E0F97A087B057A
:1042C400120DCA908F8B12162C120E00908FCB12E7
:1042D400162C120DD6900512E0F9120DE279011296
:1042E4000E3C900505E0241612442E748AF0A37443
:1042F4000BF07900809F120B7880BC120B7E80B784
:10430400120B8480B2791280EB74F41217C675D93B
:104314000D9004F6E0A2E0E4331313F812439A4834
:104324004401F5D9780012441840FB7800880874D9
:10433400F7124EB4740412442240F275E1959004CD
:10434400F6E0F97AF77B04120DD0900A317400F08C
:10435400A3740B12443D12445D1244541245951249
:1043640043A4780812160E908F87780812159A9035
:104374008FC378081215E8124428780812161D9085
:104384000505E0241412442E7413F09003C2740241
:10439400F07F04021898900507E0C4333354C02218
:1043A400900505E0F8A3E0F5838882A3A32274F6C0
:1043B4001217C61245668AD9780012441840FB7851
:1043C4000080061244CC124618E8C39940F5124501
:1043D4005812441840FB78008008124EB07405123D
:1043E4004618E8C39940F375E195900A31740CF0CE
:1043F400A3740B12443D12444712162C1244281283
:104404001638900505E0241412442E7412F090031B
:10441400C2024803880874082508F5827405124707
:1044240074940622900505E0240EF8A3E0124435A6
:10443400223400F9888289832212457E7406F0A30F
:10444400740B2212445D124454124599908FAB228E
:10445400F0A3741EF0A3740B22124461221244656B
:1044640022F0A374B0F0A3740C2274F61217C612CF
:1044740044C112439A4402F5D9780012441840FB0F
:10448400780080061244CC124618E8C39940F575AA
:10449400E195900A311244D7F0A31244D712444A4A
:1044A40012162C124428121638900505E024141212
:1044B400442E7414F09003C2740402480590051746
:1044C400E0F9740729F5D922880874182508F582BB
:1044D40074052274181244E41244E4F0A3740B2209
:1044E400F0A3740BF0A374182274F61217C61245C5
:1044F4006674064AF5D9780012441840FB780080A7
:10450400061244CC124618E8C39940F512455812D5
:10451400441840FB78008008124EB0740512461807
:10452400E8C39940F375E195900A317412F0A374CD
:104534000B12457412444712162C124428121638D2
:10454400900505E0241412442E7415F09003C274EF
:10455400030248059005371244C474044AF5D97817
:1045640000221244C1900507E0C4333354C0FA2238
:1045740012457E74B0F0A3740C22124582221245B7
:104584008F74B0F0A3740C12458F22124465F0A30B
:104594002212459922F0900A3F74B0F0A3740C12D1
:1045A400458274B0F0A3740C124461F022C082C03E
:1045B400831243A4A3A3A3A3E402429674F712179D
:1045C400C61250F6F8740339F9E82405FAE9340000
:1045D400FB8A828B83124E6588828983A3A3A3A35B
:1045E400A3A3A3A3A3ECF0A3EDF088828983A3A3E0
:1045F400A3A3A3A3A3E024FFF8A3E034FFF98A82D2
:104604008B83E8F0A3E9F002482688087460250843
:10461400F5827405124D8CF5D90822EAFEEBFF9061
:1046240061D0E0F87480C398FAEE248322124637EE
:10463400940422124C4FE0F5D90AEAC32274F6120C
:1046440017C6EAFEEBFF9061D0E0707575D90E7560
:10465400D90375D9047A008A08EE25081251C424B6
:104664008C1246DA40F17A008A08EE25081251C409
:10467400248412463140F175E1957908EE248C12B8
:1046840046D324841246CA7C008C82AA82C3E49A4C
:10469400F895E0F9EE28F8EF39F9E8248BF582E98A
:1046A400124D88C0E0EE2A1251C424ABF582E912FF
:1046B4004C41D0E0F00CECC3940840CD12479080FC
:1046C400027900024806FAEF3400FB120C38221279
:1046D40046CA7904EE22124637940822C082C08367
:1046E40075D90275D90375D90575E195EA2470F574
:1046F40082EB124705EA2472F582EB1247A20242CA
:1047040099124C5212470C22E0F8A3E0F92274F6F5
:104714001217C6EAFEEBFF900560740612477E127C
:1047240019D97C017903124AAA12176C75D9067536
:10473400D903780012476440FB75E1959003C2E009
:1047440064087017EE2470F582EF124705EE2472A8
:10475400F582EF124C41E8F0A3E9F0790102480632
:10476400880874602508F58274051247749405223C
:10477400124C52E0F5D908E8C322F07508607509B7
:104784000578082275E1957904120E06EE2470F579
:1047940082EF124C5212470CEE2472F582EF124C47
:1047A40052E8F0A3E9F079012274F61217C6EAFE82
:1047B400EBFF9061D0E070437901900560740BF0D9
:1047C4009003C2E0640770177508607509057808DE
:1047D4001219D97C010909124AAA12176C790574B5
:1047E4000129F5D975D9037800800312460EE8C370
:1047F4009940F875E195124790800279008003741E
:1048040001F07F0202189874F71217C6EAFEEBFF54
:1048140075D90375D90375D90DEE24DE12482B1210
:1048240047887F01021898F582EF124D8CF5D92242
:104834007F030218987401250AF5D975D903780005
:104844002274F51217C61248BA60047804800278FC
:1048540000E8240BF8EAC3984041750A0990056002
:104864007409F079081248A3601475086075090585
:1048740078081219D9124AA212176C750A0D124837
:1048840039800312460EE8C3950A40F775E195791D
:1048940004120E06124A1F7901800279008091EEFB
:1048A40024E3FCEF3400FD7A617B05120C328508A9
:1048B40082850983E02212461FF8EF124E59F583D0
:1048C400E02274F31217C68A088B09124AB5FAE576
:1048D400082483F50AEB1249846004780480027882
:1048E40000E82408F8EAC398500302497D750C06D1
:1048F400900560740CF09003DFE0900561F07402A1
:10490400C0E0F97CE07D037A627B05120C32D0E0D2
:10491400F97CE27D03120C32850A82850B83E06008
:104924001C750A60750B05780A1219D97C0679037F
:10493400AA08AB09124AAA12176C750C0A7401254D
:104944000CF5D975D90378008009880A7460250AA2
:10495400124614E8C3950C40F175E1957904120EE2
:1049640006E5082470F582E509124705E508247276
:10497400F582E5091247A2800279007F05021898A2
:104984003400F50B850A82F583E02274F61217C60B
:10499400EAFEEBFF124AB5FCEE2483F8EF124AB0AC
:1049A40060047A0480027A00EA2404FAECC39A4090
:1049B4005E7A02900560EAF0EE24F5F582EF124A81
:1049C4002B601975086075090578081219D97C02DD
:1049D4007903EEFA124AAA12176C7A0674012AF5C0
:1049E400D975D9037800800312460EE8C39A40F8BB
:1049F40075E195EE2474124A18EE2480124A1812B6
:104A04004A1F7904120E06EE240D12479380027990
:104A140000024806F582EF124B9B22EE241DF5821C
:104A2400EF124B9BA3F022124D8C900561F088820B
:104A34008983E02274F61217C6124AB5FEEA24836B
:104A4400F8EB124AB060047C0480027C00EC24047D
:104A5400FCEEC39C40437C029005607407F0EA249A
:104A6400F6F582EB124A2B60157508607509057816
:104A7400081219D97903124AAA12176C7C06740118
:104A84002CF5D975D9037800800312460EE8C39C2F
:104A940040F875E1957901800279000248067C09A5
:104AA4007903EEFAEFFB120CA4740222124435E0EF
:104AB400229061D0E0F87480C3982274F51217C66E
:104AC400E9FEA2AFE433F50AC2AF7F00EA246FF82F
:104AD400EB3400F980010F88828983E0FCEFC39CEA
:104AE40050188F08EA2508FCEB3400FDEC246BF524
:104AF40082ED124D886E70DE8010EA2CFAEB3400E1
:104B0400FB124C3BEE124A3104F0E50AA2E092AFEC
:104B140002483474F61217C6A2AFE433FFC2AFEAF8
:104B2400246FF8EB1251C6FCE9FD8C828D83E014EE
:104B3400F07E0080218E08EA2508F8EB1251C62485
:104B44006CF582E9124D88C0E0E8246BF582E91225
:104B54004C41D0E0F00E8C828D83E0F8EEC3984097
:104B6400D4EA246E124C3E74FF124B90EFA2E092F2
:104B7400AF024806C082C083E5A8F8C2AF124C3B1E
:104B8400E9124B90E8A2E792AF024299F0EA246A54
:104B9400F582EB124B9B22124C52E4F02274F21277
:104BA40017C68C828D83A3A3A3A3E0541FF0EA2429
:104BB40036124EFD8E828F83E4F0F50C850C8285CF
:104BC400820AEC250AF8ED124E55F583E0C0E0EABE
:104BD400250AF8EB124C45D0E0F0750D00850882EB
:104BE400850983E0F50A750B00E50D780A12172490
:104BF400E50AA2E0502AE50C33333354F8250DC0FE
:104C0400E08E828F83E0F8EA28F8EB1251C624384C
:104C1400F582E9124C41D0E0F08E828F83E004F0FB
:104C2400050DE50DC3940840B4050CE50CC39405CB
:104C3400408A7F06021898EA246BF582EB124C52E4
:104C4400223400F9E8245D124C4F22F582E9340045
:104C5400F5832274F61217C69003EEE06401700720
:104C64007A007B00024D827E009003F4E070F174C0
:104C740001F0A3E4F0A3F090045404F0900457E48A
:104C8400F0A3F090045A04F09003F7E4124D9990C5
:104C9400040104F0900427E4F0908FE312162C90A2
:104CA400040A12163890040EE4F0A3F0A3F0900462
:104CB40072F0900466F090045B7480F0A3E4F090CA
:104CC4000461F0900459F09004DD124D919004E6D3
:104CD400F0900475F09004C5F0A3F0908FE31216E1
:104CE4002C9004C7121638908FE312162C9004CB24
:104CF4001216389004D1E4F09004D3F09004CFF06D
:104D04009004E9124D918E08745D124EB47404122D
:104D14004C4174FFF00EEEC3940440EA7E008E8290
:104D2400A88274FD28F5827404124D88C0E0744F83
:104D340028F5827404124C41D0E0F00EEEC39405C1
:104D440040DC7E008E82A88274D628F58274031219
:104D54004D88C0E074D528F5827404124C41D0E02B
:104D6400F00EEEC3940840DC9003EEE004F064011E
:104D740070089003F6E09003F0F07AF27B030248A7
:104D840006F582EF124D8C22124C52E022124D99FC
:104D9400A3124D9922F0A3F0A3F0A3F022C082C085
:104DA40083EA2403F582EB124D886008E4F0900353
:104DB400EFE014F09003EEE014F070069003F0744A
:104DC400FFF08A828B83A3A3E4F0900502E0700DC8
:104DD4009003EFE0640170057900120DE802429936
:104DE400C082C0839003F5E4F09003F4F09003EEE6
:104DF400F0A3F0A374FFF075E1F1024299C082C000
:104E040083780079009003F5E0600478F2790388F0
:104E1400828983A3A3A3A3E0F902429974F612172B
:104E2400C6EAFEEBFF120BEAEE2465F8EF124E55CC
:104E3400124E63EC4D60109003F01250EE85088220
:104E4400850983E4F0A3F0EEFAEFFB120CDA0248D2
:104E540006124E59223400F988088909888222F5FD
:104E640083E0FCA3E0FD2274F71217C6EAFEEBFF11
:104E74008E828F83A3A3A3A3E0FA7B00120968EEBA
:104E8400FAEFFB120BFC120CBC02482674F6121744
:104E9400C67800880874D6124EB47403124A1B08EC
:104EA400E8C3940840ED9003D60248038808743898
:104EB4002508F5822274F61217C6EA240D124EFD57
:104EC400EC2403F8ED3400F988088909EC2407F888
:104ED400ED1251C6FCE9FD124F071216CB8E828FDC
:104EE40083E8F0A3E9F0124F071216CB8B09EA45C9
:104EF400096003124F1A024806F8EB3400F9E8FE81
:104F0400E9FF228C828D8312470C850882850983F0
:104F1400E0FAA3E0FB228E828F83E02401F0A3E079
:104F24003400F02274F61217C6EA242EF582EB340C
:104F340000124E63EA2470124EFD780079FAECFAFE
:104F4400EDFB1216CB8E828F83E8F0A3E9F0780094
:104F540079FAECFAEDFB1216CB8B09EA45096003EA
:104F6400124F1A02480674F01217C6EAFEEBFF74D9
:104F7400101217A2780812160E120D948A0C8B0DBB
:104F84008C0E8D0F908F7F780C12159A908FC378AA
:104F94000C1215E8780C1219D58E828F831243A750
:104FA40012162C1221B3740412176CE96003025018
:104FB400528E828F83E02402F8A3E01251C6FAE9EC
:104FC400FB8A828B8378081215AD908FC378081200
:104FD400160E8A828B8378081215FBEE240BF58259
:104FE400EF124C41C082C0838E828F83A3A3A3A3FC
:104FF400A3E02401F8A3E03400F9D083D082E06870
:105004007003A3E069700479018045EE2407F8EF8A
:10501400124435124F1EEE24741251CB7014EE2438
:10502400751250597003A3E06D70078A828B831246
:105034004F1EEE24801251CB7014EE24811250596D
:105044007003A3E06D70078A828B83124F1E790070
:105054007F08021898FAEF3400FB8A828B83E0FC05
:10506400A3E0FD88828983E06C2274F31217C612D0
:1050740050F6FE740339FFEE2404F50AEF3400F50C
:105084000BEE2465F508EF3400F5098010124E6527
:10509400850882850983E4F0A3F01250E88508822C
:1050A400850983124E65EC4D6030EE2464124D8503
:1050B400F50C780C1219DDEE2463124D85F9EEFA25
:1050C400EFFB120C26740112176CE985088285091E
:1050D4008360BA124708E84970077C007D001250CB
:1050E400E802497F850A82850B83E0FA7B00120976
:1050F40026229003F0E0F875F004A4C8AAF02AF977
:1051040074F2282274F21217C6EAFEEBFF890A74BD
:105114000E1217A2E0FAEE24621251CB6003025180
:10512400BF124AB5F50CEE2483124D85FB6004785A
:1051340004800278008908E928F8E41251C62402A0
:105144000808E93400F9E50C98E499A2D265D03353
:105154004065EA7005750B028003750B01EB603343
:1051640075090078081219D97A607B05120C6E74DF
:105174000212176C75086075090578081219D9AC04
:105184000AA90B124AA612176C7404250AF50A7CA4
:10519400607D057401250AF5D9850BD97800800A4C
:1051A4008808EC124EB4ED124618E8C3950A40F094
:1051B40075E195790080067907800279FF024C3603
:1051C400F8EF3400F9E822F582EF124D8C640122E5
:1051D400C082C0838003125202E9F874FF281904C4
:1051E40070F4ECFAEDFB024299C082C08380031292
:1051F4005202E9F874FF28190470F40242998C826F
:105204008D83E08A828B83F08C828D83A3AC82AD04
:10521400838A828B83A3AA82AB832274F41217C677
:10522400E9FF7E008A088B097808121A1D00040D14
:10523400C55352526F5288529F52BC52D352F452A9
:105244000B531E534753615371538753A153740136
:105254006F60030253C18C828D83E0F8C3940340D2
:10526400030253C1E8900AF902539E74026F60036B
:105274000253C18C828D83125B5A900AFAE8F0A320
:10528400E902539E74016F60030253C11253E74055
:10529400030253C1E890076402539E74016F6003D4
:1052A4000253C18C828D83E0F8C3940540030253FA
:1052B400C1E890076502539E74016F60030253C1F5
:1052C4001253E740030253C1E890076602539E74E9
:1052D400106F60030253C17508108E097808121903
:1052E400D97A677B071211DE740212176C0253E33A
:1052F40074016F60030253C11253E740030253C1A8
:10530400E890077702539E74016F60030253C18CC7
:10531400828D83E0900AFD02539E74046F60030241
:1053240053C18C828D83780812160E908FE778080B
:1053340012144150030253C1900779780812161DC4
:105344000253E3EF70771206CEE9700A1210D67991
:105354005012131C806290080C7401803D74016F1C
:10536400705B1253E75056E8900778802D74016FF4
:10537400704B8C828D83E0F8C3940A5040E8900A05
:10538400FC801774016F70358C828D83E0F874F99A
:1053940028C3940A5027E8900AFEF0804274016FF3
:1053A400701B90080BE0F88C828D83E090080BF062
:1053B400E8702CE0640170271210CA80227E1880E5
:1053C4001EC3EA9426EB9400501374026F700E8C83
:1053D400828D83125B5412056CE9FE80027E02EE1C
:1053E400F9800F8C828D83E0F8C3940222740E122C
:1053F400176C7F04021898A9080253F674F0121768
:10540400C674B11217568C0A8D0B908F3474201207
:1054140017BC740612166974201217BC121082E9A4
:10542400FF745F1217A2E0F509EFC3940A40030268
:10543400558275F006EFA4F50874411217BC7A0E74
:1054440074202508F9121316E97009744D1217A275
:10545400E0FE80027E00900AF9E064027005750E99
:10546400018003750E0074086509700474228002BB
:1054740074212508F50D7C1B7D0079007426121714
:10548400B41211F674261217BC7A1BA90D12131646
:10549400E9702D74401217A2E024F9C3940A502035
:1054A400E50EF50D780D1219DD74271217BCEEA266
:1054B400E0E433F9AA0AAB0B12060E740112176C5E
:1054C4007C147D007900740C1217B41211F6740C5C
:1054D4001217BC7A1074242508F9121316E97034D3
:1054E4007C1079FF740C1217B4121256E9702574EB
:1054F4001C1217A2AC82AD837A0474252508F91214
:105504001316740C1217BCEEA2E0E433F9AA0AAB2A
:105514000B1205F6AC18AD197A0C74702FF912132E
:1055240016E97049AA18AB191210B27F00EF75F092
:1055340003A4F8A9F0851882851983E58228F8E583
:1055440083125D13125E85601D88828983A3A3E0A4
:10555400F50E750F00780E1219D9AA0AAB0B1208B2
:1055640054740212176C0FEFC3940440C0EEA2E10E
:10557400500C900763E0F9AA0AAB0B12085A7404A2
:1055840065097028900AF9E0640270207A00900797
:1055940077E060027A01900764E060047804800296
:1055A4007800E84AF9AA0AAB0B1206B67900744FE0
:1055B40012176C7F0802189874F01217C674F01250
:1055C4001756EAFEEBFF8C088D09750A0AE9600C90
:1055D40014600914603B14607D0256B21210C4E9D1
:1055E400F50AC3940A40030256B2E508450970035C
:1055F4000256B2750C06750D00780C1219D9EEFC22
:10560400EFFDAA08AB091211DE740212176C0256E0
:10561400B2750C00750E06750F00780E1219D9EECE
:10562400FCEFFDE50C75F00EA4F8A9F0748528FADA
:10563400740739FB1211F0740212176CE9700B0530
:105644000CE50CC3940A506680CA850C0AE50AC3AB
:10565400940A505A8049750C00AC18AD197A10752B
:10566400F006E50CA42423F9121316E9701C7C102F
:1056740079FFAA18AB19121256E9700EEEFCEFFD71
:10568400AA18AB191205D8E9600B050CE50CC394F4
:105694000A501B80C4850C0AE50AC3940A500FE51E
:1056A4000845096009AA08AB09A90A1210BEA90A8B
:1056B40074100255B474F41217C689097508157468
:1056C400FF6A700374FF6B70277E00AC097A027B5B
:1056D40000EEF91210A0E960037508000EEEC39401
:1056E4000A40E8E50960537AEE7B10120A70804A9A
:1056F400120A528A0A8B0BAE0AAF0BEE4F60387C4B
:10570400007D00EE2405FAE43FFB8E828F83A3A381
:10571400A3A3E0F9121082E9F9C3940A500CAC096E
:105724007A027B001210A0750800E509600CEEFAFD
:10573400EFFB1210EE80037508140253FB74F2128F
:1057440017C6ECFEEDFF750815740E1217A2125B56
:105754004774FF6A700374FF6B7021750900AC0A0B
:10576400AD0BEEFAEFFBA9091210A6E96003750868
:10577400000509E509C3940A503F80E2120A528ADF
:10578400828B83E5824583602D7C007D00E5822445
:1057940005FAE43583FBA3A3A3A3E0F9121082E97D
:1057A400F9C3940A5013AC0AAD0BEEFAEFFB1210D6
:1057B400A67508008003750814A908025CDBC08282
:1057C400C08390077DEAF0A3EBF0900763E0FC7DD3
:1057D400007A257B0012056C900763E0F91207D06C
:1057E400D083D08202013274EA1217C674EC121705
:1057F40056EAFEEBFFEE240CF514E43FF5158E8219
:105804008F83A3858210858311EE240AF50CE43F6F
:10581400F50DEE2405F50EE43FF50FEE2409F50A27
:10582400E43FF50BEE2403F508E43FF5098E828F7F
:1058340083A3A3E024FA7003025B1F24FD70030218
:105844005A411470030258D514601024FD700302E9
:105854005A24147003025A75025B3D125B6060495E
:10586400E0F5838882125B5A880C890DE8450D6047
:1058740038851482851583E0F50E780E1219DDEE55
:10588400240BF582E43FF583E0F9850A82850B83D6
:10589400125B540A0A0AAB09850C82850D83121720
:1058A400C4740112176C025B3D850A82850B831256
:1058B40019F090077912162C120608740212176C4C
:1058C400E97003025B3D7901850A82850B83025AE4
:1058D400EB851082851183E06003025A07850E82EE
:1058E400850F83E0A2E04003025A077C0E7D007915
:1058F40000AA18AB191211F6EE2408F512E43FF5CC
:1059040013851282F583126285EA4B6010750A06CC
:10591400750B00780A1219D9EA2410801B12627FD1
:10592400120A52EA4B7003025B3D750A06750B00BE
:10593400780A1219D9EA2405FCE43BFD7402121713
:10594400B41211DE740212176C850E82850F83E087
:10595400A2E25004D2F08002C2F0A2F0E433F87460
:105964000C1217A2E048F0850C82850D83125B4768
:10597400E50A450B6012E50A2410F582E4350BF5BF
:1059840083780C12160E800C750CFF750DFF750EC6
:10599400FF750FFFE50A450B7006750A00750B00CD
:1059A400851282851383E0F512A3E0F513E5124511
:1059B400137006751200751300780C1219D5780A45
:1059C4001219D978121219D98514828515831219DE
:1059D400F08E828F83A3125B4F740A1217B41210D5
:1059E400B8740A12176C850882850983125B5A9071
:1059F400080DE8F0A3E9F07A017B00900763E0F971
:105A0400121232125B607003025B3D125B6B700317
:105A1400025B3D851082851183E0FC7901025B13F2
:105A2400125B607003025B3D125B6B7003025B3DB3
:105A3400851082851183E0FC7902025B137C007D72
:105A440000EE2404FAE43FFB850882850983E0F92B
:105A5400121082E9F8C3940A4003025B3DAC0CAD1A
:105A64000D7A0475F006E8A42425F9121310025BDC
:105A74003D12627F900778E06007900AFCE0F980AD
:105A840069900AF9E070047905805F120A528A0C61
:105A94008B0DA80CA90DE82404F50CE439F50D8E42
:105AA400828F83A3A3A3A3A3A3A3E0A2E05040E80F
:105AB400497003025B3D850C82850D83E0FE602FF7
:105AC400850A82850B83E054107024740E1217BC6F
:105AD400E82405FAE439FBEEF9121082E970107932
:105AE40003850882850983126285120602804AAC06
:105AF4000EAD0F850C82850D83E0F912627F1210C2
:105B0400FA125B606033125B6B602E7C00790012CA
:105B1400627F8E828F831217C4801E1206CEE970B4
:105B24001890080CE0640170081210D690080CE478
:105B3400F0795012131C1210CA741412176C7F0ED1
