:020000040000FA
:06000000020107021E12BE
:03002B000222802E
:0300330002226244
:03003B0002229A04
:0300430002221680
:03005300021E8802
:03006B0002223C32
:10008300021D03E5C754F84401F5C77901220000B6
:100093000080FB120086B900030200F1E4792178A5
:1000A30008B800028004F709D8FCE479297802B87B
:1000B30000028004F709D8FCE49002817861790991
:1000C3008002F0A3D8FCD9FA7AE17B0A9001377851
:1000D3000379048015E493A3AD82AE838A828B8374
:1000E300F0A3AA82AB838D828E83D8E9D9E7758288
:1000F3001F7583A3740312011975829175830074AC
:100103000012011975D00075813F751881751902A8
:10011300759F00020096C09FF59FE473D09F22D085
:1001230083D082C09FE493C0E0740193C0E0740263
:1001330093F59F22FF0000B4000028002800283018
:1001430075A000A000A000A00000080008E001F0D6
:10015300001000100010001000100010005000509C
:1001630000500010001000D0070000000000000F36
:100173000001000500307507001000010081FF0039
:1001830000FF370655063D06FF0202020802500033
:10019300A0000000E8030238940100000F94024617
:1001A30094010000360B024A94010000B202024699
:1001B30094010000370B024894010000C802024674
:1001C30094010000380B025A94010000CA0202464F
:1001D30094010000390B024494080000CB0202464C
:1001E300940100003A0B023E940100003B0BFF0117
:1001F30000FF200238940100001B94024694010082
:10020300009F0B023C940000000000024C9403008A
:10021300001803670C670C670C670C670C670C67A7
:100223000C670C670C670C670C670C670C370F4F78
:100233000F310F020202020202020202010D00004C
:100243000010010238940100001294024694010048
:1002530000E00B022E940100005B070246940100AC
:1002630000E10B024E940100007D920246940100CE
:1002730000E20B022A9401000062920246940100FC
:1002830000E30B021E940100003591024694010025
:1002930000E40B022094010000FF90024694010049
:1002A30000E50B0224940100001191024694010021
:1002B30000E60B02289401000023910246940100FA
:1002C30000E70B0240940100002A920246940100C9
:1002D30000E80B022C94010000E90B01E803053F41
:1002E30010FFFFFF0001307503020106000000004C
:1002F30000000000000000000000000000000000FB
:100303000000000000000000FFFF0600800CE8036F
:10031300140953696D706C65424C45506572697080
:10032300686572616C051250002003020A00020125
:10033300060302F0FF53696D706C6520424C452043
:100343005065726970686572616CE7130000F91398
:10035300FF13ED130A436861726163746572697315
:10036300746963203100024368617261637465726A
:10037300697374696320320008436861726163744E
:100383006572697374696320330010436861726135
:10039300637465726973746963203400024368612E
:1003A300726163746572697374696320350002381E
:1003B300940100001594024694010000010D0252BD
:1003C30094030000D20A023094010000020D024699
:1003D30094010000130D025494010000D30A02306B
:1003E30094010000140D024694010000250D0256ED
:1003F30094020000D40A023094010000260D024644
:1004030094010000370D025894000000D50A024CF5
:1004130094030000D60A023094010000380D02460E
:1004230094010000490D022694040000DC0A023006
:10043300940100004A0D1201225C950312012273FC
:100443009503120122A29503120122DB95031201E7
:1004530022039603120122319603120122489603C6
:100463001201225F96031201227596031201229C48
:100473009603120122AF9603120122C596031201BD
:1004830022D89603120122FD9603120122A097029D
:100493001201229F9802120122D49802120122F51E
:1004A30098021201220599021201222699021201D1
:1004B30022329A02120122FF9A02120122729B0235
:1004C300120122F89B021201223B9C0212012272AA
:1004D3009C02120122F89C02120122CA9D021201FF
:1004E30022289E02120122409E02120122BA9E027B
:1004F300120122BD9E02120122C09E021201226736
:100503009F021201227F9F02120122AF9F0212015A
:1005130022CF9F02120122BDA00212012273A10267
:1005230012012283DF02120122ABDF02120122D960
:10053300DF0212012210E00212012278E00212010E
:1005430022C1E0021201220CE1021201224AE1025D
:1005530012012287E102120122B5E1021201225C9B
:10056300E20212012266E20212012273E202120186
:1005730022A6E20212012268E30212012274E302BC
:100583001201228CE30212012296E30212012220BD
:10059300A0031201222EA00312012246A00312017E
:1005A300225EA003120122E3B20112012281B301F0
:1005B300120122F9B3011201220EB50112012248E0
:1005C300B501120122F1B501120122C6B6011201D1
:1005D300222AB80112012281B80112012208B901AD
:1005E300120122EFB9011201223CBA01120122CAFF
:1005F300BA01120122EEBA01120122C3BC01120197
:100603002204BD0112012226BD01120122A7BD0150
:1006130012012291BE0112012257BF01120122E5EC
:10062300C902120122B7CA0212012260CB021201CF
:1006330022A3CB0212012230CC02120122BCCC0233
:100643001201229DCD02120122CCCD02120122C839
:10065300CE0212012210CF0212012212D002120185
:100663002256D0021201227CD002120122667F00A0
:10067300120122A7F802120122BDF802120122E39D
:10068300F8021201220BFA0212012215FA021201D8
:10069300226EFB021201226EFC02120122F1D00231
:1006A30012012226D20212012259D202120122A3DE
:1006B300D20212012261D4021201225E94011201BC
:1006C30022C19401120122069601120122169601FB
:1006D3001201223996011201228496011201222964
:1006E30097011201221F9801120122E998011201B8
:1006F30022619A01120122A39A01120122419B0154
:100703001201228E9B01120122B49B01120122A22B
:100713009D01120122A79D01120122889F0112014E
:1007230022DC9F011201223EA00112012266A001D8
:100733001201220AA101120122CCA101120122FD00
:10074300A10112012200A20112012248A2011201F9
:10075300228AA201120122F1A201120122118D03A8
:10076300120122248D031201223D8D0312012288DE
:100773008D03120122638E03120122F28E031201F2
:10078300223D8F031201220C2300120122182300A1
:100793001201225123001201229623001201224D3D
:1007A3002400120122D32400120122382500120151
:1007B300226425001201229D2500120122B1270087
:1007C3001201228D2900120122782B00120122AF7F
:1007D3002C001201220F2F00120122FB2F00120105
:1007E300224131001201224E32001201226B3200EB
:1007F300120122A33200120122BD3200120122256E
:100803003300120122BF37001201226038001201A7
:1008130022B13800120122D83800120122263900F1
:100823001201224439001201229839001201227167
:100833003A00120122F83B00120122803C0012010F
:1008430022D9DA02120122E3DA02120122AEDB021A
:10085300120122C9DB02120122EFDB021201223351
:10086300DC021201226BDC0212012294DC0212016F
:10087300220DDD0212012222DD0212012237DD02E6
:100883001201226EDD0212012282DD02120122B365
:10089300DD02120122EDDD0212012219DE02120134
:1008A300226FDE02120122C3DE021201220CDF02DA
:1008B30012012236DF021201225BDF02120122BB88
:1008C300F40212012285F50212012268F6021201D6
:1008D30022DEF60212012220F7021201224DF80253
:1008E30012012200800212012229800212012242F7
:1008F3008002120122878102120122658202120103
:1009030022848202120122118302120122548302E1
:10091300120122A18402120122408502120122BF88
:1009230087021201225688021201222A8902120129
:10093300220C8A02120122788B021201220B8C02F2
:100943001201220F9D03120122789D03120122CC72
:100953009D03120122F39D031201222BE4021201D3
:100963002298E402120122E3E402120122D8E502F2
:10097300120122D4E602120122BEE702120122E191
:10098300AA0212012223AB02120122FDAB021201C1
:1009930022D6AC02120122D1AD02120122B0AE0264
:1009A3001201221CAF02120122E3AF021201224EF6
:1009B300B002120122B5B002120122E0B00212010C
:1009C3002251B102120122E4B1021201224DB202FC
:1009D30012012262B202120122AAB202120122C33E
:1009E300B20212012228B3021201222BB302120116
:1009F300223387031201225B8703120122998703A3
:100A0300120122578803120122C28803120122DE37
:100A13008803120122068903120122368903120177
:100A230022458903120122BF8903120122E58903AA
:100A3300120122BBA30112012258A5011201223E79
:100A4300A70112012208A8011201224FA8011201D5
:100A53002296A801120122A8A801120122E8A801E6
:100A630012012217A90112012263A9011201229B7B
:100A7300A901120122C9A9011201221AAA01120114
:100A830022A9AA0112012297AD0112012271AF011D
:100A9300120122ADAF0112012207B1011201224E50
:100AA300B101120122C3B10112012211B2011201DB
:100AB3002248B201120122DEA102120122FBA1028D
:100AC30012012295A70212012297A80212012211F4
:100AD300AA02120122BFAA02120122E73C0012015C
:100AE30022303D001201225D3D00120122903D00A3
:100AF3001201229D3D00120122A93D00120122BBD9
:100B03003D00120122903E00120122EE3E0012012E
:100B130022233F00120122BF40001201220C410098
:100B23001201223041001201229D41001201224292
:100B33004200120122FE42001201227D43001201F3
:100B430022414400120122504400120122D14400E8
:100B5300120122704500120122A245001201223D1A
:100B630046001201229B4600120122D546001201C3
:100B7300225647001201221F4800120122C84800D2
:100B83001201224F4900120122A749001201220833
:100B93004A00120122314A00120122E74A001201DF
:100BA30022314C00120122744C00120122914C009C
:100BB300120122B04C00120122FB4C001201222030
:100BC3004D00120122494D00120122B84D001201BD
:100BD30022FA4D00120122FE4E00120122984F000C
:100BE3001201226450001201227D5000120122C51D
:100BF30075001201221876001201222476001201D8
:100C030022F976001201222077001201225B77007D
:100C1300120122C77700120122FB7700120122344E
:100C230078001201224C7800120122A578001201EB
:100C330022BE78001201220779001201221A7900DC
:100C43001201223479001201224A7900120122662C
:100C53007A00120122777B00120122C47C00120168
:100C630022A97D00120122EF7F00120122C1EA01B5
:100C7300120122F5EA0112012260EE01120122AAF9
:100C8300EF0112012274F001120122FEF10112019F
:100C930022D9F20112012213F30112012236F301C8
:100CA30012012278F30112012281F301120122CBF6
:100CB300F301120122D5F30112012281F401120181
:100CC3002255F501120122A9F5011201220BF601A9
:100CD3001201225EF6011201228DF601120122CCCD
:100CE300F601120122756300120122CF6B0012017B
:100CF30022D56B0012012290710012012276750039
:100D030012012278FC02120122EEFC0212012204DB
:100D1300FD0212012241FD0212012279FD0212019C
:100D230022F6FD0212012231FE02120122ACFE0262
:100D3300120122E8FE02120122F1FE02120122FD3B
:100D4300FE0212012217FF021201223CFF021201CE
:100D53002252FF0212012296FF0212012217D6022B
:100D63001201222AD60212012244D6021201226D56
:100D7300D602120122B0D602120122EFD6021201CC
:100D8300222DD70212012292D702120122A7D702E3
:100D9300120122B2D702120122BFD702120122D6B8
:100DA300D702120122E4D702120122EFD702120165
:100DB30022FBD7021201220ED80212012219D802F5
:100DC3001201223CD802120122E5D802120122F5B7
:100DD300D8021201220FD9021201222CD9021201C8
:100DE3002248D9021201226DD90212012277D902B7
:100DF3001201228BD902120122AAD9021201220B5B
:100E0300DA0212012211DA0212012217DA021201A6
:100E1300221DDA0212012229DA021201225CDA020D
:100E23001201220FD00112012291D0011201223AA4
:100E3300D10112012282D20112012290D4011201A6
:100E43002276D501120122ABD501120122CDD501A3
:100E530012012276D60112012246D8011201226F15
:100E6300D801120122E7D80112012219D901120176
:100E73002226D90112012271D90112012295D90129
:100E8300120122E6DB01120122F0DC011201224CE5
:100E9300DD011201228CC1011201229DC201120146
:100EA3002281C3011201228BC301120122ADC301AE
:100EB300120122B9C3011201225DC5011201228A66
:100EC300C501120122A0C601120122F5C6011201B9
:100ED3002244C80112012219C90112012275C90154
:100EE300120122E0C90112012215CA01120122587E
:100EF300CA0112012222CD011201223ACD011201AF
:100F030022CBCD01120122D9CD0112012226CE011D
:100F130012012234CE01120122A0CE011201221BA2
:100F2300CF0112012272CF01120122828C0212011F
:100F330022A48C02120122B58E02120122749102A4
:100F43001201229E92021201225C93021201224894
:100F53009402120122A39303120122C893031201E4
:100F6300223E9403120122C8C202120122D1C202FC
:100F7300120122DAC202120122B2C3021201226357
:100F8300C50212012293C502120122BEC50212013B
:100F930022EEC50212012219C6021201224DC60217
:100FA30012012279C602120122BCC602120122E7F3
:100FB300C6021201222EC70212012283C7021201A6
:100FC30022C5C7021201221FC8021201224AC80207
:100FD30012012299C802120122C9C802120122F485
:100FE300C80212012222C90212012245C9021201BA
:100FF3002243A2031201226FA2031201229CA20325
:10100300120122A6A203120122B6A2031201222D6B
:101013008A03120122528A031201227D8A031201DA
:1010230022BBA303120122AF5000120122905200EF
:101033001201224C5400120122495500120122D1FF
:1010430055001201225256001201227B5600120152
:1010530022CB56001201225E5A00120122CF5A00FF
:10106300120122C05B00120122FA5B001201223A34
:101073005C001201226D5D00120122C05D001201AD
:1010830022095E00120122775E00120122A95E008E
:10109300120122C35E00120122B55F00120122C5B4
:1010A3005F001201226B61001201228261001201B2
:1010B30022B46100120122366300120122F7A00359
:1010C30012012208A10312012272A303120122B109
:1010D300A30312012275A403120122A6A103120184
:1010E30022B6A103120122D1A10312012239A203C4
:1010F300120122249E03120122A89E031201221030
:101103009F03120122299A03120122529A03120108
:1011130022BF9A03120122129B031201226B9B032B
:1011230012012280E802120122B7E80212012227EB
:10113300E9021201223CE90212012243EA021201EE
:1011430022CAEA0212012290EB02120122AFEB0241
:10115300120122D4EB0212012209EC021201222114
:10116300EC0212012272EC0212012200800312012E
:10117300221A800312012293800312012268810341
:101183001201223A8303120122A7EC021201223731
:10119300ED02120122B5ED0212012239EE02120113
:1011A30022CBEE0212012287EF0212012254F00237
:1011B3001201225EF0021201226DF002120122835B
:1011C300F00212012296F002120122A0F002120193
:1011D30022B3F0021201229E9803120122C7980340
:1011E300120122F098031201228A9903120122A20A
:1011F3009903120122E499031201224FB30212014F
:101203002259B30212012299B302120122E2B3025C
:101213001201221CB40212012272B40212012291A1
:10122300B40212012219B70212012222B7021201DB
:101233002273B7021201229CB702120122A6B7023F
:1012430012012217B802120122A5B802120122FAD2
:10125300B80212012229B902120122A5B902120110
:1012630022E2B90212012219BA021201222BBA0296
:101273001201224ABA0212012253BA0212012205B2
:10128300BB021201220F97031201225F970312017F
:1012930022D19703120122399803120122678F0387
:1012A300120122918F03120122589003120122345A
:1012B3009103120122299F03120122A79103120114
:1012C30022DD91031201221092031201226993037A
:1012D3001201228BFF01120122A1FF01120122AB95
:1012E300FF01120122C0A203120122A7F70112017A
:1012F3002264F8011201229FF801120122D0F801A1
:1013030012012232F9011201227EF901120122E9AE
:10131300F90112012263FA0112012262FB01120197
:1013230022E9FC011201226CFD01120122D2FD010E
:10133300120122E5FD01120122E0FE011201222D1C
:10134300FF01120122B6F002120122CCF0021201B7
:101353002270F102120122AFF102120122CCF1023A
:10136300120122FDF1021201224AF2021201227E2F
:10137300F202120122B9F202120122AEF4021201A8
:101383002299DD01120122D0E0011201224CE20177
:10139300120122A3E201120122C0E2011201223E44
:1013A300E301120122BBE4011201229FE5011201B4
:1013B300224EE9011201221EEA01120122A69B0319
:1013C300120122B49B031201221F9C0312012271FA
:1013D3009C031201228F9C0312012231BB021201D2
:1013E300227EBD02120122C0BE0212012219C002D6
:1013F3001201229FC0021201221BC102120122CF3D
:10140300C1021201229F8303120122E4830312010A
:1014130022018403120122B784031201220A8503E5
:10142300120122E18503120122FA8603120122022C
:10143300A403120122C6FF021201222EA4031201E9
:101443002257A403E066701008A3E066700A08A39D
:10145300E066700408A3E06622C3E7960809E796EE
:101463000809E7960809E79622C3E09608A3E096E1
:1014730008A3E09608A3E09622C008C3E096F50807
:1014830008A3E096420808A3E096420808A3E09662
:1014930045087001D3D00822080808EAC0E0EBC071
:1014A300E086F0E7A4FA180986F0E7A42AFA1809F7
:1014B30086F0E7A42AFA180986F0E7A42AFA19861F
:1014C300F0E7A4FBE5F02AFA190886F0E7A42BFB62
:1014D300E5F03AFA190886F0E7A42BFBE5F03AFAAF
:1014E30018180986F0E7A4C5F02BFBE43AFA1908AB
:1014F300E7C5F0C6A426F6E5F03BFBE43AFA188606
:10150300F0E7A4F6E5F00826F6E43B08F6E43A082B
:10151300F6D0E0FBD0E0FA22E4CFC0E0E4CEC0E0B6
:10152300E4CDC0E0E4CCC0E075F020E626F608E6A2
:1015330033F608E633F608E633F6181818EC33FCEE
:10154300ED33FDEE33FEEF33FFC3EC9709ED97095F
:10155300EE9709EF97191919400FFFEC97FC09ED66
:1015630097FD09EE97FE191906D5F0BFECF709EDC3
:10157300F709EEF709EFF7191919D0E0FCD0E0FDF0
:10158300D0E0FED0E0FF226016080808C6C313C6E9
:1015930018C613C618C613C618C613C6D5E0EA2262
:1015A3007009080808226016181818C6C333C6083D
:1015B300C633C608C633C608C633C6D5E0EA22E634
:1015C30027F60809E637F60809E637F60809E63785
:1015D300F622E026F608A3E036F608A3E036F6087E
:1015E300A3E036F622E026F008A3E036F008A3E0F5
:1015F30036F008A3E036F022C3E697F60809E6972B
:10160300F60809E697F60809E697F622C3E096F08E
:1016130008A3E096F008A3E096F008A3E096F02272
:10162300E056F608A3E056F608A3E056F608A3E052
:1016330056F622E056F008A3E056F008A3E056F071
:1016430008A3E056F022E0F608A3E0F608A3E0F6CC
:1016530008A3E0F622E6F008A3E6F008A3E6F00804
:10166300A3E6F022E0FAA3E0FBA3E0FCA3E0FD2263
:10167300EAF0A3EBF0A3ECF0A3EDF022E0F8A3E093
:10168300F9A3E0FAA3E0FB22E8F0A3E9F0A3EAF070
:10169300A3EBF022CAC0E0E6F0A308DAFAD0E0FA3E
:1016A30022CAC0E0E0A3C582CCC582C583CDC58371
:1016B300F0A3C582CCC582C583CDC583DAE6D0E06D
:1016C300CA22C3E498F8E499F91217068026C3E402
:1016D3009AFAE49BFBE920E7E9121706E498F8E499
:1016E30099F922C3E498F8E499F9121706E498F8F3
:1016F300E499F9C3E49AFAE49BFB22EB20E7CFE9F0
:1017030020E7E0B90010BB0008E88AF084F8AAF0EB
:1017130022E4FBC8FA22EB70227B10C833C8C9331A
:10172300C9335007C39AC3DBF280069A50012ADB00
:10173300EAC833F4C8C933F4C9FA2275F008E4C817
:1017430033C8C933C933C99AC99B5004C92AC93B91
:10175300D5F0ECFBC833F4C8E4C9FA22600D08C61F
:10176300A2E713C618C613C6D5E0F322600C08C659
:10177300C313C618C613C6D5E0F422700422600D45
:1017830018C6C333C608C633C6D5E0F418222518D5
:1017930010AF08F518400C15198008F5184002150C
:1017A30019D2AF2200C0D0251810AF08F518500C7D
:1017B30005198008F51850020519D2AFD0D022259B
:1017C30018F58210AF08F518400C15198008F518A4
:1017D30040021519D2AF85198322C5822518C58207
:1017E300C583351910AF07F5198582188007F519D8
:1017F300858218D2AFC583222518F582E43519F501
:1018030083222518F8E43519F9222518FAE4351945
:10181300FB222518FCE43519FD22E4732518C58243
:10182300C0E0E51934FFC583C0E0E518C395822401
:10183300F810AF0885831985821880088583198578
:101843008218D2AFCEF0A3E520F0A37808E608F023
:10185300A3DEFAEFF0A3E58124FAF8E608F0A3E6A5
:1018630008F0A3E608F0A30808E608F0A3E608F0EA
:10187300A315811581D0E0FED0E0F81581158115FF
:1018830081E8C0E0EEC0E0222518C582C0E0E5197A
:1018930034FFC583C0E0E518C3958224F910AF086F
:1018A3008583198582188008858319858218D2AFAC
:1018B300CEF0A3E520F0A37808E608F0A3DEFAEF64
:1018C300F0A3E58124FBF8E608F0A3E608F0A308FB
:1018D30008E608F0A3E608F0A315811581D0E0FE21
:1018E300D0E0F815811581E8C0E0EEC0E02285194B
:1018F30083851882E0A3FEE0A3F5207808E0A3F631
:1019030008DFFAE0A3FFE0A3C0E0E0A3C0E0E0A3A8
:10191300C0E0E0A3C0E0E0A3C0E010AF08858218F8
:101923008583198008858218858319D2AFD083D027
:101933008202011F851983851882E0A3FEE0A3F5C7
:10194300207808E0A3F608DFFAE0A3FFE0A3C0E0F5
:10195300E0A3C0E0E0A3C0E0E0A3C0E010AF0885CF
:1019630082188583198008858218858319D2AFD0A0
:1019730083D08222C0D02518C582C0E0E51934FF88
:10198300C583C0E0E518C3958224F310AF088583AF
:10199300198582188008858319858218D2AFC8F00B
:1019A300A3E9F0A3EAF0A3EBF0A37908E709F0A316
:1019B300D8FAECF0A3EDF0A3EEF0A3EFF0A3D0E0A0
:1019C300F0A3D0E0F0A3D0E0F0A3E520F0A3E5F08E
:1019D300F0A322851983851882E0C0E0A3E0F9A370
:1019E300E0FAA3E0FBA37808E0F608A3DFFAE0FC43
:1019F300A3E0FDA3E0FEA3E0FFA3E0C0E0A3E0C0FB
:101A0300E0A3E0F5D0A3E0F520A3E0A3F5F010AF49
:101A1300088583198582188008858319858218D2E1
:101A2300AFD082D083D0E0F8D0E032740480067463
:101A33000280027401C0E0F4041217C2D0E012164F
:101A430097227404800474028000CCC0E0EDC0E0EF
:101A5300E518C39CCCAD1950011D10AF068C188D31
:101A63001980068C188D19D2AF1216A4D0E0FDD0C0
:101A7300E0FC22D083D082E9C0E0E493A3C386F0E4
:101A8300C5F095F0F908E493A386F0C5F095F070DE
:101A93000BE493A3C3994005E9048002A3E475F022
:101AA30002A42582F582E5F03583F583D0E0F9E4DD
:101AB30093A3C0E0E493C0E022D083D082ECC0E0E3
:101AC300EDC0E0E493A3FCE493A3FDED4C600D12A1
:101AD3001B08EC24FFFCED34FFFD80EFE493A3FC33
:101AE300E493A3FDED4C600D121B47EC24FFFCEDCA
:101AF30034FFFD80EFD0E0FDD0E0FCE493A3C0E031
:101B0300E493C0E022C0E0C3E49396087401939683
:101B130018400FE493667008087401936618700008
:101B23007019A3A3C3E49396087401939618A3A30F
:101B3300400DD0E0D0E0D0E0021AF8A3A3A3A3A302
:101B4300A3D0E022C0E0C0F088F0E49366700808F8
:101B530074019366187000A8F0A3A3700BD0F0D0A3
:0F1B6300E0D0E0D0E0021AF8A3A3D0F0D0E02247
:101B740074F512188BEAFEEBFFEE2434F8EF340010
:101B8400F988088909EE2435121CACF8EE243712C2
:101B94001CACF50AEC850AF0A4FCAAF0850AF0ED69
:101BA400A42AFDE82CF8E43DF97A257B00121706F7
:101BB400EA850882850983F05407F87401B80002A5
:101BC4008004C333D8FCC0E0E0131313541FF8EEB1
:101BD40028F8EF3400F9E8245DF582E93400F58350
:101BE400D0E0F8E0586008850882850983801DEEFE
:101BF4002436121CACF5F0EA84A8F0EE28F8EF3491
:101C040000F9E82438F582E93400F583E0F97F042B
:101C140002193774F512188BEAFEEBFFEE24341226
:101C24001CACC0E0EE2435F582EF3400F583D0E03F
:101C3400F08E828F83A3A3A3A3A3E0FAA3E0FB8E79
:101C4400828F83A3A3A3A3A3A3A3E0FCA3E0FDEC3F
:101C5400C39AF50AED9BF50BEE2480F508EF3400EA
:101C6400F509850882F583E06401702BEE2481F583
:101C740082EF3400F583121A49121CB5740212174C
:101C8400A7E960137CFD7D04EEFAEFFB120B95854A
:101C94000882850983E4F0AC0AAD0BEEFAEFFB127F
:101CA4001B74122208021C12F582EF3400F583E043
:101CB40022C082C083851882851983E0F8A3E0F9E5
:101CC400C3EA9CEB9D5012C3EC98ED994019C3EA0A
:101CD40098EB99501279018010C3EA98EB9940F57A
:101CE400C3EC98ED9950EE7900D083D08222EAC3F8
:101CF4009CFAEB9DFB2200008521878522C622C029
:101D0400E074EF121977759B00906182E0A2E640BF
:101D140003021DC4E591A2E64003021DC47591BFF0
:101D24009003C2E064057008120D33120D3F800366
:101D3400120D39752100120DA5E99003C3F0790045
:101D4400120D99120AFF7A017B009003C1E0F91287
:101D5400125B907803E064426003021E0D90055FFD
:101D6400E014F06003021E0DC2AF121D7100782A48
:101D7400D0E0F618D0E0F6E59F5407F9700590938B
:101D8400DB80039093DF7808121649E9C4C0E07839
:101D940029E65508F50808E65509F509740B78088D
:101DA40012176FD0E02508F8906270E0A2E740F8BF
:101DB400E8C333906272F0906270E0D2E0F0804940
:101DC400E0A2E55024E591A2E5501E7591DF900351
:101DD400C2E0640D70139003E4E004F06428700220
:101DE400E4F07A00E0F9120E17906181E0A2E3506A
:101DF40009E5E9A2E3500375E9F7A3E0A2E7500976
:101E0400E591A2E7500375917F7F040219D6C0E0E3
:101E1400C0D0C082C083906183E0A2E05009E5BFD6
:101E2400A2E0500375BFFEE0A2E15009E5BFA2E1C4
:101E3400500375BFFDE0A2E25009E5BFA2E25003E2
:101E440075BFFBE0A2E35009E5BFA2E3500375BFF1
:101E5400F7E0A2E45009E5BFA2E4500375BFEFE048
:101E6400A2E55009E5BFA2E5500375BFDFE0A2E695
:101E74005009E5BFA2E6500375BFBFD083D082D01E
:101E8400D0D0E032C0E074F2121977E5A7A2E45092
:101E94000FE5A1A2E4500953A7EF75A1EF121EDCD0
:101EA400E5A7A2E5500CE5A1A2E5500653A7DF750E
:101EB400A1DFE5A7A2E15009E5A1A2E1500375A1C4
:101EC400FDE5A7A2E2500CE5A1A2E2500653A7FB50
:101ED40075A1FB7F010219D674F812188B752101C4
:101EE4009003C2E0640670077A007B00120D1BA207
:101EF400AFE433FED2AF9003C8E0640170187A20D7
:101F04007B009003C1E0F91213697A207B009003EF
:101F1400C1E0F9121261906182E0D2E6F090055EB0
:101F2400E0602185C62280169003C7E06401700832
:101F3400E5C654F84405F5C653BEFC121CFC7401F6
:101F4400652160E4EEA2E092AF7F01021937000040
:101F54008E238F248582288583278518828519837B
:101F6400E0CEA3E0CF852882852783EBC9EAC8EDBC
:101F7400CBECCA75F010C3E833C8E933C9EA33CAF5
:101F8400EB33CBC3EA9EF526EB9FF525B35004ABA8
:101F940025AA26EC33CCED33CDD5F0DAAE23AF242D
:101FA4002274F112188B8A088B098C0A8D0B740F1A
:101FB4001217FB780C1216499093AF780812162367
:101FC4009093AF780C1216237808790C12145C5095
:101FD400157808790C1215FB909407780812147C74
:101FE400401579018013780C79081215FB90940739
:101FF400780C12147C40EB79007F0802193774EDD9
:1020040012188B8A088B098C0A8D0B74131217FB18
:10201400780C1216499093AF78081216239093AF58
:10202400780C121623780C790812145C4011780885
:10203400790C1215FBAA08AB09AC0AAD0B8022750A
:1020440010007511007512007513017810790C12C7
:1020540015FB781079081215C2AA10AB11AC12AD99
:10206400137F0C0219379093AF78081216498A82AD
:102074008B8378081216367F0402193774F5121808
:102084008B8C828D8378081216498A828B83780818
:1020940012160F1220D4C3E098F0A3E0991220C6C0
:1020A400401E9093D778081216498A828B83780849
:1020B4001215E88E828F83E02420F0A3E0344EF0E2
:1020C40080A4F08E828F83C3E09420A3E0944E22F8
:1020D400EA2404F8EB3400F9E8FEE9FF8C828D83EE
:1020E400A3A3A3A3E0F8A3E0F98E828F832274F55F
:1020F40012188BE9FE900514E0FAA3E0FBEEC3335B
:10210400F8E433F974DD28F582749139F583E02A13
:10211400F508A3E03BF5097808121A329093BB1234
:102124001667121F5474021217A78A088B098C0AA7
:102134008D0B7410780812158AAA08AB097F040263
:10214400193774F112188B8A0C8B0D8C0E8D0F7449
:102154000F1217FBE0FAA3E0FB74111217FBE0F572
:1021640008A3E0F50974131217FBE0FEA3E0FF785F
:1021740008121A32EA2401F508EB3400F509E4F5F3
:102184000AF50B780C790812149B9093E3780812E3
:102194001649780C790812149BAA0CAB0DAC0EAD41
:1021A4000F121F5474021217A78B09EA4509600421
:1021B4007A0180027A00EC2AFCED3400FDECF8EDA3
:1021C400F97A717B0212170688088909E4F50AF581
:1021D4000B8E828F837808121658ECF8EDF97A7119
:1021E4007B021217068A088B097405780812177E79
:1021F4008E828F83A3A3A3A3E508F0A3E509F07F50
:1022040008021937C082C083E9906000F0D083D0FF
:102214008222C0E074F2121977A2AFE433FED2AF87
:10222400C2C0E5D1A2E4500653D1EF1211D1EEA2FF
:10223400E092AF7F010219D6C0E074F2121977A2BE
:10224400AFE433FED2AFE589A2E1500312111D754C
:102254008900C2C5EEA2E092AF7F010219D6C0E0A8
:1022640074F2121977A2AFE433FED2AFE58BA2E089
:10227400500312111D758B00C2E880D8C0E0C0D095
:10228400E8C0E0A8A8D2AFC2C7E8A2E792AFD0E006
:10229400F8D0D0D0E032C0E0C0D0E8C0E0E9C0E07F
:1022A400EAC0E0EBC0E0C082C083A2AFE433F9D25D
:1022B400AF9009E9E0F8A3E0687008539AFBA374AF
:1022C400018022C2E99009E9E0F8740128F07469F8
:1022D40028F582E43409F583E0F5C19009E9E0C307
:1022E40094804002E4F0E9A2E092AFD083D082D09F
:1022F400E0FBD0E0FAD0E0F9D0E0F8D0D0D0E03282
:10230400FFFFFFFFFFFFFFFFC082C083E9900B9E2A
:10231400F002259074F712181FE99002E0F07C187F
:102324007D037AFF7BFF1208179002E174FFF0A38C
:10233400F0A3E4F0A3F0790512079F9002E0E0F91E
:102344001206C77A357B081209F702329E74F4121A
:10235400181F8A088B09EB548060309002E0E0F982
:102364001212438A0A8B0BAE0AAF0BEE4F60138E28
:10237400828F83E064B070031207B7EEFAEFFB12AA
:102384001231AA08E5096480FB80047A007B00020C
:10239400255F74F212181F74FC121791EAFEEBFF0A
:1023A40074121217FB123785EE4F7003022439742E
:1023B400021217FBEEF0A3EF12279AECF0A3ED1232
:1023C400279AAA82AB831206C1E9F50A706AE50866
:1023D400450960648E828F8312376BEE4F60567AA4
:1023E400067B001212C78A0C8B0DA80CA90DE849B4
:1023F4007005750A13804188828983E4122446EEAD
:10240400F0A3EF123796E508F0A3E509F09002E691
:102414001224CD9002E67005123248801B12323627
:102424008003EAFCEBFD8C828D831224CD70F38C47
:10243400828D8380E3750A02A90A74041217A70225
:102444003985F0A312373CA32274F212181F890AAB
:10245400E975F017A4FEAFF09002E5E4F09002E312
:102464001224CD600A1212CD9002E3E4F0A3F0EE40
:10247400FAEFFB1212C78A088B09EA4509602FEEAE
:10248400FCEFFD79001212199002E3E508F0A3E5D0
:1024940009F07B0080081224B7E4F0A3F00BEBC32F
:1024A400950A40F2E50A9002E5F07900800279137A
:1024B400023985EB75F017A4F8A9F09002E3E0283F
:1024C400FAA3E0398A82F58322122EDAEA4B2274C7
:1024D400F412181F740C1217FB123760FEE9FF7513
:1024E4000800750900800CE5082401F508E50934A5
:1024F40000F509C3E5089CE5099D503285080A8565
:10250400090B7403780A12177EEA250AF8EB350BD7
:10251400F988828983A3A3A3A3A3A312331DEE6521
:102524000A7003EF650B70BFE8FAE9FB80047A00D8
:102534007B00802774F412181F7900EAA2E0501B74
:102544007508647509937808121A327C047D007A40
:10255400A07B0B12079974021217A77F040218F1CB
:10256400C082C0839002E6122597601C888289830A
:10257400A3A3E06A7003A3E06B8882898370E8A355
:10258400A3A3A3122ED680047A007B00D083D0822A
:1025940002011F123A6BE8492274EE12181F74FCF0
:1025A400121791EAFEEBFF851882851983E4F0A3E4
:1025B400F0EE2402123228EE2405123743EE2404EE
:1025C400F50EEF122B4FE024FE603924FC60462404
:1025D400FE605224FE605E24FE70030226B024FED8
:1025E400700302271424FE700302272324FE7003C1
:1025F40002273224FC700302274124FE70030227C1
:102604005002278D9002FF7417F0A3E41227A21240
:10261400043F02278D851882851983AC82AD83120D
:1026240007BD02275D851882851983AC82AD8312AC
:1026340007C302275D850C08850D0974021217FB78
:10264400AC82AD83850882850983122ED61206E5F5
:102654008A0C8B0DAC0CAD0DEC4D603BE4F50CF528
:102664000D780C121A32750CFF750D02780C121AC3
:1026740032750C00750D03780C121A327408121797
:10268400FB121A49123BE71217A7E9F50C700B125B
:102694002ECC120457800F750C018508828509839E
:1026A400122790123248850C080227607402121710
:1026B400FBAC82AD83850C82850D83122CA1603C1A
:1026C400850C82850D83A3A3121A497510FF751119
:1026D400027810121A327510007511037810121A4C
:1026E4003274081217FB121A49123BE71217A7E9B2
:1026F400F509700B122ECC12045D800F750901854B
:102704000C82850D83122790123248850908804C6B
:10271400851882851983AC82AD831207C9803A85F6
:102724001882851983AC82AD831207CF802B85185C
:1027340082851983AC82AD831207D5801C851882EB
:10274400851983AC82AD831207DB800D85188285E1
:102754001983AC82AD831207E1E9F508E508602925
:102764008E828F83A3E06414601F850E82850F839D
:10277400E09002FF12279A123A679003001232483F
:10278400E508A31227A2120439023137123A6B85E5
:10279400188285198322F085188285198322F07C9A
:1027A400FF7D02850A82850B83122EDA2274EE12D3
:1027B400181F74FC1217918A0A8B0B8C0E8D0FEA6A
:1027C4002405F508EB3400F5097C157D0079007AC1
:1027D400FF7B02121219E5082402F50CE5091237F1
:1027E4004685188285198385821085831178101295
:1027F4001A32850882850983A3A3A3A3122C9812F5
:102804001A32E5082405F510E5093400F5117810AD
:10281400121A32850C82850D83122FED1206DF7495
:10282400061217A78A108B11AE10AF11E50A240205
:10283400F50AE50B12322BEE4F700302296F801755
:1028440074021217FB122ED688828983EAF0A3EB56
:10285400F09002FFE004F09002FFE0C3940540030F
:1028640002296FE4F510F5117810121A327510E888
:102874007511027810121A327510E9751102781068
:10288400121A3274061217FB121A497910EEFCEF71
:10289400FD123BE91217A7E9705E8508828509835A
:1028A400A3A3A3A3A3A3A3E0F89002E8E06870485D
:1028B400122C98121A327CE97D02E5082408FAE504
:1028C400093400FB12121374021217A7E960298E4F
:1028D400828F83A3A3A3A3122ED69002FFE0F51048
:1028E4007402781012177E74002510F58274033573
:1028F40011F583EAF0A3EBF074021217FB85821042
:102904008583117810121A3274021217FB121A49B5
:10291400850C82850D83122EFC1217A78A108B1149
:10292400AE10AF119002FFE0F5107511007402783B
:102934001012177E74FF2510F874023511F988827D
:102944008983A31224CD700302283BE824030808DA
:1029540008E93400F9EE4F60030228448882898331
:1029640074FFF0A3F09002FFE004F09002FFE06037
:102974000A122ECC12044B7900800B85088285093B
:102984008312323F790A02313774EA12181F74FE37
:102994001217918C128D13EA2405F50CEB123BD11E
:1029A40012376F750800750900EA2402F510EB343C
:1029B40000F51185188285198385820A85830B7831
:1029C4000A121A32850C82850D83A3A3A3A3122BAA
:1029D40065121A32E50C2405F50AE50D12322B783E
:1029E4000A121A32850C82850D83122B691206DFB6
:1029F40074061217A78A0A8B0BEA450B7003022B85
:102A04000AEA2404F50EEB122B4F12376F8A828BDD
:102A140083A3A3A3E0F9851082851183122EE060BD
:102A240003022B0AE4F514F5157814121A327514FE
:102A3400E87515027814121A327514E975150278BE
:102A440014121A3274061217FB121A497913AC0ABB
:102A5400AD0B851082851183123BEF1217A7E9F5A0
:102A6400096003022B0A9002E8E0F8E5087009E027
:102A74002402900300F08014900300E0FCE8240298
:102A8400FAE43400FBEA6C7001EB707E850882AADC
:102A940082122C8F9414122C87506B850E82850F12
:102AA40083E0C0E074012A122B46D0E0F0050885CB
:102AB4000E82850F83A3E0C0E085080A7401250A0D
:102AC400122B46D0E0F005089002E8122B65121A8A
:102AD400327CE97D0285080A7401250A122B5912F9
:102AE40017A79002E8E02508F50874FF6E700374D8
:102AF400FF6F6012EE24010EEF3400FFE508C3946B
:102B04001450030229B7E5086013122EEA851082D7
:102B1400851183122ED612045179008014E50970B0
:102B24000375090A851282851383EEF0A3EFF0A9D9
:102B34000974021217A77F0E0218F185080C74019C
:102B4400250CF58274033400F583223400F50F85D7
:102B54000E82F58322FA74033400FB12120174020C
:102B6400221237A522A3A3122B6F22123236FDEEB6
:102B7400FAEFFB2274EE12181F74FE1217918C0EDA
:102B84008D0FEA2405F50CEB123746750B00900205
:102B9400FFE4F0F50AEA2402F508EB3400F50980B5
:102BA400449002FFE0FA9002E8E0F8122C8F9417A8
:102BB400122C87400D9002FFE0F87416C39890021F
:102BC400E8F0122C98121A327CE97D0274002AFA79
:102BD4007403122B5C1217A79002E8E0F89002FF2E
:102BE400E028F0050AE50C2416F582E50D122B4ABF
:102BF400E0F8E50AC39850749002FFE0C3941650BD
:102C04006BE50AC333F8E433F9E50C28FEE50D3926
:102C1400FF851882851983AC82AD838E828F8312DF
:102C24002CA17008750B0112323B8050E4F510F5AD
:102C3400117810121A327510E87511027810121AF0
:102C4400327510E97511027810121A3274061217CF
:102C5400FB121A497916850882850983123BEF1203
:102C640017A7E9F50B7003022BA580BB7CFF7D023F
:102C7400850882850983122ED6120463A90B740277
:102C8400023139E99400C365D03322EA28F8E434E8
:102C940000F9E822E0F51075110078102212312EA7
:102CA4008A108B11AC10AD11EC4D2274EA12181F6E
:102CB40074FC1217918A0C8B0D8C128D13EA240567
:102CC400F50AEB12322B750800750900E50A240297
:102CD400F510E50B3400F51174021217FB85820E12
:102CE40085830F780E121A32850A82850B83A3A37B
:102CF400A3A312374B121A32E50A2405F50EE50B8D
:102D04003400F50F780E121A328510828511831261
:102D14003231122ED01206DF74061217A78A0E8BD8
:102D24000FAE0EAF0FE50C2402F50EE50D3400F5E1
:102D34000F80388882898374FFF00508122B3F7452
:102D4400FFF005089002E8E0F50C750D00780C1210
:102D54001A327CE97D0285080C7401250C122B596A
:102D64001217A79002E8E02508F508EE4F60278EB9
:102D7400828F83A3A3A3E0F9850E82850F83122E8D
:102D8400E0EE2404123743E96027850C82850D8325
:102D9400122EC2123248E5087003022EA8122EEA3F
:102DA400850E82850F83122ED61204697900022EB5
:102DB400BDE4F514F5157814121A327514E8751576
:102DC400027814121A327514E97515027814121A5D
:102DD4003274081217FB121A497911EEFCEFFD85C3
:102DE4000E82850F83123BEF1217A7E9F509709A3B
:102DF400850882AA82EA9002E87009E0240490031C
:102E040000F08025E0F8900300E0F514E82404FCC9
:102E1400E43400FDEC65147001ED7081122C8F9484
:102E240012122C874003022DA1850C82850D83E0AC
:102E3400C0E074012A122B46D0E0F00508850C820C
:102E4400850D83A3E0C0E0122B3FD0E0122F05854F
:102E5400820C85830D780C121A3274041217FB123B
:102E64001A49851082851183122EFC1217A78A0C29
:102E74008B0DAE0CAF0D85080C7401250CF8740392
:102E84003400F9EE4F7003022D37851882851983BB
:102E9400E088828983122F05A3E0C0E0122B3FD083
:102EA400E0022D45E509700375090A850A82850B40
:102EB40083122EC2123248A9097404022B37123A23
:102EC4006B851282851383227CFF7D02850A8285AD
:102ED4000B83122EDA22E0FAA3E0FB22122EDA127E
:102EE40006CDE9F50922900300E0F5F0E5088490A9
:102EF40002FFF07CFF7D0222122B6F1206EB74049A
:102F040022F005088518828519832274EC12181F93
:102F140074FE1217918A088B098C0E8D0FEA240512
:102F2400FEEB3400FF123118EE2418123743EA4541
:102F34000B7003022FBB1231015029122FE08A10AB
:102F44008B11EA4511606B7912AC0AAD0B850882CE
:102F5400850983122ED685108285118312181DE9E6
:102F6400F50A7058E4F50AF50B780A121A328E82C3
:102F74008F83A3A3E0F50A780A121A32EE2403120F
:102F84003228780A121A328E828F83122FED120899
:102F94000574061217A7E9F50A7021850C82850DC0
:102FA40083E0701F850882850983122ED612046F70
:102FB4008011750A0E8009750A018004E50A600310
:102FC40012323B850C82850D83E060047900800217
:102FD400A90A74021217A77F0C0218F185188285BA
:102FE4001983122EDA1207F322123236FD85088273
:102FF400850983122EDA2274EE12181F74FE12173A
:10300400918A088B098C0C8D0DEA2405FEEB3400A3
:10301400FF750E00123118EA450B70030230DF12FF
:103024003101502C122FE08A0E8B0FEA450F604AB3
:103034007912AC0AAD0B850882850983122ED685D8
:103044000E82850F8312181DE9F50E60030230E22B
:1030540085088285098312331DAA0AFB1230F37096
:10306400147AFF7BFF1230F3606C88828983E50A4F
:10307400F0A3E50BF0750A008007750E0E805F055E
:103084000A9002E5E0FAE50AC39A504AE50A75F0A7
:1030940017A4FAABF088828983A3A3E02AFAA3E0F9
:1030A4003BFB8A828B83123231EC4D70D2750A1746
:1030B400750B00780A121A32EEFCEFFD121201743D
:1030C400021217A7EEFCEFFD850882850983122EF4
:1030D400D61204758014750E098003750E01123A18
:1030E40063850C82850D83123248A90E022C82124C
:1030F40007E78A108B11A810A911E84922E50824D2
:1031040002F508E5093400F5098A828B83A3A3A399
:10311400E0A2E522851882851983AC82AD838E8274
:103124008F8312312E8A0A8B0B22E0FAA3E0FB1262
:1031340006E52274041217A77F0A0218F174EC1230
:10314400181F8C108D11EA2405F50CEB1237467507
:103154000F00EA2402F50AEB12322B850A82F5836A
:10316400122ED6123C75700302321D750E0080714A
:10317400850C82850D83E06401704F8E828F83A35A
:10318400A3121A498E828F83A3A3A3A3E0F5127519
:1031940013007812121A32EE2405F512EF3400F5FA
:1031A400137812121A32122ED0120805740612174E
:1031B400A7E9F50F6014850C82850D83E4F0123ABB
:1031C400638510828511831232487C177D00790053
:1031D400EEFAEFFB1212198E828F83E4F0A3F0054E
:1031E4000E9002E5E0F8E50EC398501EE50E75F06A
:1031F40017A4F8A9F0850882850983A3A3123BDBF1
:10320400123231EC4D6003023174850882850983E2
:1032140074FFF0A3F0E50F7006122ED012047BA900
:103224000F022FDBF50AEF3400F50B22A31232361E
:10323400FD22E0FCA3E0228E828F83123A6B850E7E
:1032440082850F83E8F0A3E9F022C082C083900254
:10325400E1E06A7003A3E06B70067AE17B0280040C
:103264007A007B0002259074F712181F7F00EF7517
:10327400F003A4F8A9F0EC28F8ED39F988828983E1
:10328400E06A7003A3E06B7006E8FAE9FB800B0FB9
:10329400EFC3940240D87A007B007F010218F174D6
:1032A400F612181F12385470067A007B008007A3A8
:1032B400A3A3A3122ED602391574F212181FE9FE25
:1032C400740E1217FB12331D74101217FB1237857C
:1032D4008C828D83E06402703BA3123A67888289F2
:1032E40083E0F50CA3E0F9A80C7402687003742958
:1032F400697021750C02750D00780C121A32780869
:10330400121A32780A121A32EEF9120829740612C5
:1033140017A780027901023985E0F50AA3E0F50BCD
:103324002274E812181F74FB121791E9851882851C
:103334001983F08A168B178C0E8D0F741F1217FBCE
:1033440012378574211217FB12331D74231217FBD5
:1033540012376F7510008C828D83A3A3A3E0A2E4BF
:10336400502A741D1217FB122FE68A828B83E58282
:1033740045837003023431790AAC0EAD0FAA16AB43
:103384001712181DE9F5106003023434850E828586
:103394000F83E0640260030236EAA3123A678508E9
:1033A40082850983A3858212858313E50E2406F59D
:1033B4000CE50F12374688828983E0FAA3E0F9EA24
:1033C4002400F514E439F5157814121ABC01000030
:1033D400280128F93307000228D034032840340098
:1033E40029FA35012922360229C9350329FA350477
:1033F400298B36EA36EE4F703E850C82850D83129A
:103404003760FAE9FB8A828B83E0850A82850B8325
:1034140012379C121A328A828B83A3123236FDAA87
:1034240008AB0912120174021217A7800375100E5B
:10343400A9107405023BC975100B80F4EE4F70F7A8
:10344400850A82850B837401F0123775850882859D
:103454000983F07C007D00850E82850F83A3A3A3DE
:10346400A3E02401FAA3E03400FB1206E5EA4B6072
:10347400418A828B83E02402F8850A82850B83E0EB
:1034840028F0EA2404F8EB3400F988828983E08583
:1034940012828513831237AE12379C121A328A8233
:1034A4008B83123230E5082403FAE5093400FB0269
:1034B4003427850A82850B83E02404F07C047D0094
:1034C4007900AA12AB13121219023434EE4F6003BE
:1034D40002343B123775FEA3E0FF850A82850B8315
:1034E4007404F0EE850882850983F0EF85128285E5
:1034F4001383F074031217FBAC82AD83EEFAEFFB77
:1035040012384270030235A68A828B83A3A3123732
:103514006B74011217FB85820E85830F780E121AC5
:103524003274051217FB121A497CFF7DFF1206EB59
:1035340074041217A78B0FEA450F7033850C82852C
:103544000D8312374B121A32850C82850D83A31218
:103554001A497C027D007A3A7B941205177404128E
:1035640017A7E9700A74011217FB74FFF0A3F08E19
:10357400828F83E064027034750C02750D00780C40
:10358400121A328E828F83123230E5082404FAE54F
:1035940009122B5C1217A7850A82850B83E024028B
:1035A400800974011217FBEEF0A3EFF074011217F7
:1035B400FB12375CF074011217FBA3123754A3A358
:1035C400A3F0023434EE4F600302343B850C828551
:1035D4000D83123231AA16AB1712081D850A828593
:1035E4000B837402F0EA850882850983F0851282D0
:1035F400851383EB80CBEE4F600302343B123775A7
:10360400F8A3E0F9850A82850B837402F0E8850843
:1036140082850983F0E985128285138380A3850C52
:1036240082850D83122ED61211FBEAFC8C82A882AD
:10363400C39EE49F404BE86E7001EF70047C0080F1
:103644001F851882851983E0FAEE2AFAEF3400FB0D
:10365400C3EA98EB94005003E08004EECCC39CFCD6
:10366400EC850A82850B83F08C0A750B00780A12AC
:103674001A32850C82850D83E02EFCA3E03F0234D0
:1036840022751007023434EE4F600302343B850C7C
:1036940082850D83123A67850A82850B837407F04D
:1036A4008882898312375412373CE085128285134D
:1036B40083F0E82402FAE93400FB8A828B83123710
:1036C4005412378D12375CA3123796123765F0E81F
:1036D4002405F8E93400F988828983123765A31236
:1036E40037AEA30235C2741D1217FB12384D700396
:1036F400023431123A67880C890DE8450D700302D3
:1037040034318E108F117810121A32780A121A324C
:103714007808121A3274061217FBE0F9AC0EAD0FDA
:10372400AA16AB17850C82850D8312181D74061218
:1037340017A7E9F510023434F088828983A322F5AF
:103744000CEF3400F50D22E0F50E750F00780E2213
:10375400E0850882850983221237B522123A6BE884
:10376400221237B5A3A322A3A3A3A3E0FEA3E0FFE1
:1037740022850C82850D83E0F8A3E0F5838882E03E
:1037840022E0F508A3E0F50922A3A3F08A828B8343
:10379400A322122448A3A322F08A828B831237A582
:1037A40022E0F50A750B00780A2212373C1237B56D
:1037B40022E0850882850983A3A32274EE12181FD0
:1037C40074FE1217918A0A8B0BECFAEDFB74141237
:1037D40017FBE0F510A3E0F51174161217FBE0FED9
:1037E40074181217FBE0F50EA3E0F50F8518828517
:1037F4001983AC82AD83123842603E8518828519E4
:103804008312384D602FA3A3123785E5084509605C
:1038140024780E121A327810121A32EEF9AC0CAD6A
:103824000DAA0AAB0B85088285098312181D74043E
:103834001217A78006790E80027901022C821206E3
:10384400E58A0C8B0DEA450D22122EDA1238542229
:103854001207B18A828B83E58245832274F612189B
:103864001F74FE121791740C1217FB12376085181F
:1038740082851983F074011217FBE9F0E4F508F569
:10388400097808121A327508027808121A32740478
:103894001217FB8582088583097808121A321208E8
:1038A4000574061217A774021217A7806474F7121E
:1038B400181FEAFEEBFF89087C187D0312081DEA35
:1038C4005402600BA908EEFAEFFB1206D9800279C4
:1038D4000102329E74F612181F74FF6A700374FF9B
:1038E4006B701C7B00EB75F003A4F8A9F0EC28F8CE
:1038F400ED39F912391A0BEBC39402501480E61215
:1039040007ED8A088B09A808A909E8496003123958
:103914001A7F020218F18882898374FF122446E414
:10392400F02274F612181F1207ED8A828B83E58247
:1039340045836006A3A3E0FA80027A007B0080D16D
:1039440074F212181F8A088B09ECFEEDFF740E1234
:1039540017FBE0F50A12398A701CEEFCEFFD7AFFC2
:103964007BFF12398A70047911801688828983E575
:1039740008F0A3E509F088828983A3A3E50AF07916
:10398400007F060218F11207ED8A0C8B0DA80CA912
:103994000DE8492274EE12181FEAFEEBFF8C088D25
:1039A40009890C74121217FB123A6774141217FB6C
:1039B40012323174161217FB122ED6750D00EC4D0F
:1039C4006003023A5B7402650C6003023A56888213
:1039D4008983123236F9EC2400F50EE439F50FEA46
:1039E400F4F8EBF4F9EC58F8E50F59F9E849705D8F
:1039F400E5082406F8E5093400F9880A890B888269
:103A0400F583122B6B12081D8A108B11E50E6510BD
:103A14007004E50F65116042780E121A32850A822D
:103A2400850B83122B6B12082374021217A7E9F576
:103A34000D7027780E121A32850882850983A3A394
:103A4400122B6912083B74021217A7800D750D80A2
:103A54008008750D0D8003750D0BA90D02313C8E88
:103A6400828F83123A6B22E0F8A3E0F92274E81201
:103A7400181F74E7121791851882851983EAF0A339
:103A8400EBF08C168D17890E74311217FBE0F512CA
:103A9400A3E0F51374331217FBE0F514A3E0F51556
:103AA40074351217FBE0F50F750800750900E50978
:103AB40075F003A4F8A9F0851882851983123BDBFD
:103AC400E0F47003A3E0F47003023BB9EE2402F5C2
:103AD4000CEF123BD1E07003023BB985160A85173F
:103AE4000B780A121A32AC14AD15AA12AB131207D2
:103AF400A574021217A78A0A8B0BEA450B700302FE
:103B04003BB9E4F510F5117810121A327406121745
:103B1400FB8582108583117810121A3274091217EA
:103B2400FB8582108583117810121A3285128285E2
:103B34001383A3A3A3A3121A497914AC0AAD0B8E61
:103B4400828F83123BEF1217A7E97069850A828579
:103B54000B83A3A3A3A3123A6774021217FB1232B6
:103B640048850C82850D83E0A2E05018A90E7402EA
:103B74001217FBAC82AD838E828F83122ED612066F
:103B8400FDE94208850C82850D83E0A2E15026E51B
:103B94000FF50A780A121A36A90E74031217FBAC31
:103BA40082AD838E828F83122ED61206F774011291
:103BB40017A7E942080509E509C394025003023A2C
:103BC400B2A90874191217A77F100218F13400F56E
:103BD4000D850C82F58322E028FEA3E039FF8E8256
:103BE4008F83227916850A82850B83122EDA1207B7
:103BF400FF74082274F212181FEAFEEBFF890B749B
:103C040001650B600E7402650B70637901120A156D
:103C1400E9705BEEFAEFFB123C756047750A0080B1
:103C24000B7C177D007900121219050A9002E5E059
:103C3400F8E50AC3985021E50A75F017A4F8A9F02D
:103C4400850882850983A3A3E028FAA3E039FB8AC7
:103C5400828B8312259770C985088285098374FF36
:103C6400F0A3F07C187D03EEFAEFFB12081702397B
:103C7400851207E78A088B09EA45092274F21218AB
:103C84001F8A088B09ECFEEDFF740E1217FB12332A
:103C94001D900B9EE0F4603D7A097B0012122BEA22
:103CA4004B60328A828B8374B1F0A3E412378FA302
:103CB40012378DA3E508F0A3E509123CDCEEF0A36E
:103CC400EF123CDCA3A3E50AF0A3E50BF0900B9EF6
:103CD400E0F9121237023985F08A828B83A3A3A3F9
:103CE400A3A322C082C0839061907404F0A374489B
:103CF400F0A3E4F09061807440F09061BC7407F02C
:103D04009061877469F09061B67416F07900120BB3
:103D1400057902120B0B902304E493F46006E493F8
:103D2400F9120AE17905120DF9024129C082C08312
:103D3400E9540FF9906185E0696012E5C654804446
:103D440049F5C6E59E547F644970F8E9F053C6808E
:103D5400E59E547F70FA02412974F712181FE5A8F2
:103D6400FE53A87E120AEDC2BA539AFEC289759B0D
:103D740000C2C2120AF375A91175B905120AF9D263
:103D8400BA439A0174805E42A80246B6C082C083D8
:103D9400906181E4F0A302412675E90075910075F4
:103DA400BF0002011FC082C083906181E4F0A3744C
:103DB400C0F0A3E4024128C082C08374F8121791B2
:103DC4009003C4124598E8497003023E729003C4FC
:103DD400E0544060237908851882851983AA82AB50
:103DE40083120BFB851882851983AA82AB83120880
:103DF400A79003C4E054BFF0E054806010790C7ABB
:103E0400807B05120BFB9003C4E0547FF0E0A2E03A
:103E140050087900123E7A54FEF0E05402600879AA
:103E240001123E7A54FDF0E0540460087900123E19
:103E34008554FBF0E0540860087901123E8554F77C
:103E4400F0E0541060087902123E8554EFF0E0541B
:103E54002060087903123E8554DFF0A3E05401602A
:103E64000D120B171208B99003C5E054FEF0740844
:103E74001217A7024129120B051208AD9003C4E0E2
:103E840022120B0B1208B39003C4E022C082C08339
:103E9400E9600514602A804F90619A7433F0A3742A
:103EA40055F09061A0743AF090055CE064017009EB
:103EB400C2919003C67467802D9003C674618026F6
:103EC40090619A743FF0A3745AF09061A0747FF0EB
:103ED40090055CE064017009D2919003C67471800E
:103EE400059003C6746AF0024129C082C083E96068
:103EF4000B14600D14600F1460118020902308804F
:103F040015902309801090230A800B90055CE064CF
:103F14000160F390230BE493906186F002412974CD
:103F2400EE12181F74F4121791851882851983AC48
:103F340082AD837583937582B774041216A490239B
:103F44000893F460030240B5907808E0C3940250EB
:103F54000302409574041217FBAC82AD83758393FE
:103F640075825674081216A4F97AFF7BFF7FFF7ED0
:103F7400008982858210801874086E700302404A9A
:103F840074096E700302404A740A6E700302404A58
:103F9400E510C333FCE433FD74041217FBE5822CF3
:103FA400F582E5833DF583E0F50EA3E0F50F8E0879
:103FB4007509007402780812177E74482508FC7489
:103FC400783509FD8C828D83780812164974087837
:103FD4000812158A85080C85090D8C828D83780852
:103FE4001216497418780812158AE50C4508F50864
:103FF400E50DF509C3E50E9508E50F95098C828D4D
:104004008378081216498C828D83780812164974B5
:10401400187808401412158AE50C4508FCAD0DE526
:104024000EC39CFCE50F9D800F12158AE50C450814
:10403400C3950EFCE50D950FFDC3EC9AED9B500660
:10404400ECFAEDFBEEFF0EEEC394135003023F7C3B
:1040540074FF6A700374FF6B602D8F087402780814
:1040640012177E7448124D4474783509F583780824
:10407400121649851882851983E5822510F582E593
:1040840083124AD1E508F009E9C394045003023FBE
:104094006D7508017509007808121A327402121736
:1040A400FBAC82AD837AC27B081210F9740212173A
:1040B400A7740C1217A77F0A0218F1C082C083905C
:1040C4006186E0F890230BE49368700990230AE476
:1040D40093906186F09061AE7468F0A3746AF09076
:1040E400624574FBF0A304F053F4FD43FE02900513
:1040F4005C7401F09061A0E0643A7004790080027D
:104104007901120B05024129C082C08390050EE09B
:104114006401700A900513E06004790C8002790050
:104124008003F0A3F0D083D08202011FC082C08339
:1041340075E1F1900511E0604D14600814605114AC
:1041440060498051120B29900507E0F97A087B0534
:10415400120D7B9093BF121667120DB190939F12AC
:104164001667120D87900512E0F9120D937901126A
:104174000DED900505E024161242BE7441F0A374BF
:104184000BF07900809F120B2F80BC120B3580B787
:10419400120B3B80B2791280EB74F412181F75D99C
:1041A4000D9004F6E0A2E0E4331313F812422A4817
:1041B4004401F5D978001242A840FB7800880874BD
:1041C400F7124D4474041242B240F275E195900422
:1041D400F6E0F97AF77B04120D81900BC074B7F006
:1041E400A3740A1242CD1242ED1242E41244251283
:1041F400423478081216499093CB78081215D5905A
:1042040093AF78081216231242B878081216589001
:104214000505E024141242BE7413F09003C2740224
:10422400F07F040218F1900507E0C4333354C02230
:10423400900505E0F8A3E0F5838882A3A32274F631
:1042440012181F1243F68AD978001242A840FB784C
:1042540000800612435C1244A8E8C39940F5124357
:10426400E81242A840FB78008008124D4074051201
:1042740044A8E8C39940F375E195900BC074C3F06A
:10428400A3740A1242CD1242D71216671242B81210
:104294001673900505E024141242BE7412F09003C4
:1042A400C2024693880874082508F58274051246EC
:1042B40004940622900505E0240EF8A3E01242C5FA
:1042C400223400F9888289832212440E74BDF0A33B
:1042D400740A221242ED1242E41244299093D72226
:1042E400F0A374D5F0A3740A221242F1221242F50B
:1042F40022F0A37467F0A3740C2274F612181F1230
:10430400435112422A4402F5D978001242A840FBD4
:104314007800800612435C1244A8E8C39940F575FE
:10432400E195900BC0124367F0A31243671242DA7F
:104334001216671242B8121673900505E02414127F
:1043440042BE7414F09003C274040246959005179B
:10435400E0F9740729F5D922880874182508F5822C
:1043640074052274CF124374124374F0A3740A22A6
:10437400F0A3740AF0A374CF2274F612181F124328
:10438400F674064AF5D978001242A840FB780080FA
:104394000612435C1244A8E8C39940F51243E8129C
:1043A40042A840FB78008008124D4074051244A8CE
:1043B400E8C39940F375E195900BC074C9F0A374F8
:1043C4000A1244041242D71216671242B812167324
:1043D400900505E024141242BE7415F09003C274D3
:1043E4000302469590053712435474044AF5D9786C
:1043F4000022124351900507E0C4333354C0FA221B
:1044040012440E7467F0A3740C2212441222124454
:104414001F7467F0A3740C12441F221242F5F0A318
:104424002212442922F0900BCE7467F0A3740C126C
:1044340044127467F0A3740C1242F1F022C082C0DB
:1044440083124234A3A3A3A3E402412674F71218EF
:104454001F124F86F8740339F9E82405FAE9340089
:10446400FB8A828B83124CF588828983A3A3A3A33E
:10447400A3A3A3A3A3ECF0A3EDF088828983A3A351
:10448400A3A3A3A3A3E024FFF8A3E034FFF98A8243
:104494008B83E8F0A3E9F00246B688087460250827
:1044A400F5827405124C1CF5D90822EAFEEBFF9044
:1044B40061D0E0F87480C398FAEE2483221244C7D2
:1044C400940422124ADFE0F5D90AEAC32274F612F0
:1044D400181FEAFEEBFF9061D0E0707575D90E7578
:1044E400D90375D9047A008A08EE25081250542499
:1044F4008C12456A40F17A008A08EE25081250545D
:1045040024841244C140F175E1957908EE248C129B
:104514004563248412455A7C008C82AA82C3E49A9F
:10452400F895E0F9EE28F8EF39F9E8248BF582E9FB
:10453400124C18C0E0EE2A12505424ABF582E91252
:104544004AD1D0E0F00CECC3940840CD1246208050
:10455400027900024696FAEF3400FB120BEF2212A6
:10456400455A7904EE221244C7940822C082C083BB
:1045740075D90275D90375D90575E195EA2470F5E5
:1045840082EB124595EA2472F582EB12463202411F
:1045940029124AE212459C22E0F8A3E0F92274F6BB
:1045A40012181FEAFEEBFF900560740612460E1205
:1045B4001A327C01790312493A1217A775D9067584
:1045C400D90378001245F440FB75E1959003C2E0ED
:1045D40064087017EE2470F582EF124595EE24728C
:1045E400F582EF124AD1E8F0A3E9F0790102469688
:1045F400880874602508F58274051246049405221F
:10460400124AE2E0F5D908E8C322F075086075099A
:104614000578082275E1957904120DB7EE2470F53A
:1046240082EF124AE212459CEE2472F582EF124A9E
:10463400E2E8F0A3E9F079012274F612181FEAFE09
:10464400EBFF9061D0E070437901900560740BF04A
:104654009003C2E06407701775086075090578084F
:10466400121A327C01090912493A1217A779057402
:104674000129F5D975D9037800800312449EE8C353
:104684009940F875E1951246208002790080037400
:1046940001F07F020218F174F712181FEAFEEBFF13
:1046A40075D90375D90375D90DEE24DE1246BB12F4
:1046B40046187F010218F1F582EF124C1CF5D9223D
:1046C4007F030218F17401250AF5D975D90378001E
:1046D4002274F512181F12474A6004780480027885
:1046E40000E8240BF8EAC3984041750A0990056074
:1046F4007409F07908124733601475086075090568
:104704007808121A321249321217A7750A0D124686
:10471400C9800312449EE8C3950A40F775E1957970
:1047240004120DB71248AF7901800279008091EE2E
:1047340024E3FCEF3400FD7A617B05120BE9850864
:1047440082850983E0221244AFF8EF124CE9F58325
:10475400E02274F312181F8A088B09124945FAE5FE
:10476400082483F50AEB1248146004780480027864
:1047740000E82408F8EAC398500302480D750C06B3
:10478400900560740CF09003DFE0900561F0740212
:10479400C0E0F97CE07D037A627B05120BE9D0E08E
:1047A400F97CE27D03120BE9850A82850B83E060C4
:1047B4001C750A60750B05780A121A327C06790397
:1047C400AA08AB0912493A1217A7750C0A740125F5
:1047D4000CF5D975D90378008009880A7460250A14
:1047E4001244A4E8C3950C40F175E1957904120DC7
:1047F400B7E5082470F582E509124595E5082472A9
:10480400F582E509124632800279007F050218F12B
:104814003400F50B850A82F583E02274F612181F22
:10482400EAFEEBFF124945FCEE2483F8EF124940FF
:1048340060047A0480027A00EA2404FAECC39A4001
:104844005E7A02900560EAF0EE24F5F582EF1248F4
:10485400BB60197508607509057808121A327C0264
:104864007903EEFA12493A1217A77A0674012AF567
:10487400D975D9037800800312449EE8C39A40F89E
:1048840075E195EE24741248A8EE24801248A8120B
:1048940048AF7904120DB7EE240D12462380027935
:1048A40000024696F582EF124A2B22EE241DF58271
:1048B400EF124A2BA3F022124C1C900561F088825F
:1048C4008983E02274F612181F124945FEEA2483F4
:1048D400F8EB12494060047C0480027C00EC240460
:1048E400FCEEC39C40437C029005607407F0EA240C
:1048F400F6F582EB1248BB601575086075090578FA
:1049040008121A32790312493A1217A77C06740165
:104914002CF5D975D9037800800312449EE8C39C12
:1049240040F875E1957901800279000246967C0988
:104934007903EEFAEFFB120C5B7402221242C5E01B
:10494400229061D0E0F87480C3982274F512181F85
:10495400E9FEA2AFE433F50AC2AF7F00EA246FF8A0
:10496400EB3400F980010F88828983E0FCEFC39C5B
:1049740050188F08EA2508FCEB3400FDEC246BF595
:1049840082ED124C186E70DE8010EA2CFAEB3400C3
:10499400FB124ACBEE1248C104F0E50AA2E092AF42
:1049A4000246C474F612181FA2AFE433FFC2AFEA82
:1049B400246FF8EB125056FCE9FD8C828D83E014D1
:1049C400F07E0080218E08EA2508F8EB1250562468
:1049D4006CF582E9124C18C0E0E8246BF582E91208
:1049E4004AD1D0E0F00E8C828D83E0F8EEC398407B
:1049F400D4EA246E124ACE74FF124A20EFA2E09247
:104A0400AF024696C082C083E5A8F8C2AF124ACB73
:104A1400E9124A20E8A2E792AF024129F0EA246AA7
:104A2400F582EB124A2B22124AE2E4F02274F212CB
:104A3400181F8C828D83A3A3A3A3E0541FF0EA2440
:104A440036124D8D8E828F83E4F0F50C850C8285B1
:104A5400820AEC250AF8ED124CE5F583E0C0E0EAA1
:104A6400250AF8EB124AD5D0E0F0750D00850882CE
:104A7400850983E0F50A750B00E50D780A12175FC6
:104A8400E50AA2E0502AE50C33333354F8250DC06F
:104A9400E08E828F83E0F8EA28F8EB12505624382F
:104AA400F582E9124AD1D0E0F08E828F83E004F0DF
:104AB400050DE50DC3940840B4050CE50CC394053D
:104AC400408A7F060218F1EA246BF582EB124AE26F
:104AD400223400F9E8245D124ADF22F582E9340029
:104AE400F5832274F612181F9003EEE06401700738
:104AF4007A007B00024C127E009003F4E070F174A3
:104B040001F0A3E4F0A3F090045404F0900457E4FB
:104B1400F0A3F090045A04F09003F7E4124C2990A7
:104B2400040104F0900427E4F090938F1216679028
:104B3400040A12167390040EE4F0A3F0A3F0900498
:104B440072F0900466F090045B7480F0A3E4F0903B
:104B54000461F0900459F09004DD124C219004E6B5
:104B6400F0900475F09004C5F0A3F090938F1216A2
:104B7400679004C712167390938F1216679004CB34
:104B84001216739004D1E4F09004D3F09004CFF0A3
:104B94009004E9124C218E08745D124D4474041281
:104BA4004AD174FFF00EEEC3940440EA7E008E8274
:104BB400A88274FD28F5827404124C18C0E0744F66
:104BC40028F5827404124AD1D0E0F00EEEC39405A5
:104BD40040DC7E008E82A88274D628F5827403128B
:104BE4004C18C0E074D528F5827404124AD1D0E080
:104BF400F00EEEC3940840DC9003EEE004F0640190
:104C040070089003F6E09003F0F07AF27B0302461A
:104C140096F582EF124C1C22124AE2E022124C2931
:104C2400A3124C2922F0A3F0A3F0A3F022C082C067
:104C340083EA2403F582EB124C186008E4F0900335
:104C4400EFE014F09003EEE014F070069003F074BB
:104C5400FFF08A828B83A3A3E4F0900502E0700D39
:104C64009003EFE0640170057900120D9902412967
:104C7400C082C0839003F5E4F09003F4F09003EE57
:104C8400F0A3F0A374FFF075E1F1024129C082C0E2
:104C940083780079009003F5E0600478F279038862
:104CA400828983A3A3A3A3E0F902412974F612180D
:104CB4001FEAFEEBFF120BA1EE2465F8EF124CE5A0
:104CC400124CF3EC4D60109003F0124F7E85088275
:104CD400850983E4F0A3F0EEFAEFFB120C9102468F
:104CE40096124CE9223400F988088909888222F551
:104CF40083E0FCA3E0FD2274F712181FEAFEEBFF29
:104D04008E828F83A3A3A3A3E0FA7B0012091FEE74
:104D1400FAEFFB120BB3120C730246B674F61218B8
:104D24001F7800880874D6124D4474031248AB08E7
:104D3400E8C3940840ED9003D6024693880874387B
:104D44002508F5822274F612181FEA240D124D8DDF
:104D5400EC2403F8ED3400F988088909EC2407F8F9
:104D6400ED125056FCE9FD124D971217068E828FF4
:104D740083E8F0A3E9F0124D971217068B09EA4570
:104D8400096003124DAA024696F8EB3400F9E8FED6
:104D9400E9FF228C828D8312459C850882850983D4
:104DA400E0FAA3E0FB228E828F83E02401F0A3E0EB
:104DB4003400F02274F612181FEA242EF582EB3424
:104DC40000124CF3EA2470124D8D780079FAECFA53
:104DD400EDFB1217068E828F83E8F0A3E9F07800CA
:104DE40079FAECFAEDFB1217068B09EA4509600320
:104DF400124DAA02469674F012181FEAFEEBFF74D5
:104E0400101217FB7808121649120D4B8A0C8B0DE1
:104E14008C0E8D0F9093CF780C1215D59093AF789C
:104E24000C121623780C121A2E8E828F831242379C
:104E3400121667121FA574041217A7E96003024E25
:104E4400E28E828F83E02402F8A3E0125056FAE93E
:104E5400FB8A828B8378081215E89093AF78081246
:104E640016498A828B837808121636EE240BF58253
:104E7400EF124AD1C082C0838E828F83A3A3A3A3DF
:104E8400A3E02401F8A3E03400F9D083D082E068E1
:104E94007003A3E069700479018045EE2407F8EFFC
:104EA4001242C5124DAEEE247412505B7014EE24FF
:104EB40075124EE97003A3E06D70078A828B83122A
:104EC4004DAEEE248012505B7014EE2481124EE934
:104ED4007003A3E06D70078A828B83124DAE790054
:104EE4007F080218F1FAEF3400FB8A828B83E0FC1E
:104EF400A3E0FD88828983E06C2274F312181F12E8
:104F04004F86FE740339FFEE2404F50AEF3400F5EE
:104F14000BEE2465F508EF3400F5098010124CF50A
:104F2400850882850983E4F0A3F0124F788508820E
:104F3400850983124CF5EC4D6030EE2464124C1557
:104F4400F50C780C121A36EE2463124C15F9EEFAAD
:104F5400EFFB120BDD74011217A7E985088285099E
:104F64008360BA124598E84970077C007D00124FAF
:104F74007802480F850A82850B83E0FA7B001208C9
:104F8400DD229003F0E0F875F004A4C8AAF02AF931
:104F940074F2282274F212181FEAFEEBFF890A74D5
:104FA4000E1217FBE0FAEE246212505B600302500B
:104FB4004F124945F50CEE2483124C15FB6004781E
:104FC40004800278008908E928F8E4125056240283
:104FD4000808E93400F9E50C98E499A2D265D033C5
:104FE4004065EA7005750B028003750B01EB6033B5
:104FF4007509007808121A327A607B05120C257440
:10500400021217A77508607509057808121A32ACE0
:105014000AA90B1249361217A77404250AF50A7C4B
:10502400607D057401250AF5D9850BD97800800ABD
:105034008808EC124D44ED1244A8E8C3950A40F0E8
:1050440075E195790080067907800279FF024AC6E6
:10505400F8EF3400F9E822F582EF124C1C640122C7
:10506400C082C0838003125092E9F874FF281904A7
:1050740070F4ECFAEDFB024129C082C08380031274
:105084005092E9F874FF28190470F40241298C82C3
:105094008D83E08A828B83F08C828D83A3AC82AD76
:1050A400838A828B83A3AA82AB832274F412181F8F
:1050B400E9FF7E008A088B097808121A7600040D2D
:1050C4005552E250FF5018512F514C5163518451A5
:1050D4009B51AE51D751F1510152175231527401C3
:1050E4006F60030252518C828D83E0F8C3940340B5
:1050F40003025251E8900C8802522E74026F60032E
:105104000252518C828D83125A3A900C89E8F0A392
:10511400E902522E74016F60030252511252774019
:1051240003025251E890076402522E74016F600327
:105134000252518C828D83E0F8C3940540030252DD
:1051440051E890076502522E74016F6003025251B8
:105154001252774003025251E890076602522E74AD
:10516400106F60030252517508108E097808121AE4
:10517400327A677B0712120174021217A702527364
:1051840074016F600302525112527740030252516C
:10519400E890077702522E74016F60030252518C1B
:1051A400828D83E0900C8C02522E74046F60030293
:1051B40052518C828D8378081216499093BB7808DB
:1051C40012147C5003025251900779780812165831
:1051D400025273EF7077120685E9700A12108D7906
:1051E4005012133F806290080C7401803D74016F6B
:1051F400705B1252775056E8900778802D74016FD7
:10520400704B8C828D83E0F8C3940A5040E8900C74
:105214008B801774016F70358C828D83E0F874F97C
:1052240028C3940A5027E8900C8DF0804274016FD3
:10523400701B90080BE0F88C828D83E090080BF0D3
:10524400E8702CE06401702712108180227E18809F
:105254001EC3EA9426EB9400501374026F700E8CF4
:10526400828D83125A34120523E9FE80027E02EEF7
:10527400F9800F8C828D83E0F8C3940222740E129D
:1052840017A77F040218F1A90802528674F01218B5
:105294001F74B11217918C0A8D0B9093767420129F
:1052A400181574061216A47420121815121033E976
:1052B400FF745F1217FBE0F509EFC3940A40030281
:1052C400541275F006EFA4F50874411218157A0EFD
:1052D40074202508F9121339E97009744D1217FB6B
:1052E400E0FE80027E00900C88E064027005750E7A
:1052F400018003750E00740865097004742280022D
:1053040074212508F50D7C1B7D0079007426121884
:105314000D12121974261218157A1BA90D121339BD
:10532400E9702D74401217FBE024F9C3940A50204D
:10533400E50EF50D780D121A367427121815EEA223
:10534400E0E433F9AA0AAB0B1205C574011217A7DE
:105354007C147D007900740C12180D121219740C4F
:105364001218157A1074242508F9121339E97034C7
:105374007C1079FF740C12180D12127FE9702574D9
:105384001C1217FBAC82AD837A0474252508F9122C
:105394001339740C121815EEA2E0E433F9AA0AAB1F
:1053A4000B1205ADAC18AD197A0C74702FF91213E9
:1053B40039E97049AA18AB191210697F00EF75F02A
:1053C40003A4F8A9F0851882851983E58228F8E5F5
:1053D40083125BF3125D65601D88828983A3A3E059
:1053E400F50E750F00780E121A32AA0AAB0B1208CA
:1053F4000B74021217A70FEFC3940440C0EEA2E18E
:10540400500C900763E0F9AA0AAB0B12081174045C
:1054140065097028900C88E0640270207A00900777
:1054240077E060027A01900764E060047804800207
:105434007800E84AF9AA0AAB0B12066D7900744F9A
:105444001217A77F080218F174F012181F74F012D3
:105454001791EAFEEBFF8C088D09750A0AE9600CC6
:1054640014600914603B14607D02554212107BE9FC
:10547400F50AC3940A4003025542E508450970033E
:10548400025542750C06750D00780C121A32EEFCAA
:10549400EFFDAA08AB0912120174021217A70255F4
:1054A40042750C00750E06750F00780E121A32EE56
:1054B400FCEFFDE50C75F00EA4F8A9F0748528FA4C
:1054C400740739FB12121374021217A7E9700B0543
:1054D4000CE50CC3940A506680CA850C0AE50AC31D
:1054E400940A505A8049750C00AC18AD197A10759D
:1054F400F006E50CA42423F9121339E9701C7C107E
:1055040079FFAA18AB1912127FE9700EEEFCEFFDB9
:10551400AA18AB1912058FE9600B050CE50CC394AE
:105524000A501B80C4850C0AE50AC3940A500FE58F
:105534000845096009AA08AB09A90A121075A90A45
:10554400741002544474F412181F890975081574F0
:10555400FF6A700374FF6B70277E00AC097A027BCC
:1055640000EEF9121057E960037508000EEEC394BB
:105574000A40E8E50960537AA57B10120A27804A9D
:10558400120A098A0A8B0BAE0AAF0BEE4F60387C05
:10559400007D00EE2405FAE43FFB8E828F83A3A3F3
:1055A400A3A3E0F9121033E9F9C3940A500CAC092F
:1055B4007A027B00121057750800E509600CEEFAB8
:1055C400EFFB1210A5800375081402528B74F212BB
:1055D400181FECFEEDFF750815740E1217FB125A16
:1055E4002774FF6A700374FF6B7021750900AC0A9D
:1055F400AD0BEEFAEFFBA90912105DE96003750823
:10560400000509E509C3940A503F80E2120A098A99
:10561400828B83E5824583602D7C007D00E58224B6
:1056240005FAE43583FBA3A3A3A3E0F9121033E93D
:10563400F9C3940A5013AC0AAD0BEEFAEFFB121047
:105644005D7508008003750814A908025BBBC0825D
:10565400C08390077DEAF0A3EBF0900763E0FC7D44
:10566400007A257B00120523900763E0F91207876F
:10567400D083D08202011F74EC12181F8A088B0990
:10568400E97E0070387808121A3274161217FB7803
:105694000C1216499093BB7810121649780C7910A5
:1056A40012151BAA10AB11AC12AD131205BF740274
:1056B4001217A7E9FE60097901AA08AB091205B916
:1056C400EEF97F0C0218F174EA12181F74EC121729
:1056D40091EAFEEBFFEE240CF514E43FF5158E82FF
:1056E4008F83A3858210858311EE240AF50CE43F91
:1056F400F50DEE2405F50EE43FF50FEE2409F50A49
:10570400E43FF50BEE2403F508E43FF5098E828FA0
:1057140083A3A3E024FA70030259FF24FD7003025B
:1057240059211470030257B514601024FD7003024C
:105734005904147003025955025A1D125A40604903
:10574400E0F5838882125A3A880C890DE8450D6089
:1057540038851482851583E0F50E780E121A36EE1C
:10576400240BF582E43FF583E0F9850A82850B83F7
:10577400125A340A0A0AAB09850C82850D83121861
:105784001D74011217A7025A1D850A82850B831204
:105794001A499007791216671205BF74021217A7E7
:1057A400E97003025A1D7901850A82850B83025927
:1057B400CB851082851183E060030258E7850E8251
:1057C400850F83E0A2E040030258E77C0E7D007958
:1057D40000AA18AB19121219EE2408F512E43FF5C9
:1057E40013851282F583126165EA4B6010750A060F
:1057F400750B00780A121A32EA2410801B12615FBA
:10580400120A09EA4B7003025A1D750A06750B0049
:10581400780A121A32EA2405FCE43BFD74021218D9
:105824000D12120174021217A7850E82850F83E0F0
:10583400A2E25004D2F08002C2F0A2F0E433F87481
:105844000C1217FBE048F0850C82850D83125A2751
:10585400E50A450B6012E50A2410F582E4350BF5E0
:1058640083780C121649800C750CFF750DFF750EAC
:10587400FF750FFFE50A450B7006750A00750B00EE
:10588400851282851383E0F512A3E0F513E5124532
:10589400137006751200751300780C121A2E780A0C
:1058A400121A327812121A32851482851583121A4A
:1058B400498E828F83A3125A2F740A12180D121064
:1058C4006F740A1217A7850882850983125A3A90C1
:1058D400080DE8F0A3E9F07A017B00900763E0F992
:1058E40012125B125A407003025A1D125A4B700373
:1058F400025A1D851082851183E0FC79010259F357
:10590400125A407003025A1D125A4B7003025A1D58
:10591400851082851183E0FC79020259F37C007DB5
:1059240000EE2404FAE43FFB850882850983E0F94C
:10593400121033E9F8C3940A4003025A1DAC0CADAB
:105944000D7A0475F006E8A42425F9121333025ADB
:105954001D12615F900778E06007900C8BE0F9807E
:1059640069900C88E070047905805F120A098A0C3A
:105974008B0DA80CA90DE82404F50CE439F50D8E63
:10598400828F83A3A3A3A3A3A3A3E0A2E05040E830
:10599400497003025A1D850C82850D83E0FE602F39
:1059A400850A82850B83E054107024740E12181536
:1059B400E82405FAE439FBEEF9121033E9701079A2
:1059C400038508828509831261651205B9804AAC92
:1059D4000EAD0F850C82850D83E0F912615F121004
:1059E400B1125A406033125A4B602E7C0079001277
:1059F400615F8E828F8312181D801E120685E970E6
:105A04001890080CE06401700812108D90080CE4E2
:105A1400F0795012133F12108174141217A77F0EDD
:105A24000218F1E0F50AA3E0F50B22A3A3A3A3A3B4
:105A3400E0FCA3E0FD22E0F8A3E0F92290077DE07A
:105A4400F8A3E0F9E84922E0F5838882A3A3E0F80B
:105A5400A3E0F9E8FEE9FFEE4F2274F412181F7474
:105A6400F2121791EAFE8C0B75F006E9A42420F5D6
:105A740008AC18AD197A0EF9121339E970487C068E
:105A840079FFAA18AB1912127FE9703A740C121735
:105A9400FB125A3AE8F509E50B6005EE4209800469
:105AA400EEF45209AA09E86A7001E96015740C124F
:105AB40017FBEAF0A3E4F0AC18AD197A0EA90812AA
:105AC400133379018002790002528174F212181F93
:105AD40074E6121791890A8A088B09ECFEEDFF74AB
:105AE4000C1218157A0E75F006E9A42420F9121385
:105AF40039E96003025BB47C0679FF740C12180D5B
:105B040012127FE96003025BB47470250AF50BACD2
:105B140018AD197A0CF9121339E96003025BB0AAC3
:105B240018AB19121069E5084509701D7C0C790041
