:020000040000FA
:06000000020107021DF6DB
:03002B000222644A
:0300330002224660
:03003B0002227E20
:030043000221FA9D
:03005300021E6C1E
:03006B000222204E
:10008300021CE7E5C754F84401F5C77901220000D3
:100093000080FB120086B900030200F1E4792178A5
:1000A30008B800028004F709D8FCE479297802B87B
:1000B30000028004F709D8FCE49002817861790991
:1000C3008002F0A3D8FCD9FA7AE17B0A9001377851
:1000D300F479038015E493A3AD82AE838A828B8384
:1000E300F0A3AA82AB838D828E83D8E9D9E7758288
:1000F300647583A07403120119758291758300746A
:100103000012011975D00075813F751881751902A8
:10011300759F00020096C09FF59FE473D09F22D085
:1001230083D082C09FE493C0E0740193C0E0740263
:1001330093F59F22FF0000B4000028002800283018
:1001430075A000A000A000A00000080008E001F0D6
:10015300001000100010001000100010005000509C
:1001630000500010001000D0070000000000000F36
:100173000001000500307507001000010081FF0039
:1001830000FF280646062E06FF0202020802500060
:10019300A0000000E8030271930100005493026D74
:1001A30093010000360B026793010000B202026D57
:1001B30093010000370B026593010000C802026D32
:1001C30093010000380B026393010000CA02026D21
:1001D30093010000390B026193080000CB02026D0A
:1001E300930100003A0B025F930100003B0BFF01F8
:1001F30000FF200271930100005193026D930100EF
:10020300009F0B025D93000000000002699303004E
:10021300001803580C580C580C580C580C580C5810
:100223000C580C580C580C580C580C580C280F40F0
:100233000F220F020202020202020202010D00005B
:100243000010010271930100005793026D930100A6
:1002530000E00B0277930100005B07026D9301003E
:1002630000E10B0279930100000692026D930100F5
:1002730000E20B027B93010000DC91026D9301000D
:1002830000E30B027D930100001391026D930100C3
:1002930000E40B027F930100005B91026D93010068
:1002A30000E50B0281930100004991026D93010067
:1002B30000E60B0283930100000191026D9301009C
:1002C30000E70B028593010000F891026D93010092
:1002D30000E80B028793010000E90B01E803053FE7
:1002E30010FFFFFF0001307503020106000000004C
:1002F30000000000000000000000000000000000FB
:100303000000000000000000FFFF0600800CE8036F
:100313000509544A4751051220032003020A00022B
:1003230001050302F0FF544A4751206261636B7079
:1003330061636B0000000000000000D2130000E4C2
:1003430013DE13D8130A43686172616374657269BB
:100353007374696320310002436861726163746579
:100363007269737469632032000843686172616360
:100373007465726973746963203300104368617232
:10038300616374657269737469632034000243683E
:100393006172616374657269737469632035000205
:1003A30071930100005A93026D93010000F20C0255
:1003B3008B93030000D20A026B93010000F30C023B
:1003C3006D93010000040D028D93010000D30A0216
:1003D3006B93010000050D026D93010000160D02E1
:1003E3008F93020000D40A026B93010000170D02E1
:1003F3006D93010000280D029193000000D50A02BD
:100403006993030000D60A026B93010000290D02D1
:100413006D930100003A0D029393040000DC0A027D
:100423006B930100003B0D120122BD9103120122C7
:10043300D491031201220392031201223C9203126C
:100443000122649203120122929203120122A992C1
:1004530003120122C09203120122D6920312012237
:10046300FD92031201221093031201222693031219
:1004730001223993031201225E9303120122A9750B
:1004830000120122A87600120122DD760012012259
:10049300FE76001201220E77001201222F7700123E
:1004A30001223B78001201220879001201227B7994
:1004B30000120122017A00120122447A0012012261
:1004C3007B7A00120122017B00120122D37B0012EE
:1004D3000122317C00120122497C00120122C37CDB
:1004E30000120122C67C00120122C97C00120122E3
:1004F300707D00120122887D00120122B87D001256
:100503000122D87D00120122C67E001201227C7FC7
:10051300001201226BDC0212012293DC021201227F
:10052300C1DC02120122F8DC0212012260DD021298
:100533000122A9DD02120122F4DD0212012232DEC0
:10054300021201226FDE021201229DDE021201223B
:1005530044DF021201224EDF021201225BDF02128C
:1005630001228EDF0212012250E0021201225CE01E
:100573000212012274E0021201227EE00212012221
:10058300729C03120122809C03120122989C031285
:100593000122B09C031201221DB201120122BBB23F
:1005A3000112012233B30112012248B401120122C4
:1005B30082B4011201222BB50112012200B60112ED
:1005C300012264B701120122BBB70112012242B812
:1005D3000112012229B90112012276B90112012265
:1005E30004BA0112012228BA01120122FDBB011231
:1005F30001223EBC0112012260BC01120122E1BCB6
:1006030001120122CBBD0112012291BE011201226E
:1006130092C00212012264C1021201220DC202120F
:10062300012250C202120122DDC20212012269C359
:10063300021201224AC40212012279C402120122C7
:1006430075C502120122BDC502120122BFC60212E4
:10065300012203C70212012229C702120122959E19
:100663000312012268F1021201227EF10212012219
:10067300A4F102120122CCF202120122D6F20212DA
:1006830001222FF4021201222FF502120122D9CDE9
:10069300021201220ECF0212012241CF02120122C5
:1006A3008BCF0212012249D1021201229893011227
:1006B3000122FB9301120122409501120122509560
:1006C30001120122739501120122BE95011201222A
:1006D30063960112012259970112012223980112F4
:1006E30001229B9901120122DD99011201227B9AB9
:1006F30001120122C89A01120122EE9A011201226B
:10070300DC9C01120122E19C01120122C29E011212
:100713000122169F01120122789F01120122A09F3C
:100723000112012244A00112012206A10112012299
:1007330037A1011201223AA10112012282A1011261
:100743000122C4A1011201222BA2011201227289EA
:10075300031201228589031201229E8903120122B9
:10076300E98903120122C48A03120122538B031263
:1007730001229E8B03120122F02200120122FC228D
:10078300001201223523001201227A2300120122D2
:10079300312400120122B724001201221C25001269
:1007A30001224825001201228125001201229527EA
:1007B300001201227129001201225C2B0012012276
:1007C300932C00120122F32E00120122DF2F0012BC
:1007D30001222531001201223232001201224F324E
:1007E30000120122873200120122A13200120122DB
:1007F300093300120122A3370012012244380012E8
:100803000122953800120122BC38001201220A3954
:10081300001201222839001201227C390012012220
:10082300553A00120122DC3B00120122643C001203
:100833000122C1D702120122CBD70212012296D87C
:1008430002120122B1D802120122D7D802120122C8
:100853001BD90212012253D9021201227CD902129E
:100863000122F5D9021201220ADA021201221FDA49
:100873000212012256DA021201226ADA021201225C
:100883009BDA02120122D5DA0212012201DB0212E3
:10089300012257DB02120122ABDB02120122F4DB3D
:1008A300021201221EDC0212012243DC0212012287
:1008B3007CED0212012246EE0212012229EF0212FE
:1008C30001229FEF02120122E1EF021201220EF137
:1008D3000212012200800212012229800212012247
:1008E30042800212012287810212012265820212D2
:1008F30001228482021201221183021201225483F3
:1009030002120122A1840212012240850212012255
:10091300BF87021201225688021201222A8902127B
:1009230001220C8A02120122788B021201220B8C03
:1009330002120122619903120122CA9903120122B0
:100943001E9A03120122459A0312012213E1021295
:10095300012280E102120122CBE102120122C0E254
:1009630002120122BCE302120122A6E402120122B6
:1009730041A10212012283A1021201225DA20212ED
:10098300012236A30212012231A40212012210A570
:10099300021201227CA50212012243A602120122A5
:1009A300AEA60212012215A70212012240A70212CB
:1009B3000122B1A70212012244A802120122ADA80A
:1009C30002120122C2A8021201220AA90212012262
:1009D30023A90212012288A9021201228BA9021261
:1009E3000122948303120122BC8303120122FA839E
:1009F30003120122B8840312012223850312012268
:100A03003F85031201226785031201229785031292
:100A13000122A685031201222086031201224686A3
:100A230003120122F5A20112012292A40112012252
:100A330078A60112012242A70112012289A70112FD
:100A43000122D0A701120122E2A70112012222A84A
:100A53000112012251A8011201229DA801120122B3
:100A6300D5A80112012203A90112012254A90112DE
:100A73000122E3A901120122D1AC01120122ABAE82
:100A830001120122E7AE0112012241B0011201223B
:100A930088B001120122FDB0011201224BB10112F3
:100AA300012282B101120122E1F601120122FEF6B6
:100AB3000112012298FC011201229AFD0112012266
:100AC30014FF01120122C2FF01120122CB3C0012CA
:100AD3000122143D00120122413D00120122743D06
:100AE30000120122813D001201228D3D00120122DC
:100AF3009F3D00120122743E00120122D23E0012D9
:100B03000122073F00120122A34000120122F040FC
:100B1300001201221441001201228141001201221C
:100B2300264200120122E242001201226143001216
:100B33000122254400120122344400120122B5444B
:100B4300001201225445001201228645001201229F
:100B53002146001201227F4600120122B9460012EB
:100B630001223A4700120122034800120122AC4835
:100B7300001201223349001201228B490012012283
:100B8300EC4900120122154A00120122CB4A00123D
:100B93000122154C00120122584C00120122754CFF
:100BA30000120122944C00120122DF4C0012012298
:100BB300044D001201222D4D001201229C4D001202
:100BC3000122DE4D00120122E24E001201227C4F6F
:100BD300001201224850001201226150001201222A
:100BE300A09702120122F39702120122FF97021229
:100BF3000122D49802120122FB9802120122369993
:100C030002120122A29902120122D6990212012292
:100C13000F9A02120122279A02120122809A0212CB
:100C23000122999A02120122E29A02120122F59AF2
:100C3300021201220F9B02120122259B02120122A2
:100C4300419C02120122529D021201229F9E021216
:100C53000122849F02120122FC7F00120122FBE980
:100C6300011201222FEA011201229AED011201223F
:100C7300E4EE01120122AEEF0112012238F101125A
:100C8300012213F2011201224DF20112012270F22C
:100C930001120122B2F201120122BBF2011201225E
:100CA30005F3011201220FF301120122BBF301121A
:100CB30001228FF401120122E3F40112012245F50E
:100CC3000112012298F501120122C7F50112012236
:100CD30006F601120122596300120122B36B0012BE
:100CE3000122B96B001201227471001201225A759C
:100CF3000012012278FC02120122EEFC02120122F0
:100D030004FD0212012241FD0212012279FD0212A9
:100D13000122F6FD0212012231FE02120122ACFE73
:100D230002120122E8FE02120122F1FE0212012246
:100D3300FDFE0212012217FF021201223CFF0212E2
:100D4300012252FF0212012296FF02120122FFD258
:100D53000212012212D3021201222CD30212012207
:100D630055D30212012298D302120122D7D30212C1
:100D7300012215D4021201227AD4021201228FD445
:100D8300021201229AD402120122A7D402120122D2
:100D9300BED402120122CCD402120122D7D40212F1
:100DA3000122E3D402120122F6D40212012201D558
:100DB3000212012224D502120122CDD502120122F0
:100DC300DDD502120122F7D50212012214D6021236
:100DD300012230D60212012255D6021201225FD619
:100DE3000212012273D60212012292D602120122AA
:100DF300F3D602120122F9D602120122FFD6021201
:100E0300012205D70212012211D70212012244D76F
:100E13000212012249CF01120122CBCF011201227A
:100E230074D001120122BCD101120122CAD30112D2
:100E33000122B0D401120122E5D40112012207D507
:100E430001120122B0D50112012280D70112012221
:100E5300A9D70112012221D80112012253D801126C
:100E6300012260D801120122ABD801120122CFD88E
:100E73000112012220DB011201222ADC01120122CC
:100E830086DC01120122C6C001120122D7C1011260
:100E93000122BBC201120122C5C201120122E7C213
:100EA30001120122F3C20112012297C4011201228D
:100EB300C4C401120122DAC5011201222FC6011294
:100EC30001227EC70112012253C801120122AFC8B9
:100ED300011201221AC9011201224FC90112012272
:100EE30092C9011201225CCC0112012274CC0112BD
:100EF300012205CD0112012213CD0112012260CD81
:100F0300011201226ECD01120122DACD011201225A
:100F130055CE01120122ACCE01120122828C0212A3
:100F23000122A48C02120122B58E021201227491B5
:100F3300021201229E92021201225C9302120122EA
:100F430048940212012204900312012229900312F1
:100F530001229F900312012275B9021201227EB968
:100F63000212012287B9021201225FBA0212012280
:100F730010BC0212012240BC021201226BBC0212FD
:100F830001229BBC02120122C6BC02120122FABC3E
:100F93000212012226BD0212012269BD02120122A0
:100FA30094BD02120122DBBD0212012230BE0212E5
:100FB300012272BE02120122CCBE02120122F7BE2E
:100FC3000212012246BF0212012276BF021201223F
:100FD300A1BF02120122CFBF02120122F2BF0212ED
:100FE30001221E9F031201224A9F03120122779FAF
:100FF30003120122819F03120122919F03120122F6
:101003008E8603120122B38603120122DE860312A7
:10101300012200A1031201229350001201227452F3
:10102300001201223054001201222D550012012218
:10103300B555001201223656001201225F560012E6
:101043000122AF5600120122425A00120122B35A62
:1010530000120122A45B00120122DE5B00120122B6
:101063001E5C00120122515D00120122A45D0012D8
:101073000122ED5D001201225B5E001201228D5EF2
:1010830000120122A75E00120122995F00120122C1
:10109300A95F001201224F61001201226661001252
:1010A30001229861001201221A6300120122499D54
:1010B300031201225A9D03120122B7A00312012237
:1010C300F6A003120122E77F00120122F89D03120A
:1010D3000122089E03120122239E031201228B9EEA
:1010E30003120122769A03120122FA9A03120122B1
:1010F300629B031201228A9603120122B096031205
:1011030001221A97031201226D9703120122C69737
:101113000312012239F50212012270F50212012293
:10112300E0F502120122F5F502120122FCF6021289
:101133000122C2F702120122E1F70212012206F88C
:10114300021201223BF80212012253F80212012279
:10115300A4F802120122D9F802120122F3F80212B2
:1011630001226CF90212012241FA0212012213FC3C
:101173000212012268E502120122F8E5021201229D
:1011830076E602120122FAE6021201228CE702122B
:10119300012248E80212012215E9021201221FE985
:1011A300021201222EE90212012244E90212012253
:1011B30057E90212012261E90212012274E90212C3
:1011C3000122FF9403120122289503120122519553
:1011D30003120122EB95031201220396031201224B
:1011E30045960312012293B1021201229DB102120C
:1011F3000122DDB10212012226B20212012260B2E3
:1012030002120122B6B202120122D5B20212012247
:101213005DB50212012266B502120122B7B50212B0
:101223000122E0B502120122EAB5021201225BB6E5
:1012330002120122E9B6021201223EB70212012272
:101243006DB702120122E9B70212012226B8021277
:1012530001225DB8021201226FB8021201228EB878
:101263000212012297B80212012249B90212012285
:10127300709303120122C0930312012232940312CA
:1012830001229A9403120122C88B03120122F28BCA
:1012930003120122B98C03120122958D031201223C
:1012A3007B9B03120122088E031201223E8E03123E
:1012B3000122718E03120122CA8F031201229B9F06
:1012C30003120122B19F03120122BB9F03120122C9
:1012D30005A003120122AFA9021201226CAA021275
:1012E3000122A7AA02120122D8AA021201223AABB2
:1012F3000212012286AB02120122F1AB0212012279
:101303006BAC021201226AAD02120122F1AE02128B
:10131300012274AF02120122DAAF02120122EDAFF1
:1013230002120122E8B00212012235B10212012297
:1013330077E9021201228DE90212012231EA021237
:10134300012270EA021201228DEA02120122BEEA90
:10135300021201220BEB021201223FEB02120122C5
:101363007AEB021201226FED02120122D3DC011289
:1013730001220AE00112012286E101120122DDE1CC
:1013830001120122FAE10112012278E20112012283
:10139300F5E301120122D9E40112012288E80112C6
:1013A300012258E9011201220198031201220F9828
:1013B300031201227A9803120122C3980312012215
:1013C300E198031201229EC702120122E7C9021209
:1013D300012222CB0212012298CC0212012208CD53
:1013E300021201227ECD0212012200800312012289
:1013F3004580031201226280031201221881031225
:1014030001226B81031201224282031201225B83B8
:101413000312012247A103120122C6FF0212012275
:1014230073A1031201229CA103E066701008A3E0DC
:1014330066700A08A3E066700408A3E06622C3E7A7
:10144300960809E7960809E7960809E79622C3E094
:101453009608A3E09608A3E09608A3E09622C008A6
:10146300C3E096F50808A3E096420808A3E0964275
:101473000808A3E09645087001D3D008220808089D
:10148300EAC0E0EBC0E086F0E7A4FA180986F0E7CB
:10149300A42AFA180986F0E7A42AFA180986F0E7BD
:1014A300A42AFA1986F0E7A4FBE5F02AFA190886BC
:1014B300F0E7A42BFBE5F03AFA190886F0E7A42B32
:1014C300FBE5F03AFA18180986F0E7A4C5F02BFB00
:1014D300E43AFA1908E7C5F0C6A426F6E5F03BFBA3
:1014E300E43AFA1886F0E7A4F6E5F00826F6E43BBA
:1014F30008F6E43A08F6D0E0FBD0E0FA22E4CFC0E5
:10150300E0E4CEC0E0E4CDC0E0E4CCC0E075F02080
:10151300E626F608E633F608E633F608E633F61869
:101523001818EC33FCED33FDEE33FEEF33FFC3EC61
:101533009709ED9709EE9709EF97191919400FFFCE
:10154300EC97FC09ED97FD09EE97FE191906D5F006
:10155300BFECF709EDF709EEF709EFF7191919D001
:10156300E0FCD0E0FDD0E0FED0E0FF2260160808EA
:1015730008C6C313C618C613C618C613C618C6139F
:10158300C6D5E0EA22700908080822601618181860
:10159300C6C333C608C633C608C633C608C633C671
:1015A300D5E0EA22E627F60809E637F60809E63722
:1015B300F60809E637F622E026F608A3E036F60831
:1015C300A3E036F608A3E036F622E026F008A3E00F
:1015D30036F008A3E036F008A3E036F022C3E6971E
:1015E300F60809E697F60809E697F60809E697F676
:1015F30022C3E096F008A3E096F008A3E096F00873
:10160300A3E096F022E056F608A3E056F608A3E01E
:1016130056F608A3E056F622E056F008A3E056F08B
:1016230008A3E056F008A3E056F022E0F608A3E092
:10163300F608A3E0F608A3E0F622E6F008A3E6F036
:1016430008A3E6F008A3E6F022E0FAA3E0FBA3E098
:10165300FCA3E0FD22EAF0A3EBF0A3ECF0A3EDF092
:1016630022E0F8A3E0F9A3E0FAA3E0FB22E8F0A369
:10167300E9F0A3EAF0A3EBF022CAC0E0E6F0A30886
:10168300DAFAD0E0FA22CAC0E0E0A3C582CCC58270
:10169300C583CDC583F0A3C582CCC582C583CDC523
:1016A30083DAE6D0E0CA22C3E498F8E499F9121683
:1016B300EB8026C3E49AFAE49BFBE920E7E91216E0
:1016C300EBE498F8E499F922C3E498F8E499F91261
:1016D30016EBE498F8E499F9C3E49AFAE49BFB2245
:1016E300EB20E7CFE920E7E0B90010BB0008E88A68
:1016F300F084F8AAF022E4FBC8FA22EB70227B10F4
:10170300C833C8C933C9335007C39AC3DBF2800651
:101713009A50012ADBEAC833F4C8C933F4C9FA2260
:1017230075F008E4C833C8C933C933C99AC99B5093
:1017330004C92AC93BD5F0ECFBC833F4C8E4C9FAA1
:1017430022600D08C6A2E713C618C613C6D5E0F378
:1017530022600C08C6C313C618C613C6D5E0F4220C
:10176300700422600D18C6C333C608C633C6D5E05D
:10177300F41822251810AF08F518400C1519800825
:10178300F51840021519D2AF2200C0D0251810AFAA
:1017930008F518500C05198008F51850020519D2E0
:1017A300AFD0D0222518F58210AF08F518400C15DC
:1017B300198008F51840021519D2AF85198322C57F
:1017C300822518C582C583351910AF07F51985829F
:1017D300188007F519858218D2AFC583222518F51D
:1017E30082E43519F583222518F8E43519F9222501
:1017F30018FAE43519FB222518FCE43519FD22E417
:10180300732518C582C0E0E51934FFC583C0E0E540
:1018130018C3958224F810AF088583198582188030
:1018230008858319858218D2AFCEF0A3E520F0A3F3
:101833007808E608F0A3DEFAEFF0A3E58124FAF8CE
:10184300E608F0A3E608F0A3E608F0A30808E60814
:10185300F0A3E608F0A315811581D0E0FED0E0F8EF
:10186300158115811581E8C0E0EEC0E0222518C579
:1018730082C0E0E51934FFC583C0E0E518C3958253
:1018830024F910AF08858319858218800885831988
:10189300858218D2AFCEF0A3E520F0A37808E6083E
:1018A300F0A3DEFAEFF0A3E58124FBF8E608F0A34A
:1018B300E608F0A30808E608F0A3E608F0A31581FC
:1018C3001581D0E0FED0E0F815811581E8C0E0EE87
:1018D300C0E022851983851882E0A3FEE0A3F520EA
:1018E3007808E0A3F608DFFAE0A3FFE0A3C0E0E096
:1018F300A3C0E0E0A3C0E0E0A3C0E0E0A3C0E01029
:10190300AF08858218858319800885821885831915
:10191300D2AFD083D08202011F851983851882E05C
:10192300A3FEE0A3F5207808E0A3F608DFFAE0A31E
:10193300FFE0A3C0E0E0A3C0E0E0A3C0E0E0A3C0F9
:10194300E010AF0885821885831980088582188581
:101953008319D2AFD083D08222C0D02518C582C0CC
:10196300E0E51934FFC583C0E0E518C3958224F38D
:1019730010AF0885831985821880088583198582AD
:1019830018D2AFC8F0A3E9F0A3EAF0A3EBF0A37970
:1019930008E709F0A3D8FAECF0A3EDF0A3EEF0A367
:1019A300EFF0A3D0E0F0A3D0E0F0A3D0E0F0A3E504
:1019B30020F0A3E5F0F0A322851983851882E0C007
:1019C300E0A3E0F9A3E0FAA3E0FBA37808E0F608BC
:1019D300A3DFFAE0FCA3E0FDA3E0FEA3E0FFA3E0A6
:1019E300C0E0A3E0C0E0A3E0F5D0A3E0F520A3E0CE
:1019F300A3F5F010AF0885831985821880088583C5
:101A030019858218D2AFD082D083D0E0F8D0E032EB
:101A130074048006740280027401C0E0F404121797
:101A2300A7D0E012167C227404800474028000CCD8
:101A3300C0E0EDC0E0E518C39CCCAD1950011D100A
:101A4300AF068C188D1980068C188D19D2AF12161B
:101A530089D0E0FDD0E0FC22D083D082E9C0E0E46D
:101A630093A3C386F0C5F095F0F908E493A386F039
:101A7300C5F095F0700BE493A3C3994005E9048086
:101A830002A3E475F002A42582F582E5F03583F51F
:101A930083D0E0F9E493A3C0E0E493C0E022D083D1
:101AA300D082ECC0E0EDC0E0E493A3FCE493A3FD9B
:101AB300ED4C600D121AEDEC24FFFCED34FFFD80BC
:101AC300EFE493A3FCE493A3FDED4C600D121B2CF8
:101AD300EC24FFFCED34FFFD80EFD0E0FDD0E0FC13
:101AE300E493A3C0E0E493C0E022C0E0C3E4939690
:101AF300087401939618400FE49366700808740104
:101B030093661870007019A3A3C3E4939608740135
:101B1300939618A3A3400DD0E0D0E0D0E0021ADDE5
:101B2300A3A3A3A3A3A3D0E022C0E0C0F088F0E462
:101B3300936670080874019366187000A8F0A3A355
:101B4300700BD0F0D0E0D0E0D0E0021ADDA3A3D038
:041B5300F0D0E022CC
:101B580074F5121870EAFEEBFFEE2434F8EF340047
:101B6800F988088909EE2435121C90F8EE243712FA
:101B78001C90F50AEC850AF0A4FCAAF0850AF0EDA1
:101B8800A42AFDE82CF8E43DF97A257B001216EB2F
:101B9800EA850882850983F05407F87401B80002C1
:101BA8008004C333D8FCC0E0E0131313541FF8EECD
:101BB80028F8EF3400F9E8245DF582E93400F5836C
:101BC800D0E0F8E0586008850882850983801DEE1A
:101BD8002436121C90F5F0EA84A8F0EE28F8EF34C9
:101BE80000F9E82438F582E93400F583E0F97F0448
:101BF80002191C74F5121870EAFEEBFFEE24341279
:101C08001C90C0E0EE2435F582EF3400F583D0E077
:101C1800F08E828F83A3A3A3A3A3E0FAA3E0FB8E95
:101C2800828F83A3A3A3A3A3A3A3E0FCA3E0FDEC5B
:101C3800C39AF50AED9BF50BEE2480F508EF340006
:101C4800F509850882F583E06401702BEE2481F59F
:101C580082EF3400F583121A2E121C99740212179F
:101C68008CE960137CFD7D04EEFAEFFB120B868590
:101C78000882850983E4F0AC0AAD0BEEFAEFFB129B
:101C88001B581221EC021BF6F582EF3400F583E0B5
:101C980022C082C083851882851983E0F8A3E0F901
:101CA800C3EA9CEB9D5012C3EC98ED994019C3EA26
:101CB80098EB99501279018010C3EA98EB9940F596
:101CC800C3EC98ED9950EE7900D083D08222EAC314
:101CD8009CFAEB9DFB2200008521878522C622C045
:101CE800E074EF12195C759B00906182E0A2E640F7
:101CF80003021DA8E591A2E64003021DA87591BF45
:101D08009003C2E064057008120D24120D308003A0
:101D1800120D2A752100120D96E99003C3F079007F
:101D2800120D8A120AF07A017B009003C1E0F912C1
:101D38001246907803E064426003021DF190055F4B
:101D4800E014F06003021DF1C2AF121D5500782A9D
:101D5800D0E0F618D0E0F6E59F5407F970059093A7
:101D68003D8003909315780812162EE9C4C0E078D8
:101D780029E65508F50808E65509F509740B7808A9
:101D8800121754D0E02508F8906270E0A2E740F8F6
:101D9800E8C333906272F0906270E0D2E0F080495C
:101DA800E0A2E55024E591A2E5501E7591DF90036D
:101DB800C2E0640D70139003E4E004F0642870023C
:101DC800E4F07A00E0F9120E08906181E0A2E35095
:101DD80009E5E9A2E3500375E9F7A3E0A2E7500992
:101DE800E591A2E7500375917F7F040219BBC0E01B
:101DF800C0D0C082C083906183E0A2E05009E5BFF3
:101E0800A2E0500375BFFEE0A2E15009E5BFA2E1E0
:101E1800500375BFFDE0A2E25009E5BFA2E25003FE
:101E280075BFFBE0A2E35009E5BFA2E3500375BF0D
:101E3800F7E0A2E45009E5BFA2E4500375BFEFE064
:101E4800A2E55009E5BFA2E5500375BFDFE0A2E6B1
:101E58005009E5BFA2E6500375BFBFD083D082D03A
:101E6800D0D0E032C0E074F212195CE5A7A2E450C9
:101E78000FE5A1A2E4500953A7EF75A1EF121EC008
:101E8800E5A7A2E5500CE5A1A2E5500653A7DF752A
:101E9800A1DFE5A7A2E15009E5A1A2E1500375A1E0
:101EA800FDE5A7A2E2500CE5A1A2E2500653A7FB6C
:101EB80075A1FB7F010219BB74F812187075210116
:101EC8009003C2E0640670077A007B00120D0CA232
:101ED800AFE433FED2AF9003C8E0640170187A20F3
:101EE8007B009003C1E0F91213547A207B00900321
:101EF800C1E0F912124C906182E0D2E6F090055EE2
:101F0800E0602185C62280169003C7E0640170084E
:101F1800E5C654F84405F5C653BEFC121CE074012E
:101F2800652160E4EEA2E092AF7F0102191C000077
:101F38008E238F2485822885832785188285198397
:101F4800E0CEA3E0CF852882852783EBC9EAC8EDD8
:101F5800CBECCA75F010C3E833C8E933C9EA33CA11
:101F6800EB33CBC3EA9EF526EB9FF525B35004ABC4
:101F780025AA26EC33CCED33CDD5F0DAAE23AF2449
:101F88002274F11218708A088B098C0A8D0B740F51
:101F98001217E0780C12162E9092F978081216088B
:101FA8009092F9780C1216087808790C121441509E
:101FB800157808790C1215E090933178081214619D
:101FC800401579018013780C79081215E090933147
:101FD800780C12146140EB79007F0802191C74ED2B
:101FE8001218708A088B098C0A8D0B74131217E06B
:101FF800780C12162E9092F978081216089092F919
:10200800780C121608780C790812144140117808D7
:10201800790C1215E0AA08AB09AC0AAD0B80227541
:1020280010007511007512007513017810790C12E3
:1020380015E0781079081215A7AA10AB11AC12ADEB
:10204800137F0C02191C9092F9780812162E8A82B6
:102058008B83780812161B7F0402191C74F512185A
:10206800708C828D83780812162E8A828B8378086A
:102078001215F41220B8C3E098F0A3E0991220AA30
:10208800401E9092E5780812162E8A828B83780873
:102098001215CD8E828F83E02420F0A3E0344EF019
:1020A80080A4F08E828F83C3E09420A3E0944E2214
:1020B800EA2404F8EB3400F9E8FEE9FF8C828D830A
:1020C800A3A3A3A3E0F8A3E0F98E828F832274F57B
:1020D800121870E9FE900514E0FAA3E0FBEEC33392
:1020E800F8E433F974AF28F582749139F583E02A5E
:1020F800F508A3E03BF5097808121A179092E9123F
:10210800164C121F38740212178C8A088B098C0A15
:102118008D0B7410780812156FAA08AB097F04029A
:10212800191C74F11218708A0C8B0D8C0E8D0F749B
:102138000F1217E0E0FAA3E0FB74111217E0E0F5C4
:1021480008A3E0F50974131217E0E0FEA3E0FF7896
:1021580008121A17EA2401F508EB3400F509E4F52A
:102168000AF50B780C790812148090932D780812D0
:10217800162E780C7908121480AA0CAB0DAC0EAD93
:102188000F121F38740212178C8B09EA4509600474
:102198007A0180027A00EC2AFCED3400FDECF8EDBF
:1021A800F97A717B021216EB88088909E4F50AF5B9
:1021B8000B8E828F83780812163DECF8EDF97A7150
:1021C8007B021216EB8A088B0974057808121763CC
:1021D8008E828F83A3A3A3A3E508F0A3E509F07F6C
:1021E8000802191CC082C083E9906000F0D083D037
:1021F8008222C0E074F212195CA2AFE433FED2AFBF
:10220800C2C0E5D1A2E4500653D1EF1211BCEEA230
:10221800E092AF7F010219BBC0E074F212195CA210
:10222800AFE433FED2AFE589A2E1500312110E7577
:102238008900C2C5EEA2E092AF7F010219BBC0E0DF
:1022480074F212195CA2AFE433FED2AFE58BA2E0C0
:10225800500312110E758B00C2E880D8C0E0C0D0C0
:10226800E8C0E0A8A8D2AFC2C7E8A2E792AFD0E022
:10227800F8D0D0D0E032C0E0C0D0E8C0E0E9C0E09B
:10228800EAC0E0EBC0E0C082C083A2AFE433F9D279
:10229800AF9009E9E0F8A3E0687008539AFBA374CB
:1022A800018022C2E99009E9E0F8740128F0746914
:1022B80028F582E43409F583E0F5C19009E9E0C323
:1022C80094804002E4F0E9A2E092AFD083D082D0BB
:1022D800E0FBD0E0FAD0E0F9D0E0F8D0D0D0E0329E
:1022E800FFFFFFFFFFFFFFFFC082C083E9900B9E47
:1022F800F002257474F7121804E99002E0F07C18D3
:102308007D037AFF7BFF1208089002E174FFF0A3B7
:10231800F0A3E4F0A3F079051207909002E0E0F949
:102328001206B87A267B081209E802328274F4127F
:1023380018048A088B09EB548060309002E0E0F9B9
:1023480012122E8A0A8B0BAE0AAF0BEE4F60138E59
:10235800828F83E064B070031207A8EEFAEFFB12D5
:10236800121CAA08E5096480FB80047A007B00023D
:10237800254374F212180474FC121776EAFEEBFF78
:1023880074121217E0123769EE4F700302241D749D
:10239800021217E0EEF0A3EF12277EECF0A3ED1285
:1023A800277EAA82AB831206B2E9F50A706AE508AD
:1023B800450960648E828F8312374FEE4F60567ADC
:1023C800067B001212B28A0C8B0DA80CA90DE849E5
:1023D8007005750A13804188828983E412242AEEE5
:1023E800F0A3EF12377AE508F0A3E509F09002E6CA
:1023F8001224B19002E6700512322C801B12321A98
:102408008003EAFCEBFD8C828D831224B170F38C7F
:10241800828D8380E3750A02A90A740412178C025C
:102428003969F0A3123720A32274F2121804890A1A
:10243800E975F017A4FEAFF09002E5E4F09002E32E
:102448001224B1600A1212B89002E3E4F0A3F0EE8D
:10245800FAEFFB1212B28A088B09EA4509602FEEDF
:10246800FCEFFD79001212049002E3E508F0A3E501
:1024780009F07B00800812249BE4F0A3F00BEBC367
:10248800950A40F2E50A9002E5F079008002791396
:10249800023969EB75F017A4F8A9F09002E3E02877
:1024A800FAA3E0398A82F58322122EBEEA4B2274FF
:1024B800F4121804740C1217E0123744FEE9FF7581
:1024C8000800750900800CE5082401F508E50934C1
:1024D80000F509C3E5089CE5099D503285080A8581
:1024E800090B7403780A121763EA250AF8EB350B0F
:1024F800F988828983A3A3A3A3A3A3123301EE655A
:102508000A7003EF650B70BFE8FAE9FB80047A00F4
:102518007B00802774F41218047900EAA2E0501BAB
:102528007508A27509927808121A177C047D007A3A
:10253800A07B0B12078A740212178C7F040218D62C
:10254800C082C0839002E612257B601C8882898342
:10255800A3A3E06A7003A3E06B8882898370E8A371
:10256800A3A3A3122EBA80047A007B00D083D08262
:1025780002011F123A4FE8492274EE12180474FC43
:10258800121776EAFEEBFF851882851983E4F0A31B
:10259800F0EE240212320CEE2405123727EE240442
:1025A800F50EEF122B33E024FE603924FC6046243C
:1025B800FE605224FE605E24FE700302269424FE10
:1025C80070030226F824FE700302270724FE700316
:1025D80002271624FC700302272524FE7003022715
:1025E800340227719002FF7417F0A3E412278612B1
:1025F8000430022771851882851983AC82AD831255
:1026080007AE022741851882851983AC82AD8312F3
:1026180007B4022741850C08850D0974021217E0DA
:10262800AC82AD83850882850983122EBA1206D63C
:102638008A0C8B0DAC0CAD0DEC4D603BE4F50CF544
:102648000D780C121A17750CFF750D02780C121AFA
:1026580017750C00750D03780C121A1774081217E9
:10266800E0121A2E123BCB12178CE9F50C700B12E4
:102678002EB0120448800F750C01850882850983E5
:1026880012277412322C850C080227447402121780
:10269800E0AC82AD83850C82850D83122C85603C6D
:1026A800850C82850D83A3A3121A2E7510FF751150
:1026B800027810121A177510007511037810121A83
:1026C8001774081217E0121A2E123BCB12178CE956
:1026D800F509700B122EB012044E800F7509018592
:1026E8000C82850D8312277412322C850908804CC0
:1026F800851882851983AC82AD831207BA803A8522
:102708001882851983AC82AD831207C0802B851887
:1027180082851983AC82AD831207C6801C85188216
:10272800851983AC82AD831207CC800D851882850C
:102738001983AC82AD831207D2E9F508E508602950
:102748008E828F83A3E06414601F850E82850F83B9
:10275800E09002FF12277E123A4B90030012322CAF
:10276800E508A312278612042A02311B123A4F8564
:10277800188285198322F085188285198322F07CB6
:10278800FF7D02850A82850B83122EBE2274EE120B
:10279800180474FC1217768A0A8B0B8C0E8D0FEABC
:1027A8002405F508EB3400F5097C157D0079007ADD
:1027B800FF7B02121204E5082402F50CE509123722
:1027C8002A851882851983858210858311781012CD
:1027D8001A17850882850983A3A3A3A3122C7C1248
:1027E8001A17E5082405F510E5093400F5117810E5
:1027F800121A17850C82850D83122FD11206D074F8
:102808000612178C8A108B11AE10AF11E50A24023C
:10281800F50AE50B12320FEE4F70030229538017A9
:1028280074021217E0122EBA88828983EAF0A3EBA9
:10283800F09002FFE004F09002FFE0C3940540032B
:10284800022953E4F510F5117810121A177510E8DB
:102858007511027810121A177510E975110278109F
:10286800121A1774061217E0121A2E7910EEFCEFDE
:10287800FD123BCD12178CE9705E850882850983AD
:10288800A3A3A3A3A3A3A3E0F89002E8E068704879
:10289800122C7C121A177CE97D02E5082408FAE557
:1028A800093400FB1211FE740212178CE960298E9C
:1028B800828F83A3A3A3A3122EBA9002FFE0F51080
:1028C8007402781012176374002510F582740335AA
:1028D80011F583EAF0A3EBF074021217E085821079
:1028E8008583117810121A1774021217E0121A2E23
:1028F800850C82850D83122EE012178C8A108B119D
:10290800AE10AF119002FFE0F51075110074027857
:102918001012176374FF2510F874023511F98882B4
:102928008983A31224B1700302281FE8240308082E
:1029380008E93400F9EE4F60030228288882898369
:1029480074FFF0A3F09002FFE004F09002FFE06053
:102958000A122EB012043C7900800B850882850982
:1029680083123223790A02311B74EA12180474FEA6
:102978001217768C128D13EA2405F50CEB123BB571
:10298800123753750800750900EA2402F510EB3474
:1029980000F51185188285198385820A85830B784D
:1029A8000A121A17850C82850D83A3A3A3A3122BE1
:1029B80049121A17E50C2405F50AE50D12320F78AD
:1029C8000A121A17850C82850D83122B4D1206D018
:1029D800740612178C8A0A8B0BEA450B7003022ABD
:1029E800EEEA2404F50EEB122B331237538A828B4E
:1029F80083A3A3A3E0F9851082851183122EC460F6
:102A080003022AEEE4F514F5157814121A17751452
:102A1800E87515027814121A177514E975150278F5
:102A280014121A1774061217E0121A2E7913AC0A28
:102A3800AD0B851082851183123BD312178CE9F5F3
:102A4800096003022AEE9002E8E0F8E5087009E060
:102A58002402900300F08014900300E0FCE82402B4
:102A6800FAE43400FBEA6C7001EB707E850882AAF8
:102A780082122C739414122C6B506B850E82850F66
:102A880083E0C0E074012A122B2AD0E0F005088503
:102A98000E82850F83A3E0C0E085080A7401250A29
:102AA800122B2AD0E0F005089002E8122B49121ADE
:102AB800177CE97D0285080A7401250A122B3D124C
:102AC800178C9002E8E02508F50874FF6E7003740F
:102AD800FF6F6012EE24010EEF3400FFE508C39487
:102AE80014500302299BE5086013122ECE8510822C
:102AF800851183122EBA12044279008014E50970F8
:102B08000375090A851282851383EEF0A3EFF0A9F5
:102B180009740212178C7F0E0218D685080C7401EE
:102B2800250CF58274033400F583223400F50F85F3
:102B38000E82F58322FA74033400FB1211EC74023E
:102B48002212378922A3A3122B532212321AFDEE26
:102B5800FAEFFB2274EE12180474FE1217768C0E2C
:102B68008D0FEA2405F50CEB12372A750B0090023D
:102B7800FFE4F0F50AEA2402F508EB3400F50980D1
:102B8800449002FFE0FA9002E8E0F8122C739417E0
:102B9800122C6B400D9002FFE0F87416C398900257
:102BA800E8F0122C7C121A177CE97D0274002AFACC
:102BB8007403122B4012178C9002E8E0F89002FF81
:102BC800E028F0050AE50C2416F582E50D122B2EF7
:102BD800E0F8E50AC39850749002FFE0C3941650D9
:102BE8006BE50AC333F8E433F9E50C28FEE50D3943
:102BF800FF851882851983AC82AD838E828F8312FC
:102C08002C857008750B0112321F8050E4F510F501
:102C1800117810121A177510E87511027810121A27
:102C2800177510E97511027810121A177406121721
:102C3800E0121A2E7916850882850983123BD31271
:102C4800178CE9F50B7003022B8980BB7CFF7D0292
:102C5800850882850983122EBA120454A90B7402BE
:102C680002311DE99400C365D03322EA28F8E43420
:102C780000F9E822E0F510751100781022123112DF
:102C88008A108B11AC10AD11EC4D2274EA121804A5
:102C980074FC1217768A0C8B0D8C128D13EA24059E
:102CA800F50AEB12320F750800750900E50A2402CF
:102CB800F510E50B3400F51174021217E085820E49
:102CC80085830F780E121A17850A82850B83A3A3B2
:102CD800A3A312372F121A17E50A2405F50EE50BE0
:102CE8003400F50F780E121A178510828511831299
:102CF8003215122EB41206D0740612178C8A0E8B57
:102D08000FAE0EAF0FE50C2402F50EE50D3400F5FD
:102D18000F80388882898374FFF00508122B23748A
:102D2800FFF005089002E8E0F50C750D00780C122C
:102D38001A177CE97D0285080C7401250C122B3DBD
:102D480012178C9002E8E02508F508EE4F60278EF0
:102D5800828F83A3A3A3E0F9850E82850F83122EA9
:102D6800C4EE2404123727E96027850C82850D8379
:102D7800122EA612322CE5087003022E8C122ECECB
:102D8800850E82850F83122EBA12045A7900022EFC
:102D9800A1E4F514F5157814121A177514E87515C9
:102DA800027814121A177514E97515027814121A94
:102DB8001774081217E0121A2E7911EEFCEFFD8530
:102DC8000E82850F83123BD312178CE9F509709A8E
:102DD800850882AA82EA9002E87009E02404900338
:102DE80000F08025E0F8900300E0F514E82404FCE6
:102DF800E43400FDEC65147001ED7081122C7394BD
:102E080012122C6B4003022D85850C82850D83E000
:102E1800C0E074012A122B2AD0E0F00508850C8244
:102E2800850D83A3E0C0E0122B23D0E0122EE985A4
:102E3800820C85830D780C121A1774041217E0128D
:102E48001A2E851082851183122EE012178C8A0C97
:102E58008B0DAE0CAF0D85080C7401250CF87403AE
:102E68003400F9EE4F7003022D1B851882851983F3
:102E7800E088828983122EE9A3E0C0E0122B23D0D8
:102E8800E0022D29E509700375090A850A82850B78
:102E980083122EA612322CA9097404022B1B123A93
:102EA8004F851282851383227CFF7D02850A8285E5
:102EB8000B83122EBE22E0FAA3E0FB22122EBE12D2
:102EC80006BEE9F50922900300E0F5F0E5088490D4
:102ED80002FFF07CFF7D0222122B531206DC7404E1
:102EE80022F005088518828519832274EC121804CB
:102EF80074FE1217768A088B098C0E8D0FEA24054A
:102F0800FEEB3400FF1230FCEE2418123727EA4596
:102F18000B7003022F9F1230E55029122FC48A101C
:102F28008B11EA4511606B7912AC0AAD0B850882EA
:102F3800850983122EBA851082851183121802E939
:102F4800F50A7058E4F50AF50B780A121A178E82FA
:102F58008F83A3A3E0F50A780A121A17EE24031246
:102F6800320C780A121A178E828F83122FD1120709
:102F7800F6740612178CE9F50A7021850C82850D06
:102F880083E0701F850882850983122EBA120460B7
:102F98008011750A0E8009750A018004E50A60032C
:102FA80012321F850C82850D83E06004790080024F
:102FB800A90A740212178C7F0C0218D6851882850C
:102FC8001983122EBE1207E42212321AFD850882D6
:102FD800850983122EBE2274EE12180474FE12178D
:102FE800768A088B098C0C8D0DEA2405FEEB3400DB
:102FF800FF750E001230FCEA450B70030230C31255
:1030080030E5502C122FC48A0E8B0FEA450F604A08
:103018007912AC0AAD0B850882850983122EBA8510
:103028000E82850F83121802E9F50E60030230C67E
:10303800850882850983123301AA0AFB1230D770EA
:10304800147AFF7BFF1230D7606C88828983E50A87
:10305800F0A3E50BF0750A008007750E0E805F057A
:103068000A9002E5E0FAE50AC39A504AE50A75F0C3
:1030780017A4FAABF088828983A3A3E02AFAA3E015
:103088003BFB8A828B83123215EC4D70D2750A177E
:10309800750B00780A121A17EEFCEFFD1211EC748A
:1030A8000212178CEEFCEFFD850882850983122E2B
:1030B800BA1204668014750E098003750E01123A5F
:1030C80047850C82850D8312322CA90E022C6612BC
:1030D80007D88A108B11A810A911E84922E50824FD
:1030E80002F508E5093400F5098A828B83A3A3A3B6
:1030F800E0A2E522851882851983AC82AD838E8291
:103108008F831231128A0A8B0B22E0FAA3E0FB129A
:1031180006D622740412178C7F0A0218D674EC1291
:1031280018048C108D11EA2405F50CEB12372A755A
:103138000F00EA2402F50AEB12320F850A82F583A2
:10314800122EBA123C597003023201750E008071BA
:10315800850C82850D83E06401704F8E828F83A376
:10316800A3121A2E8E828F83A3A3A3A3E0F5127550
:1031780013007812121A17EE2405F512EF3400F531
:10318800137812121A17122EB41207F674061217B1
:103198008CE9F50F6014850C82850D83E4F0123AF2
:1031A8004785108285118312322C7C177D007900A7
:1031B800EEFAEFFB1212048E828F83E4F0A3F0057F
:1031C8000E9002E5E0F8E50EC398501EE50E75F086
:1031D80017A4F8A9F0850882850983A3A3123BBF29
:1031E800123215EC4D600302315885088285098337
:1031F80074FFF0A3F0E50F7006122EB412046CA948
:103208000F022FBFF50AEF3400F50B22A312321A72
:10321800FD22E0FCA3E0228E828F83123A4F850EB6
:1032280082850F83E8F0A3E9F022C082C083900270
:10323800E1E06A7003A3E06B70067AE17B02800428
:103248007A007B0002257474F71218047F00EF756A
:10325800F003A4F8A9F0EC28F8ED39F988828983FD
:10326800E06A7003A3E06B7006E8FAE9FB800B0FD5
:10327800EFC3940240D87A007B007F010218D6740D
:10328800F612180412383870067A007B008007A3FB
:10329800A3A3A3122EBA0238F974F2121804E9FE95
:1032A800740E1217E012330174101217E012376906
:1032B8008C828D83E06402703BA3123A4B8882892A
:1032C80083E0F50CA3E0F9A80C7402687003742974
:1032D800697021750C02750D00780C121A177808A0
:1032E800121A17780A121A17EEF912081A74061227
:1032F800178C80027901023969E0F50AA3E0F50B21
:103308002274E812180474FB121776E9851882856E
:103318001983F08A168B178C0E8D0F741F1217E005
:1033280012376974211217E012330174231217E05F
:103338001237537510008C828D83A3A3A3E0A2E4F7
:10334800502A741D1217E0122FCA8A828B83E582D5
:1033580045837003023415790AAC0EAD0FAA16AB7B
:1033680017121802E9F5106003023418850E8285D9
:103378000F83E0640260030236CEA3123A4B85083D
:1033880082850983A3858212858313E50E2406F5B9
:103398000CE50F12372A88828983E0FAA3E0F9EA5C
:1033A8002400F514E439F5157814121AA101000067
:1033B800280128DD3307000228B434032824340008
:1033C80029DE35012906360229AD350329DE350403
:1033D800296F36CE36EE4F703E850C82850D8312EE
:1033E8003744FAE9FB8A828B83E0850A82850B835E
:1033F800123780121A178A828B83A312321AFDAAF7
:1034080008AB091211EC740212178C800375100EA8
:10341800A9107405023BAD75100B80F4EE4F70F7E0
:10342800850A82850B837401F012375985088285D5
:103438000983F07C007D00850E82850F83A3A3A3FA
:10344800A3E02401FAA3E03400FB1206D6EA4B609D
:10345800418A828B83E02402F8850A82850B83E007
:1034680028F0EA2404F8EB3400F988828983E0859F
:103478001282851383123792123780121A178A82A2
:103488008B83123214E5082403FAE5093400FB02A1
:10349800340B850A82850B83E02404F07C047D00CC
:1034A8007900AA12AB13121204023418EE4F60030B
:1034B80002341F123759FEA3E0FF850A82850B8369
:1034C8007404F0EE850882850983F0EF8512828501
:1034D8001383F074031217E0AC82AD83EEFAEFFBAE
:1034E800123826700302358A8A828B83A3A3123787
:1034F8004F74011217E085820E85830F780E121A19
:103508001774051217E0121A2E7CFF7DFF1206DCD5
:10351800740412178C8B0FEA450F7033850C828563
:103528000D8312372F121A17850C82850D83A3126B
:103538001A2E7C027D007A6F7B93120508740412A0
:10354800178CE9700A74011217E074FFF0A3F08E6B
:10355800828F83E064027034750C02750D00780C5C
:10356800121A178E828F83123214E5082404FAE5A2
:1035780009122B4012178C850A82850B83E02402DE
:10358800800974011217E0EEF0A3EFF0740112172E
:10359800E0123740F074011217E0A3123738A3A3E2
:1035A800A3F0023418EE4F600302341F850C8285A5
:1035B8000D83123215AA16AB1712080E850A8285DA
:1035C8000B837402F0EA850882850983F0851282EC
:1035D800851383EB80CBEE4F600302341F123759FB
:1035E800F8A3E0F9850A82850B837402F0E8850860
:1035F80082850983F0E985128285138380A3850C6F
:1036080082850D83122EBA1211E6EAFC8C82A882FA
:10361800C39EE49F404BE86E7001EF70047C00800D
:103628001F851882851983E0FAEE2AFAEF3400FB29
:10363800C3EA98EB94005003E08004EECCC39CFCF2
:10364800EC850A82850B83F08C0A750B00780A12C8
:103658001A17850C82850D83E02EFCA3E03F023407
:1036680006751007023418EE4F600302341F850CEC
:1036780082850D83123A4B850A82850B837407F085
:1036880088828983123738123720E08512828513A1
:1036980083F0E82402FAE93400FB8A828B8312372C
:1036A80038123771123740A312377A123749F0E8C7
:1036B8002405F8E93400F988828983123749A3126E
:1036C8003792A30235A6741D1217E0123831700321
:1036D800023415123A4B880C890DE8450D70030227
:1036E80034158E108F117810121A17780A121A17BB
:1036F8007808121A1774061217E0E0F9AC0EAD0F2D
:10370800AA16AB17850C82850D831218027406124F
:10371800178CE9F510023418F088828983A322F502
:103728000CEF3400F50D22E0F50E750F00780E222F
:10373800E08508828509832212379922123A4FE8D8
:1037480022123799A3A322A3A3A3A3E0FEA3E0FF19
:1037580022850C82850D83E0F8A3E0F5838882E05A
:1037680022E0F508A3E0F50922A3A3F08A828B835F
:10377800A32212242CA3A322F08A828B83123789D6
:1037880022E0F50A750B00780A22123720123799C1
:1037980022E0850882850983A3A32274EE12180407
:1037A80074FE1217768A0A8B0BECFAEDFB7414126E
:1037B80017E0E0F510A3E0F51174161217E0E0FE2B
:1037C80074181217E0E0F50EA3E0F50F851882854E
:1037D8001983AC82AD83123826603E85188285191C
:1037E80083123831602FA3A3123769E508450960B1
:1037F80024780E121A177810121A17EEF9AC0CADBD
:103808000DAA0AAB0B850882850983121802740475
:1038180012178C8006790E80027901022C66120636
:10382800D68A0C8B0DEA450D22122EBE123838228C
:103838001207A28A828B83E58245832274F61218C6
:103848000474FE121776740C1217E01237448518A8
:1038580082851983F074011217E0E9F0E4F508F5A0
:10386800097808121A177508027808121A177404CA
:103878001217E08582088583097808121A1712073B
:10388800F6740612178C740212178C806474F7127F
:103898001804EAFEEBFF89087C187D0312080EEA7B
:1038A8005402600BA908EEFAEFFB1206CA800279EF
:1038B8000102328274F612180474FF6A700374FFEE
:1038C8006B701C7B00EB75F003A4F8A9F0EC28F8EA
:1038D800ED39F91238FE0BEBC39402501480E6124E
:1038E80007DE8A088B09A808A909E8496003123885
:1038F800FE7F020218D68882898374FF12242AE484
:10390800F02274F61218041207DE8A828B83E5828D
:1039180045836006A3A3E0FA80027A007B0080D189
:1039280074F21218048A088B09ECFEEDFF740E126B
:1039380017E0E0F50A12396E701CEEFCEFFD7AFF15
:103948007BFF12396E70047911801688828983E5AD
:1039580008F0A3E509F088828983A3A3E50AF07932
:10396800007F060218D61207DE8A0C8B0DA80CA958
:103978000DE8492274EE121804EAFEEBFF8C088D5C
:1039880009890C74121217E0123A4B74141217E0DA
:1039980012321574161217E0122EBA750D00EC4D7E
:1039A8006003023A3F7402650C6003023A3A888267
:1039B800898312321AF9EC2400F50EE439F50FEA7E
:1039C800F4F8EBF4F9EC58F8E50F59F9E849705DAB
:1039D800E5082406F8E5093400F9880A890B888285
:1039E800F583122B4F12080E8A108B11E50E651005
:1039F8007004E50F65116042780E121A17850A8265
:103A0800850B83122B4F120814740212178CE9F5D8
:103A18000D7027780E121A17850882850983A3A3CB
:103A2800122B4D12082C740212178C800D750D8004
:103A38008008750D0D8003750D0BA90D0231208EC0
:103A4800828F83123A4F22E0F8A3E0F92274E81239
:103A5800180474E7121776851882851983EAF0A38B
:103A6800EBF08C168D17890E74311217E0E0F51201
:103A7800A3E0F51374331217E0E0F514A3E0F5158D
:103A880074351217E0E0F50F750800750900E509AF
:103A980075F003A4F8A9F0851882851983123BBF35
:103AA800E0F47003A3E0F47003023B9DEE2402F5FA
:103AB8000CEF123BB5E07003023B9D85160A851793
:103AC8000B780A121A17AC14AD15AA12AB13120709
:103AD80096740212178C8A0A8B0BEA450B70030244
:103AE8003B9DE4F510F5117810121A177406121799
:103AF800E08582108583117810121A17740912173D
:103B0800E08582108583117810121A178512828534
:103B18001383A3A3A3A3121A2E7914AC0AAD0B8E98
:103B2800828F83123BD312178CE97069850A8285CC
:103B38000B83A3A3A3A3123A4B74021217E0123209
:103B48002C850C82850D83E0A2E05018A90E740222
:103B58001217E0AC82AD838E828F83122EBA1206C2
:103B6800EEE94208850C82850D83E0A2E15026E546
:103B78000FF50A780A121A1BA90E74031217E0AC83
:103B880082AD838E828F83122EBA1206E8740112D8
:103B9800178CE942080509E509C394025003023A63
:103BA80096A908741912178C7F100218D63400F5DC
:103BB8000D850C82F58322E028FEA3E039FF8E8272
:103BC8008F83227916850A82850B83122EBE1207EF
:103BD800F074082274F2121804EAFEEBFF890B74E1
:103BE80001650B600E7402650B70637901120A0699
:103BF800E9705BEEFAEFFB123C596047750A0080EA
:103C08000B7C177D007900121204050A9002E5E08A
:103C1800F8E50AC3985021E50A75F017A4F8A9F049
:103C2800850882850983A3A3E028FAA3E039FB8AE3
:103C3800828B8312257B70C985088285098374FF6E
:103C4800F0A3F07C187D03EEFAEFFB1208080239A6
:103C5800691207D88A088B09EA45092274F21218F2
:103C6800048A088B09ECFEEDFF740E1217E012337C
:103C780001900B9EE0F4603D7A097B00121216EA6F
:103C88004B60328A828B8374B1F0A3E4123773A33A
:103C9800123771A3E508F0A3E509123CC0EEF0A3C2
:103CA800EF123CC0A3A3E50AF0A3E50BF0900B9E2E
:103CB800E0F9121222023969F08A828B83A3A3A346
:103CC800A3A322C082C0839061907404F0A37448B7
:103CD800F0A3E4F09061807440F09061BC7407F048
:103CE8009061877469F09061B67416F07900120AD1
:103CF800F67902120AFC9022E8E493F46006E49351
:103D0800F9120AD27905120DEA02410DC082C08368
:103D1800E9540FF9906185E0696012E5C654804462
:103D280049F5C6E59E547F644970F8E9F053C680AA
:103D3800E59E547F70FA02410D74F7121804E5A845
:103D4800FE53A87E120ADEC2BA539AFEC289759B38
:103D580000C2C2120AE475A91175B905120AEAD29D
:103D6800BA439A0174805E42A802469AC082C08310
:103D7800906181E4F0A302410A75E900759100752C
:103D8800BF0002011FC082C083906181E4F0A37468
:103D9800C0F0A3E402410CC082C08374F812177605
:103DA8009003C412457CE8497003023E569003C450
:103DB800E0544060237908851882851983AA82AB6C
:103DC80083120BEC851882851983AA82AB831208AB
:103DD800989003C4E054BFF0E054806010790C7AE6
:103DE800807B05120BEC9003C4E0547FF0E0A2E066
:103DF80050087900123E5E54FEF0E05402600879E3
:103E080001123E5E54FDF0E0540460087900123E51
:103E18006954FBF0E0540860087901123E6954F7D0
:103E2800F0E0541060087902123E6954EFF0E05453
:103E38002060087903123E6954DFF0A3E054016062
:103E48000D120B081208AA9003C5E054FEF074087E
:103E580012178C02410D120AF612089E9003C4E054
:103E680022120AFC1208A49003C4E022C082C08374
:103E7800E9600514602A804F90619A7433F0A37446
:103E880055F09061A0743AF090055CE06401700907
:103E9800C2919003C67467802D9003C67461802612
:103EA80090619A743FF0A3745AF09061A0747FF007
:103EB80090055CE064017009D2919003C67471802A
:103EC800059003C6746AF002410DC082C083E960A0
:103ED8000B14600D14600F14601180209022EC8088
:103EE800159022ED80109022EE800B90055CE06426
:103EF8000160F39022EFE493906186F002410D7423
:103F0800EE12180474F4121776851882851983AC9A
:103F180082AD837583937582017404121689902289
:103F2800EC93F46003024099907808E0C39402503F
:103F38000302407974041217E0AC82AD8375839252
:103F480075828A7408121689F97AFF7BFF7FFF7ED3
:103F5800008982858210801874086E700302402ED2
:103F680074096E700302402E740A6E700302402EAC
:103F7800E510C333FCE433FD74041217E0E5822C2A
:103F8800F582E5833DF583E0F50EA3E0F50F8E0895
:103F98007509007402780812176374482508FC74C0
:103FA800783509FD8C828D83780812162E7408786E
:103FB8000812156F85080C85090D8C828D83780889
:103FC80012162E7418780812156FE50C4508F508B6
:103FD800E50DF509C3E50E9508E50F95098C828D69
:103FE80083780812162E8C828D83780812162E7408
:103FF800187808401412156FE50C4508FCAD0DE55E
:104008000EC39CFCE50F9D800F12156FE50C45084B
:10401800C3950EFCE50D950FFDC3EC9AED9B50067C
:10402800ECFAEDFBEEFF0EEEC394135003023F6073
:1040380074FF6A700374FF6B602D8F087402780830
:104048001217637448124D2874783509F583780877
:1040580012162E851882851983E5822510F582E5CA
:1040680083124AB5E508F009E9C394045003023FF6
:10407800517508017509007808121A177402121789
:10408800E0AC82AD837ABB7B081210EA7402121787
:104098008C740C12178C7F0A0218D6C082C08390C9
:1040A8006186E0F89022EFE4936870099022EEE4CC
:1040B80093906186F09061AE7468F0A3746AF09092
:1040C800624574FBF0A304F053F4FD43FE0290052F
:1040D8005C7401F09061A0E0643A70047900800299
:1040E8007901120AF602410DC082C08390050EE0E4
:1040F8006401700A900513E06004790C800279006D
:104108008003F0A3F0D083D08202011FC082C08355
:1041180075E1F1900511E0604D14600814605114C8
:1041280060498051120B1A900507E0F97A087B055F
:10413800120D6C90930512164C120DA29092F1126A
:10414800164C120D78900512E0F9120D84790112BF
:104158000DDE900505E024161242A27432F0A37415
:104168000BF07900809F120B2080BC120B2680B7C1
:10417800120B2C80B2791280EB74F412180475D9E2
:104188000D9004F6E0A2E0E4331313F812420E484F
:104198004401F5D9780012428C40FB7800880874F5
:1041A800F7124D28740412429640F275E195900476
:1041B800F6E0F97AF77B04120D72900BC074A8F040
:1041C800A3740A1242B11242D11242C8124409120F
:1041D8004218780812162E90930978081215BA908A
:1041E80092F9780812160812429C780812163D9027
:1041F8000505E024141242A27413F09003C274025D
:10420800F07F040218D6900507E0C4333354C02267
:10421800900505E0F8A3E0F5838882A3A32274F64D
:104228001218041243DA8AD9780012428C40FB78BB
:1042380000800612434012448CE8C39940F51243AB
:10424800CC12428C40FB78008008124D2474051271
:10425800448CE8C39940F375E195900BC074B4F0B1
:10426800A3740A1242B11242BB12164C12429C129B
:104278001658900505E024141242A27412F0900317
:10428800C2024677880874082508F5827405124525
:10429800E8940622900505E0240EF8A3E01242A94E
:1042A800223400F988828983221243F274AEF0A383
:1042B800740A221242D11242C812440D9092E52289
:1042C800F0A374C6F0A3740A221242D5221242D96E
:1042D80022F0A37458F0A3740C2274F61218041276
:1042E800433512420E4402F5D9780012428C40FB45
:1042F8007800800612434012448CE8C39940F57553
:10430800E195900BC012434BF0A312434B1242BEEF
:1043180012164C12429C121658900505E0241412ED
:1043280042A27414F09003C27404024679900517EF
:10433800E0F9740729F5D922880874182508F58248
:1043480074052274C0124358124358F0A3740A2209
:10435800F0A3740AF0A374C02274F612180412436E
:10436800DA74064AF5D9780012428C40FB7800804E
:104378000612434012448CE8C39940F51243CC120C
:10438800428C40FB78008008124D24740512448C3E
:10439800E8C39940F375E195900BC074BAF0A37423
:1043A8000A1243E81242BB12164C12429C121658CB
:1043B800900505E024141242A27415F09003C2740B
:1043C8000302467990053712433874044AF5D978C0
:1043D8000022124335900507E0C4333354C0FA2253
:1043E8001243F27458F0A3740C221243F6221244BA
:1043F800037458F0A3740C124403221242D9F0A398
:104408002212440D22F0900BCE7458F0A3740C12B3
:1044180043F67458F0A3740C1242D5F022C082C03F
:1044280083124218A3A3A3A3E402410A74F7121843
:1044380004124F6AF8740339F9E82405FAE93400DC
:10444800FB8A828B83124CD988828983A3A3A3A376
:10445800A3A3A3A3A3ECF0A3EDF088828983A3A36D
:10446800A3A3A3A3A3E024FFF8A3E034FFF98A825F
:104478008B83E8F0A3E9F002469A8808746025085F
:10448800F5827405124C00F5D90822EAFEEBFF907C
:1044980061D0E0F87480C398FAEE2483221244AB0A
:1044A800940422124AC3E0F5D90AEAC32274F61228
:1044B8001804EAFEEBFF9061D0E0707575D90E75AF
:1044C800D90375D9047A008A08EE250812503824D1
:1044D8008C12454E40F17A008A08EE2508125038B1
:1044E80024841244A540F175E1957908EE248C12D4
:1044F8004547248412453E7C008C82AA82C3E49AF4
:10450800F895E0F9EE28F8EF39F9E8248BF582E917
:10451800124BFCC0E0EE2A12503824ABF582E912A7
:104528004AB5D0E0F00CECC3940840CD12460480A4
:1045380002790002467AFAEF3400FB120BE02212ED
:10454800453E7904EE221244AB940822C082C0830F
:1045580075D90275D90375D90575E195EA2470F501
:1045680082EB124579EA2472F582EB124616024173
:104578000D124AC612458022E0F8A3E0F92274F62B
:10458800121804EAFEEBFF90056074061245F21259
:104598001A177C01790312491E12178C75D90675F2
:1045A800D90378001245D840FB75E1959003C2E025
:1045B80064087017EE2470F582EF124579EE2472C4
:1045C800F582EF124AB5E8F0A3E9F0790102467ADC
:1045D800880874602508F58274051245E894052258
:1045E800124AC6E0F5D908E8C322F07508607509D3
:1045F8000578082275E1957904120DA8EE2470F566
:1046080082EF124AC6124580EE2472F582EF124AF2
:10461800C6E8F0A3E9F079012274F6121804EAFE5C
:10462800EBFF9061D0E070437901900560740BF066
:104638009003C2E06407701775086075090578086B
:10464800121A177C01090912491E12178C79057470
:104658000129F5D975D90378008003124482E8C38B
:104668009940F875E1951246048002790080037438
:1046780001F07F020218D674F7121804EAFEEBFF65
:1046880075D90375D90375D90DEE24DE12469F122C
:1046980045FC7F010218D6F582EF124C00F5D922AD
:1046A8007F030218D67401250AF5D975D903780055
:1046B8002274F512180412472E60047804800278D8
:1046C80000E8240BF8EAC3984041750A0990056090
:1046D8007409F079081247176014750860750905A0
:1046E8007808121A1712491612178C750A0D1246F5
:1046F800AD8003124482E8C3950A40F775E19579C5
:1047080004120DA81248937901800279008091EE75
:1047180024E3FCEF3400FD7A617B05120BDA85088F
:1047280082850983E022124493F8EF124CCDF58379
:10473800E02274F31218048A088B09124929FAE551
:10474800082483F50AEB1247F8600478048002789D
:1047580000E82408F8EAC39850030247F1750C06EC
:10476800900560740CF09003DFE0900561F074022E
:10477800C0E0F97CE07D037A627B05120BDAD0E0B9
:10478800F97CE27D03120BDA850A82850B83E060EF
:104798001C750A60750B05780A121A177C067903CE
:1047A800AA08AB0912491E12178C750C0A74012548
:1047B8000CF5D975D90378008009880A7460250A30
:1047C800124488E8C3950C40F175E1957904120DFF
:1047D800A8E5082470F582E509124579E5082472F0
:1047E800F582E509124616800279007F050218D67F
:1047F8003400F50B850A82F583E02274F61218045A
:10480800EAFEEBFF124929FCEE2483F8EF12492453
:1048180060047A0480027A00EA2404FAECC39A401D
:104828005E7A02900560EAF0EE24F5F582EF124810
:104838009F60197508607509057808121A177C02B7
:104848007903EEFA12491E12178C7A0674012AF5BA
:10485800D975D90378008003124482E8C39A40F8D6
:1048680075E195EE247412488CEE248012488C125F
:1048780048937904120DA8EE240D12460780027998
:104888000002467AF582EF124A0F22EE241DF582C5
:10489800EF124A0FA3F022124C00900561F08882B3
:1048A8008983E02274F6121804124929FEEA248347
:1048B800F8EB12492460047C0480027C00EC240498
:1048C800FCEEC39C40437C029005607407F0EA2428
:1048D800F6F582EB12489F60157508607509057832
:1048E80008121A17790312491E12178C7C067401D4
:1048F8002CF5D975D90378008003124482E8C39C4B
:1049080040F875E19579018002790002467A7C09C0
:104918007903EEFAEFFB120C4C7402221242A9E062
:10492800229061D0E0F87480C3982274F5121804BC
:10493800E9FEA2AFE433F50AC2AF7F00EA246FF8BC
:10494800EB3400F980010F88828983E0FCEFC39C77
:1049580050188F08EA2508FCEB3400FDEC246BF5B1
:1049680082ED124BFC6E70DE8010EA2CFAEB3400FC
:10497800FB124AAFEE1248A504F0E50AA2E092AF96
:104988000246A874F6121804A2AFE433FFC2AFEAD5
:10499800246FF8EB12503AFCE9FD8C828D83E01409
:1049A800F07E0080218E08EA2508F8EB12503A24A0
:1049B8006CF582E9124BFCC0E0E8246BF582E91241
:1049C8004AB5D0E0F00E8C828D83E0F8EEC39840B3
:1049D800D4EA246E124AB274FF124A04EFA2E0929B
:1049E800AF02467AC082C083E5A8F8C2AF124AAFC8
:1049F800E9124A04E8A2E792AF02410DF0EA246AFC
:104A0800F582EB124A0F22124AC6E4F02274F2121F
:104A180018048C828D83A3A3A3A3E0541FF0EA2477
:104A280036124D718E828F83E4F0F50C850C8285E9
:104A3800820AEC250AF8ED124CC9F583E0C0E0EAD9
:104A4800250AF8EB124AB9D0E0F0750D0085088206
:104A5800850983E0F50A750B00E50D780A121744FD
:104A6800E50AA2E0502AE50C33333354F8250DC08B
:104A7800E08E828F83E0F8EA28F8EB12503A243867
:104A8800F582E9124AB5D0E0F08E828F83E004F017
:104A9800050DE50DC3940840B4050CE50CC3940559
:104AA800408A7F060218D6EA246BF582EB124AC6C2
:104AB800223400F9E8245D124AC322F582E9340061
:104AC800F5832274F61218049003EEE0640170076F
:104AD8007A007B00024BF67E009003F4E070F174DC
:104AE80001F0A3E4F0A3F090045404F0900457E418
:104AF800F0A3F090045A04F09003F7E4124C0D90E0
:104B0800040104F0900427E4F09092D512164C901A
:104B1800040A12165890040EE4F0A3F0A3F09004CF
:104B280072F0900466F090045B7480F0A3E4F09057
:104B38000461F0900459F09004DD124C059004E6ED
:104B4800F0900475F09004C5F0A3F09092D5121679
:104B58004C9004C71216589092D512164C9004CB5C
:104B68001216589004D1E4F09004D3F09004CFF0DA
:104B78009004E9124C058E08745D124D28740412D5
:104B88004AB574FFF00EEEC3940440EA7E008E82AC
:104B9800A88274FD28F5827404124BFCC0E0744F9F
:104BA80028F5827404124AB5D0E0F00EEEC39405DD
:104BB80040DC7E008E82A88274D628F582740312A7
:104BC8004BFCC0E074D528F5827404124AB5D0E0D5
:104BD800F00EEEC3940840DC9003EEE004F06401AC
:104BE80070089003F6E09003F0F07AF27B03024637
:104BF8007AF582EF124C0022124AC6E022124C0DBE
:104C0800A3124C0D22F0A3F0A3F0A3F022C082C09F
:104C180083EA2403F582EB124BFC6008E4F090036E
:104C2800EFE014F09003EEE014F070069003F074D7
:104C3800FFF08A828B83A3A3E4F0900502E0700D55
:104C48009003EFE0640170057900120D8A02410DAE
:104C5800C082C0839003F5E4F09003F4F09003EE73
:104C6800F0A3F0A374FFF075E1F102410DC082C01A
:104C780083780079009003F5E0600478F27903887E
:104C8800828983A3A3A3A3E0F902410D74F6121845
:104C980004EAFEEBFF120B92EE2465F8EF124CC902
:104CA800124CD7EC4D60109003F0124F62850882C9
:104CB800850983E4F0A3F0EEFAEFFB120C820246BA
:104CC8007A124CCD223400F988088909888222F5A5
:104CD80083E0FCA3E0FD2274F7121804EAFEEBFF60
:104CE8008E828F83A3A3A3A3E0FA7B00120910EEA0
:104CF800FAEFFB120BA4120C6402469A74F612180F
:104D0800047800880874D6124D28740312488F0856
:104D1800E8C3940840ED9003D602467788087438B3
:104D28002508F5822274F6121804EA240D124D7132
:104D3800EC2403F8ED3400F988088909EC2407F815
:104D4800ED12503AFCE9FD124D7B1216EB8E828F64
:104D580083E8F0A3E9F0124D7B1216EB8B09EA45C4
:104D6800096003124D8E02467AF8EB3400F9E8FE2A
:104D7800E9FF228C828D831245808508828509830C
:104D8800E0FAA3E0FB228E828F83E02401F0A3E007
:104D98003400F02274F6121804EA242EF582EB345B
:104DA80000124CD7EA2470124D71780079FAECFAA7
:104DB800EDFB1216EB8E828F83E8F0A3E9F0780002
:104DC80079FAECFAEDFB1216EB8B09EA4509600358
:104DD800124D8E02467A74F0121804EAFEEBFF7444
:104DE800101217E0780812162E120D3C8A0C8B0D43
:104DF8008C0E8D0F90930D780C1215BA9092F9784D
:104E08000C121608780C121A138E828F8312421B0A
:104E180012164C121F89740412178CE96003024E93
:104E2800C68E828F83E02402F8A3E012503AFAE992
:104E3800FB8A828B8378081215CD9092F978081234
:104E4800162E8A828B83780812161BEE240BF582A5
:104E5800EF124AB5C082C0838E828F83A3A3A3A317
:104E6800A3E02401F8A3E03400F9D083D082E068FD
:104E78007003A3E069700479018045EE2407F8EF18
:104E88001242A9124D92EE247412503F7014EE246F
:104E980075124ECD7003A3E06D70078A828B831262
:104EA8004D92EE248012503F7014EE2481124ECDA4
:104EB8007003A3E06D70078A828B83124D9279008C
:104EC8007F080218D6FAEF3400FB8A828B83E0FC55
:104ED800A3E0FD88828983E06C2274F3121804121F
:104EE8004F6AFE740339FFEE2404F50AEF3400F527
:104EF8000BEE2465F508EF3400F5098010124CD943
:104F0800850882850983E4F0A3F0124F5C85088246
:104F1800850983124CD9EC4D6030EE2464124BF9AC
:104F2800F50C780C121A1BEE2463124BF9F9EEFA01
:104F3800EFFB120BCE740112178CE98508828509E4
:104F48008360BA12457CE84970077C007D00124FE7
:104F58005C0247F3850A82850B83E0FA7B0012081E
:104F6800CE229003F0E0F875F004A4C8AAF02AF95C
:104F780074F2282274F2121804EAFEEBFF890A740C
:104F88000E1217E0E0FAEE246212503F600302505E
:104F980033124929F50CEE2483124BF9FB6004788F
:104FA80004800278008908E928F8E412503A2402BB
:104FB8000808E93400F9E50C98E499A2D265D033E1
:104FC8004065EA7005750B028003750B01EB6033D1
:104FD8007509007808121A177A607B05120C167486
:104FE8000212178C7508607509057808121A17AC33
:104FF8000AA90B12491A12178C7404250AF50A7C9F
:10500800607D057401250AF5D9850BD97800800AD9
:105018008808EC124D28ED12448CE8C3950A40F03C
:1050280075E195790080067907800279FF024AAA1E
:10503800F8EF3400F9E822F582EF124C00640122FF
:10504800C082C0838003125076E9F874FF281904DF
:1050580070F4ECFAEDFB02410DC082C083800312AC
:105068005076E9F874FF28190470F402410D8C8217
:105078008D83E08A828B83F08C828D83A3AC82AD92
:10508800838A828B83A3AA82AB832274F4121804C6
:10509800E9FF7E008A088B097808121A5B00040D64
:1050A8003952C650E350FC501351305147516851A2
:1050B8007F519251BB51D551E551FB5115527401A5
:1050C8006F60030252358C828D83E0F8C3940340ED
:1050D80003025235E8900C8802521274026F600382
:1050E8000252358C828D83125A1E900C89E8F0A3E7
:1050F800E902521274016F600302523512525B408A
:1051080003025235E890076402521274016F60037B
:105118000252358C828D83E0F8C394054003025215
:1051280035E890076502521274016F600302523528
:1051380012525B4003025235E8900766025212741D
:10514800106F60030252357508108E097808121A1C
:10515800177A677B071211EC740212178C025257E8
:1051680074016F600302523512525B4003025235DC
:10517800E890077702521274016F60030252358C6F
:10518800828D83E0900C8C02521274046F600302CB
:1051980052358C828D83780812162E9092E9780801
:1051A8001214615003025235900779780812163D9F
:1051B800025257EF7077120676E9700A12107E795C
:1051C8005012132A806290080C7401803D74016F9C
:1051D800705B12525B5056E8900778802D74016F0F
:1051E800704B8C828D83E0F8C3940A5040E8900C91
:1051F8008B801774016F70358C828D83E0F874F999
:1052080028C3940A5027E8900C8DF0804274016FEF
:10521800701B90080BE0F88C828D83E090080BF0EF
:10522800E8702CE06401702712107280227E1880CA
:105238001EC3EA9426EB9400501374026F700E8C10
:10524800828D83125A18120514E9FE80027E02EE3E
:10525800F9800F8C828D83E0F8C3940222740E12B9
:10526800178C7F040218D6A90802526A74F0121823
:105278000474B11217768C0A8D0B9092B4742012B4
:1052880017FA740612168974201217FA121024E9F4
:10529800FF745F1217E0E0F509EFC3940A400302B8
:1052A80053F675F006EFA4F50874411217FA7A0E52
:1052B80074202508F9121324E97009744D1217E0B7
:1052C800E0FE80027E00900C88E064027005750E96
:1052D800018003750E007408650970047422800249
:1052E80074212508F50D7C1B7D00790074261217A2
:1052F800F212120474261217FA7A1BA90D1213243B
:10530800E9702D74401217E0E024F9C3940A502084
:10531800E50EF50D780D121A1B74271217FAEEA276
:10532800E0E433F9AA0AAB0B1205B6740112178C24
:105338007C147D007900740C1217F2121204740C9C
:105348001217FA7A1074242508F9121324E9703414
:105358007C1079FF740C1217F212126AE970257426
:105368001C1217E0AC82AD837A0474252508F91263
:105378001324740C1217FAEEA2E0E433F9AA0AAB6C
:105388000B12059EAC18AD197A0C74702FF9121314
:1053980024E97049AA18AB1912105A7F00EF75F06A
:1053A80003A4F8A9F0851882851983E58228F8E511
:1053B80083125BD7125D49601D88828983A3A3E0AD
:1053C800F50E750F00780E121A17AA0AAB0B120702
:1053D800FC740212178C0FEFC3940440C0EEA2E1D4
:1053E800500C900763E0F9AA0AAB0B120802740488
:1053F80065097028900C88E0640270207A00900794
:1054080077E060027A01900764E060047804800223
:105418007800E84AF9AA0AAB0B12065E7900744FC5
:1054280012178C7F080218D674F012180474F01240
:105438001776EAFEEBFF8C088D09750A0AE9600CFD
:1054480014600914603B14607D02552612106CE943
:10545800F50AC3940A4003025526E5084509700376
:10546800025526750C06750D00780C121A17EEFCFD
:10547800EFFDAA08AB091211EC740212178C025541
:1054880026750C00750E06750F00780E121A17EEA9
:10549800FCEFFDE50C75F00EA4F8A9F0748528FA68
:1054A800740739FB1211FE740212178CE9700B0590
:1054B8000CE50CC3940A506680CA850C0AE50AC339
:1054C800940A505A8049750C00AC18AD197A1075B9
:1054D800F006E50CA42423F9121324E9701C7C10AF
:1054E80079FFAA18AB1912126AE9700EEEFCEFFDEB
:1054F800AA18AB19120580E9600B050CE50CC394DA
:105508000A501B80C4850C0AE50AC3940A500FE5AB
:105518000845096009AA08AB09A90A121066A90A70
:10552800741002542874F412180489097508157443
:10553800FF6A700374FF6B70277E00AC097A027BE8
:1055480000EEF9121048E960037508000EEEC394E6
:105558000A40E8E50960537A967B10120A18804AD7
:105568001209FA8A0A8B0BAE0AAF0BEE4F60387C31
:10557800007D00EE2405FAE43FFB8E828F83A3A30F
:10558800A3A3E0F9121024E9F9C3940A500CAC095A
:105598007A027B00121048750800E509600CEEFAE3
:1055A800EFFB121096800375081402526F74F21202
:1055B8001804ECFEEDFF750815740E1217E0125A68
:1055C8000B74FF6A700374FF6B7021750900AC0AD5
:1055D800AD0BEEFAEFFBA90912104EE9600375084E
:1055E800000509E509C3940A503F80E21209FA8AC6
:1055F800828B83E5824583602D7C007D00E58224D3
:1056080005FAE43583FBA3A3A3A3E0F9121024E968
:10561800F9C3940A5013AC0AAD0BEEFAEFFB121063
:105628004E7508008003750814A908025B9FC082A4
:10563800C08390077DEAF0A3EBF0900763E0FC7D60
:10564800007A257B00120514900763E0F9120778A9
:10565800D083D08202011F74EC1218048A088B09C7
:10566800E97E0070387808121A1774161217E07855
:105678000C12162E9092E9781012162E780C7910CA
:10568800121500AA10AB11AC12AD131205B07402BA
:1056980012178CE9FE60097901AA08AB091205AA5C
:1056A800EEF97F0C0218D674EA12180474EC12177B
:1056B80076EAFEEBFFEE240CF514E43FF5158E8236
:1056C8008F83A3858210858311EE240AF50CE43FAD
:1056D800F50DEE2405F50EE43FF50FEE2409F50A65
:1056E800E43FF50BEE2403F508E43FF5098E828FBD
:1056F80083A3A3E024FA70030259E324FD70030294
:10570800590514700302579914601024FD700302A0
:1057180058E8147003025939025A01125A24604990
:10572800E0F5838882125A1E880C890DE8450D60C1
:1057380038851482851583E0F50E780E121A1BEE53
:10574800240BF582E43FF583E0F9850A82850B8313
:10575800125A180A0A0AAB09850C82850D83121899
:1057680002740112178C025A01850A82850B831272
:105778001A2E90077912164C1205B0740212178C63
:10578800E97003025A017901850A82850B8302595F
:10579800AF851082851183E060030258CB850E82A5
:1057A800850F83E0A2E040030258CB7C0E7D007990
:1057B80000AA18AB19121204EE2408F512E43FF5FA
:1057C80013851282F583126149EA4B6010750A0647
:1057D800750B00780A121A17EA2410801B1261430D
:1057E8001209FAEA4B7003025A01750A06750B0092
:1057F800780A121A17EA2405FCE43BFD7402121712
:10580800F21211EC740212178C850E82850F83E058
:10581800A2E25004D2F08002C2F0A2F0E433F8749D
:105828000C1217E0E048F0850C82850D83125A0BA4
:10583800E50A450B6012E50A2410F582E4350BF5FC
:1058480083780C12162E800C750CFF750DFF750EE3
:10585800FF750FFFE50A450B7006750A00750B000A
:10586800851282851383E0F512A3E0F513E512454E
:10587800137006751200751300780C121A13780A43
:10588800121A177812121A17851482851583121A9C
:105898002E8E828F83A3125A13740A1217F21210D3
:1058A80060740A12178C850882850983125A1E9023
:1058B800080DE8F0A3E9F07A017B00900763E0F9AE
:1058C800121246125A247003025A01125A2F7003F8
:1058D800025A01851082851183E0FC79010259D7AB
:1058E800125A247003025A01125A2F7003025A01E5
:1058F800851082851183E0FC79020259D77C007DEE
:1059080000EE2404FAE43FFB850882850983E0F968
:10591800121024E9F8C3940A4003025A01AC0CADF2
:105928000D7A0475F006E8A42425F912131E025A0C
:1059380001126143900778E06007900C8BE0F980D2
:1059480069900C88E070047905805F1209FA8A0C66
:105958008B0DA80CA90DE82404F50CE439F50D8E7F
:10596800828F83A3A3A3A3A3A3A3E0A2E05040E84C
:10597800497003025A01850C82850D83E0FE602F71
:10598800850A82850B83E054107024740E1217FA6E
:10599800E82405FAE439FBEEF9121024E9701079CD
:1059A800038508828509831261491205AA804AACD9
:1059B8000EAD0F850C82850D83E0F912614312103C
:1059C800A2125A246033125A2F602E7C00790012DA
:1059D80061438E828F83121802801E120676E97048
:1059E8001890080CE06401700812107E90080CE40E
:1059F800F0795012132A121072741412178C7F0E39
:105A08000218D6E0F50AA3E0F50B22A3A3A3A3A3EB
:105A1800E0FCA3E0FD22E0F8A3E0F92290077DE096
:105A2800F8A3E0F9E84922E0F5838882A3A3E0F827
:105A3800A3E0F9E8FEE9FFEE4F2274F412180474AB
:105A4800F2121776EAFE8C0B75F006E9A42420F50D
:105A580008AC18AD197A0EF9121324E970487C06BF
:105A680079FFAA18AB1912126AE9703A740C121766
:105A7800E0125A1EE8F509E50B6005EE42098004BC
:105A8800EEF45209AA09E86A7001E96015740C126B
:105A980017E0EAF0A3E4F0AC18AD197A0EA90812E1
:105AA800131E79018002790002526574F2121804FB
:105AB80074E6121776890A8A088B09ECFEEDFF74E2
:105AC8000C1217FA7A0E75F006E9A42420F91213BD
:105AD80024E96003025B987C0679FF740C1217F2C4
:105AE80012126AE96003025B987470250AF50BAC20
:105AF80018AD197A0CF9121324E96003025B94AA11
:105B080018AB1912105AE5084509701D7C0C79006C
:105B1800AA18AB1912126AE970727C0C7D00790020
