:020000040000FA
:06000000020107021DFAD7
:03002B0002226846
:0300330002224A5C
:03003B000222821C
:030043000221FE99
:03005300021E701A
:03006B000222244A
:10008300021CEBE5C754F84401F5C77901220000CF
:100093000080FB120086B900030200F1E4792178A5
:1000A30008B800028004F709D8FCE479297802B87B
:1000B30000028004F709D8FCE4900281786379098F
:1000C3008002F0A3D8FCD9FA7AE37B0A900137784F
:1000D300FF79038015E493A3AD82AE838A828B8379
:1000E300F0A3AA82AB838D828E83D8E9D9E7758288
:1000F300147583A0740312011975829175830074BA
:100103000012011975D00075813F751881751902A8
:10011300759F00020096C09FF59FE473D09F22D085
:1001230083D082C09FE493C0E0740193C0E0740263
:1001330093F59F22FF0000B4000028002800283018
:1001430075A000A000A000A00000080008E001F0D6
:10015300001000100010001000100010005000509C
:1001630000500010001000D0070000000000000F36
:100173000001000500307507001000010081FF0039
:1001830000FF330651063906FF020202080250003F
:10019300A0000000E8030272930100004693026C82
:1001A30093010000380B026693010000B202026C57
:1001B30093010000390B026493010000C802026C32
:1001C300930100003A0B026293010000CA02026C21
:1001D300930100003B0B026093080000CB02026C0A
:1001E300930100003C0B025E930100003D0BFF01F5
:1001F30000FF200272930100004C93026C930100F4
:1002030000A10B025C93000000000002689303004E
:10021300001803630C630C630C630C630C630C63C3
:100223000C630C630C630C630C630C630C330F4B98
:100233000F2D0F020202020202020202010D000050
:100243000010010272930100004393026C930100BA
:1002530000E20B025A930100005B07026C9301005A
:1002630000E30B027093010000DC91026C93010028
:1002730000E40B027893010000C091026C9301002B
:1002830000E50B027A930100001191026C930100C7
:1002930000E60B027C93010000FF90026C930100C7
:1002A30000E70B027E93010000DB90026C930100D8
:1002B30000E80B028093010000ED90026C930100B3
:1002C30000E90B028293010000B291026C930100DA
:1002D30000EA0B027693010000EB0B01E803053FF4
:1002E30010FFFFFF0001307503020106000000004C
:1002F30000000000000000000000000000000000FB
:100303000000000000000000FFFF0600800CE8036F
:10031300140953696D706C65424C45506572697080
:10032300686572616C051250002003020A00020125
:10033300060302F0FF53696D706C6520424C452043
:100343005065726970686572616CDD130000E313B8
:100353000A436861726163746572697374696320C7
:100363003100024368617261637465726973746911
:100373006320320008436861726163746572697354
:10038300746963203300104368617261637465723A
:100393006973746963203400024368617261637432
:1003A30065726973746963203500027293010000FA
:1003B3004993026C93010000FF0C02869303000033
:1003C300D40A026A93010000000D026C930100003D
:1003D300110D028893010000D50A026A93010000FF
:1003E300120D026C93010000230D028A9302000098
:1003F300D60A026A93010000240D026C93010000E7
:10040300350D028C93000000D70A026893030000A5
:10041300D80A026A93010000360D026C93010000B2
:10042300470D028E93040000DE0A026A9301000066
:10043300480D120122BD9103120122D4910312012E
:10044300220392031201223C9203120122649203BB
:10045300120122929203120122A99203120122C0D5
:100463009203120122D69203120122FD920312017A
:1004730022109303120122269303120122399303BC
:100483001201225E93031201225D75001201225CA8
:100493007600120122917600120122B27600120137
:1004A30022C27600120122E37600120122EF7700C6
:1004B300120122BC78001201222F7900120122B509
:1004C3007900120122F879001201222F7A00120119
:1004D30022B57A00120122877B00120122E57B00FC
:1004E300120122FD7B00120122777C001201227A85
:1004F3007C001201227D7C00120122247D00120166
:10050300223C7D001201226C7D001201228C7D00B1
:100513001201227A7E00120122307F00120122157D
:10052300DC021201223DDC021201226BDC02120109
:1005330022A2DC021201220ADD0212012253DD0291
:100543001201229EDD02120122DCDD0212012219B8
:10055300DE0212012247DE02120122EEDE02120146
:1005630022F8DE0212012205DF0212012238DF0225
:10057300120122FADF0212012206E0021201221EF8
:10058300E00212012228E002120122819C031201DF
:10059300228F9C03120122A79C03120122BF9C03FA
:1005A30012012217B201120122B5B2011201222D4A
:1005B300B30112012242B4011201227CB4011201DF
:1005C3002225B501120122FAB5011201225EB701FB
:1005D300120122B5B7011201223CB80112012223F4
:1005E300B90112012270B901120122FEB9011201EF
:1005F3002222BA01120122F7BB0112012238BC01E7
:100603001201225ABC01120122DBBC01120122C5D4
:10061300BD011201228BBE0112012292C0021201FE
:100623002264C1021201220DC20212012250C2022F
:10063300120122DDC20212012269C3021201224AFF
:10064300C40212012279C40212012275C5021201E9
:1006530022BDC502120122BFC60212012203C70234
:1006630012012229C702120122A49E031201223978
:10067300F5021201224FF50212012275F502120151
:10068300229DF602120122A7F60212012200F802AD
:1006930012012200F90212012283CD02120122B8B3
:1006A300CE02120122EBCE0212012235CF02120139
:1006B30022F3D002120122929301120122F5930137
:1006C3001201223A95011201224A95011201226D6B
:1006D3009501120122B895011201225D96011201C2
:1006E300225397011201221D9801120122959901AB
:1006F300120122D79901120122759A01120122C215
:100703009A01120122E89A01120122D69C011201D8
:1007130022DB9C01120122BC9E01120122109F01C7
:10072300120122729F011201229A9F011201223E9D
:10073300A00112012200A10112012231A101120123
:100743002234A1011201227CA101120122BEA101C6
:1007530012012225A20112012272890312012285AC
:1007630089031201229E8903120122E989031201DE
:1007730022C48A03120122538B031201229E8B038C
:10078300120122F422001201220023001201223955
:1007930023001201227E23001201223524001201BC
:1007A30022BB24001201222025001201224C250025
:1007B30012012285250012012299270012012275B8
:1007C3002900120122602B00120122972C00120132
:1007D30022F72E00120122E32F00120122293100F9
:1007E3001201223632001201225332001201228BEF
:1007F3003200120122A532001201220D3300120130
:1008030022A737001201224838001201229938002A
:10081300120122C038001201220E39001201222CCB
:100823003900120122803900120122593A001201C3
:1008330022E03B00120122683C001201226BD70226
:1008430012012275D70212012240D8021201225B43
:10085300D80212012281D802120122C5D802120144
:1008630022FDD80212012226D9021201229FD902A7
:10087300120122B4D902120122C9D90212012200A3
:10088300DA0212012214DA0212012245DA021201FB
:10089300227FDA02120122ABDA0212012201DB0209
:1008A30012012255DB021201229EDB02120122C831
:1008B300DB02120122EDDB021201224DF1021201D1
:1008C3002217F202120122FAF20212012270F3023B
:1008D300120122B2F302120122DFF40212012200FA
:1008E3008002120122298002120122428002120197
:1008F300228781021201226582021201228482026E
:10090300120122118302120122548302120122A135
:100913008402120122408502120122BF87021201C2
:10092300225688021201222A89021201220C8A020B
:10093300120122788B021201220B8C021201227007
:100943009903120122D999031201222D9A0312014C
:1009530022549A03120122BDE0021201222AE1026B
:1009630012012275E1021201226AE20212012266D9
:10097300E30212012250E40212012241A1021201F8
:100983002283A1021201225DA20212012236A302D6
:1009930012012231A40212012210A5021201227CAB
:1009A300A50212012243A602120122AEA6021201DF
:1009B3002215A70212012240A702120122B1A702A7
:1009C30012012244A802120122ADA802120122C27E
:1009D300A8021201220AA90212012223A90212016A
:1009E3002288A9021201228BA902120122948303F5
:1009F300120122BC8303120122FA8303120122B8DB
:100A030084031201222385031201223F850312016D
:100A130022678503120122978503120122A685030B
:100A2300120122208603120122468603120122EFBD
:100A3300A2011201228CA40112012272A601120149
:100A4300223CA70112012283A701120122CAA70196
:100A5300120122DCA7011201221CA8011201224B60
:100A6300A80112012297A801120122CFA8011201A5
:100A730022FDA8011201224EA901120122DDA901C2
:100A8300120122CBAC01120122A5AE01120122E117
:100A9300AE011201223BB00112012282B001120108
:100AA30022F7B00112012245B1011201227CB101EA
:100AB300120122DBF601120122F8F6011201229241
:100AC300FC0112012294FD011201220EFF01120109
:100AD30022BCFF01120122CF3C00120122183D006B
:100AE300120122453D00120122783D0012012285A8
:100AF3003D00120122913D00120122A33D0012018B
:100B030022783E00120122D63E001201220B3F0042
:100B1300120122A74000120122F440001201221800
:100B230041001201228541001201222A42001201D2
:100B330022E64200120122654300120122294400E9
:100B4300120122384400120122B944001201225832
:100B530045001201228A4500120122254600120196
:100B630022834600120122BD46001201223E4700A5
:100B7300120122074800120122B048001201223755
:100B830049001201228F4900120122F0490012018B
:100B930022194A00120122CF4A00120122194C00E5
:100BA3001201225C4C00120122794C00120122989E
:100BB3004C00120122E34C00120122084D001201E5
:100BC30022314D00120122A04D00120122E24D00FC
:100BD300120122E64E00120122804F001201224C24
:100BE3005000120122655000120122A09702120147
:100BF30022F39702120122FF9702120122D49802D4
:100C0300120122FB9802120122369902120122A23A
:100C13009902120122D699021201220F9A0212019D
:100C230022279A02120122809A02120122999A0221
:100C3300120122E29A02120122F59A021201220FF4
:100C43009B02120122259B02120122419C021201E6
:100C530022529D021201229F9E02120122849F02B0
:100C6300120122FA7F00120122F5E9011201222961
:100C7300EA0112012294ED01120122DEEE011201BA
:100C830022A8EF0112012232F1011201220DF20119
:100C930012012247F2011201226AF201120122AC6F
:100CA300F201120122B5F201120122FFF201120137
:100CB3002209F301120122B5F30112012289F40181
:100CC300120122DDF4011201223FF50112012292E9
:100CD300F501120122C1F50112012200F6011201F0
:100CE300220D6300120122676B001201226D6B005B
:100CF3001201222871001201220E7500120122A98D
:100D0300FC021201221FFD0212012235FD02120113
:100D13002272FD02120122AAFD0212012227FE0203
:100D230012012262FE02120122DDFE0212012219C9
:100D3300FF0212012222FF021201222EFF021201E0
:100D43002248FF021201226DFF0212012283FF02D9
:100D5300120122C7FF02120122A9D202120122BCF0
:100D6300D202120122D6D202120122FFD2021201B2
:100D73002242D30212012281D302120122BFD302E3
:100D830012012224D40212012239D4021201224474
:100D9300D40212012251D40212012268D402120198
:100DA3002276D40212012281D4021201228DD402AE
:100DB300120122A0D402120122ABD402120122CECC
:100DC300D40212012277D50212012287D502120121
:100DD30022A1D502120122BED502120122DAD502C6
:100DE300120122FFD50212012209D6021201221D8D
:100DF300D6021201223CD6021201229DD602120112
:100E030022A3D602120122A9D602120122AFD602D0
:100E1300120122BBD602120122EED6021201224394
:100E2300CF01120122C5CF011201226ED00112019E
:100E330022B6D101120122C4D301120122AAD40184
:100E4300120122DFD40112012201D501120122AACB
:100E5300D5011201227AD701120122A3D70112016F
:100E6300221BD8011201224DD8011201225AD801A6
:100E7300120122A5D801120122C9D8011201221A96
:100E8300DB0112012224DC0112012280DC011201A8
:100E930022C0C001120122D1C101120122B5C20137
:100EA300120122BFC201120122E1C201120122ED8D
:100EB300C20112012291C401120122BEC401120116
:100EC30022D4C50112012229C60112012278C701C9
:100ED3001201224DC801120122A9C80112012214D4
:100EE300C90112012249C9011201228CC90112014F
:100EF3002256CC011201226ECC01120122FFCC0139
:100F03001201220DCD011201225ACD0112012268D4
:100F1300CD01120122D4CD011201224FCE011201C3
:100F230022A6CE01120122828C02120122A48C027B
:100F3300120122B58E021201227491021201229E25
:100F430092021201225C93021201224894021201BE
:100F5300220490031201222990031201229F90037D
:100F630012012275B9021201227EB90212012287EF
:100F7300B9021201225FBA0212012210BC0212014D
:100F83002240BC021201226BBC021201229BBC0252
:100F9300120122C6BC02120122FABC02120122264D
:100FA300BD0212012269BD0212012294BD02120187
:100FB30022DBBD0212012230BE0212012272BE02E6
:100FC300120122CCBE02120122F7BE0212012246F6
:100FD300BF0212012276BF02120122A1BF02120137
:100FE30022CFBF02120122F2BF021201222D9F0360
:100FF300120122599F03120122869F03120122909C
:101003009F03120122A09F031201228E8603120165
:1010130022B38603120122DE8603120122B0A0034B
:101023001201229750001201227852001201223439
:101033005400120122315500120122B95500120148
:10104300223A5600120122635600120122F6590079
:10105300120122675A00120122585B0012012292E8
:101063005B00120122D25B00120122055D00120116
:1010730022585D00120122A15D001201220F5E00C1
:10108300120122415E001201225B5E001201224D19
:101093005F001201225D5F00120122036100120151
:1010A300221A61001201224C6100120122CE620059
:1010B300120122589D03120122699D031201226726
:1010C300A003120122A6A00312012283A10312018D
:1010D30022079E03120122179E03120122329E034E
:1010E3001201229A9E03120122859A0312012209F8
:1010F3009B03120122719B031201228A96031201A0
:1011030022B396031201222097031201227397033D
:10111300120122CC970312012212E5021201224985
:10112300E502120122B9E502120122CEE502120103
:1011330022D5E6021201225CE70212012222E80212
:1011430012012241E80212012266E8021201229BE7
:10115300E802120122B3E80212012204E902120199
:10116300220AF90212012224F9021201229DF90234
:1011730012012272FA0212012244FC0212012239E4
:10118300E902120122C9E90212012247EA0212010D
:1011930022CBEA021201225DEB0212012219EC02B8
:1011A300120122E6EC02120122F0EC02120122FFEC
:1011B300EC0212012215ED0212012228ED021201A6
:1011C3002232ED0212012245ED02120122FF9403A5
:1011D300120122289503120122519503120122EBD9
:1011E300950312012203960312012245960312016D
:1011F3002293B1021201229DB102120122DDB1023A
:1012030012012226B20212012260B202120122B698
:10121300B202120122D5B2021201225DB5021201FD
:101223002266B502120122B7B502120122E0B5020D
:10123300120122EAB5021201225BB602120122E96F
:10124300B6021201223EB7021201226DB702120149
:1012530022E9B70212012226B8021201225DB80266
:101263001201226FB8021201228EB80212012297D4
:10127300B80212012249B90212012270930312012A
:1012830022C093031201223294031201229A94037F
:10129300120122C88B03120122F28B03120122B91D
:1012A3008C03120122958D031201228A9B031201E2
:1012B30022088E031201223E8E03120122718E0335
:1012C300120122CA8F03120122AA9F03120122C014
:1012D3009F03120122CA9F031201229B7F00120166
:1012E30022AFA9021201226CAA02120122A7AA02AA
:1012F300120122D8AA021201223AAB02120122865B
:10130300AB02120122F1AB021201226BAC021201F9
:10131300226AAD02120122F1AE0212012274AF025F
:10132300120122DAAF02120122EDAF02120122E80A
:10133300B00212012235B10212012248ED0212015C
:10134300225EED0212012202EE0212012241EE029E
:101353001201225EEE021201228FEE02120122DC42
:10136300EE0212012210EF021201224BEF021201D0
:101373002240F102120122CDDC0112012204E0011C
:1013830012012280E101120122D7E101120122F4AC
:10139300E10112012272E201120122EFE3011201C3
:1013A30022D3E40112012282E80112012252E9014F
:1013B30012012207980312012215980312012280B9
:1013C3009803120122D29803120122F0980312010A
:1013D300229EC702120122E1C90212012223CB027B
:1013E3001201226CCC0212012207CD02120122004B
:1013F300800312012245800312012262800312013D
:10140300221881031201226B8103120122428203FB
:101413001201225B83031201222EA103120122F780
:10142300A0031201225AA103120122DEFF01E0668A
:10143300701008A3E066700A08A3E066700408A3AE
:10144300E06622C3E7960809E7960809E7960809C4
:10145300E79622C3E09608A3E09608A3E09608A3C4
:10146300E09622C008C3E096F50808A3E096420878
:1014730008A3E096420808A3E09645087001D3D07C
:101483000822080808EAC0E0EBC0E086F0E7A4FA07
:10149300180986F0E7A42AFA180986F0E7A42AFABD
:1014A300180986F0E7A42AFA1986F0E7A4FBE5F009
:1014B3002AFA190886F0E7A42BFBE5F03AFA190893
:1014C30086F0E7A42BFBE5F03AFA18180986F0E753
:1014D300A4C5F02BFBE43AFA1908E7C5F0C6A42625
:1014E300F6E5F03BFBE43AFA1886F0E7A4F6E5F0FC
:1014F3000826F6E43B08F6E43A08F6D0E0FBD0E031
:10150300FA22E4CFC0E0E4CEC0E0E4CDC0E0E4CC16
:10151300C0E075F020E626F608E633F608E633F673
:1015230008E633F6181818EC33FCED33FDEE33FE02
:10153300EF33FFC3EC9709ED9709EE9709EF97197E
:101543001919400FFFEC97FC09ED97FD09EE97FE83
:10155300191906D5F0BFECF709EDF709EEF709EF16
:10156300F7191919D0E0FCD0E0FDD0E0FED0E0FF80
:10157300226016080808C6C313C618C613C618C6C1
:1015830013C618C613C6D5E0EA2270090808082254
:101593006016181818C6C333C608C633C608C63340
:1015A300C608C633C6D5E0EA22E627F60809E637B9
:1015B300F60809E637F60809E637F622E026F608C4
:1015C300A3E036F608A3E036F608A3E036F622E0F9
:1015D30026F008A3E036F008A3E036F008A3E036CF
:1015E300F022C3E697F60809E697F60809E697F6A8
:1015F3000809E697F622C3E096F008A3E096F00800
:10160300A3E096F008A3E096F022E056F608A3E0E4
:1016130056F608A3E056F608A3E056F622E056F085
:1016230008A3E056F008A3E056F008A3E056F02222
:10163300E0F608A3E0F608A3E0F608A3E0F622E646
:10164300F008A3E6F008A3E6F008A3E6F022E0FA28
:10165300A3E0FBA3E0FCA3E0FD22EAF0A3EBF0A3ED
:10166300ECF0A3EDF022E0F8A3E0F9A3E0FAA3E0A5
:10167300FB22E8F0A3E9F0A3EAF0A3EBF022CAC04F
:10168300E0E6F0A308DAFAD0E0FA22CAC0E0E0A369
:10169300C582CCC582C583CDC583F0A3C582CCC525
:1016A30082C583CDC583DAE6D0E0CA22C3E498F8C5
:1016B300E499F91216F08026C3E49AFAE49BFBE955
:1016C30020E7E91216F0E498F8E499F922C3E498C4
:1016D300F8E499F91216F0E498F8E499F9C3E49A56
:1016E300FAE49BFB22EB20E7CFE920E7E0B9001007
:1016F300BB0008E88AF084F8AAF022E4FBC8FA22C7
:10170300EB70227B10C833C8C933C9335007C39A5F
:10171300C3DBF280069A50012ADBEAC833F4C8C956
:1017230033F4C9FA2275F008E4C833C8C933C9339E
:10173300C99AC99B5004C92AC93BD5F0ECFBC833ED
:10174300F4C8E4C9FA22600D08C6A2E713C618C696
:1017530013C6D5E0F322600C08C6C313C618C6131C
:10176300C6D5E0F422700422600D18C6C333C60840
:10177300C633C6D5E0F41822251810AF08F5184073
:101783000C15198008F51840021519D2AF2200C0B4
:10179300D0251810AF08F518500C05198008F51856
:1017A30050020519D2AFD0D0222518F58210AF0808
:1017B300F518400C15198008F51840021519D2AF19
:1017C30085198322C5822518C582C583351910AFB3
:1017D30007F5198582188007F519858218D2AFC5D8
:1017E30083222518F582E43519F583222518F8E4B8
:1017F3003519F9222518FAE43519FB222518FCE4DA
:101803003519FD22E4732518C582C0E0E51934FFBC
:10181300C583C0E0E518C3958224F810AF0885831B
:10182300198582188008858319858218D2AFCEF076
:10183300A3E520F0A37808E608F0A3DEFAEFF0A30F
:10184300E58124FAF8E608F0A3E608F0A3E608F039
:10185300A30808E608F0A3E608F0A315811581D0D4
:10186300E0FED0E0F8158115811581E8C0E0EEC0F7
:10187300E0222518C582C0E0E51934FFC583C0E026
:10188300E518C3958224F910AF088583198582185A
:101893008008858319858218D2AFCEF0A3E520F0A6
:1018A300A37808E608F0A3DEFAEFF0A3E58124FBB2
:1018B300F8E608F0A3E608F0A30808E608F0A3E6B4
:1018C30008F0A315811581D0E0FED0E0F81581154D
:1018D30081E8C0E0EEC0E022851983851882E0A389
:1018E300FEE0A3F5207808E0A3F608DFFAE0A3FF03
:1018F300E0A3C0E0E0A3C0E0E0A3C0E0E0A3C0E059
:10190300E0A3C0E010AF088582188583198008859D
:101913008218858319D2AFD083D08202011F851923
:1019230083851882E0A3FEE0A3F5207808E0A3F600
:1019330008DFFAE0A3FFE0A3C0E0E0A3C0E0E0A378
:10194300C0E0E0A3C0E010AF08858218858319804A
:1019530008858218858319D2AFD083D08222C0D064
:101963002518C582C0E0E51934FFC583C0E0E5183A
:10197300C3958224F310AF088583198582188008E4
:10198300858319858218D2AFC8F0A3E9F0A3EAF0E2
:10199300A3EBF0A37908E709F0A3D8FAECF0A3EDE1
:1019A300F0A3EEF0A3EFF0A3D0E0F0A3D0E0F0A318
:1019B300D0E0F0A3E520F0A3E5F0F0A3228519839E
:1019C300851882E0C0E0A3E0F9A3E0FAA3E0FBA35B
:1019D3007808E0F608A3DFFAE0FCA3E0FDA3E0FE4D
:1019E300A3E0FFA3E0C0E0A3E0C0E0A3E0F5D0A341
:1019F300E0F520A3E0A3F5F010AF088583198582F5
:101A0300188008858319858218D2AFD082D083D0FD
:101A1300E0F8D0E03274048006740280027401C0DE
:101A2300E0F4041217ACD0E012168122740480048F
:101A330074028000CCC0E0EDC0E0E518C39CCCADDF
:101A43001950011D10AF068C188D1980068C188D46
:101A530019D2AF12168ED0E0FDD0E0FC22D083D095
:101A630082E9C0E0E493A3C386F0C5F095F0F908DA
:101A7300E493A386F0C5F095F0700BE493A3C399A8
:101A83004005E9048002A3E475F002A42582F582EF
:101A9300E5F03583F583D0E0F9E493A3C0E0E49364
:101AA300C0E022D083D082ECC0E0EDC0E0E493A399
:101AB300FCE493A3FDED4C600D121AF2EC24FFFC41
:101AC300ED34FFFD80EFE493A3FCE493A3FDED4C21
:101AD300600D121B31EC24FFFCED34FFFD80EFD0D1
:101AE300E0FDD0E0FCE493A3C0E0E493C0E022C0B7
:101AF300E0C3E49396087401939618400FE4936649
:101B0300700808740193661870007019A3A3C3E4E6
:101B13009396087401939618A3A3400DD0E0D0E0E8
:101B2300D0E0021AE2A3A3A3A3A3A3D0E022C0E0C0
:101B3300C0F088F0E4936670080874019366187027
:101B430000A8F0A3A3700BD0F0D0E0D0E0D0E00267
:101B53001AE2A3A3D0F0D0E02274F5121875EAFEBE
:101B6300EBFFEE2434F8EF3400F988088909EE24FA
:101B730035121C94F8EE2437121C94F50AEC850AEE
:101B8300F0A4FCAAF0850AF0EDA42AFDE82CF8E401
:101B93003DF97A257B001216F0EA850882850983D0
:101BA300F05407F87401B800028004C333D8FCC0B2
:101BB300E0E0131313541FF8EE28F8EF3400F9E8AC
:101BC300245DF582E93400F583D0E0F8E05860083D
:101BD300850882850983801DEE2436121C94F5F056
:101BE300EA84A8F0EE28F8EF3400F9E82438F58207
:101BF300E93400F583E0F97F0402192174F5121822
:101C030075EAFEEBFFEE2434121C94C0E0EE24359B
:101C1300F582EF3400F583D0E0F08E828F83A3A3A7
:101C2300A3A3A3E0FAA3E0FB8E828F83A3A3A3A3C2
:101C3300A3A3A3E0FCA3E0FDECC39AF50AED9BF597
:101C43000BEE2480F508EF3400F509850882F5834F
:101C5300E06401702BEE2481F582EF3400F58312EA
:101C63001A33121C9D7402121791E960137CFD7DD7
:101C730004EEFAEFFB120B91850882850983E4F0E9
:101C8300AC0AAD0BEEFAEFFB121B5C1221F0021B48
:101C9300FAF582EF3400F583E022C082C083851811
:101CA30082851983E0F8A3E0F9C3EA9CEB9D501207
:101CB300C3EC98ED994019C3EA98EB995012790156
:101CC3008010C3EA98EB9940F5C3EC98ED9950EE78
:101CD3007900D083D08222EAC39CFAEB9DFB2200D9
:101CE300008521878522C622C0E074EF1219617531
:101CF3009B00906182E0A2E64003021DACE591A245
:101D0300E64003021DAC7591BF9003C2E064057009
:101D130008120D2F120D3B8003120D357521001291
:101D23000DA1E99003C3F07900120D95120AFB7A15
:101D3300017B009003C1E0F9121251907803E06433
:101D4300426003021DF590055FE014F06003021D7D
:101D5300F5C2AF121D5900782AD0E0F618D0E0F68C
:101D6300E59F5407F97005909307800390931778C4
:101D730008121633E9C4C0E07829E65508F50808C7
:101D8300E65509F509740B7808121759D0E02508B0
:101D9300F8906270E0A2E740F8E8C333906272F013
:101DA300906270E0D2E0F08049E0A2E55024E59132
:101DB300A2E5501E7591DF9003C2E0640D7013908D
:101DC30003E4E004F064287002E4F07A00E0F9121E
:101DD3000E13906181E0A2E35009E5E9A2E3500309
:101DE30075E9F7A3E0A2E75009E591A2E75003756F
:101DF300917F7F040219C0C0E0C0D0C082C083902D
:101E03006183E0A2E05009E5BFA2E0500375BFFE85
:101E1300E0A2E15009E5BFA2E1500375BFFDE0A2D6
:101E2300E25009E5BFA2E2500375BFFBE0A2E35015
:101E330009E5BFA2E3500375BFF7E0A2E45009E54B
:101E4300BFA2E4500375BFEFE0A2E55009E5BFA2CE
:101E5300E5500375BFDFE0A2E65009E5BFA2E650F7
:101E63000375BFBFD083D082D0D0D0E032C0E0743E
:101E7300F2121961E5A7A2E4500FE5A1A2E450090B
:101E830053A7EF75A1EF121EC4E5A7A2E5500CE519
:101E9300A1A2E5500653A7DF75A1DFE5A7A2E15094
:101EA30009E5A1A2E1500375A1FDE5A7A2E2500C4B
:101EB300E5A1A2E2500653A7FB75A1FB7F0102191E
:101EC300C074F81218757521019003C2E06406709E
:101ED300077A007B00120D17A2AFE433FED2AF9056
:101EE30003C8E0640170187A207B009003C1E0F915
:101EF30012135F7A207B009003C1E0F9121257900E
:101F03006182E0D2E6F090055EE0602185C6228022
:101F1300169003C7E064017008E5C654F84405F55C
:101F2300C653BEFC121CE47401652160E4EEA2E01A
:101F330092AF7F0102192100008E238F248582280E
:101F4300858327851882851983E0CEA3E0CF852872
:101F530082852783EBC9EAC8EDCBECCA75F010C3C1
:101F6300E833C8E933C9EA33CAEB33CBC3EA9EF596
:101F730026EB9FF525B35004AB25AA26EC33CCED15
:101F830033CDD5F0DAAE23AF242274F11218758A5B
:101F9300088B098C0A8D0B740F1217E5780C121637
:101FA300339092EF780812160D9092EF780C121678
:101FB3000D7808790C12144650157808790C12150F
:101FC300E5909327780812146640157901801378F9
:101FD3000C79081215E5909327780C12146640EBE0
:101FE30079007F0802192174ED1218758A088B098C
:101FF3008C0A8D0B74131217E5780C12163390921A
:10200300EF780812160D9092EF780C12160D780CDB
:10201300790812144640117808790C1215E5AA08BC
:10202300AB09AC0AAD0B8022751000751100751257
:10203300007513017810790C1215E57810790812E0
:1020430015ACAA10AB11AC12AD137F0C0219219081
:1020530092EF78081216338A828B8378081216203F
:102063007F0402192174F51218758C828D83780808
:102073001216338A828B8378081215F91220BCC397
:10208300E098F0A3E0991220AE401E9092DF78080A
:102093001216338A828B8378081215D28E828F832D
:1020A300E02420F0A3E0344EF080A4F08E828F83EE
:1020B300C3E09420A3E0944E22EA2404F8EB340016
:1020C300F9E8FEE9FF8C828D83A3A3A3A3E0F8A321
:1020D300E0F98E828F832274F5121875E9FE90055C
:1020E30014E0FAA3E0FBEEC333F8E433F9745628A3
:1020F300F582749139F583E02AF508A3E03BF509ED
:102103007808121A1C9092D7121651121F3C7402AF
:102113001217918A088B098C0A8D0B741078081298
:102123001574AA08AB097F0402192174F1121875FA
:102133008A0C8B0D8C0E8D0F740F1217E5E0FAA32A
:10214300E0FB74111217E5E0F508A3E0F509741339
:102153001217E5E0FEA3E0FF7808121A1CEA240137
:10216300F508EB3400F509E4F50AF50B780C79086A
:102173001214859093237808121633780C79081279
:102183001485AA0CAB0DAC0EAD0F121F3C740212DA
:1021930017918B09EA450960047A0180027A00EC01
:1021A3002AFCED3400FDECF8EDF97A717B0212168E
:1021B300F088088909E4F50AF50B8E828F83780885
:1021C300121642ECF8EDF97A717B021216F08A08C6
:1021D3008B09740578081217688E828F83A3A3A3D3
:1021E300A3E508F0A3E509F07F08021921C082C026
:1021F30083E9906000F0D083D08222C0E074F212B1
:102203001961A2AFE433FED2AFC2C0E5D1A2E4505C
:102213000653D1EF1211C7EEA2E092AF7F0102196C
:10222300C0C0E074F2121961A2AFE433FED2AFE58D
:1022330089A2E15003121113758900C2C5EEA2E011
:1022430092AF7F010219C0C0E074F2121961A2AF0C
:10225300E433FED2AFE58BA2E05003121113758B6A
:1022630000C2E880D8C0E0C0D0E8C0E0A8A8D2AFE0
:10227300C2C7E8A2E792AFD0E0F8D0D0D0E032C036
:10228300E0C0D0E8C0E0E9C0E0EAC0E0EBC0E0C0F5
:1022930082C083A2AFE433F9D2AF9009E9E0F8A397
:1022A300E0687008539AFBA374018022C2E9900985
:1022B300E9E0F8740128F0746928F582E43409F53B
:1022C30083E0F5C19009E9E0C394804002E4F0E9BA
:1022D300A2E092AFD083D082D0E0FBD0E0FAD0E08E
:1022E300F9D0E0F8D0D0D0E032FFFFFFFFFFFFFFCF
:1022F300FFC082C083E9900BA0F002257874F71227
:102303001809E99002E0F07C187D037AFF7BFF1245
:1023130008139002E174FFF0A3F0A3E4F0A3F079B3
:102323000512079B9002E0E0F91206C37A317B089D
:102333001209F302328674F41218098A088B09EB26
:10234300548060309002E0E0F91212398A0A8B0B54
:10235300AE0AAF0BEE4F60138E828F83E064B070D2
:10236300031207B3EEFAEFFB121227AA08E509647A
:1023730080FB80047A007B0002254774F21218095F
:1023830074FC12177BEAFEEBFF74121217E5123787
:102393006DEE4F700302242174021217E5EEF0A3D1
:1023A300EF122782ECF0A3ED122782AA82AB8312ED
:1023B30006BDE9F50A706AE508450960648E828FF7
:1023C30083123753EE4F60567A067B001212BD8A92
:1023D3000C8B0DA80CA90DE8497005750A138041F3
:1023E30088828983E412242EEEF0A3EF12377EE570
:1023F30008F0A3E509F09002E61224B59002E67016
:1024030005123230801B12321E8003EAFCEBFD8C76
:10241300828D831224B570F38C828D8380E3750AD9
:1024230002A90A740412179102396DF0A31237241A
:10243300A32274F2121809890AE975F017A4FEAFF2
:10244300F09002E5E4F09002E31224B5600A121260
:10245300C39002E3E4F0A3F0EEFAEFFB1212BD8A9D
:10246300088B09EA4509602FEEFCEFFD7900121293
:102473000F9002E3E508F0A3E509F07B0080081262
:10248300249FE4F0A3F00BEBC3950A40F2E50A9016
:1024930002E5F079008002791302396DEB75F017CC
:1024A300A4F8A9F09002E3E028FAA3E0398A82F5C0
:1024B3008322122EC2EA4B2274F4121809740C12EE
:1024C30017E5123748FEE9FF750800750900800C0F
:1024D300E5082401F508E5093400F509C3E5089C7E
:1024E300E5099D503285080A85090B7403780A12A1
:1024F3001768EA250AF8EB350BF988828983A3A3C9
:10250300A3A3A3A3123305EE650A7003EF650B7053
:10251300BFE8FAE9FB80047A007B00802774F41299
:1025230018097900EAA2E0501B7508AA7509927888
:1025330008121A1C7C047D007AA27B0B1207957487
:10254300021217917F040218DBC082C0839002E657
:1025530012257F601C88828983A3A3E06A7003A38A
:10256300E06B8882898370E8A3A3A3A3122EBE80A5
:10257300047A007B00D083D08202011F123A53E811
:10258300492274EE12180974FC12177BEAFEEBFF62
:10259300851882851983E4F0A3F0EE240212321029
:1025A300EE240512372BEE2404F50EEF122B37E041
:1025B30024FE603924FC604624FE605224FE605EE3
:1025C30024FE700302269824FE70030226FC24FED8
:1025D300700302270B24FE700302271A24FC7003E6
:1025E30002272924FE70030227380227759002FF71
:1025F3007417F0A3E412278A12043B022775851887
:1026030082851983AC82AD831207B90227458518E9
:1026130082851983AC82AD831207BF022745850CDF
:1026230008850D0974021217E5AC82AD8385088213
:10263300850983122EBE1206E18A0C8B0DAC0CADFC
:102643000DEC4D603BE4F50CF50D780C121A1C757E
:102653000CFF750D02780C121A1C750C00750D0316
:10266300780C121A1C74081217E5121A33123BCF96
:10267300121791E9F50C700B122EB4120453800F4C
:10268300750C0185088285098312277812323085FB
:102693000C0802274874021217E5AC82AD83850C3F
:1026A30082850D83122C89603C850C82850D83A362
:1026B300A3121A337510FF7511027810121A1C75C4
:1026C30010007511037810121A1C74081217E51202
:1026D3001A33123BCF121791E9F509700B122EB47E
:1026E300120459800F750901850C82850D83122709
:1026F30078123230850908804C851882851983AC9D
:1027030082AD831207C5803A851882851983AC820E
:10271300AD831207CB802B851882851983AC82ADDC
:10272300831207D1801C851882851983AC82AD83FF
:102733001207D7800D851882851983AC82AD831269
:1027430007DDE9F508E50860298E828F83A3E0643D
:1027530014601F850E82850F83E09002FF1227828B
:10276300123A4F900300123230E508A312278A125F
:10277300043502311F123A5385188285198322F0DA
:1027830085188285198322F07CFF7D02850A828564
:102793000B83122EC22274EE12180974FC12177BDB
:1027A3008A0A8B0B8C0E8D0FEA2405F508EB340097
:1027B300F5097C157D0079007AFF7B0212120FE583
:1027C300082402F50CE50912372E85188285198332
:1027D3008582108583117810121A1C850882850959
:1027E30083A3A3A3A3122C80121A1CE5082405F5C6
:1027F30010E5093400F5117810121A1C850C828536
:102803000D83122FD51206DB74061217918A108BD3
:1028130011AE10AF11E50A2402F50AE50B123213CB
:10282300EE4F7003022957801774021217E5122E18
:10283300BE88828983EAF0A3EBF09002FFE004F004
:102843009002FFE0C394054003022957E4F510F515
:10285300117810121A1C7510E87511027810121AEB
:102863001C7510E97511027810121A1C74061217E0
:10287300E5121A337910EEFCEFFD123BD1121791DA
:10288300E9705E850882850983A3A3A3A3A3A3A3F9
:10289300E0F89002E8E0687048122C80121A1C7C61
:1028A300E97D02E5082408FAE5093400FB12120960
:1028B3007402121791E960298E828F83A3A3A3A3C5
:1028C300122EBE9002FFE0F5107402781012176802
:1028D30074002510F58274033511F583EAF0A3EB38
:1028E300F074021217E58582108583117810121A8D
:1028F3001C74021217E5121A33850C82850D83129C
:102903002EE41217918A108B11AE10AF119002FFB3
:10291300E0F5107511007402781012176874FF2522
:1029230010F874023511F988828983A31224B570D3
:1029330003022823E82403080808E93400F9EE4FCA
:10294300600302282C8882898374FFF0A3F090022D
:10295300FFE004F09002FFE0600A122EB412044775
:102963007900800B850882850983123227790A0250
:10297300311F74EA12180974FE12177B8C128D131F
:10298300EA2405F50CEB123BB912375775080075AD
:102993000900EA2402F510EB3400F511851882854D
:1029A300198385820A85830B780A121A1C850C8287
:1029B300850D83A3A3A3A3122B4D121A1CE50C248C
:1029C30005F50AE50D123213780A121A1C850C82DA
:1029D300850D83122B511206DB74061217918A0A96
:1029E3008B0BEA450B7003022AF2EA2404F50EEB83
:1029F300122B371237578A828B83A3A3A3E0F9855F
:102A03001082851183122EC86003022AF2E4F514A2
:102A1300F5157814121A1C7514E87515027814123A
:102A23001A1C7514E97515027814121A1C7406120F
:102A330017E5121A337913AC0AAD0B851082851191
:102A430083123BD7121791E9F5096003022AF2902A
:102A530002E8E0F8E5087009E02402900300F08042
:102A630014900300E0FCE82402FAE43400FBEA6C6F
:102A73007001EB707E850882AA82122C779414125F
:102A83002C6F506B850E82850F83E0C0E074012AA2
:102A9300122B2ED0E0F00508850E82850F83A3E06C
:102AA300C0E085080A7401250A122B2ED0E0F00538
:102AB300089002E8122B4D121A1C7CE97D0285084E
:102AC3000A7401250A122B411217919002E8E0259E
:102AD30008F50874FF6E700374FF6F6012EE240133
:102AE3000EEF3400FFE508C39414500302299FE559
:102AF300086013122ED2851082851183122EBE1206
:102B0300044D79008014E509700375090A85128262
:102B1300851383EEF0A3EFF0A90974021217917FD6
:102B23000E0218DB85080C7401250CF5827403343E
:102B330000F583223400F50F850E82F58322FA74A3
:102B4300033400FB1211F774022212378D22A3A360
:102B5300122B572212321EFDEEFAEFFB2274EE12F5
:102B6300180974FE12177B8C0E8D0FEA2405F50CE1
:102B7300EB12372E750B009002FFE4F0F50AEA24FE
:102B830002F508EB3400F50980449002FFE0FA9067
:102B930002E8E0F8122C779417122C6F400D900284
:102BA300FFE0F87416C3989002E8F0122C80121A12
:102BB3001C7CE97D0274002AFA7403122B44121759
:102BC300919002E8E0F89002FFE028F0050AE50C96
:102BD3002416F582E50D122B32E0F8E50AC398506E
:102BE300749002FFE0C39416506BE50AC333F8E414
:102BF30033F9E50C28FEE50D39FF85188285198325
:102C0300AC82AD838E828F83122C897008750B0181
:102C13001232238050E4F510F5117810121A1C7546
:102C230010E87511027810121A1C7510E97511025B
:102C33007810121A1C74061217E5121A33791685C6
:102C43000882850983123BD7121791E9F50B7003AC
:102C5300022B8D80BB7CFF7D028508828509831250
:102C63002EBE12045FA90B7402023121E99400C342
:102C730065D03322EA28F8E43400F9E822E0F510BD
:102C83007511007810221231168A108B11AC10AD19
:102C930011EC4D2274EA12180974FC12177B8A0C8A
:102CA3008B0D8C128D13EA2405F50AEB1232137582
:102CB3000800750900E50A2402F510E50B3400F558
:102CC3001174021217E585820E85830F780E121A8E
:102CD3001C850A82850B83A3A3A3A3123733121A7D
:102CE3001CE50A2405F50EE50B3400F50F780E12EA
:102CF3001A1C851082851183123219122EB81206FE
:102D0300DB74061217918A0E8B0FAE0EAF0FE50C14
:102D13002402F50EE50D3400F50F8038888289838F
:102D230074FFF00508122B2774FFF005089002E8E2
:102D3300E0F50C750D00780C121A1C7CE97D0285F8
:102D4300080C7401250C122B411217919002E8E034
:102D53002508F508EE4F60278E828F83A3A3A3E097
:102D6300F9850E82850F83122EC8EE240412372BA9
:102D7300E96027850C82850D83122EAA123230E575
:102D8300087003022E90122ED2850E82850F8312B5
:102D93002EBE1204657900022EA5E4F514F515780C
:102DA30014121A1C7514E87515027814121A1C757E
:102DB30014E97515027814121A1C74081217E51217
:102DC3001A337911EEFCEFFD850E82850F83123BDA
:102DD300D7121791E9F509709A850882AA82EA90B9
:102DE30002E87009E02404900300F08025E0F890E5
:102DF3000300E0F514E82404FCE43400FDEC65145E
:102E03007001ED7081122C779412122C6F40030223
:102E13002D89850C82850D83E0C0E074012A122B75
:102E23002ED0E0F00508850C82850D83A3E0C0E079
:102E3300122B27D0E0122EED85820C85830D780CA2
:102E4300121A1C74041217E5121A338510828511A5
:102E530083122EE41217918A0C8B0DAE0CAF0D85E5
:102E6300080C7401250CF874033400F9EE4F700359
:102E7300022D1F851882851983E088828983122E8B
:102E8300EDA3E0C0E0122B27D0E0022D2DE5097061
:102E93000375090A850A82850B83122EAA12323022
:102EA300A9097404022B1F123A53851282851383D6
:102EB300227CFF7D02850A82850B83122EC222E0CB
:102EC300FAA3E0FB22122EC21206C9E9F5092290E9
:102ED3000300E0F5F0E508849002FFF07CFF7D023B
:102EE30022122B571206E7740422F0050885188274
:102EF3008519832274EC12180974FE12177B8A0851
:102F03008B098C0E8D0FEA2405FEEB3400FF123182
:102F130000EE241812372BEA450B7003022FA3127D
:102F230030E95029122FC88A108B11EA4511606BC2
:102F33007912AC0AAD0B850882850983122EBE85F2
:102F43001082851183121807E9F50A7058E4F50A0F
:102F5300F50B780A121A1C8E828F83A3A3E0F50A5D
:102F6300780A121A1CEE2403123210780A121A1C61
:102F73008E828F83122FD51208017406121791E9DE
:102F8300F50A7021850C82850D83E0701F85088208
:102F9300850983122EBE12046B8011750A0E8009F7
:102FA300750A018004E50A6003123223850C8285C9
:102FB3000D83E0600479008002A90A74021217915C
:102FC3007F0C0218DB851882851983122EC2120723
:102FD300EF2212321EFD850882850983122EC2223A
:102FE30074EE12180974FE12177B8A088B098C0C75
:102FF3008D0DEA2405FEEB3400FF750E001231003F
:10300300EA450B70030230C71230E9502C122FC867
:103013008A0E8B0FEA450F604A7912AC0AAD0B8515
:103023000882850983122EBE850E82850F831218AE
:1030330007E9F50E60030230CA8508828509831209
:103043003305AA0AFB1230DB70147AFF7BFF1230C0
:10305300DB606C88828983E50AF0A3E50BF0750ACF
:10306300008007750E0E805F050A9002E5E0FAE521
:103073000AC39A504AE50A75F017A4FAABF088829E
:103083008983A3A3E02AFAA3E03BFB8A828B831202
:103093003219EC4D70D2750A17750B00780A121AA3
:1030A3001CEEFCEFFD1211F77402121791EEFCEF08
:1030B300FD850882850983122EBE12047180147562
:1030C3000E098003750E01123A4B850C82850D8320
:1030D300123230A90E022C6A1207E38A108B11A850
:1030E30010A911E84922E5082402F508E50934008E
:1030F300F5098A828B83A3A3A3E0A2E52285188224
:10310300851983AC82AD838E828F831231168A0A2E
:103113008B0B22E0FAA3E0FB1206E12274041217E0
:10312300917F0A0218DB74EC1218098C108D11EAD6
:103133002405F50CEB12372E750F00EA2402F50A6D
:10314300EB123213850A82F583122EBE123C5D7098
:1031530003023205750E008071850C82850D83E0B4
:103163006401704F8E828F83A3A3121A338E828FD2
:1031730083A3A3A3A3E0F5127513007812121A1CFC
:10318300EE2405F512EF3400F5137812121A1C120F
:103193002EB81208017406121791E9F50F60148511
:1031A3000C82850D83E4F0123A4B851082851183DE
:1031B3001232307C177D007900EEFAEFFB12120F0A
:1031C3008E828F83E4F0A3F0050E9002E5E0F8E52C
:1031D3000EC398501EE50E75F017A4F8A9F08508E4
:1031E30082850983A3A3123BC3123219EC4D6003FA
:1031F30002315C85088285098374FFF0A3F0E50F33
:103203007006122EB8120477A90F022FC3F50AEF26
:103213003400F50B22A312321EFD22E0FCA3E022B0
:103223008E828F83123A53850E82850F83E8F0A333
:10323300E9F022C082C0839002E1E06A7003A3E058
:103243006B70067AE17B0280047A007B00022578AA
:1032530074F71218097F00EF75F003A4F8A9F0ECD6
:1032630028F8ED39F988828983E06A7003A3E06B5B
:103273007006E8FAE9FB800B0FEFC3940240D87A9B
:10328300007B007F010218DB74F612180912383C28
:1032930070067A007B008007A3A3A3A3122EBE02AD
:1032A30038FD74F2121809E9FE740E1217E5123391
:1032B3000574101217E512376D8C828D83E064025A
:1032C300703BA3123A4F88828983E0F50CA3E0F99F
:1032D300A80C74026870037429697021750C027557
:1032E3000D00780C121A1C7808121A1C780A121A8C
:1032F3001CEEF91208257406121791800279010257
:10330300396DE0F50AA3E0F50B2274E8121809748D
:10331300FB12177BE9851882851983F08A168B17B0
:103323008C0E8D0F741F1217E512376D742112174F
:10333300E512330574231217E51237577510008C05
:10334300828D83A3A3A3E0A2E4502A741D1217E580
:10335300122FCE8A828B83E5824583700302341950
:10336300790AAC0EAD0FAA16AB17121807E9F510C0
:10337300600302341C850E82850F83E064026003C0
:103383000236D2A3123A4F850882850983A3858228
:1033930012858313E50E2406F50CE50F12372E88EC
:1033A300828983E0FAA3E0F9EA2400F514E439F50D
:1033B300157814121AA6010000280128E13307002A
:1033C3000228B834032828340029E23501290A36B3
:1033D3000229B1350329E23504297336D236EE4F7B
:1033E300703E850C82850D83123748FAE9FB8A8289
:1033F3008B83E0850A82850B83123784121A1C8A19
:10340300828B83A312321EFDAA08AB091211F77433
:1034130002121791800375100EA9107405023BB1B7
:1034230075100B80F4EE4F70F7850A82850B837459
:1034330001F012375D850882850983F07C007D00E9
:10344300850E82850F83A3A3A3A3E02401FAA3E03F
:103453003400FB1206E1EA4B60418A828B83E0244D
:1034630002F8850A82850B83E028F0EA2404F8EB4E
:103473003400F988828983E08512828513831237A9
:1034830096123784121A1C8A828B83123218E5082B
:103493002403FAE5093400FB02340F850A82850B05
:1034A30083E02404F07C047D007900AA12AB13129C
:1034B300120F02341CEE4F600302342312375DFEF9
:1034C300A3E0FF850A82850B837404F0EE850882EE
:1034D300850983F0EF851282851383F07403121735
:1034E300E5AC82AD83EEFAEFFB12382A70030235A6
:1034F3008E8A828B83A3A312375374011217E58537
:10350300820E85830F780E121A1C74051217E512AA
:103513001A337CFF7DFF1206E774041217918B0F99
:10352300EA450F7033850C82850D83123733121AE7
:103533001C850C82850D83A3121A337C027D007ACD
:103543006E7B931205137404121791E9700A7401C8
:103553001217E574FFF0A3F08E828F83E06402708C
:1035630034750C02750D00780C121A1C8E828F8331
:10357300123218E5082404FAE509122B44121791B4
:10358300850A82850B83E02402800974011217E502
:10359300EEF0A3EFF074011217E5123744F0740153
:1035A3001217E5A312373CA3A3A3F002341CEE4F7A
:1035B3006003023423850C82850D83123219AA1607
:1035C300AB17120819850A82850B837402F0EA850A
:1035D3000882850983F0851282851383EB80CBEE05
:1035E3004F600302342312375DF8A3E0F9850A82A2
:1035F300850B837402F0E8850882850983F0E985E9
:10360300128285138380A3850C82850D83122EBEBF
:103613001211F1EAFC8C82A882C39EE49F404BE81E
:103623006E7001EF70047C00801F851882851983FA
:10363300E0FAEE2AFAEF3400FBC3EA98EB94005069
:1036430003E08004EECCC39CFCEC850A82850B83EB
:10365300F08C0A750B00780A121A1C850C82850DF2
:1036630083E02EFCA3E03F02340A75100702341CEA
:10367300EE4F6003023423850C82850D83123A4F8B
:10368300850A82850B837407F08882898312373C0D
:10369300123724E0851282851383F0E82402FAE9C5
:1036A3003400FB8A828B8312373C123775123744FE
:1036B300A312377E12374DF0E82405F8E93400F9F8
:1036C3008882898312374DA3123796A30235AA74D1
:1036D3001D1217E51238357003023419123A4F8858
:1036E3000C890DE8450D70030234198E108F117883
:1036F30010121A1C780A121A1C7808121A1C740663
:103703001217E5E0F9AC0EAD0FAA16AB17850C82C4
:10371300850D831218077406121791E9F510023408
:103723001CF088828983A322F50CEF3400F50D2267
:10373300E0F50E750F00780E22E085088285098377
:103743002212379D22123A53E82212379DA3A32255
:10375300A3A3A3A3E0FEA3E0FF22850C82850D8330
:10376300E0F8A3E0F5838882E022E0F508A3E0F522
:103773000922A3A3F08A828B83A322122430A3A35A
:1037830022F08A828B8312378D22E0F50A750B00B3
:10379300780A2212372412379D22E0850882850990
:1037A30083A3A32274EE12180974FE12177B8A0AEC
:1037B3008B0BECFAEDFB74141217E5E0F510A3E0A4
:1037C300F51174161217E5E0FE74181217E5E0F50B
:1037D3000EA3E0F50F851882851983AC82AD8312A1
:1037E300382A603E851882851983123835602FA3E5
:1037F300A312376DE50845096024780E121A1C7868
:1038030010121A1CEEF9AC0CAD0DAA0AAB0B85080D
:103813008285098312180774041217918006790EA2
:1038230080027901022C6A1206E18A0C8B0DEA45AB
:103833000D22122EC212383C221207AD8A828B83CC
:10384300E58245832274F612180974FE12177B74FD
:103853000C1217E5123748851882851983F0740115
:103863001217E5E9F0E4F508F5097808121A1C7552
:1038730008027808121A1C74041217E58582088559
:1038830083097808121A1C1208017406121791741E
:1038930002121791806474F7121809EAFEEBFF898C
:1038A300087C187D03120819EA5402600BA908EE7C
:1038B300FAEFFB1206D58002790102328674F61202
:1038C300180974FF6A700374FF6B701C7B00EB753F
:1038D300F003A4F8A9F0EC28F8ED39F91239020B3A
:1038E300EBC39402501480E61207E98A088B09A8F7
:1038F30008A909E84960031239027F020218DB882C
:1039030082898374FF12242EE4F02274F6121809BC
:103913001207E98A828B83E58245836006A3A3E0CD
:10392300FA80027A007B0080D174F21218098A08A7
:103933008B09ECFEEDFF740E1217E5E0F50A123960
:1039430072701CEEFCEFFD7AFF7BFF12397270047C
:103953007911801688828983E508F0A3E509F08848
:10396300828983A3A3E50AF079007F060218DB129C
:1039730007E98A0C8B0DA80CA90DE8492274EE12F5
:103983001809EAFEEBFF8C088D09890C74121217D3
:10399300E5123A4F74141217E512321974161217FE
:1039A300E5122EBE750D00EC4D6003023A4374021E
:1039B300650C6003023A3E8882898312321EF9EC59
:1039C3002400F50EE439F50FEAF4F8EBF4F9EC58BA
:1039D300F8E50F59F9E849705DE5082406F8E509AB
:1039E3003400F9880A890B8882F583122B53120855
:1039F300198A108B11E50E65107004E50F651160CF
:103A030042780E121A1C850A82850B83122B5312DD
:103A1300081F7402121791E9F50D7027780E121A18
:103A23001C850882850983A3A3122B5112083774BE
:103A330002121791800D750D808008750D0D80039E
:103A4300750D0BA90D0231248E828F83123A5322F6
:103A5300E0F8A3E0F92274E812180974E712177B5F
:103A6300851882851983EAF0A3EBF08C168D1789EC
:103A73000E74311217E5E0F512A3E0F51374331257
:103A830017E5E0F514A3E0F51574351217E5E0F535
:103A93000F750800750900E50975F003A4F8A9F08E
:103AA300851882851983123BC3E0F47003A3E0F405
:103AB3007003023BA1EE2402F50CEF123BB9E07058
:103AC30003023BA185160A85170B780A121A1CAC50
:103AD30014AD15AA12AB131207A174021217918A1F
:103AE3000A8B0BEA450B7003023BA1E4F510F511B9
:103AF3007810121A1C74061217E58582108583113B
:103B03007810121A1C74091217E585821085831127
:103B13007810121A1C851282851383A3A3A3A31200
:103B23001A337914AC0AAD0B8E828F83123BD712F2
:103B33001791E97069850A82850B83A3A3A3A31256
:103B43003A4F74021217E5123230850C82850D83C9
:103B5300E0A2E05018A90E74021217E5AC82AD83FF
:103B63008E828F83122EBE1206F9E94208850C82DB
:103B7300850D83E0A2E15026E50FF50A780A121AB3
:103B830020A90E74031217E5AC82AD838E828F8356
:103B9300122EBE1206F37401121791E942080509A9
:103BA300E509C394025003023A9AA908741912173B
:103BB300917F100218DB3400F50D850C82F583220A
:103BC300E028FEA3E039FF8E828F83227916850ACF
:103BD30082850B83122EC21207FB74082274F21221
:103BE3001809EAFEEBFF890B7401650B600E740282
:103BF300650B70637901120A11E9705BEEFAEFFB52
:103C0300123C5D6047750A00800B7C177D007900CC
:103C130012120F050A9002E5E0F8E50AC398502155
:103C2300E50A75F017A4F8A9F0850882850983A32E
:103C3300A3E028FAA3E039FB8A828B8312257F70E5
:103C4300C985088285098374FFF0A3F07C187D037E
:103C5300EEFAEFFB12081302396D1207E38A088BA1
:103C630009EA45092274F21218098A088B09ECFE45
:103C7300EDFF740E1217E5123305900BA0E0F4600C
:103C83003D7A097B00121221EA4B60328A828B83D0
:103C930074B1F0A3E4123777A3123775A3E508F0E4
:103CA300A3E509123CC4EEF0A3EF123CC4A3A3E5C1
:103CB3000AF0A3E50BF0900BA0E0F912122D0239E4
:103CC3006DF08A828B83A3A3A3A3A322C082C083A4
:103CD3009061907404F0A37448F0A3E4F0906180C1
:103CE3007440F09061BC7407F09061877469F09040
:103CF30061B67416F07900120B017902120B07906A
:103D030022ECE493F46006E493F9120ADD790512D8
:103D13000DF5024111C082C083E9540FF99061850A
:103D2300E0696012E5C654804449F5C6E59E547FB8
:103D3300644970F8E9F053C680E59E547F70FA0237
:103D4300411174F7121809E5A8FE53A87E120AE977
:103D5300C2BA539AFEC289759B00C2C2120AEF759A
:103D6300A91175B905120AF5D2BA439A0174805E96
:103D730042A802469EC082C083906181E4F0A30200
:103D8300410E75E90075910075BF0002011FC082E5
:103D9300C083906181E4F0A374C0F0A3E4024110F6
:103DA300C082C08374F812177B9003C4124580E865
:103DB300497003023E5A9003C4E0544060237908DB
:103DC300851882851983AA82AB83120BF785188223
:103DD300851983AA82AB831208A39003C4E054BF5E
:103DE300F0E054806010790C7A807B05120BF79019
:103DF30003C4E0547FF0E0A2E050087900123E6271
:103E030054FEF0E0540260087901123E6254FDF062
:103E1300E0540460087900123E6D54FBF0E054084E
:103E230060087901123E6D54F7F0E0541060087990
:103E330002123E6D54EFF0E0542060087903123E05
:103E43006D54DFF0A3E05401600D120B131208B59B
:103E53009003C5E054FEF074081217910241111249
:103E63000B011208A99003C4E022120B071208AF3A
:103E73009003C4E022C082C083E9600514602A80F5
:103E83004F90619A7433F0A37455F09061A0743A23
:103E9300F090055CE064017009C2919003C67467F9
:103EA300802D9003C67461802690619A743FF0A3BD
:103EB300745AF09061A0747FF090055CE064017027
:103EC30009D2919003C6747180059003C6746AF099
:103ED300024111C082C083E9600B14600D14600FAE
:103EE30014601180209022F080159022F1801090B0
:103EF30022F2800B90055CE0640160F39022F3E40E
:103F030093906186F002411174EE12180974F41251
:103F1300177B851882851983AC82AD83758392756F
:103F230082F7740412168E9022F093F46003024019
:103F33009D907808E0C39402500302407D740412FC
:103F430017E5AC82AD8375839275828A7408121665
:103F53008EF97AFF7BFF7FFF7E0089828582108046
:103F63001874086E700302403274096E70030240C5
:103F730032740A6E7003024032E510C333FCE4333B
:103F8300FD74041217E5E5822CF582E5833DF58384
:103F9300E0F50EA3E0F50F8E0875090074027808AA
:103FA30012176874482508FC74783509FD8C828DD6
:103FB3008378081216337408780812157485080C70
:103FC30085090D8C828D837808121633741878084E
:103FD300121574E50C4508F508E50DF509C3E50E62
:103FE3009508E50F95098C828D8378081216338C1A
:103FF300828D8378081216337418780840141215CA
:1040030074E50C4508FCAD0DE50EC39CFCE50F9D66
:10401300800F121574E50C4508C3950EFCE50D954C
:104023000FFDC3EC9AED9B5006ECFAEDFBEEFF0E91
:10403300EEC394135003023F6474FF6A700374FF6A
:104043006B602D8F08740278081217687448124D3C
:104053002C74783509F58378081216338518828510
:104063001983E5822510F582E583124AB9E508F044
:1040730009E9C394045003023F557508017509000B
:104083007808121A1C74021217E5AC82AD837ABC4D
:104093007B081210EF7402121791740C1217917FA0
:1040A3000A0218DBC082C083906186E0F89022F395
:1040B300E4936870099022F2E493906186F0906132
:1040C300AE7468F0A3746AF090624574FBF0A304C5
:1040D300F053F4FD43FE0290055C7401F09061A07F
:1040E300E0643A7004790080027901120B01024105
:1040F30011C082C08390050EE06401700A9005131D
:10410300E06004790C800279008003F0A3F0D0838F
:10411300D08202011FC082C08375E1F1900511E0D6
:10412300604D1460081460511460498051120B25CE
:10413300900507E0F97A087B05120D779092FB1240
:104143001651120DAD9092E7121651120D83900580
:1041530012E0F9120D8F7901120DE9900505E024A3
:10416300161242A6743DF0A3740BF07900809F12DF
:104173000B2B80BC120B3180B7120B3780B2791234
:1041830080EB74F412180975D90D9004F6E0A2E0DF
:10419300E4331313F8124212484401F5D97800129C
:1041A300429040FB7800880874F7124D2C74041277
:1041B300429A40F275E1959004F6E0F97AF77B04B0
:1041C300120D7D900BC274B3F0A3740A1242B512A0
:1041D30042D51242CC12440D12421C7808121633F7
:1041E3009092FF78081215BF9092EF780812160D7F
:1041F3001242A07808121642900505E024141242D8
:10420300A67413F09003C27402F07F040218DB90CB
:104213000507E0C4333354C022900505E0F8A3E05A
:10422300F5838882A3A32274F61218091243DE8A47
:10423300D9780012429040FB780080061243441262
:104243004490E8C39940F51243D012429040FB7862
:10425300008008124D287405124490E8C39940F376
:1042630075E195900BC274BFF0A3740A1242B512A4
:1042730042BF1216511242A012165D900505E024AA
:10428300141242A67412F09003C202467B8808748B
:10429300082508F58274051245EC9406229005055D
:1042A300E0240EF8A3E01242AD223400F98882899B
:1042B30083221243F674B9F0A3740A221242D51270
:1042C30042CC1244119092DF22F0A374D1F0A37474
:1042D3000A221242D9221242DD22F0A37463F0A310
:1042E300740C2274F6121809124339124212440252
:1042F300F5D9780012429040FB78008006124344BF
:10430300124490E8C39940F575E195900BC21243AE
:104313004FF0A312434F1242C21216511242A0127F
:10432300165D900505E024141242A67414F0900360
:10433300C2740402467D900517E0F9740729F5D984
:1043430022880874182508F58274052274CB124359
:104353005C12435CF0A3740A22F0A3740AF0A37402
:10436300CB2274F61218091243DE74064AF5D97883
:104373000012429040FB780080061243441244909E
:10438300E8C39940F51243D012429040FB78008075
:1043930008124D287405124490E8C39940F375E15F
:1043A30095900BC274C5F0A3740A1243EC1242BF7A
:1043B3001216511242A012165D900505E024141244
:1043C30042A67415F09003C2740302467D9005372C
:1043D30012433C74044AF5D97800221243399005FC
:1043E30007E0C4333354C0FA221243F67463F0A3D4
:1043F300740C221243FA221244077463F0A3740C60
:10440300124407221242DDF0A32212441122F0903B
:104413000BD07463F0A3740C1243FA7463F0A374A7
:104423000C1242D9F022C082C08312421CA3A3A360
:10443300A3E402410E74F7121809124F6EF87403C5
:1044430039F9E82405FAE93400FB8A828B83124C9C
:10445300DD88828983A3A3A3A3A3A3A3A3A3ECF0CF
:10446300A3EDF088828983A3A3A3A3A3A3A3E0243A
:10447300FFF8A3E034FFF98A828B83E8F0A3E9F025
:1044830002469E880874602508F5827405124C0460
:10449300F5D90822EAFEEBFF9061D0E0F87480C3FF
:1044A30098FAEE2483221244AF940422124AC7E0FE
:1044B300F5D90AEAC32274F6121809EAFEEBFF9053
:1044C30061D0E0707575D90E75D90375D9047A007A
:1044D3008A08EE250812503C248C12455240F17A8A
:1044E300008A08EE250812503C24841244A940F1A6
:1044F30075E1957908EE248C12454B2484124542CC
:104503007C008C82AA82C3E49AF895E0F9EE28F83D
:10451300EF39F9E8248BF582E9124C00C0E0EE2A6A
:1045230012503C24ABF582E9124AB9D0E0F00CEC0E
:10453300C3940840CD1246088002790002467EFAF1
:10454300EF3400FB120BEB221245427904EE2212E8
:1045530044AF940822C082C08375D90275D903750C
:10456300D90575E195EA2470F582EB12457DEA24BD
:1045730072F582EB12461A024111124ACA1245849D
:1045830022E0F8A3E0F92274F6121809EAFEEBFF21
:1045930090056074061245F6121A1C7C0179031209
:1045A300492212179175D90675D90378001245DC93
:1045B30040FB75E1959003C2E064087017EE247028
:1045C300F582EF12457DEE2472F582EF124AB9E8C7
:1045D300F0A3E9F0790102467E880874602508F5A6
:1045E3008274051245EC940522124ACAE0F5D908F3
:1045F300E8C322F075086075090578082275E1950E
:104603007904120DB3EE2470F582EF124ACA1245F3
:1046130084EE2472F582EF124ACAE8F0A3E9F07936
:10462300012274F6121809EAFEEBFF9061D0E070E4
:10463300437901900560740BF09003C2E064077046
:10464300177508607509057808121A1C7C01090999
:104653001249221217917905740129F5D975D903E5
:1046630078008003124486E8C39940F875E19512F7
:1046730046088002790080037401F07F020218DB90
:1046830074F7121809EAFEEBFF75D90375D90375A0
:10469300D90DEE24DE1246A31246007F010218DB79
:1046A300F582EF124C04F5D9227F030218DB740163
:1046B300250AF5D975D90378002274F51218091261
:1046C30047326004780480027800E8240BF8EAC3D8
:1046D300984041750A099005607409F079081247FA
:1046E3001B60147508607509057808121A1C1249B5
:1046F3001A121791750A0D1246B18003124486E807
:10470300C3950A40F775E1957904120DB3124897E2
:104713007901800279008091EE24E3FCEF3400FDFF
:104723007A617B05120BE5850882850983E02212F5
:104733004497F8EF124CD1F583E02274F312180971
:104743008A088B0912492DFAE5082483F50AEB122E
:1047530047FC6004780480027800E82408F8EAC380
:104763009850030247F5750C06900560740CF090A1
:1047730003DFE0900561F07402C0E0F97CE07D03A3
:104783007A627B05120BE5D0E0F97CE27D03120B24
:10479300E5850A82850B83E0601C750A60750B054D
:1047A300780A121A1C7C067903AA08AB091249225B
:1047B300121791750C0A7401250CF5D975D9037874
:1047C300008009880A7460250A12448CE8C3950C9A
:1047D30040F175E1957904120DB3E5082470F58273
:1047E300E50912457DE5082472F582E50912461AAA
:1047F300800279007F050218DB3400F50B850A82FD
:10480300F583E02274F6121809EAFEEBFF12492D34
:10481300FCEE2483F8EF12492860047A0480027ABC
:1048230000EA2404FAECC39A405E7A02900560EA37
:10483300F0EE24F5F582EF1248A360197508607550
:1048430009057808121A1C7C027903EEFA12492230
:104853001217917A0674012AF5D975D90378008065
:1048630003124486E8C39A40F875E195EE24741266
:104873004890EE24801248901248977904120DB3A1
:10488300EE240D12460B8002790002467EF582EF7C
:10489300124A1322EE241DF582EF124A13A3F022CB
:1048A300124C04900561F088828983E02274F61229
:1048B300180912492DFEEA2483F8EB1249286004F3
:1048C3007C0480027C00EC2404FCEEC39C40437C0B
:1048D300029005607407F0EA24F6F582EB1248A310
:1048E30060157508607509057808121A1C7903129A
:1048F30049221217917C0674012CF5D975D90378D6
:10490300008003124486E8C39C40F875E195790161
:104913008002790002467E7C097903EEFAEFFB12EE
:104923000C577402221242ADE0229061D0E0F87479
:1049330080C3982274F5121809E9FEA2AFE433F597
:104943000AC2AF7F00EA246FF8EB3400F980010F4D
:1049530088828983E0FCEFC39C50188F08EA2508FE
:10496300FCEB3400FDEC246BF582ED124C006E7011
:10497300DE8010EA2CFAEB3400FB124AB3EE124845
:10498300A904F0E50AA2E092AF0246AC74F612184D
:1049930009A2AFE433FFC2AFEA246FF8EB12503E33
:1049A300FCE9FD8C828D83E014F07E0080218E086B
:1049B300EA2508F8EB12503E246CF582E9124C000C
:1049C300C0E0E8246BF582E9124AB9D0E0F00E8C1E
:1049D300828D83E0F8EEC39840D4EA246E124AB67F
:1049E30074FF124A08EFA2E092AF02467EC082C073
:1049F30083E5A8F8C2AF124AB3E9124A08E8A2E76E
:104A030092AF024111F0EA246AF582EB124A1322B3
:104A1300124ACAE4F02274F21218098C828D83A31D
:104A2300A3A3A3E0541FF0EA2436124D758E828FA0
:104A330083E4F0F50C850C8285820AEC250AF8EDF7
:104A4300124CCDF583E0C0E0EA250AF8EB124ABD2B
:104A5300D0E0F0750D00850882850983E0F50A75BD
:104A63000B00E50D780A121749E50AA2E0502AE582
:104A73000C33333354F8250DC0E08E828F83E0F876
:104A8300EA28F8EB12503E2438F582E9124AB9D0ED
:104A9300E0F08E828F83E004F0050DE50DC39408EA
:104AA30040B4050CE50CC39405408A7F060218DB6D
:104AB300EA246BF582EB124ACA223400F9E8245D3A
:104AC300124AC722F582E93400F5832274F61218DC
:104AD300099003EEE0640170077A007B00024BFA51
:104AE3007E009003F4E070F17401F0A3E4F0A3F00E
:104AF30090045404F0900457E4F0A3F090045A0493
:104B0300F09003F7E4124C1190040104F090042791
:104B1300E4F09092CB12165190040A12165D9004A1
:104B23000EE4F0A3F0A3F0900472F0900466F0900A
:104B3300045B7480F0A3E4F0900461F0900459F0F6
:104B43009004DD124C099004E6F0900475F0900493
:104B5300C5F0A3F09092CB1216519004C712165DC4
:104B63009092CB1216519004CB12165D9004D1E4AF
:104B7300F09004D3F09004CFF09004E9124C098E26
:104B830008745D124D2C7404124AB974FFF00EEED2
:104B9300C3940440EA7E008E82A88274FD28F582C5
:104BA3007404124C00C0E0744F28F5827404124A56
:104BB300B9D0E0F00EEEC3940540DC7E008E82A8EF
:104BC3008274D628F5827403124C00C0E074D52891
:104BD300F5827404124AB9D0E0F00EEEC394084093
:104BE300DC9003EEE004F0640170089003F6E090BB
:104BF30003F0F07AF27B0302467EF582EF124C0457
:104C030022124ACAE022124C11A3124C1122F0A321
:104C1300F0A3F0A3F022C082C083EA2403F582EB61
:104C2300124C006008E4F09003EFE014F09003EE00
:104C3300E014F070069003F074FFF08A828B83A374
:104C4300A3E4F0900502E0700D9003EFE0640170BF
:104C5300057900120D95024111C082C0839003F5BE
:104C6300E4F09003F4F09003EEF0A3F0A374FFF0EC
:104C730075E1F1024111C082C0837800790090038D
:104C8300F5E0600478F2790388828983A3A3A3A360
:104C9300E0F902411174F6121809EAFEEBFF120B58
:104CA3009DEE2465F8EF124CCD124CDBEC4D6010F9
:104CB3009003F0124F66850882850983E4F0A3F020
:104CC300EEFAEFFB120C8D02467E124CD122340019
:104CD300F988088909888222F583E0FCA3E0FD2294
:104CE30074F7121809EAFEEBFF8E828F83A3A3A346
:104CF300A3E0FA7B0012091BEEFAEFFB120BAF12D3
:104D03000C6F02469E74F61218097800880874D650
:104D1300124D2C740312489308E8C3940840ED9095
:104D230003D602467B880874382508F5822274F678
:104D3300121809EA240D124D75EC2403F8ED340022
:104D4300F988088909EC2407F8ED12503EFCE9FDC7
:104D5300124D7F1216F08E828F83E8F0A3E9F012D2
:104D63004D7F1216F08B09EA45096003124D92023A
:104D7300467EF8EB3400F9E8FEE9FF228C828D834E
:104D8300124584850882850983E0FAA3E0FB228E1D
:104D9300828F83E02401F0A3E03400F02274F61242
:104DA3001809EA242EF582EB3400124CDBEA247056
:104DB300124D75780079FAECFAEDFB1216F08E823B
:104DC3008F83E8F0A3E9F0780079FAECFAEDFB12AF
:104DD30016F08B09EA45096003124D9202467E7470
:104DE300F0121809EAFEEBFF74101217E5780812A7
:104DF3001633120D478A0C8B0D8C0E8D0F90930377
:104E0300780C1215BF9092EF780C12160D780C12D5
:104E13001A188E828F8312421F121651121F8D741D
:104E230004121791E96003024ECA8E828F83E02435
:104E330002F8A3E012503EFAE9FB8A828B837808DA
:104E43001215D29092EF78081216338A828B8378E8
:104E530008121620EE240BF582EF124AB9C082C065
:104E6300838E828F83A3A3A3A3A3E02401F8A3E0EB
:104E73003400F9D083D082E0687003A3E069700442
:104E830079018045EE2407F8EF1242AD124D96EEFC
:104E930024741250437014EE2475124ED17003A380
:104EA300E06D70078A828B83124D96EE2480125038
:104EB300437014EE2481124ED17003A3E06D70078A
:104EC3008A828B83124D9679007F080218DBFAEFF2
:104ED3003400FB8A828B83E0FCA3E0FD8882898314
:104EE300E06C2274F3121809124F6EFE740339FF3B
:104EF300EE2404F50AEF3400F50BEE2465F508EF14
:104F03003400F5098010124CDD850882850983E49D
:104F1300F0A3F0124F60850882850983124CDDEC03
:104F23004D6030EE2464124BFDF50C780C121A2000
:104F3300EE2463124BFDF9EEFAEFFB120BD9740169
:104F4300121791E985088285098360BA124580E8C2
:104F53004970077C007D00124F600247F7850A8283
:104F6300850B83E0FA7B001208D9229003F0E0F866
:104F730075F004A4C8AAF02AF974F2282274F21274
:104F83001809EAFEEBFF890A740E1217E5E0FAEE40
:104F93002462125043600302503712492DF50CEE80
:104FA3002483124BFDFB6004780480027800890897
:104FB300E928F8E412503E24020808E93400F9E530
:104FC3000C98E499A2D265D0334065EA7005750B5D
:104FD300028003750B01EB60337509007808121A20
:104FE3001C7A607B05120C217402121791750860FC
:104FF3007509057808121A1CAC0AA90B12491E126E
:1050030017917404250AF50A7C607D057401250A4D
:10501300F5D9850BD97800800A8808EC124D2CED60
:10502300124490E8C3950A40F075E1957900800633
:105033007907800279FF024AAEF8EF3400F9E822DB
:10504300F582EF124C04640122C082C083800312F4
:10505300507AE9F874FF28190470F4ECFAEDFB02B6
:105063004111C082C083800312507AE9F874FF288B
:10507300190470F40241118C828D83E08A828B8340
:10508300F08C828D83A3AC82AD838A828B83A3AAA7
:1050930082AB832274F4121809E9FF7E008A088B1D
:1050A300097808121A6000040D3D52CA50E75000F7
:1050B30051175134514B516C5183519651BF51D9B2
:1050C30051E951FF51195274016F60030252398C37
:1050D300828D83E0F8C394034003025239E8900CB5
:1050E3008A02521674026F60030252398C828D83D6
:1050F3001259D2900C8BE8F0A3E902521674016F97
:10510300600302523912525F4003025239E890079A
:105113006402521674016F60030252398C828D83CC
:10512300E0F8C394054003025239E8900765025240
:105133001674016F600302523912525F4003025228
:1051430039E890076602521674106F6003025239F1
:105153007508108E097808121A1C7A677B071211DA
:10516300F7740212179102525B74016F60030252CB
:105173003912525F4003025239E890077702521600
:1051830074016F60030252398C828D83E0900C8E20
:1051930002521674046F60030252398C828D837835
:1051A300081216339092D7780812146650030252ED
:1051B30039900779780812164202525BEF70771222
:1051C3000681E9700A1210837950121335806290B8
:1051D300080C7401803D74016F705B12525F50566E
:1051E300E8900778802D74016F704B8C828D83E07B
:1051F300F8C3940A5040E8900C8D801774016F70C7
:10520300358C828D83E0F874F928C3940A5027E81B
:10521300900C8FF0804274016F701B90080BE0F8C4
:105223008C828D83E090080BF0E8702CE0640170B1
:105233002712107780227E18801EC3EA9426EB94EF
:1052430000501374026F700E8C828D831259CC122E
:10525300051FE9FE80027E02EEF9800F8C828D83AA
:10526300E0F8C3940222740E1217917F040218DB34
:10527300A90802526E74F012180974B112177B8CCC
:105283000A8D0B90929274201217FF740612168ED9
:1052930074201217FF12102FE9FF745F1217E5E055
:1052A300F509EFC3940A40030253FA75F006EFA41D
:1052B300F50874411217FF7A0E74202508F91213AA
:1052C3002FE97009744D1217E5E0FE80027E00900D
:1052D3000C8AE064027005750E018003750E00747C
:1052E30008650970047422800274212508F50D7C79
:1052F3001B7D00790074261217F712120F74261201
:1053030017FF7A1BA90D12132FE9702D7440121782
:10531300E5E024F9C3940A5020E50EF50D780D124B
:105323001A2074271217FFEEA2E0E433F9AA0AAB9E
:105333000B1205C174011217917C147D007900745E
:105343000C1217F712120F740C1217FF7A10742431
:105353002508F912132FE970347C1079FF740C12AD
:1053630017F7121275E97025741C1217E5AC82AD9C
:10537300837A0474252508F912132F740C1217FF6E
:10538300EEA2E0E433F9AA0AAB0B1205A9AC18ADFF
:10539300197A0C74702FF912132FE97049AA18ABFC
:1053A3001912105F7F00EF75F003A4F8A9F08518B8
:1053B30082851983E58228F8E583125B8B125CFDF5
:1053C300601D88828983A3A3E0F50E750F00780E14
:1053D300121A1CAA0AAB0B12080774021217910FB8
:1053E300EFC3940440C0EEA2E1500C900763E0F9D0
:1053F300AA0AAB0B12080D740465097028900C8A75
:10540300E0640270207A00900777E060027A0190EE
:105413000764E06004780480027800E84AF9AA0A85
:10542300AB0B1206697900744F1217917F080218AB
:10543300DB74F012180974F012177BEAFEEBFF8C91
:10544300088D09750A0AE9600C14600914603B149D
:10545300607D02552A121071E9F50AC3940A4003CC
:1054630002552AE5084509700302552A750C06758D
:105473000D00780C121A1CEEFCEFFDAA08AB091202
:1054830011F7740212179102552A750C00750E0656
:10549300750F00780E121A1CEEFCEFFDE50C75F08B
:1054A3000EA4F8A9F0748528FA740739FB121209BF
:1054B3007402121791E9700B050CE50CC3940A50A2
:1054C3006680CA850C0AE50AC3940A505A80497556
:1054D3000C00AC18AD197A1075F006E50CA4242362
:1054E300F912132FE9701C7C1079FFAA18AB19125B
:1054F3001275E9700EEEFCEFFDAA18AB1912058BBD
:10550300E9600B050CE50CC3940A501B80C4850CA1
:105513000AE50AC3940A500FE50845096009AA0879
:10552300AB09A90A12106BA90A741002542C74F463
:10553300121809890975081574FF6A700374FF6BE3
:1055430070277E00AC097A027B00EEF912104DE958
:1055530060037508000EEEC3940A40E8E509605342
:105563007A9B7B10120A23804A120A058A0A8B0B44
:10557300AE0AAF0BEE4F60387C007D00EE2405FAD7
:10558300E43FFB8E828F83A3A3A3A3E0F912102F22
:10559300E9F9C3940A500CAC097A027B0012104D4E
:1055A300750800E509600CEEFAEFFB12109B80030F
:1055B30075081402527374F2121809ECFEEDFF75AC
:1055C3000815740E1217E51259BF74FF6A7003743D
:1055D300FF6B7021750900AC0AAD0BEEFAEFFBA966
:1055E30009121053E960037508000509E509C3941E
:1055F3000A503F80E2120A058A828B83E582458343
:10560300602D7C007D00E5822405FAE43583FBA34D
:10561300A3A3A3E0F912102FE9F9C3940A5013AC22
:105623000AAD0BEEFAEFFB121053750800800375F9
:105633000814A908025B53C082C08390077DEAF077
:10564300A3EBF0900763E0FC7D007A257B00120555
:105653001F900763E0F9120783D083D08202011FF2
:1056630074EA12180974EC12177BEAFEEBFFEE24BE
:105673000CF514E43FF5158E828F83A38582108584
:105683008311EE240AF50CE43FF50DEE2405F50E27
:10569300E43FF50FEE2409F50AE43FF50BEE24038E
:1056A300F508E43FF5098E828F83A3A3E024FA7003
:1056B3000302599724FD70030258B914700302576B
:1056C3004D14601024FD700302589C14700302589B
:1056D300ED0259B51259D86049E0F5838882125911
:1056E300D2880C890DE8450D6038851482851583B1
:1056F300E0F50E780E121A20EE240BF582E43FF546
:1057030083E0F9850A82850B831259CC0A0A0AAB16
:1057130009850C82850D83121807740112179102F3
:1057230059B5850A82850B83121A339007791216AD
:10573300511205BB7402121791E970030259B5792E
:1057430001850A82850B8302596385108285118343
:10575300E0600302587F850E82850F83E0A2E0405C
:105763000302587F7C0E7D007900AA18AB19121230
:105773000FEE2408F512E43FF513851282F5831228
:1057830060FDEA4B6010750A06750B00780A121A61
:105793001CEA2410801B1260F7120A05EA4B7003FF
:1057A3000259B5750A06750B00780A121A1CEA2409
:1057B30005FCE43BFD74021217F71211F774021291
:1057C3001791850E82850F83E0A2E25004D2F08008
:1057D30002C2F0A2F0E433F8740C1217E5E048F0CB
:1057E300850C82850D831259BFE50A450B6012E5CE
:1057F3000A2410F582E4350BF583780C12163380F6
:105803000C750CFF750DFF750EFF750FFFE50A454F
:105813000B7006750A00750B00851282851383E0F1
:10582300F512A3E0F513E512451370067512007522
:105833001300780C121A18780A121A1C7812121A0A
:105843001C851482851583121A338E828F83A312CB
:1058530059C7740A1217F7121065740A1217918543
:1058630008828509831259D290080DE8F0A3E9F064
:105873007A017B00900763E0F91212511259D87034
:10588300030259B51259E370030259B58510828595
:105893001183E0FC790102598B1259D87003025924
:1058A300B51259E370030259B5851082851183E05F
:1058B300FC790202598B7C007D00EE2404FAE43F5C
:1058C300FB850882850983E0F912102FE9F8C39458
:1058D3000A40030259B5AC0CAD0D7A0475F006E825
:1058E300A42425F91213290259B51260F7900778F9
:1058F300E06007900C8DE0F98069900C8AE07004F9
:105903007905805F120A058A0C8B0DA80CA90DE896
:105913002404F50CE439F50D8E828F83A3A3A3A38E
:10592300A3A3A3E0A2E05040E84970030259B58560
:105933000C82850D83E0FE602F850A82850B83E050
:1059430054107024740E1217FFE82405FAE439FB8F
:10595300EEF912102FE97010790385088285098307
:105963001260FD1205B5804AAC0EAD0F850C828521
:105973000D83E0F91260F71210A71259D8603312A1
:1059830059E3602E7C0079001260F78E828F8312B8
:105993001807801E120681E9701890080CE0640154
:1059A300700812108390080CE4F07950121335122A
:1059B300107774141217917F0E0218DBE0F50AA317
:1059C300E0F50B22A3A3A3A3A3E0FCA3E0FD22E045
:1059D300F8A3E0F92290077DE0F8A3E0F9E8492273
:1059E300E0F5838882A3A3E0F8A3E0F9E8FEE9FFEA
:1059F300EE4F2274F412180974F212177BEAFE8C2C
:105A03000B75F006E9A42420F508AC18AD197A0E3D
:105A1300F912132FE970487C0679FFAA18AB191203
:105A23001275E9703A740C1217E51259D2E8F509A8
:105A3300E50B6005EE42098004EEF45209AA09E879
:105A43006A7001E96015740C1217E5EAF0A3E4F03B
:105A5300AC18AD197A0EA9081213297901800279BD
:105A63000002526974F212180974E612177B890A4C
:105A73008A088B09ECFEEDFF740C1217FF7A0E7582
:105A8300F006E9A42420F912132FE96003025B4C0A
:105A93007C0679FF740C1217F7121275E960030282
:105AA3005B4C7470250AF50BAC18AD197A0CF9121E
:105AB300132FE96003025B48AA18AB1912105FE5C4
:105AC300084509701D7C0C7900AA18AB19121275D0
:105AD300E970727C0C7D007900AA18AB1912120FC1
:105AE3008051AC18AD19AA08AB091210598A0C8B56
:105AF3000DA80CA90DE8497022EE4F604CAC18AD0F
:105B0300197A007B00121059EAF8EBF9EA4B603975
:105B130088828983E508F0A3E509F0125BC7FAEEF2
:105B23006A7001EF601FEEF04F700888828983E48A
