:020000040000FA
:06000000020107021DD6FB
:03002B000222446A
:0300330002222680
:03003B0002225E40
:030043000221DABD
:03005300021E4C3E
:03006B000222006E
:10008300021CC7E5C754F84401F5C77901220000F3
:100093000080FB120086B900030200F1E4792178A5
:1000A30008B800028004F709D8FCE479297802B87B
:1000B30000028004F709D8FCE4900281786379098F
:1000C3008002F0A3D8FCD9FA7AE37B0A900137784F
:1000D300FF79038015E493A3AD82AE838A828B8379
:1000E300F0A3AA82AB838D828E83D8E9D9E7758288
:1000F3006A75839F74031201197582917583007465
:100103000012011975D00075813F751881751902A8
:10011300759F00020096C09FF59FE473D09F22D085
:1001230083D082C09FE493C0E0740193C0E0740263
:1001330093F59F22FF0000B4000028002800283018
:1001430075A000A000A000A00000080008E001F0D6
:10015300001000100010001000100010005000509C
:1001630000500010001000D0070000000000000F36
:100173000001000500307507001000010081FF0039
:1001830000FF330651063906FF020202080250003F
:10019300A0000000E80302589301000032930254C8
:1001A30093010000380B024E93010000B202025487
:1001B30093010000390B024C93010000C802025462
:1001C300930100003A0B024A93010000CA02025451
:1001D300930100003B0B024893080000CB0202543A
:1001E300930100003C0B0246930100003D0BFF010D
:1001F30000FF20025893010000389302549301003A
:1002030000A10B0242930000000000025093030080
:10021300001803630C630C630C630C630C630C63C3
:100223000C630C630C630C630C630C630C330F4B98
:100233000F2D0F020202020202020202010D000050
:100243000010010258930100002F93025493010000
:1002530000E20B023E930100005B0702549301008E
:1002630000E30B026093010000DC91025493010050
:1002730000E40B026293010000A491025493010075
:1002830000E50B026493010000ED9002549301001A
:1002930000E60B026893010000FF900254930100F3
:1002A30000E70B026A93010000DB90025493010004
:1002B30000E80B026C9301000011910254930100BA
:1002C30000E90B026E93010000CE910254930100EA
:1002D30000EA0B026693010000EB0B01E803053F04
:1002E30010FFFFFF0001307503020106000000004C
:1002F30000000000000000000000000000000000FB
:100303000000000000000000FFFF0600800CE8036F
:10031300140953696D706C65424C45506572697080
:10032300686572616C051250002003020A00020125
:10033300060302F0FF53696D706C6520424C452043
:100343005065726970686572616CD7130000DD13C4
:100353000A436861726163746572697374696320C7
:100363003100024368617261637465726973746911
:100373006320320008436861726163746572697354
:10038300746963203300104368617261637465723A
:100393006973746963203400024368617261637432
:1003A3006572697374696320350002589301000014
:1003B3003593025493010000FF0C02729303000073
:1003C300D40A025293010000000D0254930100006D
:1003D300110D027493010000D50A0252930100002B
:1003E300120D025493010000230D027693020000C4
:1003F300D60A025293010000240D02549301000017
:10040300350D027893000000D70A025093030000D1
:10041300D80A025293010000360D025493010000E2
:10042300470D027A93040000DE0A02529301000092
:10043300480D120122BD9103120122D4910312012E
:10044300220392031201223C9203120122649203BB
:10045300120122929203120122A99203120122C0D5
:100463009203120122D69203120122FD920312017A
:1004730022109303120122269303120122399303BC
:100483001201225E930312012239750012012238F0
:1004930076001201226D76001201228E760012017F
:1004A300229E7600120122BF7600120122CB770032
:1004B3001201229878001201220B79001201229175
:1004C3007900120122D479001201220B7A00120161
:1004D30022917A00120122637B00120122C17B0068
:1004E300120122D97B00120122537C0012012256F1
:1004F3007C00120122597C00120122007D001201AE
:1005030022187D00120122487D00120122687D001D
:10051300120122567E001201220C7F00120122DCFE
:10052300DB0212012204DC0212012232DC0212017C
:100533002269DC02120122D1DC021201221ADD023D
:1005430012012265DD02120122A3DD02120122E063
:10055300DD021201220EDE02120122B5DE021201B9
:1005630022BFDE02120122CCDE02120122FFDE02D2
:10057300120122C1DF02120122CDDF02120122E5A4
:10058300DF02120122EFDF02120122019C0312019A
:10059300220F9C03120122279C031201223F9C037A
:1005A30012012203B201120122A1B2011201221986
:1005B300B3011201222EB40112012268B401120107
:1005C3002211B501120122E6B5011201224AB70137
:1005D300120122A1B70112012228B8011201220F30
:1005E300B9011201225CB901120122EAB901120117
:1005F300220EBA01120122E3BB0112012224BC0123
:1006030012012246BC01120122C7BC01120122B110
:10061300BD0112012277BE0112012292C002120112
:100623002264C1021201220DC20212012250C2022F
:10063300120122DDC20212012269C3021201224AFF
:10064300C40212012279C40212012275C5021201E9
:1006530022BDC502120122BFC60212012203C70234
:1006630012012229C702120122777F001201220000
:10067300F50212012216F5021201223CF5021201C3
:100683002264F6021201226EF602120122C7F70259
:10069300120122C7F8021201224ACD021201227F5F
:1006A300CE02120122B2CE02120122FCCE021201AC
:1006B30022BAD0021201227E9301120122E1930198
:1006C30012012226950112012236950112012259A7
:1006D3009501120122A495011201224996011201EA
:1006E300223F9701120122099801120122819901E7
:1006F300120122C39901120122619A01120122AE51
:100703009A01120122D49A01120122C29C01120100
:1007130022C79C01120122A89E01120122FC9E0104
:100723001201225E9F01120122869F011201222AD9
:10073300A001120122ECA0011201221DA10112014C
:100743002220A10112012268A101120122AAA10102
:1007530012012211A20112012272890312012285C0
:1007630089031201229E8903120122E989031201DE
:1007730022C48A03120122538B031201229E8B038C
:10078300120122D02200120122DC220012012215C2
:1007930023001201225A2300120122112400120104
:1007A30022972400120122FC240012012228250092
:1007B3001201226125001201227527001201225124
:1007C30029001201223C2B00120122732C0012017A
:1007D30022D32E00120122BF2F0012012205310065
:1007E3001201221232001201222F3200120122675B
:1007F3003200120122813200120122E93200120179
:100803002283370012012224380012012275380096
:100813001201229C3800120122EA38001201220838
:1008230039001201225C3900120122353A0012010B
:1008330022BC3B00120122443C0012012232D702A7
:100843001201223CD70212012207D80212012222EE
:10085300D80212012248D8021201228CD8021201B6
:1008630022C4D802120122EDD80212012266D90253
:100873001201227BD90212012290D902120122C74E
:10088300D902120122DBD9021201220CDA0212016F
:100893002246DA0212012272DA02120122C8DA02B5
:1008A3001201221CDB0212012265DB021201228FDC
:1008B300DB02120122B4DB0212012214F102120143
:1008C30022DEF102120122C1F20212012237F302E7
:1008D30012012279F302120122A6F402120122006C
:1008E3008002120122298002120122428002120197
:1008F300228781021201226582021201228482026E
:10090300120122118302120122548302120122A135
:100913008402120122408502120122BF87021201C2
:10092300225688021201222A89021201220C8A020B
:10093300120122788B021201220B8C021201220770
:100943009803120122709803120122C49803120122
:1009530022EB980312012284E002120122F1E00249
:100963001201223CE10212012231E2021201222D84
:10097300E30212012217E40212012241A102120131
:100983002283A1021201225DA20212012236A302D6
:1009930012012231A40212012210A5021201227CAB
:1009A300A50212012243A602120122AEA6021201DF
:1009B3002215A70212012240A702120122B1A702A7
:1009C30012012244A802120122ADA802120122C27E
:1009D300A8021201220AA90212012223A90212016A
:1009E3002288A9021201228BA902120122948303F5
:1009F300120122BC8303120122FA8303120122B8DB
:100A030084031201222385031201223F850312016D
:100A130022678503120122978503120122A685030B
:100A2300120122208603120122468603120122DBD1
:100A3300A20112012278A4011201225EA601120171
:100A43002228A7011201226FA701120122B6A701D2
:100A5300120122C8A70112012208A801120122379C
:100A6300A80112012283A801120122BBA8011201CD
:100A730022E9A8011201223AA901120122C9A901FE
:100A8300120122B7AC0112012291AE01120122CD53
:100A9300AE0112012227B0011201226EB001120130
:100AA30022E3B00112012231B10112012268B10126
:100AB300120122C7F601120122E4F6011201227E7D
:100AC300FC0112012280FD01120122FAFE01120132
:100AD30022A8FF01120122AB3C00120122F43C00C8
:100AE300120122213D00120122543D001201226114
:100AF3003D001201226D3D001201227F3D001201D3
:100B030022543E00120122B23E00120122E73E00AF
:100B1300120122834000120122D04000120122F46C
:100B2300400012012261410012012206420012011B
:100B330022C2420012012241430012012205440055
:100B4300120122144400120122954400120122349E
:100B530045001201226645001201220146001201DE
:100B6300225F46001201229946001201221A470011
:100B7300120122E347001201228C480012012213C2
:100B830049001201226B4900120122CC49001201D3
:100B930022F54900120122AB4A00120122F54B0053
:100BA300120122384C00120122554C00120122740A
:100BB3004C00120122BF4C00120122E44C0012012E
:100BC300220D4D001201227C4D00120122BE4D0068
:100BD300120122C24E001201225C4F001201222890
:100BE3005000120122415000120122A0970212016B
:100BF30022F39702120122FF9702120122D49802D4
:100C0300120122FB9802120122369902120122A23A
:100C13009902120122D699021201220F9A0212019D
:100C230022279A02120122809A02120122999A0221
:100C3300120122E29A02120122F59A021201220FF4
:100C43009B02120122259B02120122419C021201E6
:100C530022529D021201229F9E02120122849F02B0
:100C6300120122F6FF01120122E1E901120122150C
:100C7300EA0112012280ED01120122CAEE011201E2
:100C83002294EF011201221EF101120122F9F10156
:100C930012012233F20112012256F20112012298AB
:100CA300F201120122A1F201120122EBF20112015F
:100CB30022F5F201120122A1F30112012275F401BE
:100CC300120122C9F4011201222BF5011201227E25
:100CD300F501120122ADF501120122ECF501120119
:100CE30022E96200120122436B00120122496B00C8
:100CF300120122047100120122EA7400120122700F
:100D0300FC02120122E6FC02120122FCFC02120187
:100D13002239FD0212012271FD02120122EEFD02AF
:100D230012012229FE02120122A4FE02120122E074
:100D3300FE02120122E9FE02120122F5FE02120155
:100D4300220FFF0212012234FF021201224AFF0284
:100D53001201228EFF0212012270D202120122839B
:100D6300D2021201229DD202120122C6D202120124
:100D73002209D30212012248D30212012286D3028E
:100D8300120122EBD30212012200D4021201220B20
:100D9300D40212012218D4021201222FD40212010A
:100DA300223DD40212012248D40212012254D40259
:100DB30012012267D40212012272D4021201229577
:100DC300D4021201223ED5021201224ED502120193
:100DD3002268D50212012285D502120122A1D50271
:100DE300120122C6D502120122D0D502120122E439
:100DF300D50212012203D60212012264D602120185
:100E0300226AD60212012270D60212012276D6027B
:100E130012012282D602120122B5D6021201222F1A
:100E2300CF01120122B1CF011201225AD0011201C6
:100E330022A2D101120122B0D30112012296D401C0
:100E4300120122CBD401120122EDD4011201229608
:100E5300D50112012266D7011201228FD701120197
:100E63002207D80112012239D80112012246D801E2
:100E730012012291D801120122B5D80112012206D2
:100E8300DB0112012210DC011201226CDC011201D0
:100E930022ACC001120122BDC101120122A1C20173
:100EA300120122ABC201120122CDC201120122D9C9
:100EB300C2011201227DC401120122AAC40112013E
:100EC30022C0C50112012215C60112012264C70105
:100ED30012012239C80112012295C8011201220010
:100EE300C90112012235C90112012278C901120177
:100EF3002242CC011201225ACC01120122EBCC0175
:100F0300120122F9CC0112012246CD011201225411
:100F1300CD01120122C0CD011201223BCE011201EB
:100F23002292CE01120122828C02120122A48C028F
:100F3300120122B58E021201227491021201229E25
:100F430092021201225C93021201224894021201BE
:100F5300220490031201222990031201229F90037D
:100F630012012275B9021201227EB90212012287EF
:100F7300B9021201225FBA0212012210BC0212014D
:100F83002240BC021201226BBC021201229BBC0252
:100F9300120122C6BC02120122FABC02120122264D
:100FA300BD0212012269BD0212012294BD02120187
:100FB30022DBBD0212012230BE0212012272BE02E6
:100FC300120122CCBE02120122F7BE0212012246F6
:100FD300BF0212012276BF02120122A1BF02120137
:100FE30022CFBF02120122F2BF02120122249E036A
:100FF300120122509E031201227D9E0312012287B9
:101003009E03120122979E031201228E8603120170
:1010130022B38603120122DE860312012206A003F5
:1010230012012273500012012254520012012210A5
:1010330054001201220D5500120122955500120190
:10104300221656001201223F5600120122D25900E5
:10105300120122435A00120122345B001201226E54
:101063005B00120122AE5B00120122E15C0012015F
:1010730022345D001201227D5D00120122EB5D002E
:101083001201221D5E00120122375E001201222985
:101093005F00120122395F00120122DF600012019A
:1010A30022F66000120122286100120122AA6200C6
:1010B300120122D89C03120122E99C03120122BDD2
:1010C3009F03120122FC9F0312012294A003120129
:1010D30022879D03120122979D03120122B29D03D1
:1010E3001201221A9E031201221C9903120122A04B
:1010F3009903120122089A031201228A960312010C
:1011030022B396031201222097031201227397033D
:10111300120122CC9703120122D9E40212012210F8
:10112300E50212012280E50212012295E502120175
:10113300229CE60212012223E702120122E9E702BE
:1011430012012208E8021201222DE8021201226292
:10115300E8021201227AE802120122CBE80212010C
:1011630022D1F802120122EBF80212012264F902E1
:1011730012012239FA021201220BFC02120122008F
:10118300E90212012290E9021201220EEA0212017F
:101193002292EA0212012224EB02120122E0EB0264
:1011A300120122ADEC02120122B7EC02120122C697
:1011B300EC02120122DCEC02120122EFEC0212011A
:1011C30022F9EC021201220CED02120122FF940318
:1011D300120122289503120122519503120122EBD9
:1011E300950312012203960312012245960312016D
:1011F3002293B1021201229DB102120122DDB1023A
:1012030012012226B20212012260B202120122B698
:10121300B202120122D5B2021201225DB5021201FD
:101223002266B502120122B7B502120122E0B5020D
:10123300120122EAB5021201225BB602120122E96F
:10124300B6021201223EB7021201226DB702120149
:1012530022E9B70212012226B8021201225DB80266
:101263001201226FB8021201228EB80212012297D4
:10127300B80212012249B90212012270930312012A
:1012830022C093031201223294031201229A94037F
:10129300120122C88B03120122F28B03120122B91D
:1012A3008C03120122958D03120122219A0312014C
:1012B30022088E031201223E8E03120122718E0335
:1012C300120122CA8F03120122A19E03120122B727
:1012D3009E03120122C19E031201220B9F031201DE
:1012E30022AFA9021201226CAA02120122A7AA02AA
:1012F300120122D8AA021201223AAB02120122865B
:10130300AB02120122F1AB021201226BAC021201F9
:10131300226AAD02120122F1AE0212012274AF025F
:10132300120122DAAF02120122EDAF02120122E80A
:10133300B00212012235B1021201220FED02120195
:101343002225ED02120122C9ED0212012208EE024A
:1013530012012225EE0212012256EE02120122A3ED
:10136300EE02120122D7EE0212012212EF02120143
:101373002207F102120122B9DC01120122F0DF017E
:101383001201226CE101120122C3E101120122E0E8
:10139300E1011201225EE201120122DBE3011201EB
:1013A30022BFE4011201226EE8011201223EE9018B
:1013B300120122189B03120122269B031201229180
:1013C3009B03120122E39B031201229EC702120117
:1013D30022E1C90212012223CB021201226CCC02A8
:1013E300120122CECC0212012200800312012245F7
:1013F3008003120122628003120122188103120169
:10140300226B81031201224282031201225B8303B6
:10141300120122CAFF01120122BEFF021201224D54
:10142300A00312012276A003E066701008A3E06611
:10143300700A08A3E066700408A3E06622C3E79677
:101443000809E7960809E7960809E79622C3E09694
:1014530008A3E09608A3E09608A3E09622C008C379
:10146300E096F50808A3E096420808A3E096420830
:1014730008A3E09645087001D3D00822080808EABB
:10148300C0E0EBC0E086F0E7A4FA180986F0E7A411
:101493002AFA180986F0E7A42AFA180986F0E7A4BD
:1014A3002AFA1986F0E7A4FBE5F02AFA190886F070
:1014B300E7A42BFBE5F03AFA190886F0E7A42BFB27
:1014C300E5F03AFA18180986F0E7A4C5F02BFBE417
:1014D3003AFA1908E7C5F0C6A426F6E5F03BFBE4A3
:1014E3003AFA1886F0E7A4F6E5F00826F6E43B0896
:1014F300F6E43A08F6D0E0FBD0E0FA22E4CFC0E00D
:10150300E4CEC0E0E4CDC0E0E4CCC0E075F020E67A
:1015130026F608E633F608E633F608E633F6181837
:1015230018EC33FCED33FDEE33FEEF33FFC3EC97E2
:1015330009ED9709EE9709EF97191919400FFFEC79
:1015430097FC09ED97FD09EE97FE191906D5F0BF33
:10155300ECF709EDF709EEF709EFF7191919D0E0E0
:10156300FCD0E0FDD0E0FED0E0FF226016080808C2
:10157300C6C313C618C613C618C613C618C613C6E1
:10158300D5E0EA227009080808226016181818C660
:10159300C333C608C633C608C633C608C633C6D562
:1015A300E0EA22E627F60809E637F60809E637F601
:1015B3000809E637F622E026F608A3E036F608A384
:1015C300E036F608A3E036F622E026F008A3E0367C
:1015D300F008A3E036F008A3E036F022C3E697F65E
:1015E3000809E697F60809E697F60809E697F6224A
:1015F300C3E096F008A3E096F008A3E096F008A3F2
:10160300E096F022E056F608A3E056F608A3E0566B
:10161300F608A3E056F622E056F008A3E056F008D9
:10162300A3E056F008A3E056F022E0F608A3E0F6A4
:1016330008A3E0F608A3E0F622E6F008A3E6F00824
:10164300A3E6F008A3E6F022E0FAA3E0FBA3E0FCA4
:10165300A3E0FD22EAF0A3EBF0A3ECF0A3EDF0226C
:10166300E0F8A3E0F9A3E0FAA3E0FB22E8F0A3E9A2
:10167300F0A3EAF0A3EBF022CAC0E0E6F0A308DA95
:10168300FAD0E0FA22CAC0E0E0A3C582CCC582C585
:1016930083CDC583F0A3C582CCC582C583CDC58365
:1016A300DAE6D0E0CA22C3E498F8E499F91216EA1C
:1016B3008026C3E49AFAE49BFBE920E7E91216EAE1
:1016C300E498F8E499F922C3E498F8E499F9121636
:1016D300EAE498F8E499F9C3E49AFAE49BFB22EB71
:1016E30020E7CFE920E7E0B90010BB0008E88AF063
:1016F30084F8AAF022E4FBC8FA22EB70227B10C81C
:1017030033C8C933C9335007C39AC3DBF280069A7F
:1017130050012ADBEAC833F4C8C933F4C9FA227585
:10172300F008E4C833C8C933C933C99AC99B500404
:10173300C92AC93BD5F0ECFBC833F4C8E4C9FA2283
:10174300600D08C6A2E713C618C613C6D5E0F32278
:10175300600C08C6C313C618C613C6D5E0F42270BE
:101763000422600D18C6C333C608C633C6D5E0F4D9
:101773001822251810AF08F518400C15198008F524
:101783001840021519D2AF2200C0D0251810AF0897
:10179300F518500C05198008F51850020519D2AF39
:1017A300D0D0222518F58210AF08F518400C151972
:1017B3008008F51840021519D2AF85198322251820
:1017C300F582E43519F583222518F8E43519F92251
:1017D3002518FAE43519FB222518FCE43519FD22F6
:1017E300E4732518C582C0E0E51934FFC583C0E062
:1017F300E518C3958224F810AF08858319858218EC
:101803008008858319858218D2AFCEF0A3E520F036
:10181300A37808E608F0A3DEFAEFF0A3E58124FA43
:10182300F8E608F0A3E608F0A3E608F0A30808E644
:1018330008F0A3E608F0A315811581D0E0FED0E0FF
:10184300F8158115811581E8C0E0EEC0E022251866
:10185300C582C0E0E51934FFC583C0E0E518C39530
:101863008224F910AF08858319858218800885833F
:1018730019858218D2AFCEF0A3E520F0A37808E64D
:1018830008F0A3DEFAEFF0A3E58124FBF8E608F005
:10189300A3E608F0A30808E608F0A3E608F0A315FA
:1018A300811581D0E0FED0E0F815811581E8C0E014
:1018B300EEC0E022851983851882E0A3FEE0A3F53C
:1018C300207808E0A3F608DFFAE0A3FFE0A3C0E076
:1018D300E0A3C0E0E0A3C0E0E0A3C0E0E0A3C0E079
:1018E30010AF08858218858319800885821885833F
:1018F30019D2AFD083D08202011F85198385188244
:10190300E0A3FEE0A3F5207808E0A3F608DFFAE001
:10191300A3FFE0A3C0E0E0A3C0E0E0A3C0E0E0A336
:10192300C0E010AF08858218858319800885821866
:10193300858319D2AFD083D08222C0D02518C58227
:10194300C0E0E51934FFC583C0E0E518C3958224E0
:10195300F310AF088583198582188008858319855C
:101963008218D2AFC8F0A3E9F0A3EAF0A3EBF0A387
:101973007908E709F0A3D8FAECF0A3EDF0A3EEF0B1
:10198300A3EFF0A3D0E0F0A3D0E0F0A3D0E0F0A366
:10199300E520F0A3E5F0F0A322851983851882E002
:1019A300C0E0A3E0F9A3E0FAA3E0FBA37808E0F624
:1019B30008A3DFFAE0FCA3E0FDA3E0FEA3E0FFA39E
:1019C300E0C0E0A3E0C0E0A3E0F5D0A3E0F520A3EE
:1019D300E0A3F5F010AF0885831985821880088588
:1019E3008319858218D2AFD082D083D0E0F8D0E0BB
:1019F3003274048006740280027401C0E0F404129D
:101A030017A6D0E012167B227404800474028000AF
:101A1300CCC0E0EDC0E0E518C39CCCAD1950011D6E
:101A230010AF068C188D1980068C188D19D2AF1241
:101A33001688D0E0FDD0E0FC22D083D082E9C0E05C
:101A4300E493A3C386F0C5F095F0F908E493A38665
:101A5300F0C5F095F0700BE493A3C3994005E90436
:101A63008002A3E475F002A42582F582E5F03583B4
:101A7300F583D0E0F9E493A3C0E0E493C0E022D07F
:101A830083D082ECC0E0EDC0E0E493A3FCE493A335
:101A9300FDED4C600D121ACEEC24FFFCED34FFFD7E
:101AA30080EFE493A3FCE493A3FDED4C600D121BC4
:101AB3000DEC24FFFCED34FFFD80EFD0E0FDD0E022
:101AC300FCE493A3C0E0E493C0E022C0E0C3E4934A
:101AD30096087401939618400FE49366700808748F
:101AE3000193661870007019A3A3C3E49396087456
:101AF30001939618A3A3400DD0E0D0E0D0E0021AE2
:101B0300BEA3A3A3A3A3A3D0E022C0E0C0F088F0A8
:101B1300E4936670080874019366187000A8F0A334
:101B2300A3700BD0F0D0E0D0E0D0E0021ABEA3A3A4
:101B3300D0F0D0E02274F5121851EAFEEBFFEE2448
:101B430034F8EF3400F988088909EE2435121C7043
:101B5300F8EE2437121C70F50AEC850AF0A4FCAAEF
:101B6300F0850AF0EDA42AFDE82CF8E43DF97A2586
:101B73007B001216EAEA850882850983F05407F888
:101B83007401B800028004C333D8FCC0E0E013132F
:101B930013541FF8EE28F8EF3400F9E8245DF582BA
:101BA300E93400F583D0E0F8E058600885088285C1
:101BB3000983801DEE2436121C70F5F0EA84A8F028
:101BC300EE28F8EF3400F9E82438F582E93400F51B
:101BD30083E0F97F040218FD74F5121851EAFEEB55
:101BE300FFEE2434121C70C0E0EE2435F582EF348E
:101BF30000F583D0E0F08E828F83A3A3A3A3A3E099
:101C0300FAA3E0FB8E828F83A3A3A3A3A3A3A3E0E2
:101C1300FCA3E0FDECC39AF50AED9BF50BEE2480E3
:101C2300F508EF3400F509850882F583E064017057
:101C33002BEE2481F582EF3400F583121A0F121C68
:101C430079740212178BE960137CFD7D04EEFAEFC1
:101C5300FB120B91850882850983E4F0AC0AAD0B76
:101C6300EEFAEFFB121B381221CC021BD6F582EFE2
:101C73003400F583E022C082C083851882851983EE
:101C8300E0F8A3E0F9C3EA9CEB9D5012C3EC98ED96
:101C9300994019C3EA98EB99501279018010C3EA6D
:101CA30098EB9940F5C3EC98ED9950EE7900D08309
:101CB300D08222EAC39CFAEB9DFB22000085218798
:101CC3008522C622C0E074EF12193D759B00906116
:101CD30082E0A2E64003021D88E591A2E6400302EA
:101CE3001D887591BF9003C2E064057008120D2F23
:101CF300120D3B8003120D35752100120DA1E990E1
:101D030003C3F07900120D95120AFB7A017B009050
:101D130003C1E0F9121251907803E06442600302B8
:101D23001DD190055FE014F06003021DD1C2AF1214
:101D33001D3500782AD0E0F618D0E0F6E59F540769
:101D4300F970059092F780039092FB780812162D94
:101D5300E9C4C0E07829E65508F50808E65509F511
:101D630009740B7808121753D0E02508F8906270B5
:101D7300E0A2E740F8E8C333906272F0906270E04B
:101D8300D2E0F08049E0A2E55024E591A2E5501E9F
:101D93007591DF9003C2E0640D70139003E4E004D7
:101DA300F064287002E4F07A00E0F9120E139061F7
:101DB30081E0A2E35009E5E9A2E3500375E9F7A343
:101DC300E0A2E75009E591A2E7500375917F7F04F4
:101DD30002199CC0E0C0D0C082C083906183E0A29E
:101DE300E05009E5BFA2E0500375BFFEE0A2E15059
:101DF30009E5BFA2E1500375BFFDE0A2E25009E58A
:101E0300BFA2E2500375BFFBE0A2E35009E5BFA206
:101E1300E3500375BFF7E0A2E45009E5BFA2E45025
:101E23000375BFEFE0A2E55009E5BFA2E5500375D6
:101E3300BFDFE0A2E65009E5BFA2E6500375BFBFCE
:101E4300D083D082D0D0D0E032C0E074F212193DFA
:101E5300E5A7A2E4500FE5A1A2E4500953A7EF754B
:101E6300A1EF121EA0E5A7A2E5500CE5A1A2E55043
:101E73000653A7DF75A1DFE5A7A2E15009E5A1A2FB
:101E8300E1500375A1FDE5A7A2E2500CE5A1A2E292
:101E9300500653A7FB75A1FB7F0102199C74F8122E
:101EA30018517521019003C2E0640670077A007B24
:101EB30000120D17A2AFE433FED2AF9003C8E06463
:101EC3000170187A207B009003C1E0F912135F7A46
:101ED300207B009003C1E0F9121257906182E0D297
:101EE300E6F090055EE0602185C62280169003C768
:101EF300E064017008E5C654F84405F5C653BEFC1A
:101F0300121CC07401652160E4EEA2E092AF7F0170
:101F13000218FD00008E238F248582288583278560
:101F23001882851983E0CEA3E0CF85288285278395
:101F3300EBC9EAC8EDCBECCA75F010C3E833C8E9C6
:101F430033C9EA33CAEB33CBC3EA9EF526EB9FF5DD
:101F530025B35004AB25AA26EC33CCED33CDD5F015
:101F6300DAAE23AF242274F11218518A088B098C3C
:101F73000A8D0B740F1217C1780C12162D9092DB79
:101F830078081216079092DB780C121607780879F6
:101F93000C12144050157808790C1215DF90931326
:101FA3007808121460401579018013780C790812AF
:101FB30015DF909313780C12146040EB79007F08BF
:101FC3000218FD74ED1218518A088B098C0A8D0BC7
:101FD30074131217C1780C12162D9092DB78081225
:101FE30016079092DB780C121607780C79081214F6
:101FF3004040117808790C1215DFAA08AB09AC0A26
:10200300AD0B802275100075110075120075130158
:102013007810790C1215DF781079081215A6AA101A
:10202300AB11AC12AD137F0C0218FD9092DB780854
:1020330012162D8A828B83780812161A7F040218CF
:10204300FD74F51218518C828D83780812162D8A2F
:10205300828B8378081215F3122098C3E098F0A3BB
:10206300E09912208A401E9092C3780812162D8A96
:10207300828B8378081215CC8E828F83E02420F024
:10208300A3E0344EF080A4F08E828F83C3E09420CB
:10209300A3E0944E22EA2404F8EB3400F9E8FEE9C5
:1020A300FF8C828D83A3A3A3A3E0F8A3E0F98E8220
:1020B3008F832274F5121851E9FE900514E0FAA3F8
:1020C300E0FBEEC333F8E433F9747628F5827491B8
:1020D30039F583E02AF508A3E03BF50978081219DE
:1020E300F89092CB12164B121F18740212178B8A98
:1020F300088B098C0A8D0B7410780812156EAA08C8
:10210300AB097F040218FD74F11218518A0C8B0D70
:102113008C0E8D0F740F1217C1E0FAA3E0FB74113C
:102123001217C1E0F508A3E0F50974131217C1E013
:10213300FEA3E0FF78081219F8EA2401F508EB344E
:1021430000F509E4F50AF50B780C790812147F9071
:10215300930F780812162D780C790812147FAA0CA5
:10216300AB0DAC0EAD0F121F18740212178B8B0937
:10217300EA450960047A0180027A00EC2AFCED3416
:1021830000FDECF8EDF97A717B021216EA880889F2
:1021930009E4F50AF50B8E828F83780812163CEC5E
:1021A300F8EDF97A717B021216EA8A088B09740535
:1021B30078081217628E828F83A3A3A3A3E508F086
:1021C300A3E509F07F080218FDC082C083E990608F
:1021D30000F0D083D08222C0E074F212193DA2AF86
:1021E300E433FED2AFC2C0E5D1A2E4500653D1EF2F
:1021F3001211C7EEA2E092AF7F0102199CC0E074F6
:10220300F212193DA2AFE433FED2AFE589A2E15049
:1022130003121113758900C2C5EEA2E092AF7F01CC
:1022230002199CC0E074F212193DA2AFE433FED24E
:10223300AFE58BA2E05003121113758B00C2E88047
:10224300D8C0E0C0D0E8C0E0A8A8D2AFC2C7E8A217
:10225300E792AFD0E0F8D0D0D0E032C0E0C0D0E811
:10226300C0E0E9C0E0EAC0E0EBC0E0C082C083A206
:10227300AFE433F9D2AF9009E9E0F8A3E06870085E
:10228300539AFBA374018022C2E99009E9E0F87430
:102293000128F0746928F582E43409F583E0F5C177
:1022A3009009E9E0C394804002E4F0E9A2E092AF30
:1022B300D083D082D0E0FBD0E0FAD0E0F9D0E0F8D0
:1022C300D0D0D0E032FFFFFFFFFFFFFFFFC082C08F
:1022D30083E9900BA0F002255474F71217E5E990F7
:1022E30002E0F07C187D037AFF7BFF120813900253
:1022F300E174FFF0A3F0A3E4F0A3F0790512079BC8
:102303009002E0E0F91206C37A317B081209F30266
:10231300326274F41217E58A088B09EB548060303B
:102323009002E0E0F91212398A0A8B0BAE0AAF0B66
:10233300EE4F60138E828F83E064B070031207B395
:10234300EEFAEFFB121227AA08E5096480FB80046A
:102353007A007B0002252374F21217E574FC12172E
:1023630075EAFEEBFF74121217C1123749EE4F7074
:10237300030223FD74021217C1EEF0A3EF12275ECE
:10238300ECF0A3ED12275EAA82AB831206BDE9F53A
:102393000A706AE508450960648E828F8312372FBD
:1023A300EE4F60567A067B001212BD8A0C8B0DA885
:1023B3000CA90DE8497005750A1380418882898349
:1023C300E412240AEEF0A3EF12375AE508F0A3E56E
:1023D30009F09002E61224919002E6700512320C85
:1023E300801B1231FA8003EAFCEBFD8C828D831291
:1023F300249170F38C828D8380E3750A02A90A7499
:102403000412178B023949F0A3123700A32274F286
:102413001217E5890AE975F017A4FEAFF09002E5FB
:10242300E4F09002E3122491600A1212C39002E3D3
:10243300E4F0A3F0EEFAEFFB1212BD8A088B09EA6F
:102443004509602FEEFCEFFD790012120F9002E3B5
:10245300E508F0A3E509F07B00800812247BE4F093
:10246300A3F00BEBC3950A40F2E50A9002E5F0797D
:102473000080027913023949EB75F017A4F8A9F02B
:102483009002E3E028FAA3E0398A82F58322122E30
:102493009EEA4B2274F41217E5740C1217C112371B
:1024A30024FEE9FF750800750900800CE508240186
:1024B300F508E5093400F509C3E5089CE5099D50D5
:1024C3003285080A85090B7403780A121762EA2514
:1024D3000AF8EB350BF988828983A3A3A3A3A3A3EB
:1024E3001232E1EE650A7003EF650B70BFE8FAE99B
:1024F300FB80047A007B00802774F41217E57900CF
:10250300EAA2E0501B75089C75099278081219F825
:102513007C047D007AA27B0B120795740212178B41
:102523007F040218B7C082C0839002E612255B6065
:102533001C88828983A3A3E06A7003A3E06B88826B
:10254300898370E8A3A3A3A3122E9A80047A007B45
:1025530000D083D08202011F123A2FE8492274EE81
:102563001217E574FC121775EAFEEBFF85188285D6
:102573001983E4F0A3F0EE24021231ECEE240512E9
:102583003707EE2404F50EEF122B13E024FE603917
:1025930024FC604624FE605224FE605E24FE700329
:1025A30002267424FE70030226D824FE700302263A
:1025B300E724FE70030226F624FC70030227052499
:1025C300FE70030227140227519002FF7417F0A331
:1025D300E412276612043B0227518518828519836A
:1025E300AC82AD831207B90227218518828519832E
:1025F300AC82AD831207BF022721850C08850D0924
:1026030074021217C1AC82AD8385088285098312D7
:102613002E9A1206E18A0C8B0DAC0CAD0DEC4D60BD
:102623003BE4F50CF50D780C1219F8750CFF750DDC
:1026330002780C1219F8750C00750D03780C121939
:10264300F874081217C1121A0F123BAB12178BE959
:10265300F50C700B122E90120453800F750C01852C
:10266300088285098312275412320C850C0802272D
:102673002474021217C1AC82AD83850C82850D834D
:10268300122C65603C850C82850D83A3A3121A0F5F
:102693007510FF75110278101219F8751000751175
:1026A3000378101219F874081217C1121A0F123B8B
:1026B300AB12178BE9F509700B122E901204598097
:1026C3000F750901850C82850D8312275412320C74
:1026D300850908804C851882851983AC82AD8312E5
:1026E30007C5803A851882851983AC82AD831207AA
:1026F300CB802B851882851983AC82AD831207D1D9
:10270300801C851882851983AC82AD831207D7801C
:102713000D851882851983AC82AD831207DDE9F537
:1027230008E50860298E828F83A3E06414601F8507
:102733000E82850F83E09002FF12275E123A2B90E0
:10274300030012320CE508A3122766120435023087
:10275300FB123A2F85188285198322F0851882850A
:10276300198322F07CFF7D02850A82850B83122E5A
:102773009E2274EE1217E574FC1217758A0A8B0BEE
:102783008C0E8D0FEA2405F508EB3400F5097C1552
:102793007D0079007AFF7B0212120FE5082402F50F
:1027A3000CE50912370A85188285198385821085FD
:1027B300831178101219F8850882850983A3A3A3CE
:1027C300A3122C5C1219F8E5082405F510E5093469
:1027D30000F51178101219F8850C82850D83122FDC
:1027E300B11206DB740612178B8A108B11AE10AF71
:1027F30011E50A2402F50AE50B1231EFEE4F7003DF
:10280300022933801774021217C1122E9A88828903
:1028130083EAF0A3EBF09002FFE004F09002FFE004
:10282300C394054003022933E4F510F5117810121F
:1028330019F87510E875110278101219F87510E976
:1028430075110278101219F874061217C1121A0FB3
:102853007910EEFCEFFD123BAD12178BE9705E852C
:102863000882850983A3A3A3A3A3A3A3E0F89002EB
:10287300E8E0687048122C5C1219F87CE97D02E5E7
:10288300082408FAE5093400FB121209740212172E
:102893008BE960298E828F83A3A3A3A3122E9A9020
:1028A30002FFE0F51074027810121762740025100D
:1028B300F58274033511F583EAF0A3EBF074021289
:1028C30017C185821085831178101219F8740212CA
:1028D30017C1121A0F850C82850D83122EC0121791
:1028E3008B8A108B11AE10AF119002FFE0F51075BB
:1028F30011007402781012176274FF2510F8740225
:102903003511F988828983A312249170030227FF6A
:10291300E82403080808E93400F9EE4F60030228AD
:10292300088882898374FFF0A3F09002FFE004F02B
:102933009002FFE0600A122E901204477900800B88
:10294300850882850983123203790A0230FB74EA0F
:102953001217E574FE1217758C128D13EA2405F510
:102963000CEB123B95123733750800750900EA2406
:1029730002F510EB3400F5118518828519838582E1
:102983000A85830B780A1219F8850C82850D83A3B7
:10299300A3A3A3122B291219F8E50C2405F50AE5C4
:1029A3000D1231EF780A1219F8850C82850D831206
:1029B3002B2D1206DB740612178B8A0A8B0BEA4542
:1029C3000B7003022ACEEA2404F50EEB122B13122A
:1029D30037338A828B83A3A3A3E0F9851082851101
:1029E30083122EA46003022ACEE4F514F51578149D
:1029F3001219F87514E875150278141219F875147C
:102A0300E975150278141219F874061217C1121A0F
:102A13000F7913AC0AAD0B851082851183123BB37A
:102A230012178BE9F5096003022ACE9002E8E0F859
:102A3300E5087009E02402900300F080149003007D
:102A4300E0FCE82402FAE43400FBEA6C7001EB706A
:102A53007E850882AA82122C539414122C4B506B3D
:102A6300850E82850F83E0C0E074012A122B0AD001
:102A7300E0F00508850E82850F83A3E0C0E085089A
:102A83000A7401250A122B0AD0E0F005089002E827
:102A9300122B291219F87CE97D0285080A74012595
:102AA3000A122B1D12178B9002E8E02508F5087413
:102AB300FF6E700374FF6F6012EE24010EEF34009B
:102AC300FFE508C39414500302297BE50860131241
:102AD3002EAE851082851183122E9A12044D790031
:102AE3008014E509700375090A851282851383EE44
:102AF300F0A3EFF0A909740212178B7F0E0218B727
:102B030085080C7401250CF58274033400F58322C7
:102B13003400F50F850E82F58322FA74033400FB2B
:102B23001211F774022212376922A3A3122B332244
:102B33001231FAFDEEFAEFFB2274EE1217E574FE82
:102B43001217758C0E8D0FEA2405F50CEB12370A5C
:102B5300750B009002FFE4F0F50AEA2402F508EB96
:102B63003400F50980449002FFE0FA9002E8E0F8AF
:102B7300122C539417122C4B400D9002FFE0F87463
:102B830016C3989002E8F0122C5C1219F87CE97DC8
:102B93000274002AFA7403122B2012178B9002E896
:102BA300E0F89002FFE028F0050AE50C2416F58210
:102BB300E50D122B0EE0F8E50AC39850749002FF5E
:102BC300E0C39416506BE50AC333F8E433F9E50C1C
:102BD30028FEE50D39FF851882851983AC82AD8304
:102BE3008E828F83122C657008750B011231FF8062
:102BF30050E4F510F51178101219F87510E87511F5
:102C03000278101219F87510E9751102781012196B
:102C1300F874061217C1121A0F79168508828509EE
:102C230083123BB312178BE9F50B7003022B6980F8
:102C3300BB7CFF7D02850882850983122E9A1204CC
:102C43005FA90B74020230FDE99400C365D03322FF
:102C5300EA28F8E43400F9E822E0F5107511007869
:102C630010221230F28A108B11AC10AD11EC4D22F0
:102C730074EA1217E574FC1217758A0C8B0D8C120B
:102C83008D13EA2405F50AEB1231EF750800750977
:102C930000E50A2402F510E50B3400F51174021265
:102CA30017C185820E85830F780E1219F8850A8263
:102CB300850B83A3A3A3A312370F1219F8E50A24E4
:102CC30005F50EE50B3400F50F780E1219F8851093
:102CD300828511831231F5122E941206DB740612CB
:102CE300178B8A0E8B0FAE0EAF0FE50C2402F50E79
:102CF300E50D3400F50F80388882898374FFF00571
:102D030008122B0374FFF005089002E8E0F50C7538
:102D13000D00780C1219F87CE97D0285080C74010A
:102D2300250C122B1D12178B9002E8E02508F508DD
:102D3300EE4F60278E828F83A3A3A3E0F9850E82D3
:102D4300850F83122EA4EE2404123707E96027852A
:102D53000C82850D83122E8612320CE50870030255
:102D63002E6C122EAE850E82850F83122E9A1204BC
:102D7300657900022E81E4F514F51578141219F81B
:102D83007514E875150278141219F87514E9751598
:102D93000278141219F874081217C1121A0F791154
:102DA300EEFCEFFD850E82850F83123BB312178B6A
:102DB300E9F509709A850882AA82EA9002E8700907
:102DC300E02404900300F08025E0F8900300E0F590
:102DD30014E82404FCE43400FDEC65147001ED7088
:102DE30081122C539412122C4B4003022D65850C37
:102DF30082850D83E0C0E074012A122B0AD0E0F033
:102E03000508850C82850D83A3E0C0E0122B03D057
:102E1300E0122EC985820C85830D780C1219F87483
:102E2300041217C1121A0F851082851183122EC046
:102E330012178B8A0C8B0DAE0CAF0D85080C740129
:102E4300250CF874033400F9EE4F7003022CFB8554
:102E53001882851983E088828983122EC9A3E0C072
:102E6300E0122B03D0E0022D09E509700375090A6E
:102E7300850A82850B83122E8612320CA9097404EB
:102E8300022AFB123A2F851282851383227CFF7D4F
:102E930002850A82850B83122E9E22E0FAA3E0FBB1
:102EA30022122E9E1206C9E9F50922900300E0F5CD
:102EB300F0E508849002FFF07CFF7D0222122B33A1
:102EC3001206E7740422F005088518828519832207
:102ED30074EC1217E574FE1217758A088B098C0EB1
:102EE3008D0FEA2405FEEB3400FF1230DCEE2418CC
:102EF300123707EA450B7003022F7F1230C55029A2
:102F0300122FA48A108B11EA4511606B7912AC0A57
:102F1300AD0B850882850983122E9A85108285114F
:102F2300831217E3E9F50A7058E4F50AF50B780AFA
:102F33001219F88E828F83A3A3E0F50A780A121977
:102F4300F8EE24031231EC780A1219F88E828F837B
:102F5300122FB1120801740612178BE9F50A7021BA
:102F6300850C82850D83E0701F8508828509831295
:102F73002E9A12046B8011750A0E8009750A01805E
:102F830004E50A60031231FF850C82850D83E0603E
:102F93000479008002A90A740212178B7F0C0218AD
:102FA300B7851882851983122E9E1207EF221231DC
:102FB300FAFD850882850983122E9E2274EE12176C
:102FC300E574FE1217758A088B098C0C8D0DEA24A3
:102FD30005FEEB3400FF750E001230DCEA450B7082
:102FE300030230A31230C5502C122FA48A0E8B0F6C
:102FF300EA450F604A7912AC0AAD0B850882850950
:1030030083122E9A850E82850F831217E3E9F50E3C
:1030130060030230A68508828509831232E1AA0A79
:10302300FB1230B770147AFF7BFF1230B7606C88E5
:10303300828983E50AF0A3E50BF0750A0080077522
:103043000E0E805F050A9002E5E0FAE50AC39A5086
:103053004AE50A75F017A4FAABF088828983A3A323
:10306300E02AFAA3E03BFB8A828B831231F5EC4D15
:1030730070D2750A17750B00780A1219F8EEFCEF77
:10308300FD1211F7740212178BEEFCEFFD85088217
:10309300850983122E9A1204718014750E09800318
:1030A300750E01123A27850C82850D8312320CA905
:1030B3000E022C461207E38A108B11A810A911E8FF
:1030C3004922E5082402F508E5093400F5098A8256
:1030D3008B83A3A3A3E0A2E522851882851983AC81
:1030E30082AD838E828F831230F28A0A8B0B22E0A9
:1030F300FAA3E0FB1206E122740412178B7F0A0283
:1031030018B774EC1217E58C108D11EA2405F50C31
:10311300EB12370A750F00EA2402F50AEB1231EFBE
:10312300850A82F583122E9A123C3970030231E12B
:10313300750E008071850C82850D83E06401704FEC
:103143008E828F83A3A3121A0F8E828F83A3A3A3CE
:10315300A3E0F51275130078121219F8EE2405F5A1
:1031630012EF3400F51378121219F8122E94120884
:1031730001740612178BE9F50F6014850C82850D17
:1031830083E4F0123A2785108285118312320C7C76
:10319300177D007900EEFAEFFB12120F8E828F83F8
:1031A300E4F0A3F0050E9002E5E0F8E50EC39850B5
:1031B3001EE50E75F017A4F8A9F08508828509832A
:1031C300A3A3123B9F1231F5EC4D60030231388506
:1031D300088285098374FFF0A3F0E50F7006122EB1
:1031E30094120477A90F022F9FF50AEF3400F50B11
:1031F30022A31231FAFD22E0FCA3E0228E828F8308
:10320300123A2F850E82850F83E8F0A3E9F022C0DE
:1032130082C0839002E1E06A7003A3E06B70067AD8
:10322300E17B0280047A007B0002255474F71217B5
:10323300E57F00EF75F003A4F8A9F0EC28F8ED3969
:10324300F988828983E06A7003A3E06B7006E8FA69
:10325300E9FB800B0FEFC3940240D87A007B007F19
:10326300010218B774F61217E512381870067A00BF
:103273007B008007A3A3A3A3122E9A0238D974F26A
:103283001217E5E9FE740E1217C11232E17410121F
:1032930017C11237498C828D83E06402703BA312FD
:1032A3003A2B88828983E0F50CA3E0F9A80C740219
:1032B3006870037429697021750C02750D00780C10
:1032C3001219F878081219F8780A1219F8EEF91297
:1032D3000825740612178B80027901023949E0F53B
:1032E3000AA3E0F50B2274E81217E574FB121775B5
:1032F300E9851882851983F08A168B178C0E8D0F3A
:10330300741F1217C112374974211217C11232E107
:1033130074231217C11237337510008C828D83A367
:10332300A3A3E0A2E4502A741D1217C1122FAA8A84
:10333300828B83E582458370030233F5790AAC0EF1
:10334300AD0FAA16AB171217E3E9F51060030233AA
:10335300F8850E82850F83E0640260030236AEA314
:10336300123A2B850882850983A3858212858313EC
:10337300E50E2406F50CE50F12370A88828983E0EF
:10338300FAA3E0F9EA2400F514E439F515781412E8
:103393001A82010000280128BD3307000228943453
:1033A300032804340029BE350129E63502298D3569
:1033B3000329BE3504294F36AE36EE4F703E850CD9
:1033C30082850D83123724FAE9FB8A828B83E08599
:1033D3000A82850B831237601219F88A828B83A3C2
:1033E3001231FAFDAA08AB091211F7740212178BF6
:1033F300800375100EA9107405023B8D75100B80A8
:10340300F4EE4F70F7850A82850B837401F012374F
:1034130039850882850983F07C007D00850E8285CD
:103423000F83A3A3A3A3E02401FAA3E03400FB12B8
:1034330006E1EA4B60418A828B83E02402F8850A25
:1034430082850B83E028F0EA2404F8EB3400F98842
:10345300828983E085128285138312377212376063
:103463001219F88A828B831231F4E5082403FAE5F2
:10347300093400FB0233EB850A82850B83E02404C5
:10348300F07C047D007900AA12AB1312120F0233F1
:10349300F8EE4F60030233FF123739FEA3E0FF85D6
:1034A3000A82850B837404F0EE850882850983F014
:1034B300EF851282851383F074031217C1AC82ADBA
:1034C30083EEFAEFFB123806700302356A8A828BA9
:1034D30083A3A312372F74011217C185820E85832C
:1034E3000F780E1219F874051217C1121A0F7CFF08
:1034F3007DFF1206E7740412178B8B0FEA450F70DA
:1035030033850C82850D8312370F1219F8850C82CF
:10351300850D83A3121A0F7C027D007A567B9312CA
:103523000513740412178BE9700A74011217C1741E
:10353300FFF0A3F08E828F83E064027034750C0277
:10354300750D00780C1219F88E828F831231F4E511
:10355300082404FAE509122B2012178B850A8285A9
:103563000B83E02402800974011217C1EEF0A3EF6C
:10357300F074011217C1123720F074011217C1A39E
:10358300123718A3A3A3F00233F8EE4F60030233FC
:10359300FF850C82850D831231F5AA16AB1712082D
:1035A30019850A82850B837402F0EA8508828509EE
:1035B30083F0851282851383EB80CBEE4F60030289
:1035C30033FF123739F8A3E0F9850A82850B837438
:1035D30002F0E8850882850983F0E9851282851364
:1035E3008380A3850C82850D83122E9A1211F1EA32
:1035F300FC8C82A882C39EE49F404BE86E7001EF6F
:1036030070047C00801F851882851983E0FAEE2AF6
:10361300FAEF3400FBC3EA98EB94005003E0800414
:10362300EECCC39CFCEC850A82850B83F08C0A7577
:103633000B00780A1219F8850C82850D83E02EFCA5
:10364300A3E03F0233E67510070233F8EE4F600341
:103653000233FF850C82850D83123A2B850A8285FE
:103663000B837407F088828983123718123700E0BE
:10367300851282851383F0E82402FAE93400FB8A79
:10368300828B83123718123751123720A312375AFD
:10369300123729F0E82405F8E93400F98882898390
:1036A300123729A3123772A3023586741D1217C16C
:1036B30012381170030233F5123A2B880C890DE886
:1036C300450D70030233F58E108F1178101219F81F
:1036D300780A1219F878081219F874061217C1E05B
:1036E300F9AC0EAD0FAA16AB17850C82850D8312AC
:1036F30017E3740612178BE9F5100233F8F088828A
:103703008983A322F50CEF3400F50D22E0F50E7545
:103713000F00780E22E0850882850983221237790B
:1037230022123A2FE822123779A3A322A3A3A3A339
:10373300E0FEA3E0FF22850C82850D83E0F8A3E081
:10374300F5838882E022E0F508A3E0F50922A3A32C
:10375300F08A828B83A32212240CA3A322F08A82F1
:103763008B8312376922E0F50A750B00780A22125F
:10377300370012377922E0850882850983A3A322C3
:1037830074EE1217E574FE1217758A0A8B0BECFAA6
:10379300EDFB74141217C1E0F510A3E0F5117416D4
:1037A3001217C1E0FE74181217C1E0F50EA3E0F57D
:1037B3000F851882851983AC82AD83123806603E6B
:1037C300851882851983123811602FA3A3123749F4
:1037D300E50845096024780E1219F878101219F8D3
:1037E300EEF9AC0CAD0DAA0AAB0B850882850983F3
:1037F3001217E3740412178B8006790E8002790185
:10380300022C461206E18A0C8B0DEA450D22122E7C
:103813009E123818221207AD8A828B83E582458374
:103823002274F61217E574FE121775740C1217C181
:10383300123724851882851983F074011217C1E9A0
:10384300F0E4F508F50978081219F8750802780804
:103853001219F874041217C1858208858309780840
:103863001219F8120801740612178B740212178BBF
:10387300806474F71217E5EAFEEBFF89087C187D74
:1038830003120819EA5402600BA908EEFAEFFB12BF
:1038930006D58002790102326274F61217E574FFCD
:1038A3006A700374FF6B701C7B00EB75F003A4F864
:1038B300A9F0EC28F8ED39F91238DE0BEBC39402CA
:1038C300501480E61207E98A088B09A808A909E8B9
:1038D3004960031238DE7F020218B7888289837435
:1038E300FF12240AE4F02274F61217E51207E98A9C
:1038F300828B83E58245836006A3A3E0FA80027A84
:10390300007B0080D174F21217E58A088B09ECFE64
:10391300EDFF740E1217C1E0F50A12394E701CEE5A
:10392300FCEFFD7AFF7BFF12394E7004791180168C
:1039330088828983E508F0A3E509F088828983A357
:10394300A3E50AF079007F060218B71207E98A0C8B
:103953008B0DA80CA90DE8492274EE1217E5EAFEB7
:10396300EBFF8C088D09890C74121217C1123A2BC4
:1039730074141217C11231F574161217C1122E9A4C
:10398300750D00EC4D6003023A1F7402650C600371
:10399300023A1A888289831231FAF9EC2400F50E6F
:1039A300E439F50FEAF4F8EBF4F9EC58F8E50F59BC
:1039B300F9E849705DE5082406F8E5093400F9885B
:1039C3000A890B8882F583122B2F1208198A108B10
:1039D30011E50E65107004E50F65116042780E1253
:1039E30019F8850A82850B83122B2F12081F740284
:1039F30012178BE9F50D7027780E1219F8850882D6
:103A0300850983A3A3122B2D120837740212178B77
:103A1300800D750D808008750D0D8003750D0BA944
:103A23000D0231008E828F83123A2F22E0F8A3E039
:103A3300F92274E81217E574E71217758518828561
:103A43001983EAF0A3EBF08C168D17890E743112EB
:103A530017C1E0F512A3E0F51374331217C1E0F5B3
:103A630014A3E0F51574351217C1E0F50F750800BE
:103A7300750900E50975F003A4F8A9F08518828596
:103A83001983123B9FE0F47003A3E0F47003023B3D
:103A93007DEE2402F50CEF123B95E07003023B7DB3
:103AA30085160A85170B780A1219F8AC14AD15AAF6
:103AB30012AB131207A1740212178B8A0A8B0BEA3B
:103AC300450B7003023B7DE4F510F51178101219D4
:103AD300F874061217C185821085831178101219A4
:103AE300F874091217C18582108583117810121991
:103AF300F8851282851383A3A3A3A3121A0F791443
:103B0300AC0AAD0B8E828F83123BB312178BE97015
:103B130069850A82850B83A3A3A3A3123A2B74029C
:103B23001217C112320C850C82850D83E0A2E0507E
:103B330018A90E74021217C1AC82AD838E828F83D3
:103B4300122E9A1206F9E94208850C82850D83E04C
:103B5300A2E15026E50FF50A780A1219FCA90E74A2
:103B6300031217C1AC82AD838E828F83122E9A12F9
:103B730006F3740112178BE942080509E509C3949A
:103B8300025003023A76A908741912178B7F1002A8
:103B930018B73400F50D850C82F58322E028FEA3C7
:103BA300E039FF8E828F83227916850A82850B8303
:103BB300122E9E1207FB74082274F21217E5EAFE16
:103BC300EBFF890B7401650B600E7402650B706368
:103BD3007901120A11E9705BEEFAEFFB123C3960CE
:103BE30047750A00800B7C177D00790012120F05C0
:103BF3000A9002E5E0F8E50AC3985021E50A75F05A
:103C030017A4F8A9F0850882850983A3A3E028FAFD
:103C1300A3E039FB8A828B8312255B70C9850882F6
:103C230085098374FFF0A3F07C187D03EEFAEFFBA4
:103C33001208130239491207E38A088B09EA450976
:103C43002274F21217E58A088B09ECFEEDFF740E5D
:103C53001217C11232E1900BA0E0F4603D7A097BA8
:103C630000121221EA4B60328A828B8374B1F0A373
:103C7300E4123753A3123751A3E508F0A3E5091261
:103C83003CA0EEF0A3EF123CA0A3A3E50AF0A3E54A
:103C93000BF0900BA0E0F912122D023949F08A8241
:103CA3008B83A3A3A3A3A322C082C0839061907438
:103CB30004F0A37448F0A3E4F09061807440F090A2
:103CC30061BC7407F09061877469F09061B67416F3
:103CD300F07900120B017902120B079022C8E493CA
:103CE300F46006E493F9120ADD7905120DF502403A
:103CF300EDC082C083E9540FF9906185E0696012D9
:103D0300E5C654804449F5C6E59E547F644970F87E
:103D1300E9F053C680E59E547F70FA0240ED74F7D4
:103D23001217E5E5A8FE53A87E120AE9C2BA539A10
:103D3300FEC289759B00C2C2120AEF75A91175B93B
:103D430005120AF5D2BA439A0174805E42A802466C
:103D53007AC082C083906181E4F0A30240EA75E9EE
:103D63000075910075BF0002011FC082C08390617E
:103D730081E4F0A374C0F0A3E40240ECC082C083EA
:103D830074F81217759003C412455CE84970030276
:103D93003E369003C4E05440602379088518828539
:103DA3001983AA82AB83120BF7851882851983AA1C
:103DB30082AB831208A39003C4E054BFF0E05480A5
:103DC3006010790C7A807B05120BF79003C4E054E2
:103DD3007FF0E0A2E050087900123E3E54FEF0E08E
:103DE300540260087901123E3E54FDF0E054046031
:103DF300087900123E4954FBF0E054086008790149
:103E0300123E4954F7F0E0541060087902123E491B
:103E130054EFF0E0542060087903123E4954DFF078
:103E2300A3E05401600D120B131208B59003C5E013
:103E330054FEF0740812178B0240ED120B011208A6
:103E4300A99003C4E022120B071208AF9003C4E049
:103E530022C082C083E9600514602A804F90619A72
:103E63007433F0A37455F09061A0743AF090055C3C
:103E7300E064017009C2919003C67467802D9003BA
:103E8300C67461802690619A743FF0A3745AF090CF
:103E930061A0747FF090055CE064017009D2919099
:103EA30003C6747180059003C6746AF00240EDC0C6
:103EB30082C083E9600B14600D14600F14601180DD
:103EC300209022CC80159022CD80109022CE800BA2
:103ED30090055CE0640160F39022CFE493906186E7
:103EE300F00240ED74EE1217E574F412177585189D
:103EF30082851983AC82AD837583927582E37404E2
:103F03001216889022CC93F46003024079907808CB
:103F1300E0C39402500302405974041217C1AC82E7
:103F2300AD837583927582607408121688F97AFFDF
:103F33007BFF7FFF7E008982858210801874086E64
:103F4300700302400E74096E700302400E740A6E11
:103F5300700302400EE510C333FCE433FD74041216
:103F630017C1E5822CF582E5833DF583E0F50EA3C9
:103F7300E0F50F8E08750900740278081217627451
:103F8300482508FC74783509FD8C828D83780812E6
:103F9300162D7408780812156E85080C85090D8C8A
:103FA300828D83780812162D7418780812156EE521
:103FB3000C4508F508E50DF509C3E50E9508E50F71
:103FC30095098C828D83780812162D8C828D8378C7
:103FD3000812162D74187808401412156EE50C4556
:103FE30008FCAD0DE50EC39CFCE50F9D800F12157B
:103FF3006EE50C4508C3950EFCE50D950FFDC3EC6E
:104003009AED9B5006ECFAEDFBEEFF0EEEC3941314
:104013005003023F4074FF6A700374FF6B602D8F7F
:1040230008740278081217627448124D08747835C0
:1040330009F583780812162D851882851983E58280
:104043002510F582E583124A95E508F009E9C39442
:10405300045003023F3175080175090078081219ED
:10406300F874021217C1AC82AD837AB37B081210C5
:10407300EF740212178B740C12178B7F0A0218B796
:10408300C082C083906186E0F89022CFE493687089
:10409300099022CEE493906186F09061AE7468F04B
:1040A300A3746AF090624574FBF0A304F053F4FD2B
:1040B30043FE0290055C7401F09061A0E0643A70E5
:1040C30004790080027901120B010240EDC082C025
:1040D3008390050EE06401700A900513E060047993
:1040E3000C800279008003F0A3F0D083D082020118
:1040F3001FC082C08375E1F1900511E0604D14602B
:10410300081460511460498051120B25900507E093
:10411300F97A087B05120D779092E712164B120D70
:10412300AD9092D312164B120D83900512E0F91243
:104133000D8F7901120DE9900505E02416124282D4
:10414300743DF0A3740BF07900809F120B2B80BC9D
:10415300120B3180B7120B3780B2791280EB74F4F3
:104163001217E575D90D9004F6E0A2E0E4331313BA
:10417300F81241EE484401F5D9780012426C40FB35
:104183007800880874F7124D08740412427640F2DE
:1041930075E1959004F6E0F97AF77B04120D7D90B2
:1041A3000BC274B3F0A3740A1242911242B11242C9
:1041B300A81243E91241F8780812162D9092EB7871
:1041C300081215B99092DB780812160712427C7810
:1041D3000812163C900505E024141242827413F071
:1041E3009003C27402F07F040218B7900507E0C47D
:1041F300333354C022900505E0F8A3E0F5838882A9
:10420300A3A32274F61217E51243BA8AD9780012CF
:10421300426C40FB7800800612432012446CE8C3D2
:104223009940F51243AC12426C40FB7800800812AF
:104233004D04740512446CE8C39940F375E19590FD
:104243000BC274BFF0A3740A12429112429B12165E
:104253004B12427C121657900505E0241412428239
:104263007412F09003C2024657880874082508F5B3
:104273008274051245C8940622900505E0240EF8C1
:10428300A3E0124289223400F988828983221243EF
:10429300D274B9F0A3740A221242B11242A8124393
:1042A300ED9092C322F0A374D1F0A3740A221242B8
:1042B300B5221242B922F0A37463F0A3740C2274E2
:1042C300F61217E51243151241EE4402F5D97800B0
:1042D30012426C40FB7800800612432012446CE8C3
:1042E300C39940F575E195900BC212432BF0A312CD
:1042F300432B12429E12164B12427C121657900504
:1043030005E024141242827414F09003C274040270
:104313004659900517E0F9740729F5D922880874DE
:10432300182508F58274052274CB124338124338DA
:10433300F0A3740A22F0A3740AF0A374CB2274F6D8
:104343001217E51243BA74064AF5D9780012426C83
:1043530040FB7800800612432012446CE8C3994066
:10436300F51243AC12426C40FB78008008124D04F6
:10437300740512446CE8C39940F375E195900BC240
:1043830074C5F0A3740A1243C812429B12164B124F
:10439300427C121657900505E024141242827415CC
:1043A300F09003C274030246599005371243187400
:1043B300044AF5D9780022124315900507E0C43367
:1043C3003354C0FA221243D27463F0A3740C221242
:1043D30043D6221243E37463F0A3740C1243E32223
:1043E3001242B9F0A3221243ED22F0900BD0746372
:1043F300F0A3740C1243D67463F0A3740C1242B589
:10440300F022C082C0831241F8A3A3A3A3E4024015
:10441300EA74F71217E5124F4AF8740339F9E824DE
:1044230005FAE93400FB8A828B83124CB9888289AE
:1044330083A3A3A3A3A3A3A3A3A3ECF0A3EDF08857
:10444300828983A3A3A3A3A3A3A3E024FFF8A3E0E8
:1044530034FFF98A828B83E8F0A3E9F002467A8875
:104463000874602508F5827405124BE0F5D908221B
:10447300EAFEEBFF9061D0E0F87480C398FAEE2473
:10448300832212448B940422124AA3E0F5D90AEA48
:10449300C32274F61217E5EAFEEBFF9061D0E070D9
:1044A3007575D90E75D90375D9047A008A08EE2576
:1044B30008125018248C12452E40F17A008A08EE17
:1044C3002508125018248412448540F175E195792A
:1044D30008EE248C124527248412451E7C008C820E
:1044E300AA82C3E49AF895E0F9EE28F8EF39F9E8DF
:1044F300248BF582E9124BDCC0E0EE2A125018241B
:10450300ABF582E9124A95D0E0F00CECC394084075
:10451300CD1245E48002790002465AFAEF3400FBDB
:10452300120BEB2212451E7904EE2212448B9408DF
:1045330022C082C08375D90275D90375D90575E187
:1045430095EA2470F582EB124559EA2472F582EB61
:104553001245F60240ED124AA612456022E0F8A386
:10456300E0F92274F61217E5EAFEEBFF900560749A
:10457300061245D21219F87C0179031248FE12176C
:104583008B75D90675D90378001245B840FB75E1E0
:10459300959003C2E064087017EE2470F582EF1261
:1045A3004559EE2472F582EF124A95E8F0A3E9F03B
:1045B300790102465A880874602508F58274051249
:1045C30045C8940522124AA6E0F5D908E8C322F0AB
:1045D30075086075090578082275E1957904120D4F
:1045E300B3EE2470F582EF124AA6124560EE2472F0
:1045F300F582EF124AA6E8F0A3E9F079012274F6F6
:104603001217E5EAFEEBFF9061D0E0704379019069
:104613000560740BF09003C2E064077017750860BF
:1046230075090578081219F87C0109091248FE1268
:10463300178B7905740129F5D975D903780080039F
:10464300124462E8C39940F875E1951245E480028B
:10465300790080037401F07F020218B774F7121710
:10466300E5EAFEEBFF75D90375D90375D90DEE2481
:10467300DE12467F1245DC7F010218B7F582EF1286
:104683004BE0F5D9227F030218B77401250AF5D947
:1046930075D90378002274F51217E512470E6004EA
:1046A300780480027800E8240BF8EAC39840417547
:1046B3000A099005607409F079081246F7601475C9
:1046C300086075090578081219F81248F612178B55
:1046D300750A0D12468D8003124462E8C3950A40A1
:1046E300F775E1957904120DB312487379018002CD
:1046F30079008091EE24E3FCEF3400FD7A617B05C1
:10470300120BE5850882850983E022124473F8EFD2
:10471300124CADF583E02274F31217E58A088B0976
:10472300124909FAE5082483F50AEB1247D8600415
:10473300780480027800E82408F8EAC3985003025A
:1047430047D1750C06900560740CF09003DFE09080
:104753000561F07402C0E0F97CE07D037A627B05B9
:10476300120BE5D0E0F97CE27D03120BE5850A82AA
:10477300850B83E0601C750A60750B05780A1219B6
:10478300F87C067903AA08AB091248FE12178B7549
:104793000C0A7401250CF5D975D9037800800988B2
:1047A3000A7460250A124468E8C3950C40F175E168
:1047B300957904120DB3E5082470F582E5091245D5
:1047C30059E5082472F582E5091245F6800279005D
:1047D3007F050218B73400F50B850A82F583E022C2
:1047E30074F61217E5EAFEEBFF124909FCEE248387
:1047F300F8EF12490460047A0480027A00EA240480
:10480300FAECC39A405E7A02900560EAF0EE24F572
:10481300F582EF12487F60197508607509057808FD
:104823001219F87C027903EEFA1248FE12178B7AFA
:104833000674012AF5D975D90378008003124462FE
:10484300E8C39A40F875E195EE247412486CEE249F
:104853008012486C1248737904120DB3EE240D12C2
:1048630045E78002790002465AF582EF1249EF22AA
:10487300EE241DF582EF1249EFA3F022124BE090D4
:104883000561F088828983E02274F61217E51249E4
:1048930009FEEA2483F8EB12490460047C048002D5
:1048A3007C00EC2404FCEEC39C40437C0290056036
:1048B3007407F0EA24F6F582EB12487F6015750859
:1048C3006075090578081219F879031248FE121762
:1048D3008B7C0674012CF5D975D9037800800312FB
:1048E3004462E8C39C40F875E19579018002790040
:1048F30002465A7C097903EEFAEFFB120C57740255
:1049030022124289E0229061D0E0F87480C3982299
:1049130074F51217E5E9FEA2AFE433F50AC2AF7FDF
:1049230000EA246FF8EB3400F980010F8882898351
:10493300E0FCEFC39C50188F08EA2508FCEB340019
:10494300FDEC246BF582ED124BDC6E70DE8010EA19
:104953002CFAEB3400FB124A8FEE12488504F0E583
:104963000AA2E092AF02468874F61217E5A2AFE4FA
:1049730033FFC2AFEA246FF8EB12501AFCE9FD8C47
:10498300828D83E014F07E0080218E08EA2508F8EA
:10499300EB12501A246CF582E9124BDCC0E0E824D8
:1049A3006BF582E9124A95D0E0F00E8C828D83E09C
:1049B300F8EEC39840D4EA246E124A9274FF124967
:1049C300E4EFA2E092AF02465AC082C083E5A8F8A2
:1049D300C2AF124A8FE91249E4E8A2E792AF02405C
:1049E300EDF0EA246AF582EB1249EF22124AA6E4BB
:1049F300F02274F21217E58C828D83A3A3A3A3E0A4
:104A0300541FF0EA2436124D518E828F83E4F0F561
:104A13000C850C8285820AEC250AF8ED124CA9F567
:104A230083E0C0E0EA250AF8EB124A99D0E0F0757A
:104A33000D00850882850983E0F50A750B00E50DF5
:104A4300780A121743E50AA2E0502AE50C33333300
:104A530054F8250DC0E08E828F83E0F8EA28F8EB46
:104A630012501A2438F582E9124A95D0E0F08E826A
:104A73008F83E004F0050DE50DC3940840B4050CE5
:104A8300E50CC39405408A7F060218B7EA246BF548
:104A930082EB124AA6223400F9E8245D124AA322CB
:104AA300F582E93400F5832274F61217E59003EEDC
:104AB300E0640170077A007B00024BD67E0090030E
:104AC300F4E070F17401F0A3E4F0A3F09004540453
:104AD300F0900457E4F0A3F090045A04F09003F725
:104AE300E4124BED90040104F0900427E4F090925B
:104AF300B712164B90040A12165790040EE4F0A353
:104B0300F0A3F0900472F0900466F090045B74805C
:104B1300F0A3E4F0900461F0900459F09004DD12E6
:104B23004BE59004E6F0900475F09004C5F0A3F013
:104B33009092B712164B9004C71216579092B71261
:104B4300164B9004CB1216579004D1E4F09004D383
:104B5300F09004CFF09004E9124BE58E08745D12D7
:104B63004D087404124A9574FFF00EEEC39404408A
:104B7300EA7E008E82A88274FD28F5827404124BAB
:104B8300DCC0E0744F28F5827404124A95D0E0F03B
:104B93000EEEC3940540DC7E008E82A88274D62874
:104BA300F5827403124BDCC0E074D528F5827404DB
:104BB300124A95D0E0F00EEEC3940840DC9003EE69
:104BC300E004F0640170089003F6E09003F0F07ADB
:104BD300F27B0302465AF582EF124BE022124AA6F9
:104BE300E022124BEDA3124BED22F0A3F0A3F0A3AE
:104BF300F022C082C083EA2403F582EB124BDC600F
:104C030008E4F09003EFE014F09003EEE014F0708A
:104C1300069003F074FFF08A828B83A3A3E4F090E1
:104C23000502E0700D9003EFE06401700579001256
:104C33000D950240EDC082C0839003F5E4F090032C
:104C4300F4F09003EEF0A3F0A374FFF075E1F1022A
:104C530040EDC082C083780079009003F5E06004E2
:104C630078F2790388828983A3A3A3A3E0F902409E
:104C7300ED74F61217E5EAFEEBFF120B9DEE2465C9
:104C8300F8EF124CA9124CB7EC4D60109003F012E0
:104C93004F42850882850983E4F0A3F0EEFAEFFB27
:104CA300120C8D02465A124CAD223400F988088941
:104CB30009888222F583E0FCA3E0FD2274F7121732
:104CC300E5EAFEEBFF8E828F83A3A3A3A3E0FA7B27
:104CD3000012091BEEFAEFFB120BAF120C6F024628
:104CE3007A74F61217E57800880874D6124D0874A2
:104CF3000312486F08E8C3940840ED9003D60246B8
:104D030057880874382508F5822274F61217E5EAE5
:104D1300240D124D51EC2403F8ED3400F988088971
:104D230009EC2407F8ED12501AFCE9FD124D5B1251
:104D330016EA8E828F83E8F0A3E9F0124D5B121618
:104D4300EA8B09EA45096003124D6E02465AF8EBF5
:104D53003400F9E8FEE9FF228C828D8312456085D9
:104D63000882850983E0FAA3E0FB228E828F83E029
:104D73002401F0A3E03400F02274F61217E5EA24CC
:104D83002EF582EB3400124CB7EA2470124D5178A1
:104D93000079FAECFAEDFB1216EA8E828F83E8F0C3
:104DA300A3E9F0780079FAECFAEDFB1216EA8B0925
:104DB300EA45096003124D6E02465A74F01217E574
:104DC300EAFEEBFF74101217C1780812162D120DAC
:104DD300478A0C8B0D8C0E8D0F9092F3780C121565
:104DE300B99092DB780C121607780C1219F48E82A4
:104DF3008F831241FB12164B121F69740412178B17
:104E0300E96003024EA68E828F83E02402F8A3E0BA
:104E130012501AFAE9FB8A828B8378081215CC9018
:104E230092DB780812162D8A828B83780812161A61
:104E3300EE240BF582EF124A95C082C0838E828FD7
:104E430083A3A3A3A3A3E02401F8A3E03400F9D030
:104E530083D082E0687003A3E06970047901804520
:104E6300EE2407F8EF124289124D72EE24741250A9
:104E73001F7014EE2475124EAD7003A3E06D70071E
:104E83008A828B83124D72EE248012501F7014EEAF
:104E93002481124EAD7003A3E06D70078A828B8369
:104EA300124D7279007F080218B7FAEF3400FB8ABB
:104EB300828B83E0FCA3E0FD88828983E06C22740B
:104EC300F31217E5124F4AFE740339FFEE2404F57B
:104ED3000AEF3400F50BEE2465F508EF3400F5090D
:104EE3008010124CB9850882850983E4F0A3F0127F
:104EF3004F3C850882850983124CB9EC4D6030EE36
:104F03002464124BD9F50C780C1219FCEE246312AD
:104F13004BD9F9EEFAEFFB120BD9740112178BE997
:104F230085088285098360BA12455CE84970077C6D
:104F3300007D00124F3C0247D3850A82850B83E034
:104F4300FA7B001208D9229003F0E0F875F004A46C
:104F5300C8AAF02AF974F2282274F21217E5EAFEBD
:104F6300EBFF890A740E1217C1E0FAEE24621250A5
:104F73001F6003025013124909F50CEE2483124BF0
:104F8300D9FB60047804800278008908E928F8E4F2
:104F930012501A24020808E93400F9E50C98E49940
:104FA300A2D265D0334065EA7005750B02800375A4
:104FB3000B01EB603375090078081219F87A607BEE
:104FC30005120C21740212178B7508607509057898
:104FD300081219F8AC0AA90B1248FA12178B7404B9
:104FE300250AF50A7C607D057401250AF5D9850B30
:104FF300D97800800A8808EC124D08ED12446CE859
:10500300C3950A40F075E19579008006790780021F
:1050130079FF024A8AF8EF3400F9E822F582EF12A9
:105023004BE0640122C082C0838003125056E9F82A
:1050330074FF28190470F4ECFAEDFB0240EDC08212
:10504300C0838003125056E9F874FF28190470F4E2
:105053000240ED8C828D83E08A828B83F08C828D7B
:1050630083A3AC82AD838A828B83A3AA82AB832280
:1050730074F41217E5E9FF7E008A088B0978081299
:105083001A3C00040D1952A650C350DC50F35010C3
:1050930051275148515F5172519B51B551C551DB55
:1050A30051F55174016F60030252158C828D83E0B8
:1050B300F8C394034003025215E8900C8A0251F29C
:1050C30074026F60030252158C828D831259AE9065
:1050D3000C8BE8F0A3E90251F274016F60030252F2
:1050E3001512523B4003025215E89007640251F235
:1050F30074016F60030252158C828D83E0F8C394B0
:10510300054003025215E89007650251F274016FDE
:10511300600302521512523B4003025215E89007F6
:10512300660251F274106F60030252157508108EF7
:105133000978081219F87A677B071211F7740212BB
:10514300178B02523774016F600302521512523BE0
:105153004003025215E89007770251F274016F6021
:10516300030252158C828D83E0900C8E0251F274EF
:10517300046F60030252158C828D83780812162DFA
:105183009092CB780812146050030252159007795D
:10519300780812163C025237EF7077120681E970D5
:1051A3000A1210837950121335806290080C74012F
:1051B300803D74016F705B12523B5056E890077844
:1051C300802D74016F704B8C828D83E0F8C3940A39
:1051D3005040E8900C8D801774016F70358C828D70
:1051E30083E0F874F928C3940A5027E8900C8FF0F1
:1051F300804274016F701B90080BE0F88C828D83E2
:10520300E090080BF0E8702CE0640170271210772F
:1052130080227E18801EC3EA9426EB9400501374F8
:10522300026F700E8C828D831259A812051FE9FE3E
:1052330080027E02EEF9800F8C828D83E0F8C394A6
:105243000222740E12178B7F040218B7A9080252A8
:105253004A74F01217E574B11217758C0A8D0B900E
:10526300929074201217DB7406121688742012179A
:10527300DB12102FE9FF745F1217C1E0F509EFC3CA
:10528300940A40030253D675F006EFA4F50874415F
:105293001217DB7A0E74202508F912132FE970090F
:1052A300744D1217C1E0FE80027E00900C8AE06408
:1052B300027005750E018003750E00740865097090
:1052C300047422800274212508F50D7C1B7D00796E
:1052D3000074261217D312120F74261217DB7A1BCF
:1052E300A90D12132FE9702D74401217C1E024F990
:1052F300C3940A5020E50EF50D780D1219FC74279E
:105303001217DBEEA2E0E433F9AA0AAB0B1205C1D4
:10531300740112178B7C147D007900740C1217D35F
:1053230012120F740C1217DB7A1074242508F91269
:10533300132FE970347C1079FF740C1217D31212F7
:1053430075E97025741C1217C1AC82AD837A04749D
:10535300252508F912132F740C1217DBEEA2E0E4D3
:1053630033F9AA0AAB0B1205A9AC18AD197A0C7460
:10537300702FF912132FE97049AA18AB1912105F95
:105383007F00EF75F003A4F8A9F0851882851983CF
:10539300E58228F8E583125B67125CD9601D888279
:1053A3008983A3A3E0F50E750F00780E1219F8AAEE
:1053B3000AAB0B120807740212178B0FEFC3940486
:1053C30040C0EEA2E1500C900763E0F9AA0AAB0BD0
:1053D30012080D740465097028900C8AE064027049
:1053E300207A00900777E060027A01900764E0601A
:1053F30004780480027800E84AF9AA0AAB0B120683
:10540300697900744F12178B7F080218B774F01272
:1054130017E574F0121775EAFEEBFF8C088D09751A
:105423000A0AE9600C14600914603B14607D02559C
:1054330006121071E9F50AC3940A4003025506E502
:105443000845097003025506750C06750D00780CA6
:105453001219F8EEFCEFFDAA08AB091211F774025A
:1054630012178B025506750C00750E06750F007822
:105473000E1219F8EEFCEFFDE50C75F00EA4F8A979
:10548300F0748528FA740739FB1212097402121793
:105493008BE9700B050CE50CC3940A506680CA8532
:1054A3000C0AE50AC3940A505A8049750C00AC18DB
:1054B300AD197A1075F006E50CA42423F912132F05
:1054C300E9701C7C1079FFAA18AB19121275E970E8
:1054D3000EEEFCEFFDAA18AB1912058BE9600B0564
:1054E3000CE50CC3940A501B80C4850C0AE50AC35F
:1054F300940A500FE50845096009AA08AB09A90AEF
:1055030012106BA90A741002540874F41217E58977
:105513000975081574FF6A700374FF6B70277E00AA
:10552300AC097A027B00EEF912104DE960037508AD
:10553300000EEEC3940A40E8E50960537A9B7B10A2
:10554300120A23804A120A058A0A8B0BAE0AAF0B92
:10555300EE4F60387C007D00EE2405FAE43FFB8EBD
:10556300828F83A3A3A3A3E0F912102FE9F9C394B5
:105573000A500CAC097A027B0012104D750800E545
:1055830009600CEEFAEFFB12109B800375081402FE
:10559300524F74F21217E5ECFEEDFF750815740E09
:1055A3001217C112599B74FF6A700374FF6B702149
:1055B300750900AC0AAD0BEEFAEFFBA90912105303
:1055C300E960037508000509E509C3940A503F80A3
:1055D300E2120A058A828B83E5824583602D7C0073
:1055E3007D00E5822405FAE43583FBA3A3A3A3E0AE
:1055F300F912102FE9F9C3940A5013AC0AAD0BEE5C
:10560300FAEFFB1210537508008003750814A908FC
:10561300025B2FC082C08390077DEAF0A3EBF0907A
:105623000763E0FC7D007A257B0012051F9007636A
:10563300E0F9120783D083D08202011F74EA1217A4
:10564300E574EC121775EAFEEBFFEE240CF514E497
:105653003FF5158E828F83A3858210858311EE24F7
:105663000AF50CE43FF50DEE2405F50EE43FF50FC6
:10567300EE2409F50AE43FF50BEE2403F508E43FB5
:10568300F5098E828F83A3A3E024FA700302597372
:1056930024FD7003025895147003025729146010F7
:1056A30024FD70030258781470030258C9025991FB
:1056B3001259B46049E0F58388821259AE880C8987
:1056C3000DE8450D6038851482851583E0F50E7865
:1056D3000E1219FCEE240BF582E43FF583E0F98505
:1056E3000A82850B831259A80A0A0AAB09850C8220
:1056F300850D831217E3740112178B025991850AE2
:1057030082850B83121A0F90077912164B1205BB71
:10571300740212178BE970030259917901850A8289
:10572300850B8302593F851082851183E060030254
:10573300585B850E82850F83E0A2E0400302585B2D
:105743007C0E7D007900AA18AB1912120FEE240803
:10575300F512E43FF513851282F5831260D9EA4B03
:105763006010750A06750B00780A1219F8EA2410FE
:10577300801B1260D3120A05EA4B7003025991751C
:105783000A06750B00780A1219F8EA2405FCE43BB3
:10579300FD74021217D31211F7740212178B850EC0
:1057A30082850F83E0A2E25004D2F08002C2F0A20D
:1057B300F0E433F8740C1217C1E048F0850C8285CD
:1057C3000D8312599BE50A450B6012E50A2410F577
:1057D30082E4350BF583780C12162D800C750CFFC3
:1057E300750DFF750EFF750FFFE50A450B70067506
:1057F3000A00750B00851282851383E0F512A3E07E
:10580300F513E51245137006751200751300780C35
:105813001219F4780A1219F878121219F8851482F9
:10582300851583121A0F8E828F83A31259A3740ACC
:105833001217D3121065740A12178B850882850913
:10584300831259AE90080DE8F0A3E9F07A017B00CA
:10585300900763E0F91212511259B470030259917F
:105863001259BF7003025991851082851183E0FCA0
:1058730079010259671259B470030259911259BF41
:105883007003025991851082851183E0FC7902022D
:1058930059677C007D00EE2404FAE43FFB8508820F
:1058A300850983E0F912102FE9F8C3940A40030233
:1058B3005991AC0CAD0D7A0475F006E8A42425F9D2
:1058C3001213290259911260D3900778E060079070
:1058D3000C8DE0F98069900C8AE070047905805F93
:1058E300120A058A0C8B0DA80CA90DE82404F50CEB
:1058F300E439F50D8E828F83A3A3A3A3A3A3A3E00F
:10590300A2E05040E8497003025991850C82850D4D
:1059130083E0FE602F850A82850B83E05410702498
:10592300740E1217DBE82405FAE439FBEEF91210C2
:105933002FE9701079038508828509831260D912D3
:1059430005B5804AAC0EAD0F850C82850D83E0F959
:105953001260D31210A71259B460331259BF602ECC
:105963007C0079001260D38E828F831217E3801E2E
:10597300120681E9701890080CE064017008121097
:105983008390080CE4F079501213351210777414D5
:1059930012178B7F0E0218B7E0F50AA3E0F50B226E
:1059A300A3A3A3A3A3E0FCA3E0FD22E0F8A3E0F9F3
:1059B3002290077DE0F8A3E0F9E84922E0F5838827
:1059C30082A3A3E0F8A3E0F9E8FEE9FFEE4F227417
:1059D300F41217E574F2121775EAFE8C0B75F006D4
:1059E300E9A42420F508AC18AD197A0EF912132F87
:1059F300E970487C0679FFAA18AB19121275E97091
:105A03003A740C1217C11259AEE8F509E50B60059B
:105A1300EE42098004EEF45209AA09E86A7001E92A
:105A23006015740C1217C1EAF0A3E4F0AC18AD19B9
:105A33007A0EA908121329790180027900025245CE
:105A430074F21217E574E6121775890A8A088B092E
:105A5300ECFEEDFF740C1217DB7A0E75F006E9A469
:105A63002420F912132FE96003025B287C0679FFD7
:105A7300740C1217D3121275E96003025B28747059
:105A8300250AF50BAC18AD197A0CF912132FE9603E
:105A930003025B24AA18AB1912105FE508450970CD
:105AA3001D7C0C7900AA18AB19121275E970727C6F
:105AB3000C7D007900AA18AB1912120F8051AC1893
:105AC300AD19AA08AB091210598A0C8B0DA80CA9A1
:105AD3000DE8497022EE4F604CAC18AD197A007B8B
:105AE30000121059EAF8EBF9EA4B6039888289838E
:105AF300E508F0A3E509F0125BA3FAEE6A7001EF83
:105B0300601FEEF04F700888828983E4F0A3F0AA47
:105B130018AB1912105FAC18AD197A0CA90B12133C
:105B230029790180027900741A12178B7F060218F3
