:020000040000FA
:06000000020107021DB61B
:03002B0002223975
:0300330002221B8B
:03003B000222534B
:030043000221BADD
:03005300021E2C5E
:03006B000221E08F
:03007B0002220658
:10008300021CA7E5C754F84401F5C7790122000013
:100093000080FB120086B900030200F1E4792178A5
:1000A30008B800028004F709D8FCE479297802B87B
:1000B30000028004F709D8FCE4900281785E790994
:1000C3008002F0A3D8FCD9FA7ADE7B0A9001377854
:1000D300F479038015E493A3AD82AE838A828B8384
:1000E300F0A3AA82AB838D828E83D8E9D9E7758288
:1000F300E3758399740312011975829175830074F2
:100103000012011975D00075813F751881751902A8
:10011300759F00020096C09FF59FE473D09F22D085
:1001230083D082C09FE493C0E0740193C0E0740263
:1001330093F59F22FF0000B4000028002800283018
:1001430075A000A000A000A00000080008E001F0D6
:10015300001000100010001000100010005000509C
:1001630000500010001000D0070000000000000F36
:100173000001000500307507001000010081FF0039
:1001830000FF280646062E06FF0202020802500060
:10019300A0000000E803022791010000139102234D
:1001A30091010000330B021D91010000B2020223F2
:1001B30091010000340B021B91010000C8020223CD
:1001C30091010000350B021991010000CA020223BC
:1001D30091010000360B022591080000CB02022397
:1001E30091010000370B023591010000380BFF012C
:1001F30000FF200227910100000D910223910100CD
:10020300009C0B0237910000000000021F910300C5
:10021300001803580C580C580C580C580C580C5810
:100223000C580C580C580C580C580C580C280F40F0
:100233000F220F020202020202020202010D00005B
:100243000010010227910100001091022391010087
:1002530000DD0B022F910100005B070223910100D7
:1002630000DE0B023191010000D18F0223910100C6
:1002730000DF0B0233910100009A8F0223910100EA
:1002830000E00B025391010000268F02239101002D
:1002930000E10B024391010000028F022391010050
:1002A30000E20B024191010000DE8E022391010066
:1002B30000E30B023F91010000148F022391010020
:1002C30000E40B023D91010000B68F02239101006F
:1002D30000E50B023B91010000E60B01E803053F3B
:1002E30010FFFFFF0001307503020106000000004C
:1002F30000000000000000000000000000000000FB
:100303000000000000000000FFFF0600800CE8036F
:100313000509544A4751051220032003020A00022B
:1003230001050302F0FF544A4751206261636B7079
:1003330061636B000000000000000090130000A246
:10034300139C1396130A436861726163746572693F
:100353007374696320310002436861726163746579
:100363007269737469632032000843686172616360
:100373007465726973746963203300104368617232
:10038300616374657269737469632034000243683E
:100393006172616374657269737469632035000205
:1003A30027910100001691022391010000EF0C0236
:1003B3004991030000CF0A022191010000F00C02D1
:1003C3002391010000010D024B91010000D00A02AC
:1003D3002191010000020D022391010000130D027F
:1003E3004D91020000D10A022191010000140D0277
:1003F3002391010000250D024F91000000D20A0253
:100403001F91030000D30A022191010000260D026F
:100413002391010000370D025191040000D90A0213
:100423002191010000380D120122D38B0312012206
:10043300EA8B03120122198C03120122528C03123C
:1004430001227A8C03120122A88C03120122BF8C91
:1004530003120122D68C03120122EC8C0312012217
:10046300138D03120122268D031201223C8D0312E8
:1004730001224F8D03120122748D03120122817513
:1004830000120122807600120122B57600120122A9
:10049300D67600120122E6760012012207770012B7
:1004A3000122137800120122E0780012012253790D
:1004B30000120122D979001201221C7A00120122B2
:1004C300537A00120122D97A00120122AB7B001267
:1004D3000122097C00120122217C001201229B7C53
:1004E300001201229E7C00120122A17C0012012233
:1004F300487D00120122607D00120122907D0012CE
:100503000122B07D001201229E7E00120122547F3F
:1005130000120122D2D902120122FAD902120122B7
:1005230028DA021201225FDA02120122C7DA02126A
:10053300012210DB021201225BDB0212012299DB92
:1005430002120122D6DB0212012204DC0212012272
:10055300ABDC02120122B5DC02120122C2DC021260
:100563000122F5DC02120122B7DD02120122C3DDF2
:1005730002120122DBDD02120122E5DD0212012259
:100583007D96031201228B9603120122A396031276
:100593000122BB9603120122DBAF0112012279B0C3
:1005A30001120122F1B00112012206B2011201224D
:1005B30040B201120122E9B201120122BEB30112BB
:1005C300012222B50112012279B50112012200B6DE
:1005D30001120122E7B60112012234B701120122EE
:1005E300C2B701120122E6B701120122BBB90112FF
:1005F3000122FCB9011201221EBA011201229FBA83
:100603000112012289BB011201224FBC01120122F6
:1006130077BE0212012249BF02120122F2BF021267
:10062300012235C002120122C2C0021201224EC1B0
:10063300021201222FC2021201225EC20212012201
:100643005AC302120122A2C302120122A4C402123B
:100653000122E8C4021201220EC50212012277FF11
:1006630002120122CFEE02120122E5EE0212012252
:100673000BEF0212012233F0021201223DF00212AB
:10068300012296F10212012296F20212012240CBBC
:100693000212012275CC02120122A8CC02120122FD
:1006A300F2CC02120122B0CE0212012256910112A3
:1006B3000122B99101120122FE92011201220E932D
:1006C300011201223193011201227C9301120122B2
:1006D300219401120122179501120122E1950112C1
:1006E30001225997011201229B9701120122399885
:1006F30001120122869801120122AC9801120122F3
:100703009A9A011201229F9A01120122809C0112DE
:100713000122D49C01120122369D011201225E9D09
:1007230001120122029E01120122C49E0112012222
:10073300F59E01120122F89E01120122409F01122F
:100743000122829F01120122E99F0112012221FD50
:100753000212012234FD021201224DFD0212012276
:1007630098FD0212012273FE0212012202FF0212FD
:1007730001224DFF02120122C82200120122D422BB
:10078300001201220D230012012252230012012222
:100793000924001201228F2400120122F4240012E2
:1007A30001222025001201225925001201226D2762
:1007B30000120122492900120122342B00120122C6
:1007C3006B2C00120122CB2E00120122B72F001234
:1007D3000122FD30001201220A32001201222732C7
:1007E300001201225F32001201227932001201222B
:1007F300E132001201227B37001201221C38001261
:1008030001226D3800120122943800120122E238CD
:100813000012012200390012012254390012012270
:100823002D3A00120122B43B001201223C3C00127B
:10083300012228D50212012232D502120122FDD54E
:100843000212012218D6021201223ED602120122FE
:1008530082D602120122BAD602120122E3D6021272
:1008630001225CD70212012271D70212012286D71C
:1008730002120122BDD702120122D1D70212012294
:1008830002D8021201223CD80212012268D80212B5
:100893000122BED80212012212D9021201225BD90F
:1008A3000212012285D902120122AAD902120122BF
:1008B300E3EA02120122ADEB0212012290EC0212D2
:1008C300012206ED0212012248ED0212012275EE09
:1008D3000212012200800212012229800212012247
:1008E30042800212012287810212012265820212D2
:1008F30001228482021201221183021201225483F3
:1009030002120122A1840212012240850212012255
:10091300BF87021201225688021201222A8902127B
:1009230001220C8A02120122788B021201220B8C03
:10093300021201226C9303120122D59303120122A6
:100943002994031201225094031201227ADE021227
:100953000122E7DE0212012232DF0212012227E026
:100963000212012223E1021201220DE202120122EC
:10097300269F02120122689F0212012242A0021244
:1009830001221BA10212012216A202120122F5A2C8
:100993000212012261A30212012228A402120122DF
:1009A30093A402120122FAA40212012225A5021223
:1009B300012296A50212012229A60212012292A661
:1009C30002120122A7A602120122EFA6021201229D
:1009D30008A7021201226DA70212012270A70212B8
:1009E3000122008003120122288003120122668063
:1009F300031201222481031201228F810312012297
:100A0300AB8103120122D381031201220382031259
:100A130001221282031201228C8203120122B2826A
:100A230003120122B3A00112012250A201120122DA
:100A330036A40112012200A50112012247A50112C9
:100A430001228EA501120122A0A501120122E0A517
:100A5300011201220FA6011201225BA6011201223B
:100A630093A601120122C1A60112012212A70112AB
:100A73000122A1A7011201228FAA0112012269AC4E
:100A830001120122A5AC01120122FFAD01120122C4
:100A930046AE01120122BBAE0112012209AF0112BF
:100AA300012240AF01120122239602120122409635
:100AB30002120122DA9B02120122DC9C02120122A1
:100AC300569E02120122049F02120122A33C00122D
:100AD3000122EC3C00120122193D001201224C3D7F
:100AE30000120122593D00120122653D001201222C
:100AF300773D001201224C3E00120122AA3E001251
:100B03000122DF3E001201227B4000120122C84075
:100B130000120122EC40001201225941001201226D
:100B2300FE4100120122BA4200120122394300128F
:100B33000122FD43001201220C44001201228D44C4
:100B4300001201222C45001201225E4500120122EF
:100B5300F945001201225746001201229146001264
:100B63000122124700120122DB47001201228448AE
:100B7300001201220B4900120122634900120122D3
:100B8300C44900120122ED4900120122A34A0012B6
:100B93000122ED4B00120122304C001201224D4C78
:100BA300001201226C4C00120122B74C00120122E8
:100BB300DC4C00120122054D00120122744D00127B
:100BC3000122B64D00120122BA4E00120122544FE7
:100BD300001201222050001201223950001201227A
:100BE300828C02120122D58C02120122E18C0212A4
:100BF3000122B68D02120122DD8D02120122188E0E
:100C030002120122848E02120122B88E02120122E4
:100C1300F18E02120122098F02120122628F021247
:100C230001227B8F02120122C48F02120122D78F6D
:100C330002120122F18F02120122079002120122F5
:100C43002391021201223492021201228193021291
:100C53000122669402120122BD2200120122B9E789
:100C630001120122EDE70112012258EB01120122C8
:100C7300A2EC011201226CED01120122F6EE011227
:100C83000122D1EF011201220BF0011201222EF0F9
:100C93000112012270F00112012279F001120122E6
:100CA300C3F001120122CDF00112012279F10112E8
:100CB30001224DF201120122A1F20112012203F3DA
:100CC3000112012256F30112012285F301120122BE
:100CD300C4F3011201223163001201228B6B001253
:100CE3000122916B001201224C7100120122327514
:100CF30000120122D3F90212012249FA021201223F
:100D03005FFA021201229CFA02120122D4FA0212A1
:100D1300012251FB021201228CFB0212012207FC69
:100D23000212012243FC021201224CFC0212012294
:100D330058FC0212012272FC0212012297FC0212D9
:100D43000122ADFC02120122F1FC0212012266D043
:100D53000212012279D00212012293D0021201223F
:100D6300BCD002120122FFD0021201223ED1021294
:100D730001227CD102120122E1D102120122F6D119
:100D83000212012201D2021201220ED20212012208
:100D930025D20212012233D2021201223ED20212C2
:100DA30001224AD2021201225DD20212012268D22A
:100DB300021201228BD20212012234D30212012227
:100DC30044D3021201225ED3021201227BD3021208
:100DD300012297D302120122BCD302120122C6D3ED
:100DE30002120122DAD302120122F9D302120122E2
:100DF3005AD40212012260D40212012266D40212D2
:100E030001226CD40212012278D402120122ABD443
:100E13000212012207CD0112012289CD0112012202
:100E230032CE011201227ACF0112012288D101129E
:100E330001226ED201120122A3D201120122C5D2D4
:100E4300011201226ED3011201223ED501120122A9
:100E530067D501120122DFD50112012211D6011239
:100E630001221ED60112012269D6011201228DD65A
:100E730001120122DED801120122E8D90112012256
:100E830044DA0112012284BE0112012295BF01122C
:100E9300012279C00112012283C001120122A5C0DF
:100EA30001120122B1C00112012255C20112012215
:100EB30082C20112012298C301120122EDC3011261
:100EC30001223CC50112012211C6011201226DC685
:100ED30001120122D8C6011201220DC701120122FB
:100EE30050C7011201221ACA0112012232CA011289
:100EF3000122C3CA01120122D1CA011201221ECB4F
:100F0300011201222CCB0112012298CB01120122E2
:100F130013CC011201226ACC011201229FF40112A7
:100F23000122C1F401120122D2F60112012291F928
:100F330001120122BBFA0112012279FB01120122E3
:100F430065FC011201221A8A031201223F8A03124D
:100F53000122B58A031201225AB70212012263B792
:100F6300021201226CB70212012244B802120122BA
:100F7300F5B90212012225BA0212012250BA021255
:100F8300012280BA02120122ABBA02120122DFBA95
:100F9300021201220BBB021201224EBB02120122DA
:100FA30079BB02120122C0BB0212012215BC02123C
:100FB300012257BC02120122B1BC02120122DCBC85
:100FC300021201222BBD021201225BBD0212012279
:100FD30086BD02120122B4BD02120122D7BD021244
:100FE30001229D9803120122C99803120122F69847
:100FF3000312012200990312012210990312012204
:10100300FA82031201221F83031201224A8303126D
:1010130001227F9A031201226B50001201224C52CB
:101023000012012208540012012205550012012268
:101033008D55001201220E5600120122375600125E
:1010430001228756001201221A5A001201228B5ADA
:10105300001201227C5B00120122B65B0012012206
:10106300F65B00120122295D001201227C5D001251
:101073000122C55D00120122335E00120122655E6A
:10108300001201227F5E00120122715F0012012211
:10109300815F001201222761001201223E610012CA
:1010A3000122706100120122F262001201225497A0
:1010B30003120122659703120122369A03120122B9
:1010C300759A03120122E9FF011201220398031208
:1010D30001221398031201222B98031201229398E1
:1010E30003120122819403120122059503120122A6
:1010F3006D9503120122A09003120122C6900312E0
:101103000122309103120122839103120122DC9107
:1011130003120122A0F202120122BAF202120122E8
:1011230033F30212012208F402120122DAF5021249
:101133000122CFE2021201225FE302120122DDE368
:101143000212012261E402120122F3E402120122DB
:10115300AFE5021201227CE60212012286E60212A8
:10116300012295E602120122ABE602120122BEE63B
:1011730002120122C8E602120122DBE60212012258
:10118300158F031201223E8F03120122678F031270
:1011930001220190031201221990031201225B9094
:1011A3000312012278AF0212012282AF021201223E
:1011B300C2AF021201220BB00212012245B0021289
:1011C30001229BB002120122BAB00212012242B3E1
:1011D300021201224BB3021201229CB3021201221A
:1011E300C5B302120122CFB30212012240B402128C
:1011F3000122CEB40212012223B50212012252B5FA
:1012030002120122CEB5021201220BB602120122F2
:1012130042B60212012254B60212012273B602121E
:1012230001227CB6021201222EB702120122868D00
:1012330003120122D68D03120122488E03120122CA
:10124300B08E03120122DE850312012208860312E7
:101253000122CF8603120122AB8703120122869556
:10126300031201221E880312012254880312012251
:10127300878803120122E089031201221A990312BB
:1012830001223099031201223A990312012284990F
:101293000312012294A70212012251A80212012271
:1012A3008CA802120122BDA8021201221FA9021258
:1012B30001226BA902120122D6A90212012250AA0D
:1012C300021201224FAB02120122D6AC02120122FA
:1012D30059AD02120122BFAD02120122D2AD021298
:1012E3000122CDAE021201221AAF02120122DEE662
:1012F30002120122F4E60212012298E702120122ED
:10130300D7E702120122F4E70212012225E80212B2
:10131300012272E802120122A6E802120122E1E888
:1013230002120122D6EA0212012291DA01120122EB
:10133300C8DD0112012244DF011201229BDF0112E9
:101343000122B8DF0112012236E001120122B3E1CA
:101353000112012297E20112012246E60112012243
:1013630016E701120122179203120122259203129A
:101373000122909203120122CE9203120122EC92D7
:101383000312012283C502120122C5C702120122E0
:10139300BFC8021201222DCA0212012293CA0212ED
:1013A3000122E5CA021201223FF60212012284F64B
:1013B30002120122A1F60212012257F702120122A0
:1013C300AAF70212012281F8021201229AF90212EB
:1013D3000122BDFF01120122BF7F00120122C69A22
:1013E30003120122EF9A03E066701008A3E066700F
:1013F3000A08A3E066700408A3E06622C3E7960820
:1014030009E7960809E7960809E79622C3E09608D4
:10141300A3E09608A3E09608A3E09622C008C3E0E1
:1014230096F50808A3E096420808A3E09642080848
:10143300A3E09645087001D3D00822080808EAC043
:10144300E0EBC0E086F0E7A4FA180986F0E7A42AE7
:10145300FA180986F0E7A42AFA180986F0E7A42AFD
:10146300FA1986F0E7A4FBE5F02AFA190886F0E7F3
:10147300A42BFBE5F03AFA190886F0E7A42BFBE569
:10148300F03AFA18180986F0E7A4C5F02BFBE43A02
:10149300FA1908E7C5F0C6A426F6E5F03BFBE43AE3
:1014A300FA1886F0E7A4F6E5F00826F6E43B08F61A
:1014B300E43A08F6D0E0FBD0E0FA22E4CFC0E0E45F
:1014C300CEC0E0E4CDC0E0E4CCC0E075F020E62679
:1014D300F608E633F608E633F608E633F618181886
:1014E300EC33FCED33FDEE33FEEF33FFC3EC970932
:1014F300ED9709EE9709EF97191919400FFFEC972C
:10150300FC09ED97FD09EE97FE191906D5F0BFEC1E
:10151300F709EDF709EEF709EFF7191919D0E0FC10
:10152300D0E0FDD0E0FED0E0FF226016080808C638
:10153300C313C618C613C618C613C618C613C6D512
:10154300E0EA227009080808226016181818C6C3B2
:1015530033C608C633C608C633C608C633C6D5E085
:10156300EA22E627F60809E637F60809E637F60819
:1015730009E637F622E026F608A3E036F608A3E0EC
:1015830036F608A3E036F622E026F008A3E036F0AC
:1015930008A3E036F008A3E036F022C3E697F60886
:1015A30009E697F60809E697F60809E697F622C3CF
:1015B300E096F008A3E096F008A3E096F008A3E015
:1015C30096F022E056F608A3E056F608A3E056F696
:1015D30008A3E056F622E056F008A3E056F008A36D
:1015E300E056F008A3E056F022E0F608A3E0F60880
:1015F300A3E0F608A3E0F622E6F008A3E6F008A3CA
:10160300E6F008A3E6F022E0FAA3E0FBA3E0FCA3E4
:10161300E0FD22EAF0A3EBF0A3ECF0A3EDF022E06F
:10162300F8A3E0F9A3E0FAA3E0FB22E8F0A3E9F0D2
:10163300A3EAF0A3EBF022CAC0E0E6F0A308DAFACB
:10164300D0E0FA22CAC0E0E0A3C582CCC582C5833C
:10165300CDC583F0A3C582CCC582C583CDC583DA4E
:10166300E6D0E0CA22C3E498F8E499F91216A980F7
:1016730026C3E49AFAE49BFBE920E7E91216A9E4FE
:1016830098F8E499F922C3E498F8E499F91216A9B1
:10169300E498F8E499F9C3E49AFAE49BFB22EB207B
:1016A300E7CFE920E7E0B90010BB0008E88AF0843F
:1016B300F8AAF022E4FBC8FA22EB70227B10C833AD
:1016C300C8C933C9335007C39AC3DBF280069A50A3
:1016D300012ADBEAC833F4C8C933F4C9FA2275F026
:1016E30008E4C833C8C933C933C99AC99B5004C96C
:1016F3002AC93BD5F0ECFBC833F4C8E4C9FA22602D
:101703000D08C6A2E713C618C613C6D5E0F32260B8
:101713000C08C6C313C618C613C6D5E0F42270045A
:1017230022600D18C6C333C608C633C6D5E0F41805
:1017330022251810AF08F518400C15198008F51864
:1017430040021519D2AF2200C0D0251810AF08F5FA
:1017530018500C05198008F51850020519D2AFD09E
:10176300D0222518F58210AF08F518400C15198002
:1017730008F51840021519D2AF85198322C58225B1
:1017830018C582C583351910AF07F51985821880EE
:1017930007F519858218D2AFC583222518F582E48F
:1017A3003519F583222518F8E43519F9222518FA95
:1017B300E43519FB222518FCE43519FD22E47325D1
:1017C30018C582C0E0E51934FFC583C0E0E518C33E
:1017D300958224F810AF08858319858218800885BF
:1017E3008319858218D2AFCEF0A3E520F0A3780841
:1017F300E608F0A3DEFAEFF0A3E58124FAF8E608A1
:10180300F0A3E608F0A3E608F0A30808E608F0A3AF
:10181300E608F0A315811581D0E0FED0E0F815812C
:1018230015811581E8C0E0EEC0E0222518C582C00D
:10183300E0E51934FFC583C0E0E518C3958224F9B8
:1018430010AF0885831985821880088583198582DE
:1018530018D2AFCEF0A3E520F0A37808E608F0A3F2
:10186300DEFAEFF0A3E58124FBF8E608F0A3E6082F
:10187300F0A30808E608F0A3E608F0A31581158194
:10188300D0E0FED0E0F815811581E8C0E0EEC0E0BD
:1018930022851983851882E0A3FEE0A3F52078084A
:1018A300E0A3F608DFFAE0A3FFE0A3C0E0E0A3C0F3
:1018B300E0E0A3C0E0E0A3C0E0E0A3C0E010AF0815
:1018C3008582188583198008858218858319D2AF8C
:1018D300D083D08202011F851983851882E0A3FE7D
:1018E300E0A3F5207808E0A3F608DFFAE0A3FFE021
:1018F300A3C0E0E0A3C0E0E0A3C0E0E0A3C0E01029
:10190300AF08858218858319800885821885831915
:10191300D2AFD083D08222C0D02518C582C0E0E5E3
:101923001934FFC583C0E0E518C3958224F310AFD3
:10193300088583198582188008858319858218D2C2
:10194300AFC8F0A3E9F0A3EAF0A3EBF0A37908E7AB
:1019530009F0A3D8FAECF0A3EDF0A3EEF0A3EFF0B7
:10196300A3D0E0F0A3D0E0F0A3D0E0F0A3E520F013
:10197300A3E5F0F0A322851983851882E0C0E0A3D4
:10198300E0F9A3E0FAA3E0FBA37808E0F608A3DFFD
:10199300FAE0FCA3E0FDA3E0FEA3E0FFA3E0C0E0C8
:1019A300A3E0C0E0A3E0F5D0A3E0F520A3E0A3F516
:1019B300F010AF08858319858218800885831985FF
:1019C3008218D2AFD082D083D0E0F8D0E032740452
:1019D3008006740280027401C0E0F404121765D01B
:1019E300E012163A227404800474028000CCC0E032
:1019F300EDC0E0E518C39CCCAD1950011D10AF0636
:101A03008C188D1980068C188D19D2AF121647D0F9
:101A1300E0FDD0E0FC22D083D082E9C0E0E493A3D0
:101A2300C386F0C5F095F0F908E493A386F0C5F0FA
:101A330095F0700BE493A3C3994005E9048002A3D6
:101A4300E475F002A42582F582E5F03583F583D0B1
:101A5300E0F9E493A3C0E0E493C0E022D083D08212
:101A6300ECC0E0EDC0E0E493A3FCE493A3FDED4CF4
:101A7300600D121AABEC24FFFCED34FFFD80EFE4A4
:101A830093A3FCE493A3FDED4C600D121AEAEC243E
:101A9300FFFCED34FFFD80EFD0E0FDD0E0FCE493EC
:101AA300A3C0E0E493C0E022C0E0C3E493960874CB
:101AB30001939618400FE4936670080874019366C7
:101AC3001870007019A3A3C3E49396087401939646
:101AD30018A3A3400DD0E0D0E0D0E0021A9BA3A34B
:101AE300A3A3A3A3D0E022C0E0C0F088F0E49366F0
:101AF30070080874019366187000A8F0A3A3700B14
:101B0300D0F0D0E0D0E0D0E0021A9BA3A3D0F0D075
:021B1300E022CE
:101B180074F512182EEAFEEBFFEE2434F8EF3400C9
:101B2800F988088909EE2435121C50F8EE2437127A
:101B38001C50F50AEC850AF0A4FCAAF0850AF0ED21
:101B4800A42AFDE82CF8E43DF97A257B001216A9B1
:101B5800EA850882850983F05407F87401B8000201
:101B68008004C333D8FCC0E0E0131313541FF8EE0D
:101B780028F8EF3400F9E8245DF582E93400F583AC
:101B8800D0E0F8E0586008850882850983801DEE5A
:101B98002436121C50F5F0EA84A8F0EE28F8EF3449
:101BA80000F9E82438F582E93400F583E0F97F0488
:101BB8000218DA74F512182EEAFEEBFFEE2434123E
:101BC8001C50C0E0EE2435F582EF3400F583D0E0F8
:101BD800F08E828F83A3A3A3A3A3E0FAA3E0FB8ED6
:101BE800828F83A3A3A3A3A3A3A3E0FCA3E0FDEC9C
:101BF800C39AF50AED9BF50BEE2480F508EF340047
:101C0800F509850882F583E06401702BEE2481F5DF
:101C180082EF3400F5831219EC121C597402121762
:101C28004AE960137CFD7D04EEFAEFFB120B868512
:101C38000882850983E4F0AC0AAD0BEEFAEFFB12DB
:101C48001B181221AC021BB6F582EF3400F583E0B5
:101C580022C082C083851882851983E0F8A3E0F941
:101C6800C3EA9CEB9D5012C3EC98ED994019C3EA66
:101C780098EB99501279018010C3EA98EB9940F5D6
:101C8800C3EC98ED9950EE7900D083D08222EAC354
:101C98009CFAEB9DFB2200008521878522C622C085
:101CA800E074EF12191A759B00906182E0A2E64079
:101CB80003021D68E591A2E64003021D687591BF05
:101CC8009003C2E064057008120D24120D308003E1
:101CD800120D2A752100120D96E99003C3F07900C0
:101CE800120D8A120AF07A017B009003C1E0F91202
:101CF8001204907803E064426003021DB190055F0E
:101D0800E014F06003021DB1C2AF121D1500782A5D
:101D1800D0E0F618D0E0F6E59F5407F970059090EA
:101D2800D180039090D578081215ECE9C4C0E0780A
:101D380029E65508F50808E65509F509740B7808E9
:101D4800121712D0E02508F8906270E0A2E740F878
:101D5800E8C333906272F0906270E0D2E0F080499C
:101D6800E0A2E55024E591A2E5501E7591DF9003AD
:101D7800C2E0640D70139003E4E004F0642870027C
:101D8800E4F07A00E0F9120E08906181E0A2E350D5
:101D980009E5E9A2E3500375E9F7A3E0A2E75009D2
:101DA800E591A2E7500375917F7F04021979C0E09D
:101DB800C0D0C082C083906183E0A2E05009E5BF33
:101DC800A2E0500375BFFEE0A2E15009E5BFA2E121
:101DD800500375BFFDE0A2E25009E5BFA2E250033F
:101DE80075BFFBE0A2E35009E5BFA2E3500375BF4E
:101DF800F7E0A2E45009E5BFA2E4500375BFEFE0A5
:101E0800A2E55009E5BFA2E5500375BFDFE0A2E6F1
:101E18005009E5BFA2E6500375BFBFD083D082D07A
:101E2800D0D0E032C0E074F212191AE5A7A2E4504B
:101E38000FE5A1A2E4500953A7EF75A1EF121E8088
:101E4800E5A7A2E5500CE5A1A2E5500653A7DF756A
:101E5800A1DFE5A7A2E15009E5A1A2E1500375A120
:101E6800FDE5A7A2E2500CE5A1A2E2500653A7FBAC
:101E780075A1FB7F0102197974F812182E752101DA
:101E88009003C2E0640670077A007B00120D0CA272
:101E9800AFE433FED2AF9003C8E0640170187A2033
:101EA8007B009003C1E0F91213127A207B009003A3
:101EB800C1E0F912120A906182E0D2E6F090055E64
:101EC800E0602185C62280169003C7E0640170088F
:101ED800E5C654F84405F5C653BEFC121CA07401AF
:101EE800652160E4EEA2E092AF7F010218DA0000FB
:101EF8008E238F24858228858327851882851983D8
:101F0800E0CEA3E0CF852882852783EBC9EAC8ED18
:101F1800CBECCA75F010C3E833C8E933C9EA33CA51
:101F2800EB33CBC3EA9EF526EB9FF525B35004AB04
:101F380025AA26EC33CCED33CDD5F0DAAE23AF2489
:101F48002274F112182E8A088B098C0A8D0B740FD3
:101F580012179E780C1215EC9090A178081215C6ED
:101F68009090A1780C1215C67808790C1213FF50BE
:101F7800157808790C12159E9090B1780812141FE4
:101F8800401579018013780C790812159E9090B14C
:101F9800780C12141F40EB79007F080218DA74EDF0
:101FA80012182E8A088B098C0A8D0B741312179E2F
:101FB800780C1215EC9090A178081215C69090A193
:101FC800780C1215C6780C79081213FF401178089E
:101FD800790C12159EAA08AB09AC0AAD0B802275C4
:101FE80010007511007512007513017810790C1224
:101FF800159E78107908121565AA10AB11AC12ADB0
:10200800137F0C0218DA9090A178081215EC8A82D6
:102018008B8378081215D97F040218DA74F5121820
:102028002E8C828D8378081215EC8A828B8378082F
:102038001215B2122078C3E098F0A3E09912206A32
:10204800401E9090E178081215EC8A828B837808FC
:1020580012158B8E828F83E02420F0A3E0344EF09B
:1020680080A4F08E828F83C3E09420A3E0944E2254
:10207800EA2404F8EB3400F9E8FEE9FF8C828D834A
:10208800A3A3A3A3E0F8A3E0F98E828F832274F5BB
:1020980012182EE9FE900514E0FAA3E0FBEEC33314
:1020A800F8E433F9745B28F582748F39F583E02AF4
:1020B800F508A3E03BF50978081219D59090BD12F0
:1020C800160A121EF8740212174A8A088B098C0A1B
:1020D8008D0B7410780812152DAA08AB097F04021D
:1020E80018DA74F112182E8A0C8B0D8C0E8D0F7461
:1020F8000F12179EE0FAA3E0FB741112179EE0F589
:1021080008A3E0F509741312179EE0FEA3E0FF7818
:10211800081219D5EA2401F508EB3400F509E4F5AD
:102128000AF50B780C790812143E9090D9780812A9
:1021380015EC780C790812143EAA0CAB0DAC0EAD58
:102148000F121EF8740212174A8B09EA4509600437
:102158007A0180027A00EC2AFCED3400FDECF8EDFF
:10216800F97A717B021216A988088909E4F50AF53B
:102178000B8E828F8378081215FBECF8EDF97A71D3
:102188007B021216A98A088B097405780812172190
:102198008E828F83A3A3A3A3E508F0A3E509F07FAC
:1021A800080218DAC082C083E9906000F0D083D0BA
:1021B8008222C0E074F212191AA2AFE433FED2AF41
:1021C800C2C0E5D1A2E4500653D1EF12117AEEA2B3
:1021D800E092AF7F01021979C0E074F212191AA2D5
:1021E800AFE433FED2AFE589A2E1500312110E75B8
:1021F8008900C2C5EEA2E092AF7F01021979C0E062
:1022080074F212191AAEA8D2AF12110EC2EBEEA2D6
:10221800E780E4C0E074F212191AA2AFE433FED2E8
:10222800AFE58BA2E0500312110E758B00C2E88057
:10223800C3C0E0C0D0E8C0E0A8A8D2AFC2C7E8A237
:10224800E792AFD0E0F8D0D0D0E032C0E0C0D0E81C
:10225800C0E0E9C0E0EAC0E0EBC0E0C082C083A211
:10226800AFE433F9D2AF9009E7E0F8A3E06870086B
:10227800539AFBA374018022C2E99009E7E0F8743D
:102288000128F0746728F582E43409F583E0F5C184
:102298009009E7E0C394804002E4F0E9A2E092AF3D
:1022A800D083D082D0E0FBD0E0FAD0E0F9D0E0F8DB
:1022B800D0D0D0E03202011FFFFFFFFFFFFFFFFF7A
:1022C800C082C083E9900B9BF002254C74F712176B
:1022D800C2E99002E0F07C187D037AFF7BFF1208C8
:1022E800089002E174FFF0A3F0A3E4F0A3F07905ED
:1022F8001207909002E0E0F91206B87A267B0812DD
:1023080009E802325A74F41217C28A088B09EB548E
:102318008060309002E0E0F91211EC8A0A8B0BAE73
:102328000AAF0BEE4F60138E828F83E064B07003A8
:102338001207A8EEFAEFFB1211DAAA08E509648081
:10234800FB80047A007B0002251B74F21217C2740A
:10235800FC121734EAFEEBFF741212179E12374173
:10236800EE4F70030223F5740212179EEEF0A3EFEE
:10237800122756ECF0A3ED122756AA82AB83120659
:10238800B2E9F50A706AE508450960648E828F83B0
:10239800123727EE4F60567A067B001212708A0CAD
:1023A8008B0DA80CA90DE8497005750A13804188A2
:1023B800828983E4122402EEF0A3EF123752E50873
:1023C800F0A3E509F09002E61224899002E6700570
:1023D800123204801B1231F28003EAFCEBFD8C827E
:1023E8008D8312248970F38C828D8380E3750A02B1
:1023F800A90A740412174A023941F0A31236F8A345
:102408002274F21217C2890AE975F017A4FEAFF018
:102418009002E5E4F09002E3122489600A12127631
:102428009002E3E4F0A3F0EEFAEFFB1212708A08D0
:102438008B09EA4509602FEEFCEFFD79001211C205
:102448009002E3E508F0A3E509F07B008008122478
:1024580073E4F0A3F00BEBC3950A40F2E50A90028F
:10246800E5F0790080027913023941EB75F017A481
:10247800F8A9F09002E3E028FAA3E0398A82F5830C
:1024880022122E96EA4B2274F41217C2740C1217F9
:102498009E12371CFEE9FF750800750900800CE5DF
:1024A800082401F508E5093400F509C3E5089CE5A9
:1024B800099D503285080A85090B7403780A12179A
:1024C80021EA250AF8EB350BF988828983A3A3A3AF
:1024D800A3A3A31232D9EE650A7003EF650B70BF90
:1024E800E8FAE9FB80047A007B00802774F412176D
:1024F800C27900EAA2E0501B750874750990780843
:102508001219D57C047D007A9D7B0B12078A740210
:1025180012174A7F04021894C082C0839002E61200
:102528002553601C88828983A3A3E06A7003A3E013
:102538006B8882898370E8A3A3A3A3122E928004D8
:102548007A007B00D083D08202011F123A27E84923
:102558002274EE1217C274FC121734EAFEEBFF85E0
:102568001882851983E4F0A3F0EE24021231E4EE18
:1025780024051236FFEE2404F50EEF122B0BE0248F
:10258800FE603924FC604624FE605224FE605E240E
:10259800FE700302266C24FE70030226D024FE700F
:1025A800030226DF24FE70030226EE24FC700302D9
:1025B80026FD24FE700302270C0227499002FF74AF
:1025C80017F0A3E412275E12043002274985188207
:1025D800851983AC82AD831207AE0227198518824C
:1025E800851983AC82AD831207B4022719850C08BC
:1025F800850D09740212179EAC82AD838508828509
:102608000983122E921206D68A0C8B0DAC0CAD0DD6
:10261800EC4D603BE4F50CF50D780C1219D5750CF2
:10262800FF750D02780C1219D5750C00750D03781D
:102638000C1219D5740812179E1219EC123BA3122A
:10264800174AE9F50C700B122E88120448800F7592
:102658000C0185088285098312274C123204850CE7
:102668000802271C740212179EAC82AD83850C8267
:10267800850D83122C5D603C850C82850D83A3A398
:102688001219EC7510FF75110278101219D5751012
:102698000075110378101219D5740812179E1219B3
:1026A800EC123BA312174AE9F509700B122E881297
:1026B800044E800F750901850C82850D8312274C05
:1026C800123204850908804C851882851983AC82EA
:1026D800AD831207BA803A851882851983AC82AD1A
:1026E800831207C0802B851882851983AC82AD833D
:1026F8001207C6801C851882851983AC82AD8312A7
:1027080007CC800D851882851983AC82AD831207AA
:10271800D2E9F508E50860298E828F83A3E0641466
:10272800601F850E82850F83E09002FF12275612E4
:102738003A23900300123204E508A312275E12041C
:102748002A0230F3123A2785188285198322F085E8
:10275800188285198322F07CFF7D02850A82850B09
:1027680083122E962274EE1217C274FC1217348A42
:102778000A8B0B8C0E8D0FEA2405F508EB3400F557
:10278800097C157D0079007AFF7B021211C2E508E9
:102798002402F50CE509123702851882851983850C
:1027A800821085831178101219D5850882850983CE
:1027B800A3A3A3A3122C541219D5E5082405F510D8
:1027C800E5093400F51178101219D5850C82850DAC
:1027D80083122FA91206D0740612174A8A108B1179
:1027E800AE10AF11E50A2402F50AE50B1231E7EE47
:1027F8004F700302292B8017740212179E122E9213
:1028080088828983EAF0A3EBF09002FFE004F0905D
:1028180002FFE0C39405400302292BE4F510F511EB
:1028280078101219D57510E875110278101219D59B
:102838007510E975110278101219D5740612179ED1
:102848001219EC7910EEFCEFFD123BA512174AE9BC
:10285800705E850882850983A3A3A3A3A3A3A3E02D
:10286800F89002E8E0687048122C541219D57CE9F7
:102878007D02E5082408FAE5093400FB1211BC744E
:102888000212174AE960298E828F83A3A3A3A31299
:102898002E929002FFE0F51074027810121721743E
:1028A800002510F58274033511F583EAF0A3EBF0E7
:1028B800740212179E85821085831178101219D51B
:1028C800740212179E1219EC850C82850D83122E44
:1028D800B812174A8A108B11AE10AF119002FFE0A0
:1028E800F5107511007402781012172174FF251065
:1028F800F874023511F988828983A3122489700338
:102908000227F7E82403080808E93400F9EE4F60C5
:10291800030228008882898374FFF0A3F09002FFE5
:10292800E004F09002FFE0600A122E8812043C795D
:1029380000800B8508828509831231FB790A0230F1
:10294800F374EA1217C274FE1217348C128D13EA4C
:102958002405F50CEB123B8D12372B750800750911
:1029680000EA2402F510EB3400F511851882851968
:102978008385820A85830B780A1219D5850C82858E
:102988000D83A3A3A3A3122B211219D5E50C2405AB
:10299800F50AE50D1231E7780A1219D5850C8285FA
:1029A8000D83122B251206D0740612174A8A0A8B39
:1029B8000BEA450B7003022AC6EA2404F50EEB1253
:1029C8002B0B12372B8A828B83A3A3A3E0F98510E4
:1029D80082851183122E9C6003022AC6E4F514F541
:1029E8001578141219D57514E8751502781412198A
:1029F800D57514E975150278141219D574061217CD
:102A08009E1219EC7913AC0AAD0B851082851183DF
:102A1800123BAB12174AE9F5096003022AC6900275
:102A2800E8E0F8E5087009E02402900300F080145B
:102A3800900300E0FCE82402FAE43400FBEA6C703E
:102A480001EB707E850882AA82122C4B9414122CFA
:102A580043506B850E82850F83E0C0E074012A1213
:102A68002B02D0E0F00508850E82850F83A3E0C015
:102A7800E085080A7401250A122B02D0E0F0050847
:102A88009002E8122B211219D57CE97D0285080AEB
:102A98007401250A122B1512174A9002E8E025083E
:102AA800F50874FF6E700374FF6F6012EE24010E58
:102AB800EF3400FFE508C394145003022973E508B6
:102AC8006013122EA6851082851183122E9212048D
:102AD8004279008014E509700375090A8512828518
:102AE8001383EEF0A3EFF0A909740212174A7F0EC0
:102AF80002189485080C7401250CF58274033400BF
:102B0800F583223400F50F850E82F58322FA7403CB
:102B18003400FB1211AA74022212376122A3A312F5
:102B28002B2B221231F2FDEEFAEFFB2274EE121774
:102B3800C274FE1217348C0E8D0FEA2405F50CEBC7
:102B4800123702750B009002FFE4F0F50AEA24023E
:102B5800F508EB3400F50980449002FFE0FA900292
:102B6800E8E0F8122C4B9417122C43400D9002FF0A
:102B7800E0F87416C3989002E8F0122C541219D594
:102B88007CE97D0274002AFA7403122B1812174A82
:102B98009002E8E0F89002FFE028F0050AE50C242E
:102BA80016F582E50D122B06E0F8E50AC398507475
:102BB8009002FFE0C39416506BE50AC333F8E43380
:102BC800F9E50C28FEE50D39FF851882851983ACD7
:102BD80082AD838E828F83122C5D7008750B011273
:102BE80031F78050E4F510F51178101219D57510E9
:102BF800E875110278101219D57510E97511027867
:102C0800101219D5740612179E1219EC7916850838
:102C180082850983123BAB12174AE9F50B70030250
:102C28002B6180BB7CFF7D02850882850983122E7B
:102C380092120454A90B74020230F5E99400C3659A
:102C4800D03322EA28F8E43400F9E822E0F51075D8
:102C580011007810221230EA8A108B11AC10AD11D5
:102C6800EC4D2274EA1217C274FC1217348A0C8BCA
:102C78000D8C128D13EA2405F50AEB1231E775085D
:102C880000750900E50A2402F510E50B3400F5117A
:102C9800740212179E85820E85830F780E1219D53D
:102CA800850A82850B83A3A3A3A31237071219D51C
:102CB800E50A2405F50EE50B3400F50F780E121918
:102CC800D58510828511831231ED122E8C1206D013
:102CD800740612174A8A0E8B0FAE0EAF0FE50C243E
:102CE80002F50EE50D3400F50F803888828983746B
:102CF800FFF00508122AFB74FFF005089002E8E0CF
:102D0800F50C750D00780C1219D57CE97D02850843
:102D18000C7401250C122B1512174A9002E8E025B5
:102D280008F508EE4F60278E828F83A3A3A3E0F9EE
:102D3800850E82850F83122E9CEE24041236FFE93D
:102D48006027850C82850D83122E7E123204E508D9
:102D58007003022E64122EA6850E82850F83122E12
:102D68009212045A7900022E79E4F514F5157814B4
:102D78001219D57514E875150278141219D5751439
:102D8800E975150278141219D5740812179E1219CC
:102D9800EC7911EEFCEFFD850E82850F83123BABBB
:102DA80012174AE9F509709A850882AA82EA900200
:102DB800E87009E02404900300F08025E0F890030F
:102DC80000E0F514E82404FCE43400FDEC6514701C
:102DD80001ED7081122C4B9412122C434003022DEA
:102DE8005D850C82850D83E0C0E074012A122B02F8
:102DF800D0E0F00508850C82850D83A3E0C0E012C1
:102E08002AFBD0E0122EC185820C85830D780C1226
:102E180019D5740412179E1219EC85108285118336
:102E2800122EB812174A8A0C8B0DAE0CAF0D8508FE
:102E38000C7401250CF874033400F9EE4F7003028A
:102E48002CF3851882851983E088828983122EC124
:102E5800A3E0C0E0122AFBD0E0022D01E5097003CF
:102E680075090A850A82850B83122E7E123204A9FF
:102E7800097404022AF3123A2785128285138322E1
:102E88007CFF7D02850A82850B83122E9622E0FA4A
:102E9800A3E0FB22122E961206BEE9F50922900342
:102EA80000E0F5F0E508849002FFF07CFF7D022247
:102EB800122B2B1206DC740422F005088518828573
:102EC80019832274EC1217C274FE1217348A088B05
:102ED800098C0E8D0FEA2405FEEB3400FF1230D466
:102EE800EE24181236FFEA450B7003022F771230D2
:102EF800BD5029122F9C8A108B11EA4511606B79FD
:102F080012AC0AAD0B850882850983122E928510B2
:102F1800828511831217C0E9F50A7058E4F50AF59D
:102F28000B780A1219D58E828F83A3A3E0F50A784D
:102F38000A1219D5EE24031231E4780A1219D58E33
:102F4800828F83122FA91207F6740612174AE9F521
:102F58000A7021850C82850D83E0701F85088285A3
:102F68000983122E921204608011750A0E80097569
:102F78000A018004E50A60031231F7850C82850D89
:102F880083E0600479008002A90A740212174A7F5C
:102F98000C021894851882851983122E961207E45C
:102FA800221231F2FD850882850983122E96227439
:102FB800EE1217C274FE1217348A088B098C0C8D16
:102FC8000DEA2405FEEB3400FF750E001230D4EA3A
:102FD800450B700302309B1230BD502C122F9C8A77
:102FE8000E8B0FEA450F604A7912AC0AAD0B8508C3
:102FF80082850983122E92850E82850F831217C04F
:10300800E9F50E600302309E850882850983123235
:10301800D9AA0AFB1230AF70147AFF7BFF1230AFC7
:10302800606C88828983E50AF0A3E50BF0750A00D5
:103038008007750E0E805F050A9002E5E0FAE50A42
:10304800C39A504AE50A75F017A4FAABF08882894A
:1030580083A3A3E02AFAA3E03BFB8A828B83123185
:10306800EDEC4D70D2750A17750B00780A1219D558
:10307800EEFCEFFD1211AA740212174AEEFCEFFDE6
:10308800850882850983122E921204668014750EB3
:10309800098003750E01123A1F850C82850D831273
:1030A8003204A90E022C3E1207D88A108B11A810E0
:1030B800A911E84922E5082402F508E5093400F5D4
:1030C800098A828B83A3A3A3E0A2E52285188285BF
:1030D8001983AC82AD838E828F831230EA8A0A8B81
:1030E8000B22E0FAA3E0FB1206D622740412174A58
:1030F8007F0A02189474EC1217C28C108D11EA24FE
:1031080005F50CEB123702750F00EA2402F50AEBFD
:103118001231E7850A82F583122E92123C31700330
:103128000231D9750E008071850C82850D83E064AB
:1031380001704F8E828F83A3A31219EC8E828F8326
:10314800A3A3A3A3E0F51275130078121219D5EE04
:103158002405F512EF3400F51378121219D5122E42
:103168008C1207F6740612174AE9F50F6014850CDD
:1031780082850D83E4F0123A1F851082851183122F
:1031880032047C177D007900EEFAEFFB1211C28E33
:10319800828F83E4F0A3F0050E9002E5E0F8E50ED7
:1031A800C398501EE50E75F017A4F8A9F08508829B
:1031B800850983A3A3123B971231EDEC4D600302FE
:1031C800313085088285098374FFF0A3F0E50F701C
:1031D80006122E8C12046CA90F022F97F50AEF34F1
:1031E80000F50B22A31231F2FD22E0FCA3E0228EAF
:1031F800828F83123A27850E82850F83E8F0A3E930
:10320800F022C082C0839002E1E06A7003A3E06B01
:1032180070067AE17B0280047A007B0002254C74F8
:10322800F71217C27F00EF75F003A4F8A9F0EC2895
:10323800F8ED39F988828983E06A7003A3E06B703E
:1032480006E8FAE9FB800B0FEFC3940240D87A0036
:103258007B007F0102189474F61217C2123810709E
:10326800067A007B008007A3A3A3A3122E9202383C
:10327800D174F21217C2E9FE740E12179E1232D9D7
:10328800741012179E1237418C828D83E06402708D
:103298003BA3123A2388828983E0F50CA3E0F9A8BE
:1032A8000C74026870037429697021750C02750D1D
:1032B80000780C1219D578081219D5780A1219D580
:1032C800EEF912081A740612174A800279010239B7
:1032D80041E0F50AA3E0F50B2274E81217C274FB6B
:1032E800121734E9851882851983F08A168B178C92
:1032F8000E8D0F741F12179E123741742112179EDC
:103308001232D9742312179E12372B7510008C8233
:103318008D83A3A3A3E0A2E4502A741D12179E1262
:103328002FA28A828B83E582458370030233ED796D
:103338000AAC0EAD0FAA16AB171217C0E9F510604C
:10334800030233F0850E82850F83E0640260030276
:1033580036A6A3123A23850882850983A38582129B
:10336800858313E50E2406F50CE50F1237028882D3
:103378008983E0FAA3E0F9EA2400F514E439F515A5
:103388007814121A5F010000280128B533070002DB
:10339800288C340328FC330029B6350129DE350290
:1033A8002985350329B63504294736A636EE4F70E8
:1033B8003E850C82850D8312371CFAE9FB8A828BC5
:1033C80083E0850A82850B831237581219D58A82C1
:1033D8008B83A31231F2FDAA08AB091211AA740259
:1033E80012174A800375100EA9107405023B8575E3
:1033F800100B80F4EE4F70F7850A82850B837401F9
:10340800F0123731850882850983F07C007D0085BC
:103418000E82850F83A3A3A3A3E02401FAA3E034BB
:1034280000FB1206D6EA4B60418A828B83E02402B5
:10343800F8850A82850B83E028F0EA2404F8EB3447
:1034480000F988828983E085128285138312376A9E
:103458001237581219D58A828B831231ECE5082469
:1034680003FAE5093400FB0233E3850A82850B83FE
:10347800E02404F07C047D007900AA12AB13121139
:10348800C20233F0EE4F60030233F7123731FEA366
:10349800E0FF850A82850B837404F0EE8508828537
:1034A8000983F0EF851282851383F0740312179E47
:1034B800AC82AD83EEFAEFFB1237FE700302356281
:1034C8008A828B83A3A3123727740112179E8582E1
:1034D8000E85830F780E1219D5740512179E1219CE
:1034E800EC7CFF7DFF1206DC740412174A8B0FEA8E
:1034F800450F7033850C82850D831237071219D555
:10350800850C82850D83A31219EC7C027D007A3923
:103518007B91120508740412174AE9700A740112A3
:10352800179E74FFF0A3F08E828F83E064027034DC
:10353800750C02750D00780C1219D58E828F8312C6
:1035480031ECE5082404FAE509122B1812174A850C
:103558000A82850B83E024028009740112179EEE0B
:10356800F0A3EFF0740112179E123718F0740112CD
:10357800179EA3123710A3A3A3F00233F0EE4F60F7
:10358800030233F7850C82850D831231EDAA16AB41
:103598001712080E850A82850B837402F0EA8508E3
:1035A80082850983F0851282851383EB80CBEE4FE9
:1035B80060030233F7123731F8A3E0F9850A8285F0
:1035C8000B837402F0E8850882850983F0E9851287
:1035D8008285138380A3850C82850D83122E921217
:1035E80011A4EAFC8C82A882C39EE49F404BE86E3B
:1035F8007001EF70047C00801F851882851983E0B4
:10360800FAEE2AFAEF3400FBC3EA98EB9400500371
:10361800E08004EECCC39CFCEC850A82850B83F029
:103628008C0A750B00780A1219D5850C82850D83D2
:10363800E02EFCA3E03F0233DE7510070233F0EE04
:103648004F60030233F7850C82850D83123A238578
:103658000A82850B837407F08882898312371012D7
:1036680036F8E0851282851383F0E82402FAE934FB
:1036780000FB8A828B83123710123749123718A33E
:10368800123752123721F0E82405F8E93400F98896
:10369800828983123721A312376AA302357E741DEB
:1036A80012179E12380970030233ED123A23880C60
:1036B800890DE8450D70030233ED8E108F117810D7
:1036C8001219D5780A1219D578081219D574061264
:1036D800179EE0F9AC0EAD0FAA16AB17850C8285C4
:1036E8000D831217C0740612174AE9F5100233F059
:1036F800F088828983A322F50CEF3400F50D22E0CF
:10370800F50E750F00780E22E08508828509832260
:1037180012377122123A27E822123771A3A322A383
:10372800A3A3A3E0FEA3E0FF22850C82850D83E01E
:10373800F8A3E0F5838882E022E0F508A3E0F50924
:1037480022A3A3F08A828B83A322122404A3A32298
:10375800F08A828B8312376122E0F50A750B0078B4
:103768000A221236F812377122E085088285098309
:10377800A3A32274EE1217C274FE1217348A0A8B9E
:103788000BECFAEDFB741412179EE0F510A3E0F5AC
:1037980011741612179EE0FE741812179EE0F50EAB
:1037A800A3E0F50F851882851983AC82AD831237A3
:1037B800FE603E851882851983123809602FA3A3FD
:1037C800123741E50845096024780E1219D578109A
:1037D8001219D5EEF9AC0CAD0DAA0AAB0B8508820F
:1037E8008509831217C0740412174A8006790E805F
:1037F800027901022C3E1206D68A0C8B0DEA450D81
:1038080022122E96123810221207A28A828B83E582
:103818008245832274F61217C274FE121734740C90
:1038280012179E12371C851882851983F0740112AD
:10383800179EE9F0E4F508F50978081219D5750816
:103848000278081219D5740412179E858208858398
:103858000978081219D51207F6740612174A740265
:1038680012174A806474F71217C2EAFEEBFF890840
:103878007C187D0312080EEA5402600BA908EEFAC0
:10388800EFFB1206CA8002790102325A74F6121747
:10389800C274FF6A700374FF6B701C7B00EB75F0D9
:1038A80003A4F8A9F0EC28F8ED39F91238D60BEB97
:1038B800C39402501480E61207DE8A088B09A80810
:1038C800A909E84960031238D67F02021894888251
:1038D800898374FF122402E4F02274F61217C212CC
:1038E80007DE8A828B83E58245836006A3A3E0FA1C
:1038F80080027A007B0080D174F21217C28A088B8A
:1039080009ECFEEDFF740E12179EE0F50A12394617
:10391800701CEEFCEFFD7AFF7BFF123946700479CC
:1039280011801688828983E508F0A3E509F088826A
:103938008983A3A3E50AF079007F06021894120789
:10394800DE8A0C8B0DA80CA90DE8492274EE12171B
:10395800C2EAFEEBFF8C088D09890C741212179EBF
:10396800123A23741412179E1231ED741612179E10
:10397800122E92750D00EC4D6003023A1774026521
:103988000C6003023A12888289831231F2F9EC241E
:1039980000F50EE439F50FEAF4F8EBF4F9EC58F811
:1039A800E50F59F9E849705DE5082406F8E509349A
:1039B80000F9880A890B8882F583122B2712080ED2
:1039C8008A108B11E50E65107004E50F65116042D1
:1039D800780E1219D5850A82850B83122B271208B7
:1039E80014740212174AE9F50D7027780E1219D5CA
:1039F800850882850983A3A3122B2512082C74023B
:103A080012174A800D750D808008750D0D8003759D
:103A18000D0BA90D0230F88E828F83123A2722E00F
:103A2800F8A3E0F92274E81217C274E71217348574
:103A38001882851983EAF0A3EBF08C168D17890E8E
:103A4800743112179EE0F512A3E0F51374331217C0
:103A58009EE0F514A3E0F515743512179EE0F50FF6
:103A6800750800750900E50975F003A4F8A9F08543
:103A78001882851983123B97E0F47003A3E0F47071
:103A880003023B75EE2402F50CEF123B8DE0700348
:103A9800023B7585160A85170B780A1219D5AC14DE
:103AA800AD15AA12AB13120796740212174A8A0AA6
:103AB8008B0BEA450B7003023B75E4F510F51178A2
:103AC800101219D5740612179E85821085831178F5
:103AD800101219D5740912179E85821085831178E2
:103AE800101219D5851282851383A3A3A3A31219D3
:103AF800EC7914AC0AAD0B8E828F83123BAB121794
:103B08004AE97069850A82850B83A3A3A3A3123AA5
:103B180023740212179E123204850C82850D83E0ED
:103B2800A2E05018A90E740212179EAC82AD838EC3
:103B3800828F83122E921206EEE94208850C828546
:103B48000D83E0A2E15026E50FF50A780A1219D98B
:103B5800A90E740312179EAC82AD838E828F8312D6
:103B68002E921206E8740112174AE942080509E57F
:103B780009C394025003023A6EA908741912174A2D
:103B88007F100218943400F50D850C82F58322E02D
:103B980028FEA3E039FF8E828F83227916850A8258
:103BA800850B83122E961207F074082274F21217EE
:103BB800C2EAFEEBFF890B7401650B600E740265A7
:103BC8000B70637901120A06E9705BEEFAEFFB12DB
:103BD8003C316047750A00800B7C177D0079001224
:103BE80011C2050A9002E5E0F8E50AC3985021E5FC
:103BF8000A75F017A4F8A9F0850882850983A3A39C
:103C0800E028FAA3E039FB8A828B8312255370C916
:103C180085088285098374FFF0A3F07C187D03EE84
:103C2800FAEFFB1208080239411207D88A088B09F3
:103C3800EA45092274F21217C28A088B09ECFEEDD4
:103C4800FF740E12179E1232D9900B9BE0F4603D60
:103C58007A097B001211D4EA4B60328A828B837412
:103C6800B1F0A3E412374BA3123749A3E508F0A338
:103C7800E509123C98EEF0A3EF123C98A3A3E50ADD
:103C8800F0A3E50BF0900B9BE0F91211E00239412B
:103C9800F08A828B83A3A3A3A3A322C082C08390AC
:103CA80061907404F0A37448F0A3E4F09061807408
:103CB80040F09061BC7407F09061877469F090617E
:103CC800B67416F07900120AF67902120AFC9022EC
:103CD800C0E493F46006E493F9120AD27905120D50
:103CE800EA0240E5C082C083E9540FF9906185E09B
:103CF800696012E5C654804449F5C6E59E547F6460
:103D08004970F8E9F053C680E59E547F70FA024086
:103D1800E574F71217C2E5A8FE53A87E120ADEC2A0
:103D2800BA539AFEC289759B00C2C2120AE475A9E9
:103D38001175B905120AEAD2BA439A0174805E4233
:103D4800A8024672C082C083906181E4F0A3024059
:103D5800E275E90075910075BF0002011FC082C0BD
:103D680083906181E4F0A374C0F0A3E40240E4C04E
:103D780082C08374F81217349003C4124554E8497A
:103D88007003023E2E9003C4E054406023790885F6
:103D98001882851983AA82AB83120BEC8518828559
:103DA8001983AA82AB831208989003C4E054BFF029
:103DB800E054806010790C7A807B05120BEC90033C
:103DC800C4E0547FF0E0A2E050087900123E365477
:103DD800FEF0E0540260087901123E3654FDF0E02E
:103DE800540460087900123E4154FBF0E054086026
:103DF800087901123E4154F7F0E054106008790246
:103E0800123E4154EFF0E0542060087903123E411D
:103E180054DFF0A3E05401600D120B081208AA90B9
:103E280003C5E054FEF0740812174A0240E5120A6E
:103E3800F612089E9003C4E022120AFC1208A4900D
:103E480003C4E022C082C083E9600514602A804F61
:103E580090619A7433F0A37455F09061A0743AF0AD
:103E680090055CE064017009C2919003C674678094
:103E78002D9003C67461802690619A743FF0A374F4
:103E88005AF09061A0747FF090055CE064017009BD
:103E9800D2919003C6747180059003C6746AF002CB
:103EA80040E5C082C083E9600B14600D14600F14F4
:103EB800601180209022C480159022C58010902225
:103EC800C6800B90055CE0640160F39022C7E49320
:103ED800906186F00240E574EE1217C274F412176E
:103EE80034851882851983AC82AD83758390758279
:103EF800C174041216479022C493F46003024071FF
:103F0800907808E0C39402500302405174041217D9
:103F18009EAC82AD837583907582547408121647DF
:103F2800F97AFF7BFF7FFF7E0089828582108018E7
:103F380074086E700302400674096E70030240062E
:103F4800740A6E7003024006E510C333FCE433FDC7
:103F5800740412179EE5822CF582E5833DF583E013
:103F6800F50EA3E0F50F8E087509007402780812A3
:103F7800172174482508FC74783509FD8C828D83D7
:103F880078081215EC7408780812152D85080C8528
:103F9800090D8C828D8378081215EC741878081234
:103FA800152DE50C4508F508E50DF509C3E50E9551
:103FB80008E50F95098C828D8378081215EC8C82A0
:103FC8008D8378081215EC74187808401412152D92
:103FD800E50C4508FCAD0DE50EC39CFCE50F9D8086
:103FE8000F12152DE50C4508C3950EFCE50D950F30
:103FF800FDC3EC9AED9B5006ECFAEDFBEEFF0EEEDE
:10400800C394135003023F3874FF6A700374FF6B44
:10401800602D8F08740278081217217448124D0019
:1040280074783509F58378081215EC851882851996
:1040380083E5822510F582E583124A8DE508F009AB
:10404800E9C394045003023F2975080175090078F3
:10405800081219D5740212179EAC82AD837AB17B0F
:10406800081210EA740212174A740C12174A7F0ACF
:10407800021894C082C083906186E0F89022C7E459
:10408800936870099022C6E493906186F09061AEBF
:104098007468F0A3746AF090624574FBF0A304F0AE
:1040A80053F4FD43FE0290055C7401F09061A0E0BA
:1040B800643A7004790080027901120AF60240E538
:1040C800C082C08390050EE06401700A900513E079
:1040D8006004790C800279008003F0A3F0D083D0CB
:1040E8008202011FC082C08375E1F1900511E06072
:1040F8004D1460081460511460498051120B1A90D5
:104108000507E0F97A087B05120D6C9090C5121628
:104118000A120DA290909912160A120D78900512A3
:10412800E0F9120D847901120DDE900505E02416E0
:1041380012427A7432F0A3740BF07900809F120B4C
:104148002080BC120B2680B7120B2C80B27912800B
:10415800EB74F41217C275D90D9004F6E0A2E0E4EE
:10416800331313F81241E6484401F5D97800124296
:104178006440FB7800880874F7124D0074041242FA
:104188006E40F275E1959004F6E0F97AF77B041237
:104198000D72900BBD74A8F0A3740A1242891242E2
:1041A800A91242A01243E11241F078081215EC90CE
:1041B80090C978081215789090A178081215C6123F
:1041C800427478081215FB900505E0241412427A0F
:1041D8007413F09003C27402F07F040218949005DF
:1041E80007E0C4333354C022900505E0F8A3E0F596
:1041F800838882A3A32274F61217C21243B28AD903
:10420800780012426440FB7800800612431812447A
:1042180064E8C39940F51243A412426440FB780055
:104228008008124CFC7405124464E8C39940F37585
:10423800E195900BBD74B4F0A3740A12428912423E
:104248009312160A124274121616900505E02414E9
:1042580012427A7412F09003C202464F880874081A
:104268002508F58274051245C0940622900505E0DC
:10427800240EF8A3E0124281223400F9888289834F
:10428800221243CA74AEF0A3740A221242A912423F
:10429800A01243E59090E122F0A374C6F0A3740A3B
:1042A800221242AD221242B122F0A37458F0A37434
:1042B8000C2274F61217C212430D1241E64402F59D
:1042C800D9780012426440FB780080061243181225
:1042D8004464E8C39940F575E195900BBD124323FA
:1042E800F0A312432312429612160A1242741216AF
:1042F80016900505E0241412427A7414F09003C253
:104308007404024651900517E0F9740729F5D9227B
:10431800880874182508F58274052274C012433081
:10432800124330F0A3740A22F0A3740AF0A374C0F5
:104338002274F61217C21243B274064AF5D97800ED
:1043480012426440FB78008006124318124464E865
:10435800C39940F51243A412426440FB78008008D8
:10436800124CFC7405124464E8C39940F375E19556
:10437800900BBD74BAF0A3740A1243C01242931290
:10438800160A124274121616900505E024141242F9
:104398007A7415F09003C2740302465190053712DF
:1043A800431074044AF5D978002212430D9005078A
:1043B800E0C4333354C0FA221243CA7458F0A374C9
:1043C8000C221243CE221243DB7458F0A3740C1251
:1043D80043DB221242B1F0A3221243E522F0900BF4
:1043E800CB7458F0A3740C1243CE7458F0A3740C19
:1043F8001242ADF022C082C0831241F0A3A3A3A34E
:10440800E40240E274F71217C2124F42F8740339FB
:10441800F9E82405FAE93400FB8A828B83124CB14F
:1044280088828983A3A3A3A3A3A3A3A3A3ECF0A334
:10443800EDF088828983A3A3A3A3A3A3A3E024FF09
:10444800F8A3E034FFF98A828B83E8F0A3E9F0024D
:104458004672880874602508F5827405124BD8F5F1
:10446800D90822EAFEEBFF9061D0E0F87480C39887
:10447800FAEE248322124483940422124A9BE0F524
:10448800D90AEAC32274F61217C2EAFEEBFF90615A
:10449800D0E0707575D90E75D90375D9047A008A7C
:1044A80008EE2508125010248C12452640F17A0097
:1044B8008A08EE2508125010248412447D40F175B4
:1044C800E1957908EE248C12451F24841245167C48
:1044D800008C82AA82C3E49AF895E0F9EE28F8EFF6
:1044E80039F9E8248BF582E9124BD4C0E0EE2A12A0
:1044F800501024ABF582E9124A8DD0E0F00CECC3E1
:10450800940840CD1245DC80027900024652FAEF49
:104518003400FB120BE0221245167904EE221244F5
:1045280083940822C082C08375D90275D90375D9CE
:104538000575E195EA2470F582EB124551EA24727B
:10454800F582EB1245EE0240E5124A9E12455822CA
:10455800E0F8A3E0F92274F61217C2EAFEEBFF9026
:10456800056074061245CA1219D57C0179031248F0
:10457800F612174A75D90675D90378001245B04066
:10458800FB75E1959003C2E064087017EE2470F59E
:1045980082EF124551EE2472F582EF124A8DE8F04F
:1045A800A3E9F07901024652880874602508F5826B
:1045B80074051245C0940522124A9EE0F5D908E810
:1045C800C322F075086075090578082275E19579A8
:1045D80004120DA8EE2470F582EF124A9E12455877
:1045E800EE2472F582EF124A9EE8F0A3E9F0790111
:1045F8002274F61217C2EAFEEBFF9061D0E0704316
:104608007901900560740BF09003C2E0640770179D
:1046180075086075090578081219D57C0109091211
:1046280048F612174A7905740129F5D975D903781E
:1046380000800312445AE8C39940F875E195124581
:10464800DC8002790080037401F07F020218947400
:10465800F71217C2EAFEEBFF75D90375D90375D9AE
:104668000DEE24DE1246771245D47F01021894F528
:1046780082EF124BD8F5D9227F03021894740125D2
:104688000AF5D975D90378002274F51217C21247B2
:10469800066004780480027800E8240BF8EAC398DE
:1046A8004041750A099005607409F079081246EFCF
:1046B800601475086075090578081219D51248EE56
:1046C80012174A750A0D124685800312445AE8C328
:1046D800950A40F775E1957904120DA812486B798F
:1046E80001800279008091EE24E3FCEF3400FD7A2A
:1046F800617B05120BDA850882850983E022124462
:104708006BF8EF124CA5F583E02274F31217C28AF6
:10471800088B09124901FAE5082483F50AEB1247C8
:10472800D06004780480027800E82408F8EAC39886
:1047380050030247C9750C06900560740CF090038D
:10474800DFE0900561F07402C0E0F97CE07D037A57
:10475800627B05120BDAD0E0F97CE27D03120BDAFA
:10476800850A82850B83E0601C750A60750B0578E5
:104778000A1219D57C067903AA08AB091248F61261
:10478800174A750C0A7401250CF5D975D9037800F8
:104798008009880A7460250A124460E8C3950C40B1
:1047A800F175E1957904120DA8E5082470F582E504
:1047B80009124551E5082472F582E5091245EE8093
:1047C8000279007F050218943400F50B850A82F5FA
:1047D80083E02274F61217C2EAFEEBFF124901FCCD
:1047E800EE2483F8EF1248FC60047A0480027A0011
:1047F800EA2404FAECC39A405E7A02900560EAF073
:10480800EE24F5F582EF124877601975086075098E
:104818000578081219D57C027903EEFA1248F612C7
:10482800174A7A0674012AF5D975D90378008003E6
:1048380012445AE8C39A40F875E195EE2474124878
:1048480064EE248012486412486B7904120DA8EEB5
:10485800240D1245DF80027900024652F582EF12DC
:1048680049E722EE241DF582EF1249E7A3F0221250
:104878004BD8900561F088828983E02274F612177C
:10488800C2124901FEEA2483F8EB1248FC60047C5A
:104898000480027C00EC2404FCEEC39C40437C02B0
:1048A8009005607407F0EA24F6F582EB1248776009
:1048B8001575086075090578081219D57903124825
:1048C800F612174A7C0674012CF5D975D9037800BD
:1048D800800312445AE8C39C40F875E19579018039
:1048E8000279000246527C097903EEFAEFFB120CBA
:1048F8004C740222124281E0229061D0E0F8748068
:10490800C3982274F51217C2E9FEA2AFE433F50A80
:10491800C2AF7F00EA246FF8EB3400F980010F88FA
:10492800828983E0FCEFC39C50188F08EA2508FCB5
:10493800EB3400FDEC246BF582ED124BD46E70DE87
:104948008010EA2CFAEB3400FB124A87EE12487DFD
:1049580004F0E50AA2E092AF02468074F61217C28C
:10496800A2AFE433FFC2AFEA246FF8EB125012FC97
:10497800E9FD8C828D83E014F07E0080218E08EAA8
:104988002508F8EB125012246CF582E9124BD4C0BA
:10499800E0E8246BF582E9124A8DD0E0F00E8C82B3
:1049A8008D83E0F8EEC39840D4EA246E124A8A74E4
:1049B800FF1249DCEFA2E092AF024652C082C083E8
:1049C800E5A8F8C2AF124A87E91249DCE8A2E792E3
:1049D800AF0240E5F0EA246AF582EB1249E72212B9
:1049E8004A9EE4F02274F21217C28C828D83A3A32C
:1049F800A3A3E0541FF0EA2436124D498E828F8318
:104A0800E4F0F50C850C8285820AEC250AF8ED1293
:104A18004CA1F583E0C0E0EA250AF8EB124A91D0F0
:104A2800E0F0750D00850882850983E0F50A750BAD
:104A380000E50D780A121702E50AA2E0502AE50CF3
:104A480033333354F8250DC0E08E828F83E0F8EAC3
:104A580028F8EB1250122438F582E9124A8DD0E07A
:104A6800F08E828F83E004F0050DE50DC3940840B5
:104A7800B4050CE50CC39405408A7F06021894EA35
:104A8800246BF582EB124A9E223400F9E8245D1269
:104A98004A9B22F582E93400F5832274F61217C284
:104AA8009003EEE0640170077A007B00024BCE7E33
:104AB800009003F4E070F17401F0A3E4F0A3F09027
:104AC800045404F0900457E4F0A3F090045A04F05E
:104AD8009003F7E4124BE590040104F0900427E4F6
:104AE800F090908912160A90040A12161690040E75
:104AF800E4F0A3F0A3F0900472F0900466F0900440
:104B08005B7480F0A3E4F0900461F0900459F09095
:104B180004DD124BDD9004E6F0900475F09004C5B6
:104B2800F0A3F090908912160A9004C712161690F6
:104B3800908912160A9004CB1216169004D1E4F04C
:104B48009004D3F09004CFF09004E9124BDD8E0866
:104B5800745D124D007404124A8D74FFF00EEEC39A
:104B6800940440EA7E008E82A88274FD28F582743F
:104B780004124BD4C0E0744F28F5827404124A8D95
:104B8800D0E0F00EEEC3940540DC7E008E82A88251
:104B980074D628F5827403124BD4C0E074D528F576
:104BA800827404124A8DD0E0F00EEEC3940840DC03
:104BB8009003EEE004F0640170089003F6E09003BF
:104BC800F0F07AF27B03024652F582EF124BD822BC
:104BD800124A9EE022124BE5A3124BE522F0A3F005
:104BE800A3F0A3F022C082C083EA2403F582EB126B
:104BF8004BD46008E4F09003EFE014F09003EEE08B
:104C080014F070069003F074FFF08A828B83A3A3DC
:104C1800E4F0900502E0700D9003EFE06401700588
:104C28007900120D8A0240E5C082C0839003F5E442
:104C3800F09003F4F09003EEF0A3F0A374FFF07586
:104C4800E1F10240E5C082C083780079009003F565
:104C5800E0600478F2790388828983A3A3A3A3E0A0
:104C6800F90240E574F61217C2EAFEEBFF120B9246
:104C7800EE2465F8EF124CA1124CAFEC4D60109089
:104C880003F0124F3A850882850983E4F0A3F0EE19
:104C9800FAEFFB120C82024652124CA5223400F99C
:104CA80088088909888222F583E0FCA3E0FD227444
:104CB800F71217C2EAFEEBFF8E828F83A3A3A3A38A
:104CC800E0FA7B00120910EEFAEFFB120BA4120CAB
:104CD8006402467274F61217C27800880874D612F5
:104CE8004D00740312486708E8C3940840ED900328
:104CF800D602464F880874382508F5822274F612C1
:104D080017C2EA240D124D49EC2403F8ED3400F9DA
:104D180088088909EC2407F8ED125012FCE9FD1205
:104D28004D531216A98E828F83E8F0A3E9F0124D35
:104D3800531216A98B09EA45096003124D6602460B
:104D480052F8EB3400F9E8FEE9FF228C828D8312D9
:104D58004558850882850983E0FAA3E0FB228E8204
:104D68008F83E02401F0A3E03400F02274F61217D8
:104D7800C2EA242EF582EB3400124CAFEA247012FA
:104D88004D49780079FAECFAEDFB1216A98E828F5C
:104D980083E8F0A3E9F0780079FAECFAEDFB121653
:104DA800A98B09EA45096003124D6602465274F060
:104DB8001217C2EAFEEBFF741012179E780812153C
:104DC800EC120D3C8A0C8B0D8C0E8D0F9090CD78CB
:104DD8000C1215789090A1780C1215C6780C12193F
:104DE800D18E828F831241F312160A121F4974045E
:104DF80012174AE96003024E9E8E828F83E02402D6
:104E0800F8A3E0125012FAE9FB8A828B8378081221
:104E1800158B9090A178081215EC8A828B837808FC
:104E28001215D9EE240BF582EF124A8DC082C08389
:104E38008E828F83A3A3A3A3A3E02401F8A3E03465
:104E480000F9D083D082E0687003A3E06970047928
:104E5800018045EE2407F8EF124281124D6AEE24D4
:104E6800741250177014EE2475124EA57003A3E047
:104E78006D70078A828B83124D6AEE248012501758
:104E88007014EE2481124EA57003A3E06D70078A9A
:104E9800828B83124D6A79007F08021894FAEF34E6
:104EA80000FB8A828B83E0FCA3E0FD88828983E093
:104EB8006C2274F31217C2124F42FE740339FFEECC
:104EC8002404F50AEF3400F50BEE2465F508EF34F9
:104ED80000F5098010124CB1850882850983E4F039
:104EE800A3F0124F34850882850983124CB1EC4D2A
:104EF8006030EE2464124BD1F50C780C1219D9EEFF
:104F08002463124BD1F9EEFAEFFB120BCE740112A7
:104F1800174AE985088285098360BA124554E84929
:104F280070077C007D00124F340247CB850A8285CA
:104F38000B83E0FA7B001208CE229003F0E0F875AC
:104F4800F004A4C8AAF02AF974F2282274F21217FD
:104F5800C2EAFEEBFF890A740E12179EE0FAEE24ED
:104F680062125017600302500B124901F50CEE242F
:104F780083124BD1FB60047804800278008908E929
:104F880028F8E412501224020808E93400F9E50C64
:104F980098E499A2D265D0334065EA7005750B0292
:104FA8008003750B01EB603375090078081219D579
:104FB8007A607B05120C16740212174A7508607520
:104FC800090578081219D5AC0AA90B1248F212176C
:104FD8004A7404250AF50A7C607D057401250AF5E2
:104FE800D9850BD97800800A8808EC124D00ED129B
:104FF8004464E8C3950A40F075E195790080067924
:1050080007800279FF024A82F8EF3400F9E822F5B6
:1050180082EF124BD8640122C082C08380031250F1
:105028004EE9F874FF28190470F4ECFAEDFB02401D
:10503800E5C082C083800312504EE9F874FF281936
:105048000470F40240E58C828D83E08A828B83F0C1
:105058008C828D83A3AC82AD838A828B83A3AA8240
:10506800AB832274F41217C2E9FF7E008A088B0909
:105078007808121A1900040D11529E50BB50D450D2
:10508800EB5008511F51405157516A519351AD513E
:10509800BD51D351ED5174016F600302520D8C82E2
:1050A8008D83E0F8C39403400302520DE8900C8509
:1050B8000251EA74026F600302520D8C828D8312D2
:1050C80059F6900C86E8F0A3E90251EA74016F6082
:1050D8000302520D125233400302520DE890076446
:1050E8000251EA74016F600302520D8C828D83E0D5
:1050F800F8C39405400302520DE89007650251EA8F
:1051080074016F600302520D125233400302520DB4
:10511800E89007660251EA74106F600302520D7539
:1051280008108E0978081219D57A677B071211AA18
:10513800740212174A02522F74016F600302520D53
:10514800125233400302520DE89007770251EA7475
:10515800016F600302520D8C828D83E0900C8902EE
:1051680051EA74046F600302520D8C828D837808B3
:105178001215EC9090BD780812141F500302520DBE
:1051880090077978081215FB02522FEF70771206F4
:1051980076E9700A12107E79501212E8806290083F
:1051A8000C7401803D74016F705B1252335056E8E5
:1051B800900778802D74016F704B8C828D83E0F896
:1051C800C3940A5040E8900C88801774016F7035BA
:1051D8008C828D83E0F874F928C3940A5027E890EC
:1051E8000C8AF0804274016F701B90080BE0F88CF9
:1051F800828D83E090080BF0E8702CE06401702742
:1052080012107280227E18801EC3EA9426EB940046
:10521800501374026F700E8C828D831259F0120530
:1052280014E9FE80027E02EEF9800F8C828D83E005
:10523800F8C3940222740E12174A7F04021894A924
:105248000802524274F01217C274B11217348C0A51
:105258008D0B90906274201217B87406121647745A
:10526800201217B8121024E9FF745F12179EE0F598
:1052780009EFC3940A40030253CE75F006EFA4F574
:105288000874411217B87A0E74202508F91212E230
:10529800E97009744D12179EE0FE80027E00900CA2
:1052A80085E064027005750E018003750E007408B0
:1052B800650970047422800274212508F50D7C1B91
:1052C8007D00790074261217B01211C274261217C5
:1052D800B87A1BA90D1212E2E9702D744012179EBC
:1052E800E024F9C3940A5020E50EF50D780D121943
:1052F800D974271217B8EEA2E0E433F9AA0AAB0B67
:105308001205B6740112174A7C147D007900740CDA
:105318001217B01211C2740C1217B87A107424251F
:1053280008F91212E2E970347C1079FF740C121734
:10533800B0121228E97025741C12179EAC82AD8336
:105348007A0474252508F91212E2740C1217B8EEC3
:10535800A2E0E433F9AA0AAB0B12059EAC18AD190A
:105368007A0C74702FF91212E2E97049AA18AB1975
:1053780012105A7F00EF75F003A4F8A9F08518827F
:10538800851983E58228F8E583125BAF125D2160F9
:105398001D88828983A3A3E0F50E750F00780E128D
:1053A80019D5AA0AAB0B1207FC740212174A0FEFA1
:1053B800C3940440C0EEA2E1500C900763E0F9AA40
:1053C8000AAB0B120802740465097028900C85E07A
:1053D800640270207A00900777E060027A019007F3
:1053E80064E06004780480027800E84AF9AA0AAB0D
:1053F8000B12065E7900744F12174A7F0802189440
:1054080074F01217C274F0121734EAFEEBFF8C081E
:105418008D09750A0AE9600C14600914603B146070
:105428007D0254FE12106CE9F50AC3940A40030287
:1054380054FEE508450970030254FE750C06750D07
:1054480000780C1219D5EEFCEFFDAA08AB09121171
:10545800AA740212174A0254FE750C00750E0675DE
:105468000F00780E1219D5EEFCEFFDE50C75F00E65
:10547800A4F8A9F0748528FA740739FB1211BC74D2
:105488000212174AE9700B050CE50CC3940A506622
:1054980080CA850C0AE50AC3940A505A8049750CDB
:1054A80000AC18AD197A1075F006E50CA42423F9A0
:1054B8001212E2E9701C7C1079FFAA18AB191212BB
:1054C80028E9700EEEFCEFFDAA18AB19120580E969
:1054D800600B050CE50CC3940A501B80C4850C0AAC
:1054E800E50AC3940A500FE50845096009AA08AB04
:1054F80009A90A121066A90A741002540074F41259
:1055080017C2890975081574FF6A700374FF6B70F8
:10551800277E00AC097A027B00EEF9121048E96098
:10552800037508000EEEC3940A40E8E50960537A53
:10553800967B10120A18804A1209FA8A0A8B0BAE57
:105548000AAF0BEE4F60387C007D00EE2405FAE4CC
:105558003FFB8E828F83A3A3A3A3E0F9121024E953
:10556800F9C3940A500CAC097A027B0012104875F2
:105578000800E509600CEEFAEFFB1210968003753F
:10558800081402524774F21217C2ECFEEDFF7508B8
:1055980015740E12179E1259E374FF6A700374FF94
:1055A8006B7021750900AC0AAD0BEEFAEFFBA90987
:1055B80012104EE960037508000509E509C3940A4D
:1055C800503F80E21209FA8A828B83E58245836024
:1055D8002D7C007D00E5822405FAE43583FBA3A336
:1055E800A3A3E0F9121024E9F9C3940A5013AC0AF2
:1055F800AD0BEEFAEFFB12104E750800800375082C
:1056080014A908025B77C082C08390077DEAF0A3E3
:10561800EBF0900763E0FC7D007A257B001205140F
:10562800900763E0F9120778D083D08202011F74D3
:10563800EC1217C28A088B09E97E007038780812C4
:1056480019D5741612179E780C1215EC9090BD7827
:10565800101215EC780C79101214BEAA10AB11AC0C
:1056680012AD131205B0740212174AE9FE600979E7
:1056780001AA08AB091205AAEEF97F0C0218947466
:10568800EA1217C274EC121734EAFEEBFFEE240C90
:10569800F514E43FF5158E828F83A38582108583E8
:1056A80011EE240AF50CE43FF50DEE2405F50EE4A1
:1056B8003FF50FEE2409F50AE43FF50BEE2403F558
:1056C80008E43FF5098E828F83A3A3E024FA7003D0
:1056D8000259BB24FD70030258DD14700302577190
:1056E80014601024FD70030258C01470030259118D
:1056F8000259D91259FC6049E0F58388821259F69B
:10570800880C890DE8450D6038851482851583E07D
:10571800F50E780E1219D9EE240BF582E43FF583C5
:10572800E0F9850A82850B831259F00A0A0AAB0947
:10573800850C82850D831217C0740112174A02590D
:10574800D9850A82850B831219EC90077912160AFB
:105758001205B0740212174AE970030259D9790187
:10576800850A82850B83025987851082851183E01B
:1057780060030258A3850E82850F83E0A2E04003F0
:105788000258A37C0E7D007900AA18AB191211C229
:10579800EE2408F512E43FF513851282F5831261B1
:1057A80021EA4B6010750A06750B00780A1219D5A4
:1057B800EA2410801B12611B1209FAEA4B700302DB
:1057C80059D9750A06750B00780A1219D5EA240505
:1057D800FCE43BFD74021217B01211AA74021217EE
:1057E8004A850E82850F83E0A2E25004D2F080023F
:1057F800C2F0A2F0E433F8740C12179EE048F0856A
:105808000C82850D831259E3E50A450B6012E50AFF
:105818002410F582E4350BF583780C1215EC800C16
:10582800750CFF750DFF750EFF750FFFE50A450B2B
:105838007006750A00750B00851282851383E0F5E2
:1058480012A3E0F513E512451370067512007513DF
:1058580000780C1219D1780A1219D578121219D5B4
:105868008514828515831219EC8E828F83A31259B1
:10587800EB740A1217B0121060740A12174A8508DE
:10588800828509831259F690080DE8F0A3E9F07AA9
:10589800017B00900763E0F91212041259FC7003AF
:1058A8000259D9125A0770030259D98510828511F5
:1058B80083E0FC79010259AF1259FC70030259D9EF
:1058C800125A0770030259D9851082851183E0FCAA
:1058D80079020259AF7C007D00EE2404FAE43FFB14
:1058E800850882850983E0F9121024E9F8C3940A2F
:1058F80040030259D9AC0CAD0D7A0475F006E8A442
:105908002425F91212DC0259D912611B900778E09C
:105918006007900C88E0F98069900C85E070047944
:1059280005805F1209FA8A0C8B0DA80CA90DE824D2
:1059380004F50CE439F50D8E828F83A3A3A3A3A3EA
:10594800A3A3E0A2E05040E84970030259D9850CAE
:1059580082850D83E0FE602F850A82850B83E054E3
:10596800107024740E1217B8E82405FAE439FBEE17
:10597800F9121024E97010790385088285098312C9
:1059880061211205AA804AAC0EAD0F850C82850DE7
:1059980083E0F912611B1210A21259FC6033125AEB
:1059A80007602E7C00790012611B8E828F8312178C
:1059B800C0801E120676E9701890080CE064017029
:1059C8000812107E90080CE4F079501212E81210B8
:1059D80072741412174A7F0E021894E0F50AA3E0B5
:1059E800F50B22A3A3A3A3A3E0FCA3E0FD22E0F808
:1059F800A3E0F92290077DE0F8A3E0F9E84922E066
:105A0800F5838882A3A3E0F8A3E0F9E8FEE9FFEEB6
:105A18004F2274F41217C274F2121734EAFE8C0B78
:105A280075F006E9A42420F508AC18AD197A0EF92A
:105A38001212E2E970487C0679FFAA18AB19121213
:105A480028E9703A740C12179E1259F6E8F509E520
:105A58000B6005EE42098004EEF45209AA09E86ACF
:105A68007001E96015740C12179EEAF0A3E4F0AC1B
:105A780018AD197A0EA9081212DC79018002790092
:105A880002523D74F21217C274E6121734890A8A58
:105A9800088B09ECFEEDFF740C1217B87A0E75F03E
:105AA80006E9A42420F91212E2E96003025B707C83
:105AB8000679FF740C1217B0121228E96003025B12
:105AC800707470250AF50BAC18AD197A0CF912121E
:105AD800E2E96003025B6CAA18AB1912105AE508D8
:105AE8004509701D7C0C7900AA18AB19121228E917
:105AF80070727C0C7D007900AA18AB191211C28053
:105B080051AC18AD19AA08AB091210548A0C8B0DA8
:105B1800A80CA90DE8497022EE4F604CAC18AD19DD
