:020000040000FA
:06000000020107021E02CE
:03002B000222703E
:0300330002225254
:03003B0002228A14
:0300430002220690
:03005300021E7812
:03006B0002222C42
:10008300021CF3E5C754F84401F5C77901220000C7
:100093000080FB120086B900030200F1E4792178A5
:1000A30008B800028004F709D8FCE479297802B87B
:1000B30000028004F709D8FCE49002817861790991
:1000C3008002F0A3D8FCD9FA7AE17B0A9001377851
:1000D300F479038015E493A3AD82AE838A828B8384
:1000E300F0A3AA82AB838D828E83D8E9D9E7758288
:1000F300A77583A274031201197582917583007425
:100103000012011975D00075813F751881751902A8
:10011300759F00020096C09FF59FE473D09F22D085
:1001230083D082C09FE493C0E0740193C0E0740263
:1001330093F59F22FF0000B4000028002800283018
:1001430075A000A000A000A00000080008E001F0D6
:10015300001000100010001000100010005000509C
:1001630000500010001000D0070000000000000F36
:100173000001000500307507001000010081FF0039
:1001830000FF280646062E06FF0202020802500060
:10019300A0000000E8030230940100000A94023A30
:1001A30094010000360B024094010000B202023AAF
:1001B30094010000370B025294010000C802023A76
:1001C30094010000380B023C94010000CA02023A79
:1001D30094010000390B023694080000CB02023A66
:1001E300940100003A0B0234940100003B0BFF0121
:1001F30000FF200230940100000D94023A940100A4
:10020300009F0B023294000000000002429403009E
:10021300001803580C580C580C580C580C580C5810
:100223000C580C580C580C580C580C580C280F40F0
:100233000F220F020202020202020202010D00005B
:100243000010010230940100000794023A94010067
:1002530000E00B0238940100005B07023A940100AE
:1002630000E10B022A940100008A92023A940100F1
:1002730000E20B0224940100006292023A9401000E
:1002830000E30B0216940100004791023A94010027
:1002930000E40B021A940100002391023A94010036
:1002A30000E50B021C940100001191023A94010035
:1002B30000E60B021E94010000ED90023A94010047
:1002C30000E70B0222940100005492023A940100C9
:1002D30000E80B022694010000E90B01E803053F47
:1002E30010FFFFFF0001307503020106000000004C
:1002F30000000000000000000000000000000000FB
:100303000000000000000000FFFF0600800CE8036F
:100313000509544A4751051250002003020A0002FE
:1003230001060302F0FF53696D706C6520424C4572
:10033300205065726970686572616CD8130000EAB9
:1003430013E413DE130A43686172616374657269AF
:100353007374696320310002436861726163746579
:100363007269737469632032000843686172616360
:100373007465726973746963203300104368617232
:10038300616374657269737469632034000243683E
:100393006172616374657269737469632035000205
:1003A30030940100001394023A94010000F20C020D
:1003B3004A94030000D20A024494010000F30C02A1
:1003C3003A94010000040D024C94010000D30A0288
:1003D3004494010000050D023A94010000160D0239
:1003E3004E94020000D40A024494010000170D0247
:1003F3003A94010000280D025094000000D50A022F
:100403004294030000D60A024494010000290D021D
:100413003A940100003A0D022094040000DC0A0221
:1004230044940100003B0D1201220B95031201229B
:100433002295031201225195031201228A95031278
:100443000122B29503120122E09503120122F795CE
:10045300031201220E960312012224960312012293
:100463004B96031201225E96031201227496031225
:100473000122879603120122AC9603120122B5755D
:1004830000120122B47600120122E9760012012241
:100493000A77001201221A77001201223B77001219
:1004A3000122477800120122147900120122877970
:1004B300001201220D7A00120122507A0012012249
:1004C300877A001201220D7B00120122DF7B0012CA
:1004D30001223D7C00120122557C00120122CF7CB7
:1004E30000120122D27C00120122D57C00120122CB
:1004F3007C7D00120122947D00120122C47D001232
:100503000122E47D00120122D27E00120122887FA3
:1005130000120122BEDE02120122E6DE02120122D5
:1005230014DF021201224BDF02120122B3DF021297
:100533000122FCDF0212012247E00212012285E0C0
:1005430002120122C2E002120122F0E00212012291
:1005530097E102120122A1E102120122AEE102128D
:100563000122E1E102120122A3E202120122AFE21F
:1005730002120122C7E202120122D1E20212012277
:10058300CF9F03120122DD9F03120122F59F031265
:1005930001220DA003120122DAB20112012278B363
:1005A30001120122F0B30112012205B50112012249
:1005B3003FB501120122E8B501120122BDB60112B5
:1005C300012221B80112012278B801120122FFB8D9
:1005D30001120122E6B90112012233BA01120122EA
:1005E300C1BA01120122E5BA01120122BABC0112F9
:1005F3000122FBBC011201221DBD011201229EBD7D
:100603000112012288BE011201224EBF01120122F2
:1006130020C902120122F2C9021201229BCA02124C
:100623000122DECA021201226BCB02120122F7CB96
:1006330002120122D8CC0212012207CD021201229A
:1006430003CE021201224BCE021201224DCF02121F
:10065300012291CF02120122B7CF0212012255A12A
:1006630003120122E2F702120122F8F70212012219
:100673001EF80212012246F90212012250F9021257
:100683000122A9FA02120122A9FB021201222CD093
:100693000212012261D10212012294D1021201221B
:1006A300DED1021201229CD30212012255940112BF
:1006B3000122B89401120122FD95011201220D9627
:1006C300011201223096011201227B9601120122AE
:1006D300209701120122169801120122E0980112BB
:1006E3000122589A011201229A9A01120122389B7F
:1006F30001120122859B01120122AB9B01120122EF
:10070300999D011201229E9D011201227F9F0112D8
:100713000122D39F0112012235A0011201225DA003
:100723000112012201A101120122C3A1011201221E
:10073300F4A101120122F7A1011201223FA2011229
:10074300012281A201120122E8A201120122C08C1E
:1007530003120122D38C03120122EC8C0312012217
:10076300378D03120122128E03120122A18E03126E
:100773000122EC8E03120122FC2200120122082323
:1007830000120122412300120122862300120122BA
:100793003D2400120122C324001201222825001245
:1007A30001225425001201228D2500120122A127C6
:1007B300001201227D2900120122682B001201225E
:1007C3009F2C00120122FF2E00120122EB2F001298
:1007D30001223131001201223E32001201225B322A
:1007E30000120122933200120122AD3200120122C3
:1007F300153300120122AF370012012250380012C4
:100803000122A13800120122C83800120122163930
:100813000012012234390012012288390012012208
:10082300613A00120122E83B00120122703C0012DF
:10083300012214DA021201221EDA02120122E9DA7B
:100843000212012204DB021201222ADB021201221C
:100853006EDB02120122A6DB02120122CFDB02129F
:10086300012248DC021201225DDC0212012272DC49
:1008730002120122A9DC02120122BDDC02120122B2
:10088300EEDC0212012228DD0212012254DD0212E3
:100893000122AADD02120122FEDD0212012247DE3D
:1008A3000212012271DE0212012296DE02120122DD
:1008B300F6F302120122C0F402120122A3F502127E
:1008C300012219F6021201225BF60212012288F7B5
:1008D3000212012200800212012229800212012247
:1008E30042800212012287810212012265820212D2
:1008F30001228482021201221183021201225483F3
:1009030002120122A1840212012240850212012255
:10091300BF87021201225688021201222A8902127B
:1009230001220C8A02120122788B021201220B8C03
:1009330002120122BE9C03120122279D03120122EF
:100943007B9D03120122A29D0312012266E3021280
:100953000122D3E3021201221EE40212012213E553
:10096300021201220FE602120122F9E6021201220B
:1009730044AA0212012286AA0212012260AB0212C9
:10098300012239AC0212012234AD0212012213AE4C
:10099300021201227FAE0212012246AF021201228D
:1009A300B1AF0212012218B00212012243B00212A7
:1009B3000122B4B00212012247B102120122B0B1E6
:1009C30002120122C5B1021201220DB2021201224A
:1009D30026B2021201228BB2021201228EB202123D
:1009E3000122E286031201220A87031201224887A9
:1009F30003120122068803120122718803120122C5
:100A03008D8803120122B58803120122E58803129F
:100A13000122F488031201226E89031201229489B0
:100A230003120122B2A3011201224FA501120122D6
:100A330035A701120122FFA70112012246A80112C4
:100A430001228DA8011201229FA801120122DFA811
:100A5300011201220EA9011201225AA90112012237
:100A630092A901120122C0A90112012211AA0112A5
:100A73000122A0AA011201228EAD0112012268AF48
:100A830001120122A4AF01120122FEB001120122C0
:100A930045B101120122BAB10112012208B20112B9
:100AA30001223FB20112012241A1021201225EA1E1
:100AB30002120122F8A602120122FAA7021201224F
:100AC30074A90212012222AA02120122D73C0012A7
:100AD3000122203D001201224D3D00120122803DE2
:100AE300001201228D3D00120122993D00120122C4
:100AF300AB3D00120122803E00120122DE3E0012B5
:100B03000122133F00120122AF4000120122FC40D8
:100B1300001201222041001201228D410012012204
:100B2300324200120122EE42001201226D430012F2
:100B33000122314400120122404400120122C14427
:100B43000012012260450012012292450012012287
:100B53002D46001201228B4600120122C5460012C7
:100B630001224647001201220F4800120122B84811
:100B7300001201223F49001201229749001201226B
:100B8300F84900120122214A00120122D74A001219
:100B93000122214C00120122644C00120122814CDB
:100BA30000120122A04C00120122EB4C0012012280
:100BB300104D00120122394D00120122A84D0012DE
:100BC3000122EA4D00120122EE4E00120122884F4B
:100BD300001201225450001201226D500012012212
:100BE300A09702120122F39702120122FF97021229
:100BF3000122D49802120122FB9802120122369993
:100C030002120122A29902120122D6990212012292
:100C13000F9A02120122279A02120122809A0212CB
:100C23000122999A02120122E29A02120122F59AF2
:100C3300021201220F9B02120122259B02120122A2
:100C4300419C02120122529D021201229F9E021216
:100C53000122849F02120122F37F00120122B8EACB
:100C630001120122ECEA0112012257EE01120122C4
:100C7300A1EF011201226BF001120122F5F1011221
:100C83000122D0F2011201220AF3011201222DF3F3
:100C9300011201226FF30112012278F301120122E2
:100CA300C2F301120122CCF30112012278F40112E2
:100CB30001224CF501120122A0F50112012202F6D4
:100CC3000112012255F60112012284F601120122BA
:100CD300C3F601120122656300120122BF6B0012E9
:100CE3000122C56B00120122807100120122667578
:100CF300001201229483031201220A8403120122A7
:100D03002084031201225D840312012295840312BD
:100D130001221285031201224D8503120122C88587
:100D2300031201220486031201220D8603120122FB
:100D330019860312012233860312012258860312F5
:100D430001226E8603120122B2860312012252D5BA
:100D53000212012265D5021201227FD5021201225D
:100D6300A8D502120122EBD5021201222AD60212C1
:100D7300012268D602120122CDD602120122E2D646
:100D830002120122EDD602120122FAD60212012228
:100D930011D7021201221FD7021201222AD70212EF
:100DA300012236D70212012249D70212012254D757
:100DB3000212012277D70212012220D80212012245
:100DC30030D8021201224AD80212012267D8021235
:100DD300012283D802120122A8D802120122B2D81A
:100DE30002120122C6D802120122E5D80212012200
:100DF30046D9021201224CD90212012252D90212FF
:100E0300012258D90212012264D90212012297D970
:100E13000212012206D00112012288D001120122FE
:100E230031D10112012279D20112012287D4011298
:100E330001226DD501120122A2D501120122C4D5CE
:100E4300011201226DD6011201223DD801120122A5
:100E530066D801120122DED80112012210D9011233
:100E630001221DD90112012268D9011201228CD954
:100E730001120122DDDB01120122E7DC0112012252
:100E830043DD0112012283C10112012294C2011226
:100E9300012278C30112012282C301120122A4C3D9
:100EA30001120122B0C30112012254C50112012211
:100EB30081C50112012297C601120122ECC601125B
:100EC30001223BC80112012210C9011201226CC97F
:100ED30001120122D7C9011201220CCA01120122F7
:100EE3004FCA0112012219CD0112012231CD011283
:100EF3000122C2CD01120122D0CD011201221DCE49
:100F0300011201222BCE0112012297CE01120122DE
:100F130012CF0112012269CF01120122828C021227
:100F23000122A48C02120122B58E021201227491B5
:100F3300021201229E92021201225C9302120122EA
:100F4300489402120122529303120122779303124F
:100F53000122ED930312012203C2021201220CC2E9
:100F63000212012215C202120122EDC20212012253
:100F73009EC402120122CEC402120122F9C402123B
:100F8300012229C50212012254C50212012288C579
:100F930002120122B4C502120122F7C50212012274
:100FA30022C60212012269C602120122BEC6021221
:100FB300012200C7021201225AC70212012285C769
:100FC30002120122D4C70212012204C80212012212
:100FD3002FC8021201225DC80212012280C8021228
:100FE300012282FF01120122AEFF01120122DBFF67
:100FF30001120122E5FF01120122F5FF0112012274
:10100300DC8903120122018A031201222C8A0312B2
:10101300012243A3031201229F5000120122805296
:10102300001201223C540012012239550012012200
:10103300C155001201224256001201226B560012C2
:101043000122BB56001201224E5A00120122BF5A3E
:1010530000120122B05B00120122EA5B001201229E
:101063002A5C001201225D5D00120122B05D0012B4
:101073000122F95D00120122675E00120122995ECE
:1010830000120122B35E00120122A55F00120122A9
:10109300B55F001201225B6100120122726100122E
:1010A3000122A46100120122266300120122A6A0DC
:1010B30003120122B7A003120122FAA20312012292
:1010C30039A30312012234A40312012252FF021294
:1010D300012262FF021201227DFF02120122E5FFBB
:1010E30002120122D39D03120122579E03120122F1
:1010F300BF9E03120122D89903120122019A0312FF
:1011030001226E9A03120122C19A031201221A9B31
:1011130003120122BBE702120122F2E702120122AB
:1011230062E80212012277E8021201227EE902122A
:10113300012205EA02120122CBEA02120122EAEAA3
:10114300021201220FEB0212012244EB02120122CE
:101153005CEB02120122ADEB02120122B3FB02127D
:101163000122CDFB0212012246FC021201221BFDC9
:1011730002120122EDFE02120122E2EB021201220F
:1011830072EC02120122F0EC0212012274ED02123F
:10119300012206EE02120122C2EE021201228FEF99
:1011A3000212012299EF02120122A8EF0212012278
:1011B300BEEF02120122D1EF02120122DBEF021273
:1011C3000122EEEF021201224D98031201227698BA
:1011D300031201229F98031201223999031201225B
:1011E300519903120122939903120122B2B20212FE
:1011F3000122BCB202120122FCB20212012245B347
:10120300021201227FB302120122D5B3021201227C
:10121300F4B3021201227CB60212012285B6021235
:101223000122D6B602120122FFB60212012209B729
:10123300021201227AB70212012208B80212012215
:101243005DB8021201228CB80212012208B90212FF
:10125300012245B9021201227CB9021201228EB980
:1012630002120122ADB902120122B6B90212012201
:1012730068BA02120122BE96031201220E970312CC
:101283000122809703120122E89703120122168F8D
:1012930003120122408F031201220790031201223D
:1012A300E39003120122D89E0312012256910312E6
:1012B30001228C9103120122BF9103120122189380
:1012C30003120122DEA103120122F4A1031201225F
:1012D300FEA10312012248A2031201229EF701126A
:1012E30001225BF80112012296F801120122C7F8CC
:1012F3000112012229F90112012275F901120122B9
:10130300E0F9011201225AFA0112012259FB0112DA
:101313000122E0FC0112012263FD01120122C9FD39
:1013230001120122DCFD01120122D7FE011201226A
:1013330024FF01120122F1EF0212012207F002122F
:101343000122ABF002120122EAF00212012207F19C
:101353000212012238F10212012285F10212012246
:10136300B9F102120122F4F102120122E9F302128D
:10137300012290DD01120122C7E00112012243E2A2
:10138300011201229AE201120122B7E201120122A3
:1013930035E301120122B2E40112012296E50112A2
:1013A300012245E90112012215EA01120122559B8E
:1013B30003120122639B03120122CE9B031201221B
:1013C300209C031201223E9C0312012294BA0212B2
:1013D3000122E1BC0212012223BE021201227CBFC0
:1013E3000212012202C002120122E9C002120122EA
:1013F30087C10212012200800312012245800312D9
:1014030001226280031201221881031201226B81DF
:10141300031201224282031201225B83031201227F
:10142300C1A3031201228AA303120122EDA3031213
:10143300012216A403E066701008A3E066700A0890
:10144300A3E066700408A3E06622C3E7960809E7F1
:10145300960809E7960809E79622C3E09608A3E0F1
:101463009608A3E09608A3E09622C008C3E096F589
:101473000808A3E096420808A3E096420808A3E000
:101483009645087001D3D00822080808EAC0E0EBAB
:10149300C0E086F0E7A4FA180986F0E7A42AFA1850
:1014A3000986F0E7A42AFA180986F0E7A42AFA19AC
:1014B30086F0E7A4FBE5F02AFA190886F0E7A42BE7
:1014C300FBE5F03AFA190886F0E7A42BFBE5F03ABE
:1014D300FA18180986F0E7A4C5F02BFBE43AFA19C9
:1014E30008E7C5F0C6A426F6E5F03BFBE43AFA1894
:1014F30086F0E7A4F6E5F00826F6E43B08F6E43ABE
:1015030008F6D0E0FBD0E0FA22E4CFC0E0E4CEC09E
:10151300E0E4CDC0E0E4CCC0E075F020E626F608B8
:10152300E633F608E633F608E633F6181818EC3314
:10153300FCED33FDEE33FEEF33FFC3EC9709ED977C
:1015430009EE9709EF97191919400FFFEC97FC095A
:10155300ED97FD09EE97FE191906D5F0BFECF709D3
:10156300EDF709EEF709EFF7191919D0E0FCD0E010
:10157300FDD0E0FED0E0FF226016080808C6C313C2
:10158300C618C613C618C613C618C613C6D5E0EACE
:10159300227009080808226016181818C6C333C633
:1015A30008C633C608C633C608C633C6D5E0EA2222
:1015B300E627F60809E637F60809E637F60809E6E6
:1015C30037F622E026F608A3E036F608A3E036F65F
:1015D30008A3E036F622E026F008A3E036F008A3DD
:1015E300E036F008A3E036F022C3E697F60809E6F2
:1015F30097F60809E697F60809E697F622C3E096F8
:10160300F008A3E096F008A3E096F008A3E096F0B4
:1016130022E056F608A3E056F608A3E056F608A320
:10162300E056F622E056F008A3E056F008A3E05691
:10163300F008A3E056F022E0F608A3E0F608A3E0E2
:10164300F608A3E0F622E6F008A3E6F008A3E6F026
:1016530008A3E6F022E0FAA3E0FBA3E0FCA3E0FD8D
:1016630022EAF0A3EBF0A3ECF0A3EDF022E0F8A361
:10167300E0F9A3E0FAA3E0FB22E8F0A3E9F0A3EA90
:10168300F0A3EBF022CAC0E0E6F0A308DAFAD0E058
:10169300FA22CAC0E0E0A3C582CCC582C583CDC50A
:1016A30083F0A3C582CCC582C583CDC583DAE6D0DA
:1016B300E0CA22C3E498F8E499F91216F78026C326
:1016C300E49AFAE49BFBE920E7E91216F7E498F8B9
:1016D300E499F922C3E498F8E499F91216F7E49827
:1016E300F8E499F9C3E49AFAE49BFB22EB20E7CFF1
:1016F300E920E7E0B90010BB0008E88AF084F8AA03
:10170300F022E4FBC8FA22EB70227B10C833C8C96D
:1017130033C9335007C39AC3DBF280069A50012AB8
:10172300DBEAC833F4C8C933F4C9FA2275F008E414
:10173300C833C8C933C933C99AC99B5004C92AC914
:101743003BD5F0ECFBC833F4C8E4C9FA22600D08BA
:10175300C6A2E713C618C613C6D5E0F322600C0869
:10176300C6C313C618C613C6D5E0F422700422609C
:101773000D18C6C333C608C633C6D5E0F4182225F0
:101783001810AF08F518400C15198008F518400219
:101793001519D2AF2200C0D0251810AF08F5185084
:1017A3000C05198008F51850020519D2AFD0D022C4
:1017B3002518F58210AF08F518400C15198008F5A7
:1017C3001840021519D2AF85198322C5822518C581
:1017D30082C583351910AF07F5198582188007F57F
:1017E30019858218D2AFC583222518F582E43519ED
:1017F300F583222518F8E43519F9222518FAE4357A
:1018030019FB222518FCE43519FD22E4732518C5BC
:1018130082C0E0E51934FFC583C0E0E518C39582B3
:1018230024F810AF088583198582188008858319E9
:10183300858218D2AFCEF0A3E520F0A37808E6089E
:10184300F0A3DEFAEFF0A3E58124FAF8E608F0A3AB
:10185300E608F0A3E608F0A30808E608F0A3E60804
:10186300F0A315811581D0E0FED0E0F81581158134
:101873001581E8C0E0EEC0E0222518C582C0E0E58E
:101883001934FFC583C0E0E518C3958224F910AF6E
:10189300088583198582188008858319858218D263
:1018A300AFCEF0A3E520F0A37808E608F0A3DEFAB4
:1018B300EFF0A3E58124FBF8E608F0A3E608F0A324
:1018C3000808E608F0A3E608F0A315811581D0E027
:1018D300FED0E0F815811581E8C0E0EEC0E0228576
:1018E3001983851882E0A3FEE0A3F5207808E0A31E
:1018F300F608DFFAE0A3FFE0A3C0E0E0A3C0E0E066
:10190300A3C0E0E0A3C0E0E0A3C0E010AF0885827D
:10191300188583198008858218858319D2AFD083EF
:10192300D08202011F851983851882E0A3FEE0A3FC
:10193300F5207808E0A3F608DFFAE0A3FFE0A3C0F0
:10194300E0E0A3C0E0E0A3C0E0E0A3C0E010AF0884
:101953008582188583198008858218858319D2AFFB
:10196300D083D08222C0D02518C582C0E0E51934C7
:10197300FFC583C0E0E518C3958224F310AF088543
:1019830083198582188008858319858218D2AFC888
:10199300F0A3E9F0A3EAF0A3EBF0A37908E709F0D9
:1019A300A3D8FAECF0A3EDF0A3EEF0A3EFF0A3D0ED
:1019B300E0F0A3D0E0F0A3D0E0F0A3E520F0A3E5AE
:1019C300F0F0A322851983851882E0C0E0A3E0F933
:1019D300A3E0FAA3E0FBA37808E0F608A3DFFAE0AC
:1019E300FCA3E0FDA3E0FEA3E0FFA3E0C0E0A3E0CF
:1019F300C0E0A3E0F5D0A3E0F520A3E0A3F5F01049
:101A0300AF08858319858218800885831985821814
:101A1300D2AFD082D083D0E0F8D0E0327404800615
:101A2300740280027401C0E0F4041217B3D0E01210
:101A33001688227404800474028000CCC0E0EDC0D8
:101A4300E0E518C39CCCAD1950011D10AF068C18EE
:101A53008D1980068C188D19D2AF121695D0E0FD22
:101A6300D0E0FC22D083D082E9C0E0E493A3C38614
:101A7300F0C5F095F0F908E493A386F0C5F095F06E
:101A8300700BE493A3C3994005E9048002A3E475B2
:101A9300F002A42582F582E5F03583F583D0E0F9E1
:101AA300E493A3C0E0E493C0E022D083D082ECC0EF
:101AB300E0EDC0E0E493A3FCE493A3FDED4C600DE3
:101AC300121AF9EC24FFFCED34FFFD80EFE493A33D
:101AD300FCE493A3FDED4C600D121B38EC24FFFCDA
:101AE300ED34FFFD80EFD0E0FDD0E0FCE493A3C034
:101AF300E0E493C0E022C0E0C3E49396087401934A
:101B03009618400FE4936670080874019366187082
:101B1300007019A3A3C3E49396087401939618A3C2
:101B2300A3400DD0E0D0E0D0E0021AE9A3A3A3A321
:101B3300A3A3D0E022C0E0C0F088F0E4936670086D
:101B43000874019366187000A8F0A3A3700BD0F07B
:101B5300D0E0D0E0D0E0021AE9A3A3D0F0D0E02295
:101B640074F512187CEAFEEBFFEE2434F8EF34002F
:101B7400F988088909EE2435121C9CF8EE243712E2
:101B84001C9CF50AEC850AF0A4FCAAF0850AF0ED89
:101B9400A42AFDE82CF8E43DF97A257B001216F717
:101BA400EA850882850983F05407F87401B80002B5
:101BB4008004C333D8FCC0E0E0131313541FF8EEC1
:101BC40028F8EF3400F9E8245DF582E93400F58360
:101BD400D0E0F8E0586008850882850983801DEE0E
:101BE4002436121C9CF5F0EA84A8F0EE28F8EF34B1
:101BF40000F9E82438F582E93400F583E0F97F043C
:101C040002192874F512187CEAFEEBFFEE24341254
:101C14001C9CC0E0EE2435F582EF3400F583D0E05F
:101C2400F08E828F83A3A3A3A3A3E0FAA3E0FB8E89
:101C3400828F83A3A3A3A3A3A3A3E0FCA3E0FDEC4F
:101C4400C39AF50AED9BF50BEE2480F508EF3400FA
:101C5400F509850882F583E06401702BEE2481F593
:101C640082EF3400F583121A3A121CA5740212177B
:101C740098E960137CFD7D04EEFAEFFB120B868578
:101C84000882850983E4F0AC0AAD0BEEFAEFFB128F
:101C94001B641221F8021C02F582EF3400F583E084
:101CA40022C082C083851882851983E0F8A3E0F9F5
:101CB400C3EA9CEB9D5012C3EC98ED994019C3EA1A
:101CC40098EB99501279018010C3EA98EB9940F58A
:101CD400C3EC98ED9950EE7900D083D08222EAC308
:101CE4009CFAEB9DFB2200008521878522C622C039
:101CF400E074EF121968759B00906182E0A2E640DF
:101D040003021DB4E591A2E64003021DB47591BF20
:101D14009003C2E064057008120D24120D30800394
:101D2400120D2A752100120D96E99003C3F0790073
:101D3400120D8A120AF07A017B009003C1E0F912B5
:101D4400124C907803E064426003021DFD90055F2D
:101D5400E014F06003021DFDC2AF121D6100782A79
:101D6400D0E0F618D0E0F6E59F5407F9700590939B
:101D7400CB80039093D7780812163AE9C4C0E07870
:101D840029E65508F50808E65509F509740B78089D
:101D9400121760D0E02508F8906270E0A2E740F8DE
:101DA400E8C333906272F0906270E0D2E0F0804950
:101DB400E0A2E55024E591A2E5501E7591DF900361
:101DC400C2E0640D70139003E4E004F06428700230
:101DD400E4F07A00E0F9120E08906181E0A2E35089
:101DE40009E5E9A2E3500375E9F7A3E0A2E7500986
:101DF400E591A2E7500375917F7F040219C7C0E003
:101E0400C0D0C082C083906183E0A2E05009E5BFE6
:101E1400A2E0500375BFFEE0A2E15009E5BFA2E1D4
:101E2400500375BFFDE0A2E25009E5BFA2E25003F2
:101E340075BFFBE0A2E35009E5BFA2E3500375BF01
:101E4400F7E0A2E45009E5BFA2E4500375BFEFE058
:101E5400A2E55009E5BFA2E5500375BFDFE0A2E6A5
:101E64005009E5BFA2E6500375BFBFD083D082D02E
:101E7400D0D0E032C0E074F2121968E5A7A2E450B1
:101E84000FE5A1A2E4500953A7EF75A1EF121ECCF0
:101E9400E5A7A2E5500CE5A1A2E5500653A7DF751E
:101EA400A1DFE5A7A2E15009E5A1A2E1500375A1D4
:101EB400FDE5A7A2E2500CE5A1A2E2500653A7FB60
:101EC40075A1FB7F010219C774F812187C752101F2
:101ED4009003C2E0640670077A007B00120D0CA226
:101EE400AFE433FED2AF9003C8E0640170187A20E7
:101EF4007B009003C1E0F912135A7A207B0090030F
:101F0400C1E0F9121252906182E0D2E6F090055ECF
:101F1400E0602185C62280169003C7E06401700842
:101F2400E5C654F84405F5C653BEFC121CEC740116
:101F3400652160E4EEA2E092AF7F0102192800005F
:101F44008E238F248582288583278518828519838B
:101F5400E0CEA3E0CF852882852783EBC9EAC8EDCC
:101F6400CBECCA75F010C3E833C8E933C9EA33CA05
:101F7400EB33CBC3EA9EF526EB9FF525B35004ABB8
:101F840025AA26EC33CCED33CDD5F0DAAE23AF243D
:101F94002274F112187C8A088B098C0A8D0B740F39
:101FA4001217EC780C12163A9093A77808121614AC
:101FB4009093A7780C1216147808790C12144D50CB
:101FC400157808790C1215EC9093FF780812146DAB
:101FD400401579018013780C79081215EC9093FF61
:101FE400780C12146D40EB79007F0802192874ED07
:101FF40012187C8A088B098C0A8D0B74131217EC47
:10200400780C12163A9093A778081216149093A796
:10201400780C121614780C790812144D40117808B3
:10202400790C1215ECAA08AB09AC0AAD0B80227529
:1020340010007511007512007513017810790C12D7
:1020440015EC781079081215B3AA10AB11AC12ADC7
:10205400137F0C0219289093A7780812163A8A82E3
:102064008B8378081216277F0402192874F5121836
:102074007C8C828D83780812163A8A828B83780846
:102084001216001220C4C3E098F0A3E0991220B6FF
:10209400401E9093D3780812163A8A828B8378086C
:1020A4001215D98E828F83E02420F0A3E0344EF001
:1020B40080A4F08E828F83C3E09420A3E0944E2208
:1020C400EA2404F8EB3400F9E8FEE9FF8C828D83FE
:1020D400A3A3A3A3E0F8A3E0F98E828F832274F56F
:1020E40012187CE9FE900514E0FAA3E0FBEEC3337A
:1020F400F8E433F974DD28F582749139F583E02A24
:10210400F508A3E03BF5097808121A239093B3125B
:102114001658121F4474021217988A088B098C0AE5
:102124008D0B7410780812157BAA08AB097F040282
:10213400192874F112187C8A0C8B0D8C0E8D0F7477
:102144000F1217ECE0FAA3E0FB74111217ECE0F5A0
:1021540008A3E0F50974131217ECE0FEA3E0FF787E
:1021640008121A23EA2401F508EB3400F509E4F512
:102174000AF50B780C790812148C9093DF78081206
:10218400163A780C790812148CAA0CAB0DAC0EAD6F
:102194000F121F4474021217988B09EA4509600450
:1021A4007A0180027A00EC2AFCED3400FDECF8EDB3
:1021B400F97A717B021216F788088909E4F50AF5A1
:1021C4000B8E828F837808121649ECF8EDF97A7138
:1021D4007B021216F78A088B097405780812176FA8
:1021E4008E828F83A3A3A3A3E508F0A3E509F07F60
:1021F40008021928C082C083E9906000F0D083D01F
:102204008222C0E074F2121968A2AFE433FED2AFA6
:10221400C2C0E5D1A2E4500653D1EF1211C2EEA21E
:10222400E092AF7F010219C7C0E074F2121968A2EC
:10223400AFE433FED2AFE589A2E1500312110E756B
:102244008900C2C5EEA2E092AF7F010219C7C0E0C7
:1022540074F2121968A2AFE433FED2AFE58BA2E0A8
:10226400500312110E758B00C2E880D8C0E0C0D0B4
:10227400E8C0E0A8A8D2AFC2C7E8A2E792AFD0E016
:10228400F8D0D0D0E032C0E0C0D0E8C0E0E9C0E08F
:10229400EAC0E0EBC0E0C082C083A2AFE433F9D26D
:1022A400AF9009E9E0F8A3E0687008539AFBA374BF
:1022B400018022C2E99009E9E0F8740128F0746908
:1022C40028F582E43409F583E0F5C19009E9E0C317
:1022D40094804002E4F0E9A2E092AFD083D082D0AF
:1022E400E0FBD0E0FAD0E0F9D0E0F8D0D0D0E03292
:1022F400FFFFFFFFFFFFFFFFC082C083E9900B9E3B
:10230400F002258074F7121810E99002E0F07C18AE
:102314007D037AFF7BFF1208089002E174FFF0A3AB
:10232400F0A3E4F0A3F079051207909002E0E0F93D
:102334001206B87A267B081209E802328E74F41267
:1023440018108A088B09EB548060309002E0E0F9A1
:102354001212348A0A8B0BAE0AAF0BEE4F60138E47
:10236400828F83E064B070031207A8EEFAEFFB12C9
:102374001222AA08E5096480FB80047A007B00022B
:10238400254F74F212181074FC121782EAFEEBFF48
:1023940074121217EC123775EE4F7003022429746D
:1023A400021217ECEEF0A3EF12278AECF0A3ED1261
:1023B400278AAA82AB831206B2E9F50A706AE50895
:1023C400450960648E828F8312375BEE4F60567AC4
:1023D400067B001212B88A0C8B0DA80CA90DE849D3
:1023E4007005750A13804188828983E4122436EECD
:1023F400F0A3EF123786E508F0A3E509F09002E6B2
:102404001224BD9002E67005123238801B12322667
:102414008003EAFCEBFD8C828D831224BD70F38C67
:10242400828D8380E3750A02A90A74041217980244
:102434003975F0A312372CA32274F2121810890AEA
:10244400E975F017A4FEAFF09002E5E4F09002E322
:102454001224BD600A1212BE9002E3E4F0A3F0EE6F
:10246400FAEFFB1212B88A088B09EA4509602FEECD
:10247400FCEFFD790012120A9002E3E508F0A3E5EF
:1024840009F07B0080081224A7E4F0A3F00BEBC34F
:10249400950A40F2E50A9002E5F07900800279138A
:1024A400023975EB75F017A4F8A9F09002E3E0285F
:1024B400FAA3E0398A82F58322122ECAEA4B2274E7
:1024C400F4121810740C1217EC123750FEE9FF7551
:1024D4000800750900800CE5082401F508E50934B5
:1024E40000F509C3E5089CE5099D503285080A8575
:1024F400090B7403780A12176FEA250AF8EB350BF7
:10250400F988828983A3A3A3A3A3A312330DEE6541
:102514000A7003EF650B70BFE8FAE9FB80047A00E8
:102524007B00802774F41218107900EAA2E0501B93
:1025340075086E7509937808121A237C047D007A55
:10254400A07B0B12078A74021217987F040218E208
:10255400C082C0839002E6122587601C888289832A
:10256400A3A3E06A7003A3E06B8882898370E8A365
:10257400A3A3A3122EC680047A007B00D083D0824A
:1025840002011F123A5BE8492274EE12181074FC1F
:10259400121782EAFEEBFF851882851983E4F0A303
:1025A400F0EE2402123218EE2405123733EE24041E
:1025B400F50EEF122B3FE024FE603924FC60462424
:1025C400FE605224FE605E24FE70030226A024FEF8
:1025D400700302270424FE700302271324FE7003F1
:1025E40002272224FC700302273124FE70030227F1
:1025F4004002277D9002FF7417F0A3E41227921281
:10260400043002277D851882851983AC82AD83123C
:1026140007AE02274D851882851983AC82AD8312DB
:1026240007B402274D850C08850D0974021217ECB6
:10263400AC82AD83850882850983122EC61206D624
:102644008A0C8B0DAC0CAD0DEC4D603BE4F50CF538
:102654000D780C121A23750CFF750D02780C121AE2
:1026640023750C00750D03780C121A2374081217C5
:10267400EC121A3A123BD7121798E9F50C700B12A8
:102684002EBC120448800F750C01850882850983CD
:10269400122780123238850C080227507402121750
:1026A400ECAC82AD83850C82850D83122C91603C49
:1026B400850C82850D83A3A3121A3A7510FF751138
:1026C400027810121A237510007511037810121A6B
:1026D4002374081217EC121A3A123BD7121798E90E
:1026E400F509700B122EBC12044E800F750901857A
:1026F4000C82850D83122780123238850908804C9C
:10270400851882851983AC82AD831207BA803A8515
:102714001882851983AC82AD831207C0802B85187B
:1027240082851983AC82AD831207C6801C8518820A
:10273400851983AC82AD831207CC800D8518828500
:102744001983AC82AD831207D2E9F508E508602944
:102754008E828F83A3E06414601F850E82850F83AD
:10276400E09002FF12278A123A579003001232387F
:10277400E508A312279212042A023127123A5B8534
:10278400188285198322F085188285198322F07CAA
:10279400FF7D02850A82850B83122ECA2274EE12F3
:1027A400181074FC1217828A0A8B0B8C0E8D0FEA98
:1027B4002405F508EB3400F5097C157D0079007AD1
:1027C400FF7B0212120AE5082402F50CE509123710
:1027D40036851882851983858210858311781012B5
:1027E4001A23850882850983A3A3A3A3122C881224
:1027F4001A23E5082405F510E5093400F5117810CD
:10280400121A23850C82850D83122FDD1206D074D3
:10281400061217988A108B11AE10AF11E50A240224
:10282400F50AE50B12321BEE4F700302295F801785
:1028340074021217EC122EC688828983EAF0A3EB85
:10284400F09002FFE004F09002FFE0C3940540031F
:1028540002295FE4F510F5117810121A237510E8B7
:102864007511027810121A237510E9751102781087
:10287400121A2374061217EC121A3A7910EEFCEFAE
:10288400FD123BD9121798E9705E85088285098389
:10289400A3A3A3A3A3A3A3E0F89002E8E06870486D
:1028A400122C88121A237CE97D02E5082408FAE533
:1028B400093400FB1212047402121798E960298E7D
:1028C400828F83A3A3A3A3122EC69002FFE0F51068
:1028D4007402781012176F74002510F58274033592
:1028E40011F583EAF0A3EBF074021217EC85821061
:1028F4008583117810121A2374021217EC121A3AF3
:10290400850C82850D83122EEC1217988A108B1178
:10291400AE10AF119002FFE0F5107511007402784B
:102924001012176F74FF2510F874023511F988829C
:102934008983A31224BD700302282BE8240308080A
:1029440008E93400F9EE4F60030228348882898351
:1029540074FFF0A3F09002FFE004F09002FFE06047
:102964000A122EBC12043C7900800B85088285096A
:102974008312322F790A02312774EA12181074FE76
:102984001217828C128D13EA2405F50CEB123BC14D
:1029940012375F750800750900EA2402F510EB345C
:1029A40000F51185188285198385820A85830B7841
:1029B4000A121A23850C82850D83A3A3A3A3122BC9
:1029C40055121A23E50C2405F50AE50D12321B787D
:1029D4000A121A23850C82850D83122B591206D0F4
:1029E40074061217988A0A8B0BEA450B7003022AA5
:1029F400FAEA2404F50EEB122B3F12375F8A828B1E
:102A040083A3A3A3E0F9851082851183122ED060DD
:102A140003022AFAE4F514F5157814121A2375142E
:102A2400E87515027814121A237514E975150278DD
:102A340014121A2374061217EC121A3A7913AC0AF8
:102A4400AD0B851082851183123BDF121798E9F5CF
:102A5400096003022AFA9002E8E0F8E5087009E048
:102A64002402900300F08014900300E0FCE82402A8
:102A7400FAE43400FBEA6C7001EB707E850882AAEC
:102A840082122C7F9414122C77506B850E82850F42
:102A940083E0C0E074012A122B36D0E0F0050885EB
:102AA4000E82850F83A3E0C0E085080A7401250A1D
:102AB400122B36D0E0F005089002E8122B55121ABA
:102AC400237CE97D0285080A7401250A122B491228
:102AD40017989002E8E02508F50874FF6E700374F7
:102AE400FF6F6012EE24010EEF3400FFE508C3947B
:102AF4001450030229A7E5086013122EDA85108208
:102B0400851183122EC612044279008014E50970DF
:102B14000375090A851282851383EEF0A3EFF0A9E9
:102B24000974021217987F0E0218E285080C7401CA
:102B3400250CF58274033400F583223400F50F85E7
:102B44000E82F58322FA74033400FB1211F274022C
:102B54002212379522A3A3122B5F22123226FDEEF6
:102B6400FAEFFB2274EE12181074FE1217828C0E08
:102B74008D0FEA2405F50CEB123736750B00900225
:102B8400FFE4F0F50AEA2402F508EB3400F50980C5
:102B9400449002FFE0FA9002E8E0F8122C7F9417C8
:102BA400122C77400D9002FFE0F87416C39890023F
:102BB400E8F0122C88121A237CE97D0274002AFAA8
:102BC4007403122B4C1217989002E8E0F89002FF5D
:102BD400E028F0050AE50C2416F582E50D122B3ADF
:102BE400E0F8E50AC39850749002FFE0C3941650CD
:102BF4006BE50AC333F8E433F9E50C28FEE50D3937
:102C0400FF851882851983AC82AD838E828F8312EF
:102C14002C917008750B0112322B8050E4F510F5DD
:102C2400117810121A237510E87511027810121A0F
:102C3400237510E97511027810121A2374061217FD
:102C4400EC121A3A7916850882850983123BDF1241
:102C54001798E9F50B7003022B9580BB7CFF7D026E
:102C6400850882850983122EC6120454A90B7402A6
:102C7400023129E99400C365D03322EA28F8E43408
:102C840000F9E822E0F51075110078102212311EC7
:102C94008A108B11AC10AD11EC4D2274EA1218108D
:102CA40074FC1217828A0C8B0D8C128D13EA240586
:102CB400F50AEB12321B750800750900E50A2402B7
:102CC400F510E50B3400F51174021217EC85820E31
:102CD40085830F780E121A23850A82850B83A3A39A
:102CE400A3A312373B121A23E50A2405F50EE50BBC
:102CF4003400F50F780E121A238510828511831281
:102D04003221122EC01206D074061217988A0E8B26
:102D14000FAE0EAF0FE50C2402F50EE50D3400F5F1
:102D24000F80388882898374FFF00508122B2F7472
:102D3400FFF005089002E8E0F50C750D00780C1220
:102D44001A237CE97D0285080C7401250C122B4999
:102D54001217989002E8E02508F508EE4F60278ED8
:102D6400828F83A3A3A3E0F9850E82850F83122E9D
:102D7400D0EE2404123733E96027850C82850D8355
:102D8400122EB2123238E5087003022E98122EDA8F
:102D9400850E82850F83122EC612045A7900022EE4
:102DA400ADE4F514F5157814121A237514E87515A5
:102DB400027814121A237514E97515027814121A7C
:102DC4002374081217EC121A3A7911EEFCEFFD8500
:102DD4000E82850F83123BDF121798E9F509709A6A
:102DE400850882AA82EA9002E87009E0240490032C
:102DF40000F08025E0F8900300E0F514E82404FCDA
:102E0400E43400FDEC65147001ED7081122C7F94A4
:102E140012122C774003022D91850C82850D83E0DC
:102E2400C0E074012A122B36D0E0F00508850C822C
:102E3400850D83A3E0C0E0122B2FD0E0122EF58580
:102E4400820C85830D780C121A2374041217EC1269
:102E54001A3A851082851183122EEC1217988A0C67
:102E64008B0DAE0CAF0D85080C7401250CF87403A2
:102E74003400F9EE4F7003022D27851882851983DB
:102E8400E088828983122EF5A3E0C0E0122B2FD0B4
:102E9400E0022D35E509700375090A850A82850B60
:102EA40083122EB2123238A9097404022B27123A63
:102EB4005B851282851383227CFF7D02850A8285CD
:102EC4000B83122ECA22E0FAA3E0FB22122ECA12AE
:102ED40006BEE9F50922900300E0F5F0E5088490C8
:102EE40002FFF07CFF7D0222122B5F1206DC7404C9
:102EF40022F005088518828519832274EC121810B3
:102F040074FE1217828A088B098C0E8D0FEA240531
:102F1400FEEB3400FF123108EE2418123733EA4571
:102F24000B7003022FAB1230F15029122FD08A10EC
:102F34008B11EA4511606B7912AC0AAD0B850882DE
:102F4400850983122EC685108285118312180EE915
:102F5400F50A7058E4F50AF50B780A121A238E82E2
:102F64008F83A3A3E0F50A780A121A23EE2403122E
:102F74003218780A121A238E828F83122FDD1207D9
:102F8400F67406121798E9F50A7021850C82850DEE
:102F940083E0701F850882850983122EC61204609F
:102FA4008011750A0E8009750A018004E50A600320
:102FB40012322B850C82850D83E060047900800237
:102FC400A90A74021217987F0C0218E285188285E8
:102FD4001983122ECA1207E422123226FD850882B2
:102FE400850983122ECA2274EE12181074FE121769
:102FF400828A088B098C0C8D0DEA2405FEEB3400C3
:10300400FF750E00123108EA450B70030230CF122F
:1030140030F1502C122FD08A0E8B0FEA450F604AE4
:103024007912AC0AAD0B850882850983122EC685F8
:103034000E82850F8312180EE9F50E60030230D25A
:1030440085088285098312330DAA0AFB1230E370C6
:10305400147AFF7BFF1230E3606C88828983E50A6F
:10306400F0A3E50BF0750A008007750E0E805F056E
:103074000A9002E5E0FAE50AC39A504AE50A75F0B7
:1030840017A4FAABF088828983A3A3E02AFAA3E009
:103094003BFB8A828B83123221EC4D70D2750A1766
:1030A400750B00780A121A23EEFCEFFD1211F2746C
:1030B40002121798EEFCEFFD850882850983122E13
:1030C400C61204668014750E098003750E01123A47
:1030D40053850C82850D83123238A90E022C72128C
:1030E40007D88A108B11A810A911E84922E50824F1
:1030F40002F508E5093400F5098A828B83A3A3A3AA
:10310400E0A2E522851882851983AC82AD838E8284
:103114008F8312311E8A0A8B0B22E0FAA3E0FB1282
:1031240006D62274041217987F0A0218E274EC126D
:1031340018108C108D11EA2405F50CEB1237367536
:103144000F00EA2402F50AEB12321B850A82F5838A
:10315400122EC6123C65700302320D750E0080718A
:10316400850C82850D83E06401704F8E828F83A36A
:10317400A3121A3A8E828F83A3A3A3A3E0F5127538
:1031840013007812121A23EE2405F512EF3400F519
:10319400137812121A23122EC01207F6740612178D
:1031A40098E9F50F6014850C82850D83E4F0123ADA
:1031B400538510828511831232387C177D00790083
:1031C400EEFAEFFB12120A8E828F83E4F0A3F0056D
:1031D4000E9002E5E0F8E50EC398501EE50E75F07A
:1031E40017A4F8A9F0850882850983A3A3123BCB11
:1031F400123221EC4D600302316485088285098313
:1032040074FFF0A3F0E50F7006122EC012046CA92F
:103214000F022FCBF50AEF3400F50B22A31232264E
:10322400FD22E0FCA3E0228E828F83123A5B850E9E
:1032340082850F83E8F0A3E9F022C082C083900264
:10324400E1E06A7003A3E06B70067AE17B0280041C
:103254007A007B0002258074F71218107F00EF7546
:10326400F003A4F8A9F0EC28F8ED39F988828983F1
:10327400E06A7003A3E06B7006E8FAE9FB800B0FC9
:10328400EFC3940240D87A007B007F010218E274F5
:10329400F612181012384470067A007B008007A3D7
:1032A400A3A3A3122EC602390574F2121810E9FE64
:1032B400740E1217EC12330D74101217EC123775CA
:1032C4008C828D83E06402703BA3123A5788828912
:1032D40083E0F50CA3E0F9A80C7402687003742968
:1032E400697021750C02750D00780C121A23780888
:1032F400121A23780A121A23EEF912081A74061203
:10330400179880027901023975E0F50AA3E0F50BFC
:103314002274E812181074FB121782E9851882854A
:103324001983F08A168B178C0E8D0F741F1217ECED
:1033340012377574211217EC12330D74231217EC23
:1033440012375F7510008C828D83A3A3A3E0A2E4DF
:10335400502A741D1217EC122FD68A828B83E582B1
:1033640045837003023421790AAC0EAD0FAA16AB63
:103374001712180EE9F5106003023424850E8285B5
:103384000F83E0640260030236DAA3123A57850819
:1033940082850983A3858212858313E50E2406F5AD
:1033A4000CE50F12373688828983E0FAA3E0F9EA44
:1033B4002400F514E439F5157814121AAD0100004F
:1033C400280128E93307000228C0340328303400D8
:1033D40029EA35012912360229B9350329EA3504C7
:1033E400297B36DA36EE4F703E850C82850D8312CA
:1033F4003750FAE9FB8A828B83E0850A82850B8346
:1034040012378C121A238A828B83A3123226FDAAC6
:1034140008AB091211F27402121798800375100E8A
:10342400A9107405023BB975100B80F4EE4F70F7C8
:10343400850A82850B837401F012376585088285BD
:103444000983F07C007D00850E82850F83A3A3A3EE
:10345400A3E02401FAA3E03400FB1206D6EA4B6091
:10346400418A828B83E02402F8850A82850B83E0FB
:1034740028F0EA2404F8EB3400F988828983E08593
:10348400128285138312379E12378C121A238A8272
:103494008B83123220E5082403FAE5093400FB0289
:1034A4003417850A82850B83E02404F07C047D00B4
:1034B4007900AA12AB1312120A023424EE4F6003ED
:1034C40002342B123765FEA3E0FF850A82850B8345
:1034D4007404F0EE850882850983F0EF85128285F5
:1034E4001383F074031217ECAC82AD83EEFAEFFB96
:1034F40012383270030235968A828B83A3A3123763
:103504005B74011217EC85820E85830F780E121AF4
:103514002374051217EC121A3A7CFF7DFF1206DCA5
:1035240074041217988B0FEA450F7033850C82854B
:103534000D8312373B121A23850C82850D83A31247
:103544001A3A7C027D007A3E7B94120508740412B8
:103554001798E9700A74011217EC74FFF0A3F08E47
:10356400828F83E064027034750C02750D00780C50
:10357400121A238E828F83123220E5082404FAE57E
:1035840009122B4C121798850A82850B83E02402BA
:10359400800974011217ECEEF0A3EFF07401121716
:1035A400EC12374CF074011217ECA3123744A3A3A6
:1035B400A3F0023424EE4F600302342B850C828581
:1035C4000D83123221AA16AB1712080E850A8285C2
:1035D4000B837402F0EA850882850983F0851282E0
:1035E400851383EB80CBEE4F600302342B123765D7
:1035F400F8A3E0F9850A82850B837402F0E8850854
:1036040082850983F0E985128285138380A3850C62
:1036140082850D83122EC61211ECEAFC8C82A882DC
:10362400C39EE49F404BE86E7001EF70047C008001
:103634001F851882851983E0FAEE2AFAEF3400FB1D
:10364400C3EA98EB94005003E08004EECCC39CFCE6
:10365400EC850A82850B83F08C0A750B00780A12BC
:103664001A23850C82850D83E02EFCA3E03F0234EF
:1036740012751007023424EE4F600302342B850CBC
:1036840082850D83123A57850A82850B837407F06D
:103694008882898312374412372CE085128285137D
:1036A40083F0E82402FAE93400FB8A828B83123720
:1036B4004412377D12374CA3123786123755F0E87F
:1036C4002405F8E93400F988828983123755A31256
:1036D400379EA30235B2741D1217EC12383D7003E5
:1036E400023421123A57880C890DE8450D70030203
:1036F40034218E108F117810121A23780A121A238B
:103704007808121A2374061217ECE0F9AC0EAD0F08
:10371400AA16AB17850C82850D8312180E74061237
:103724001798E9F510023424F088828983A322F5DE
:103734000CEF3400F50D22E0F50E750F00780E2223
:10374400E0850882850983221237A522123A5BE8B4
:10375400221237A5A3A322A3A3A3A3E0FEA3E0FF01
:1037640022850C82850D83E0F8A3E0F5838882E04E
:1037740022E0F508A3E0F50922A3A3F08A828B8353
:10378400A322122438A3A322F08A828B83123795B2
:1037940022E0F50A750B00780A2212372C1237A59D
:1037A40022E0850882850983A3A32274EE121810EF
:1037B40074FE1217828A0A8B0BECFAEDFB74141256
:1037C40017ECE0F510A3E0F51174161217ECE0FE07
:1037D40074181217ECE0F50EA3E0F50F8518828536
:1037E4001983AC82AD83123832603E851882851904
:1037F4008312383D602FA3A3123775E5084509608D
:1038040024780E121A237810121A23EEF9AC0CAD98
:103814000DAA0AAB0B85088285098312180E74045D
:103824001217988006790E80027901022C72120612
:10383400D68A0C8B0DEA450D22122ECA1238442268
:103844001207A28A828B83E58245832274F61218BA
:103854001074FE121782740C1217EC12375085186C
:1038640082851983F074011217ECE9F0E4F508F588
:10387400097808121A237508027808121A237404A6
:103884001217EC8582088583097808121A23120717
:10389400F674061217987402121798806474F7125B
:1038A4001810EAFEEBFF89087C187D0312080EEA63
:1038B4005402600BA908EEFAEFFB1206CA800279E3
:1038C4000102328E74F612181074FF6A700374FFCA
:1038D4006B701C7B00EB75F003A4F8A9F0EC28F8DE
:1038E400ED39F912390A0BEBC39402501480E61235
:1038F40007DE8A088B09A808A909E8496003123978
:103904000A7F020218E28882898374FF122436E453
:10391400F02274F61218101207DE8A828B83E58275
:1039240045836006A3A3E0FA80027A007B0080D17D
:1039340074F21218108A088B09ECFEEDFF740E1253
:1039440017ECE0F50A12397A701CEEFCEFFD7AFFF1
:103954007BFF12397A70047911801688828983E595
:1039640008F0A3E509F088828983A3A3E50AF07926
:10397400007F060218E21207DE8A0C8B0DA80CA940
:103984000DE8492274EE121810EAFEEBFF8C088D44
:1039940009890C74121217EC123A5774141217ECAA
:1039A40012322174161217EC122EC6750D00EC4D4E
:1039B4006003023A4B7402650C6003023A46888243
:1039C4008983123226F9EC2400F50EE439F50FEA66
:1039D400F4F8EBF4F9EC58F8E50F59F9E849705D9F
:1039E400E5082406F8E5093400F9880A890B888279
:1039F400F583122B5B12080E8A108B11E50E6510ED
:103A04007004E50F65116042780E121A23850A824C
:103A1400850B83122B5B1208147402121798E9F5B4
:103A24000D7027780E121A23850882850983A3A3B3
:103A3400122B5912082C7402121798800D750D80E0
:103A44008008750D0D8003750D0BA90D02312C8EA8
:103A5400828F83123A5B22E0F8A3E0F92274E81221
:103A6400181074E7121782851882851983EAF0A367
:103A7400EBF08C168D17890E74311217ECE0F512E9
:103A8400A3E0F51374331217ECE0F514A3E0F51575
:103A940074351217ECE0F50F750800750900E50997
:103AA40075F003A4F8A9F0851882851983123BCB1D
:103AB400E0F47003A3E0F47003023BA9EE2402F5E2
:103AC4000CEF123BC1E07003023BA985160A85176F
:103AD4000B780A121A23AC14AD15AA12AB131207F1
:103AE4009674021217988A0A8B0BEA450B7003022C
:103AF4003BA9E4F510F5117810121A237406121775
:103B0400EC8582108583117810121A237409121718
:103B1400EC8582108583117810121A238512828510
:103B24001383A3A3A3A3121A3A7914AC0AAD0B8E80
:103B3400828F83123BDF121798E97069850A8285A8
:103B44000B83A3A3A3A3123A5774021217EC1232E5
:103B540038850C82850D83E0A2E05018A90E74020A
:103B64001217ECAC82AD838E828F83122EC612069E
:103B7400EEE94208850C82850D83E0A2E15026E53A
:103B84000FF50A780A121A27A90E74031217ECAC5F
:103B940082AD838E828F83122EC61206E8740112C0
:103BA4001798E942080509E509C394025003023A4B
:103BB400A2A90874191217987F100218E23400F5AC
:103BC4000D850C82F58322E028FEA3E039FF8E8266
:103BD4008F83227916850A82850B83122ECA1207D7
:103BE400F074082274F2121810EAFEEBFF890B74C9
:103BF40001650B600E7402650B70637901120A068D
:103C0400E9705BEEFAEFFB123C656047750A0080D1
:103C14000B7C177D00790012120A050A9002E5E078
:103C2400F8E50AC3985021E50A75F017A4F8A9F03D
:103C3400850882850983A3A3E028FAA3E039FB8AD7
:103C4400828B8312258770C985088285098374FF56
:103C5400F0A3F07C187D03EEFAEFFB12080802399A
:103C6400751207D88A088B09EA45092274F21218DA
:103C7400108A088B09ECFEEDFF740E1217EC123358
:103C84000D900B9EE0F4603D7A097B0012121CEA51
:103C94004B60328A828B8374B1F0A3E412377FA322
:103CA40012377DA3E508F0A3E509123CCCEEF0A39E
:103CB400EF123CCCA3A3E50AF0A3E50BF0900B9E16
:103CC400E0F9121228023975F08A828B83A3A3A328
:103CD400A3A322C082C0839061907404F0A37448AB
:103CE400F0A3E4F09061807440F09061BC7407F03C
:103CF4009061877469F09061B67416F07900120AC5
:103D0400F67902120AFC9022F4E493F46006E49338
:103D1400F9120AD27905120DEA024119C082C08350
:103D2400E9540FF9906185E0696012E5C654804456
:103D340049F5C6E59E547F644970F8E9F053C6809E
:103D4400E59E547F70FA02411974F7121810E5A821
:103D5400FE53A87E120ADEC2BA539AFEC289759B2C
:103D640000C2C2120AE475A91175B905120AEAD291
:103D7400BA439A0174805E42A80246A6C082C083F8
:103D8400906181E4F0A302411675E9007591007514
:103D9400BF0002011FC082C083906181E4F0A3745C
:103DA400C0F0A3E4024118C082C08374F8121782E1
:103DB4009003C4124588E8497003023E629003C42C
:103DC400E0544060237908851882851983AA82AB60
:103DD40083120BEC851882851983AA82AB8312089F
:103DE400989003C4E054BFF0E054806010790C7ADA
:103DF400807B05120BEC9003C4E0547FF0E0A2E05A
:103E040050087900123E6A54FEF0E05402600879CA
:103E140001123E6A54FDF0E0540460087900123E39
:103E24007554FBF0E0540860087901123E7554F7AC
:103E3400F0E0541060087902123E7554EFF0E0543B
:103E44002060087903123E7554DFF0A3E05401604A
:103E54000D120B081208AA9003C5E054FEF0740872
:103E6400121798024119120AF612089E9003C4E030
:103E740022120AFC1208A49003C4E022C082C08368
:103E8400E9600514602A804F90619A7433F0A3743A
:103E940055F09061A0743AF090055CE064017009FB
:103EA400C2919003C67467802D9003C67461802606
:103EB40090619A743FF0A3745AF09061A0747FF0FB
:103EC40090055CE064017009D2919003C67471801E
:103ED400059003C6746AF0024119C082C083E96088
:103EE4000B14600D14600F14601180209022F88070
:103EF400159022F980109022FA800B90055CE06402
:103F04000160F39022FBE493906186F002411974FE
:103F1400EE12181074F4121782851882851983AC76
:103F240082AD837583937582AF74041216959022C3
:103F3400F893F460030240A5907808E0C39402501B
:103F44000302408574041217ECAC82AD837583932D
:103F54007582377408121695F97AFF7BFF7FFF7E0E
:103F6400008982858210801874086E700302403ABA
:103F740074096E700302403A740A6E700302403A88
:103F8400E510C333FCE433FD74041217ECE5822C12
:103F9400F582E5833DF583E0F50EA3E0F50F8E0889
:103FA4007509007402780812176F74482508FC74A8
:103FB400783509FD8C828D83780812163A74087856
:103FC4000812157B85080C85090D8C828D83780871
:103FD40012163A7418780812157BE50C4508F50892
:103FE400E50DF509C3E50E9508E50F95098C828D5D
:103FF40083780812163A8C828D83780812163A74E4
:10400400187808401412157BE50C4508FCAD0DE545
:104014000EC39CFCE50F9D800F12157BE50C450833
:10402400C3950EFCE50D950FFDC3EC9AED9B500670
:10403400ECFAEDFBEEFF0EEEC394135003023F6C5B
:1040440074FF6A700374FF6B602D8F087402780824
:1040540012176F7448124D3474783509F583780853
:1040640012163A851882851983E5822510F582E5B2
:1040740083124AC1E508F009E9C394045003023FDE
:104084005D7508017509007808121A237402121765
:10409400ECAC82AD837ABE7B081210EA740212176C
:1040A40098740C1217987F0A0218E2C082C0839099
:1040B4006186E0F89022FBE4936870099022FAE4A8
:1040C40093906186F09061AE7468F0A3746AF09086
:1040D400624574FBF0A304F053F4FD43FE02900523
:1040E4005C7401F09061A0E0643A7004790080028D
:1040F4007901120AF6024119C082C08390050EE0CC
:104104006401700A900513E06004790C8002790060
:104114008003F0A3F0D083D08202011FC082C08349
:1041240075E1F1900511E0604D14600814605114BC
:1041340060498051120B1A900507E0F97A087B0553
:10414400120D6C9093B7121658120DA290939712F9
:104154001658120D78900512E0F9120D84790112A7
:104164000DDE900505E024161242AE7432F0A374FD
:104174000BF07900809F120B2080BC120B2680B7B5
:10418400120B2C80B2791280EB74F412181075D9CA
:104194000D9004F6E0A2E0E4331313F812421A4837
:1041A4004401F5D9780012429840FB7800880874DD
:1041B400F7124D3474041242A240F275E195900452
:1041C400F6E0F97AF77B04120D72900BC074A8F034
:1041D400A3740A1242BD1242DD1242D412441512D3
:1041E4004224780812163A9093BB78081215C690A8
:1041F40093A778081216141242A878081216499048
:104204000505E024141242AE7413F09003C2740244
:10421400F07F040218E2900507E0C4333354C0224F
:10422400900505E0F8A3E0F5838882A3A32274F641
:104234001218101243E68AD9780012429840FB788B
:1042440000800612434C124498E8C39940F5124387
:10425400D812429840FB78008008124D3074051241
:104264004498E8C39940F375E195900BC074B4F099
:10427400A3740A1242BD1242C71216581242A8125F
:104284001664900505E024141242AE7412F09003F3
:10429400C2024683880874082508F582740512450D
:1042A400F4940622900505E0240EF8A3E01242B52A
:1042B400223400F988828983221243FE74AEF0A36B
:1042C400740A221242DD1242D41244199093D3226A
:1042D400F0A374C6F0A3740A221242E1221242E54A
:1042E40022F0A37458F0A3740C2274F6121810125E
:1042F400434112421A4402F5D9780012429840FB15
:104304007800800612434C124498E8C39940F5752E
:10431400E195900BC0124357F0A31243571242CABF
:104324001216581242A8121664900505E0241412BD
:1043340042AE7414F09003C27404024685900517CB
:10434400E0F9740729F5D922880874182508F5823C
:1043540074052274C0124364124364F0A3740A22E5
:10436400F0A3740AF0A374C02274F6121810124356
:10437400E674064AF5D9780012429840FB7800802A
:104384000612434C124498E8C39940F51243D812DC
:10439400429840FB78008008124D3074051244980E
:1043A400E8C39940F375E195900BC074BAF0A37417
:1043B4000A1243F41242C71216581242A812166483
:1043C400900505E024141242AE7415F09003C274F3
:1043D4000302468590053712434474044AF5D9789C
:1043E4000022124341900507E0C4333354C0FA223B
:1043F4001243FE7458F0A3740C2212440222124495
:104404000F7458F0A3740C12440F221242E5F0A367
:104414002212441922F0900BCE7458F0A3740C129B
:1044240044027458F0A3740C1242E1F022C082C01A
:1044340083124224A3A3A3A3E402411674F712181F
:1044440010124F76F8740339F9E82405FAE93400B8
:10445400FB8A828B83124CE588828983A3A3A3A35E
:10446400A3A3A3A3A3ECF0A3EDF088828983A3A361
:10447400A3A3A3A3A3E024FFF8A3E034FFF98A8253
:104484008B83E8F0A3E9F00246A688087460250847
:10449400F5827405124C0CF5D90822EAFEEBFF9064
:1044A40061D0E0F87480C398FAEE2483221244B7F2
:1044B400940422124ACFE0F5D90AEAC32274F61210
:1044C4001810EAFEEBFF9061D0E0707575D90E7597
:1044D400D90375D9047A008A08EE250812504424B9
:1044E4008C12455A40F17A008A08EE25081250448D
:1044F40024841244B140F175E1957908EE248C12BC
:104504004553248412454A7C008C82AA82C3E49ACF
:10451400F895E0F9EE28F8EF39F9E8248BF582E90B
:10452400124C08C0E0EE2A12504424ABF582E91282
:104534004AC1D0E0F00CECC3940840CD1246108080
:10454400027900024686FAEF3400FB120BE02212D5
:10455400454A7904EE221244B7940822C082C083EB
:1045640075D90275D90375D90575E195EA2470F5F5
:1045740082EB124585EA2472F582EB12462202414F
:1045840019124AD212458C22E0F8A3E0F92274F6FB
:10459400121810EAFEEBFF90056074061245FE1235
:1045A4001A237C01790312492A12179875D90675C2
:1045B400D90378001245E440FB75E1959003C2E00D
:1045C40064087017EE2470F582EF124585EE2472AC
:1045D400F582EF124AC1E8F0A3E9F07901024686B8
:1045E400880874602508F58274051245F494052240
:1045F400124AD2E0F5D908E8C322F07508607509BB
:104604000578082275E1957904120DA8EE2470F559
:1046140082EF124AD212458CEE2472F582EF124ACE
:10462400D2E8F0A3E9F079012274F6121810EAFE38
:10463400EBFF9061D0E070437901900560740BF05A
:104644009003C2E06407701775086075090578085F
:10465400121A237C01090912492A12179879057440
:104664000129F5D975D9037800800312448EE8C373
:104674009940F875E1951246108002790080037420
:1046840001F07F020218E274F7121810EAFEEBFF41
:1046940075D90375D90375D90DEE24DE1246AB1214
:1046A40046087F010218E2F582EF124C0CF5D9227C
:1046B4007F030218E27401250AF5D975D90378003D
:1046C4002274F512181012473A60047804800278B4
:1046D40000E8240BF8EAC3984041750A0990056084
:1046E4007409F07908124723601475086075090588
:1046F4007808121A23124922121798750A0D1246C5
:10470400B9800312448EE8C3950A40F775E19579A0
:1047140004120DA812489F7901800279008091EE5D
:1047240024E3FCEF3400FD7A617B05120BDA850883
:1047340082850983E02212449FF8EF124CD9F58355
:10474400E02274F31218108A088B09124935FAE52D
:10475400082483F50AEB1248046004780480027884
:1047640000E82408F8EAC39850030247FD750C06D4
:10477400900560740CF09003DFE0900561F0740222
:10478400C0E0F97CE07D037A627B05120BDAD0E0AD
:10479400F97CE27D03120BDA850A82850B83E060E3
:1047A4001C750A60750B05780A121A237C067903B6
:1047B400AA08AB0912492A121798750C0A74012524
:1047C4000CF5D975D90378008009880A7460250A24
:1047D400124494E8C3950C40F175E1957904120DE7
:1047E400A8E5082470F582E509124585E5082472D8
:1047F400F582E509124622800279007F050218E25B
:104804003400F50B850A82F583E02274F612181041
:10481400EAFEEBFF124935FCEE2483F8EF1249302F
:1048240060047A0480027A00EA2404FAECC39A4011
:104834005E7A02900560EAF0EE24F5F582EF124804
:10484400AB60197508607509057808121A237C0293
:104854007903EEFA12492A1217987A0674012AF596
:10486400D975D9037800800312448EE8C39A40F8BE
:1048740075E195EE2474124898EE2480124898123B
:10488400489F7904120DA8EE240D12461380027974
:1048940000024686F582EF124A1B22EE241DF582A1
:1048A400EF124A1BA3F022124C0C900561F088828F
:1048B4008983E02274F6121810124935FEEA248323
:1048C400F8EB12493060047C0480027C00EC240480
:1048D400FCEEC39C40437C029005607407F0EA241C
:1048E400F6F582EB1248AB6015750860750905781A
:1048F40008121A23790312492A1217987C067401A4
:104904002CF5D975D9037800800312448EE8C39C32
:1049140040F875E1957901800279000246867C09A8
:104924007903EEFAEFFB120C4C7402221242B5E04A
:10493400229061D0E0F87480C3982274F5121810A4
:10494400E9FEA2AFE433F50AC2AF7F00EA246FF8B0
:10495400EB3400F980010F88828983E0FCEFC39C6B
:1049640050188F08EA2508FCEB3400FDEC246BF5A5
:1049740082ED124C086E70DE8010EA2CFAEB3400E3
:10498400FB124ABBEE1248B104F0E50AA2E092AF72
:104994000246B474F6121810A2AFE433FFC2AFEAB1
:1049A400246FF8EB125046FCE9FD8C828D83E014F1
:1049B400F07E0080218E08EA2508F8EB1250462488
:1049C4006CF582E9124C08C0E0E8246BF582E91228
:1049D4004AC1D0E0F00E8C828D83E0F8EEC398409B
:1049E400D4EA246E124ABE74FF124A10EFA2E09277
:1049F400AF024686C082C083E5A8F8C2AF124ABBA4
:104A0400E9124A10E8A2E792AF024119F0EA246AD7
:104A1400F582EB124A1B22124AD2E4F02274F212FB
:104A240018108C828D83A3A3A3A3E0541FF0EA245F
:104A340036124D7D8E828F83E4F0F50C850C8285D1
:104A4400820AEC250AF8ED124CD5F583E0C0E0EAC1
:104A5400250AF8EB124AC5D0E0F0750D00850882EE
:104A6400850983E0F50A750B00E50D780A121750E5
:104A7400E50AA2E0502AE50C33333354F8250DC07F
:104A8400E08E828F83E0F8EA28F8EB12504624384F
:104A9400F582E9124AC1D0E0F08E828F83E004F0FF
:104AA400050DE50DC3940840B4050CE50CC394054D
:104AB400408A7F060218E2EA246BF582EB124AD29E
:104AC400223400F9E8245D124ACF22F582E9340049
:104AD400F5832274F61218109003EEE06401700757
:104AE4007A007B00024C027E009003F4E070F174C3
:104AF40001F0A3E4F0A3F090045404F0900457E40C
:104B0400F0A3F090045A04F09003F7E4124C1990C7
:104B1400040104F0900427E4F0909387121658904F
:104B2400040A12166490040EE4F0A3F0A3F09004B7
:104B340072F0900466F090045B7480F0A3E4F0904B
:104B44000461F0900459F09004DD124C119004E6D5
:104B5400F0900475F09004C5F0A3F09093871216BA
:104B6400589004C71216649093871216589004CB79
:104B74001216649004D1E4F09004D3F09004CFF0C2
:104B84009004E9124C118E08745D124D34740412B1
:104B94004AC174FFF00EEEC3940440EA7E008E8294
:104BA400A88274FD28F5827404124C08C0E0744F86
:104BB40028F5827404124AC1D0E0F00EEEC39405C5
:104BC40040DC7E008E82A88274D628F5827403129B
:104BD4004C08C0E074D528F5827404124AC1D0E0B0
:104BE400F00EEEC3940840DC9003EEE004F06401A0
:104BF40070089003F6E09003F0F07AF27B0302462B
:104C040086F582EF124C0C22124AD2E022124C1981
:104C1400A3124C1922F0A3F0A3F0A3F022C082C087
:104C240083EA2403F582EB124C086008E4F0900355
:104C3400EFE014F09003EEE014F070069003F074CB
:104C4400FFF08A828B83A3A3E4F0900502E0700D49
:104C54009003EFE0640170057900120D8A02411996
:104C6400C082C0839003F5E4F09003F4F09003EE67
:104C7400F0A3F0A374FFF075E1F1024119C082C002
:104C840083780079009003F5E0600478F279038872
:104C9400828983A3A3A3A3E0F902411974F612182D
:104CA40010EAFEEBFF120B92EE2465F8EF124CD5DE
:104CB400124CE3EC4D60109003F0124F6E850882A5
:104CC400850983E4F0A3F0EEFAEFFB120C820246AE
:104CD40086124CD9223400F988088909888222F581
:104CE40083E0FCA3E0FD2274F7121810EAFEEBFF48
:104CF4008E828F83A3A3A3A3E0FA7B00120910EE94
:104D0400FAEFFB120BA4120C640246A674F61218F6
:104D1400107800880874D6124D34740312489B0826
:104D2400E8C3940840ED9003D6024683880874389B
:104D34002508F5822274F6121810EA240D124D7D0E
:104D4400EC2403F8ED3400F988088909EC2407F809
:104D5400ED125046FCE9FD124D871216F78E828F34
:104D640083E8F0A3E9F0124D871216F78B09EA45A0
:104D7400096003124D9A024686F8EB3400F9E8FE06
:104D8400E9FF228C828D8312458C850882850983F4
:104D9400E0FAA3E0FB228E828F83E02401F0A3E0FB
:104DA4003400F02274F6121810EA242EF582EB3443
:104DB40000124CE3EA2470124D7D780079FAECFA83
:104DC400EDFB1216F78E828F83E8F0A3E9F07800EA
:104DD40079FAECFAEDFB1216F78B09EA4509600340
:104DE400124D9A02468674F0121810EAFEEBFF7414
:104DF400101217EC780812163A120D3C8A0C8B0D1F
:104E04008C0E8D0F9093C7780C1215C69093A778CB
:104E14000C121614780C121A1F8E828F83124227DA
:104E2400121658121F957404121798E96003024E63
:104E3400D28E828F83E02402F8A3E0125046FAE96E
:104E4400FB8A828B8378081215D99093A77808126D
:104E5400163A8A828B837808121627EE240BF58281
:104E6400EF124AC1C082C0838E828F83A3A3A3A3FF
:104E7400A3E02401F8A3E03400F9D083D082E068F1
:104E84007003A3E069700479018045EE2407F8EF0C
:104E94001242B5124D9EEE247412504B7014EE243F
:104EA40075124ED97003A3E06D70078A828B83124A
:104EB4004D9EEE248012504B7014EE2481124ED974
:104EC4007003A3E06D70078A828B83124D9E790074
:104ED4007F080218E2FAEF3400FB8A828B83E0FC3D
:104EE400A3E0FD88828983E06C2274F31218101207
:104EF4004F76FE740339FFEE2404F50AEF3400F50F
:104F04000BEE2465F508EF3400F5098010124CE52A
:104F1400850882850983E4F0A3F0124F688508822E
:104F2400850983124CE5EC4D6030EE2464124C0587
:104F3400F50C780C121A27EE2463124C05F9EEFADC
:104F4400EFFB120BCE7401121798E98508828509CC
:104F54008360BA124588E84970077C007D00124FCF
:104F6400680247FF850A82850B83E0FA7B001208FA
:104F7400CE229003F0E0F875F004A4C8AAF02AF950
:104F840074F2282274F2121810EAFEEBFF890A74F4
:104F94000E1217ECE0FAEE246212504B600302503A
:104FA4003F124935F50CEE2483124C05FB6004785E
:104FB40004800278008908E928F8E41250462402A3
:104FC4000808E93400F9E50C98E499A2D265D033D5
:104FD4004065EA7005750B028003750B01EB6033C5
:104FE4007509007808121A237A607B05120C16746E
:104FF400021217987508607509057808121A23AC0F
:105004000AA90B1249261217987404250AF50A7C7A
:10501400607D057401250AF5D9850BD97800800ACD
:105024008808EC124D34ED124498E8C3950A40F018
:1050340075E195790080067907800279FF024AB606
:10504400F8EF3400F9E822F582EF124C0C640122E7
:10505400C082C0838003125082E9F874FF281904C7
:1050640070F4ECFAEDFB024119C082C08380031294
:105074005082E9F874FF28190470F40241198C82F3
:105084008D83E08A828B83F08C828D83A3AC82AD86
:10509400838A828B83A3AA82AB832274F4121810AE
:1050A400E9FF7E008A088B097808121A6700040D4C
:1050B4004552D250EF5008511F513C515351745135
:1050C4008B519E51C751E151F15107522152740144
:1050D4006F60030252418C828D83E0F8C3940340D5
:1050E40003025241E8900C8802521E74026F60035E
:1050F4000252418C828D83125A2A900C89E8F0A3C3
:10510400E902521E74016F60030252411252674059
:1051140003025241E890076402521E74016F600357
:105124000252418C828D83E0F8C3940540030252FD
:1051340041E890076502521E74016F6003025241F8
:105144001252674003025241E890076602521E74ED
:10515400106F60030252417508108E097808121A04
:10516400237A677B071211F27402121798025263B2
:1051740074016F60030252411252674003025241AC
:10518400E890077702521E74016F60030252418C4B
:10519400828D83E0900C8C02521E74046F600302B3
:1051A40052418C828D83780812163A9093B3780812
:1051B40012146D500302524190077978081216496F
:1051C400025263EF7077120676E9700A12107E7944
:1051D40050121330806290080C7401803D74016F8A
:1051E400705B1252675056E8900778802D74016FF7
:1051F400704B8C828D83E0F8C3940A5040E8900C85
:105204008B801774016F70358C828D83E0F874F98C
:1052140028C3940A5027E8900C8DF0804274016FE3
:10522400701B90080BE0F88C828D83E090080BF0E3
:10523400E8702CE06401702712107280227E1880BE
:105244001EC3EA9426EB9400501374026F700E8C04
:10525400828D83125A24120514E9FE80027E02EE26
:10526400F9800F8C828D83E0F8C3940222740E12AD
:1052740017987F040218E2A90802527674F01218F3
:105284001074B11217828C0A8D0B909368742012DB
:10529400180674061216957420121806121024E9C2
:1052A400FF745F1217ECE0F509EFC3940A400302A0
:1052B400540275F006EFA4F50874411218067A0E2C
:1052C40074202508F912132AE97009744D1217EC99
:1052D400E0FE80027E00900C88E064027005750E8A
:1052E400018003750E00740865097004742280023D
:1052F40074212508F50D7C1B7D0079007426121796
:10530400FE12120A74261218067A1BA90D12132A09
:10531400E9702D74401217ECE024F9C3940A50206C
:10532400E50EF50D780D121A277427121806EEA251
:10533400E0E433F9AA0AAB0B1205B674011217980C
:105344007C147D007900740C1217FE12120A740C7E
:105354001218067A1074242508F912132AE97034F5
:105364007C1079FF740C1217FE121270E970257408
:105374001C1217ECAC82AD837A0474252508F9124B
:10538400132A740C121806EEA2E0E433F9AA0AAB4D
:105394000B12059EAC18AD197A0C74702FF9121308
:1053A4002AE97049AA18AB1912105A7F00EF75F058
:1053B40003A4F8A9F0851882851983E58228F8E505
:1053C40083125BE3125D55601D88828983A3A3E089
:1053D400F50E750F00780E121A23AA0AAB0B1207EA
:1053E400FC74021217980FEFC3940440C0EEA2E1BC
:1053F400500C900763E0F9AA0AAB0B12080274047C
:1054040065097028900C88E0640270207A00900787
:1054140077E060027A01900764E060047804800217
:105424007800E84AF9AA0AAB0B12065E7900744FB9
:105434001217987F080218E274F012181074F01210
:105444001782EAFEEBFF8C088D09750A0AE9600CE5
:1054540014600914603B14607D02553212106CE92B
:10546400F50AC3940A4003025532E508450970035E
:10547400025532750C06750D00780C121A23EEFCD9
:10548400EFFDAA08AB091211F27402121798025523
:1054940032750C00750E06750F00780E121A23EE85
:1054A400FCEFFDE50C75F00EA4F8A9F0748528FA5C
:1054B400740739FB1212047402121798E9700B0571
:1054C4000CE50CC3940A506680CA850C0AE50AC32D
:1054D400940A505A8049750C00AC18AD197A1075AD
:1054E400F006E50CA42423F912132AE9701C7C109D
:1054F40079FFAA18AB19121270E9700EEEFCEFFDD9
:10550400AA18AB19120580E9600B050CE50CC394CD
:105514000A501B80C4850C0AE50AC3940A500FE59F
:105524000845096009AA08AB09A90A121066A90A64
:10553400741002543474F41218108909750815741F
:10554400FF6A700374FF6B70277E00AC097A027BDC
:1055540000EEF9121048E960037508000EEEC394DA
:105564000A40E8E50960537A967B10120A18804ACB
:105574001209FA8A0A8B0BAE0AAF0BEE4F60387C25
:10558400007D00EE2405FAE43FFB8E828F83A3A303
:10559400A3A3E0F9121024E9F9C3940A500CAC094E
:1055A4007A027B00121048750800E509600CEEFAD7
:1055B400EFFB121096800375081402527B74F212EA
:1055C4001810ECFEEDFF750815740E1217EC125A44
:1055D4001774FF6A700374FF6B7021750900AC0ABD
:1055E400AD0BEEFAEFFBA90912104EE96003750842
:1055F400000509E509C3940A503F80E21209FA8ABA
:10560400828B83E5824583602D7C007D00E58224C6
:1056140005FAE43583FBA3A3A3A3E0F9121024E95C
:10562400F9C3940A5013AC0AAD0BEEFAEFFB121057
:105634004E7508008003750814A908025BABC0828C
:10564400C08390077DEAF0A3EBF0900763E0FC7D54
:10565400007A257B00120514900763E0F91207789D
:10566400D083D08202011F74EC1218108A088B09AF
:10567400E97E0070387808121A2374161217EC7831
:105684000C12163A9093B3781012163A780C7910DB
:1056940012150CAA10AB11AC12AD131205B07402A2
:1056A400121798E9FE60097901AA08AB091205AA44
:1056B400EEF97F0C0218E274EA12181074EC121757
:1056C40082EAFEEBFFEE240CF514E43FF5158E821E
:1056D4008F83A3858210858311EE240AF50CE43FA1
:1056E400F50DEE2405F50EE43FF50FEE2409F50A59
:1056F400E43FF50BEE2403F508E43FF5098E828FB1
:1057040083A3A3E024FA70030259EF24FD7003027B
:1057140059111470030257A514601024FD7003027C
:1057240058F4147003025945025A0D125A30604954
:10573400E0F5838882125A2A880C890DE8450D60A9
:1057440038851482851583E0F50E780E121A27EE3B
:10575400240BF582E43FF583E0F9850A82850B8307
:10576400125A240A0A0AAB09850C82850D83121881
:105774000E7401121798025A0D850A82850B831242
:105784001A3A9007791216581205B0740212179833
:10579400E97003025A0D7901850A82850B83025947
:1057A400BB851082851183E060030258D7850E8281
:1057B400850F83E0A2E040030258D77C0E7D007978
:1057C40000AA18AB1912120AEE2408F512E43FF5E8
:1057D40013851282F583126155EA4B6010750A062F
:1057E400750B00780A121A23EA2410801B12614FE9
:1057F4001209FAEA4B7003025A0D750A06750B007A
:10580400780A121A23EA2405FCE43BFD74021217F9
:10581400FE1211F27402121798850E82850F83E02E
:10582400A2E25004D2F08002C2F0A2F0E433F87491
:105834000C1217ECE048F0850C82850D83125A1780
:10584400E50A450B6012E50A2410F582E4350BF5F0
:1058540083780C12163A800C750CFF750DFF750ECB
:10586400FF750FFFE50A450B7006750A00750B00FE
:10587400851282851383E0F512A3E0F513E5124542
:10588400137006751200751300780C121A1F780A2B
:10589400121A237812121A23851482851583121A78
:1058A4003A8E828F83A3125A1F740A1217FE1210A3
:1058B40060740A121798850882850983125A2A90FF
:1058C400080DE8F0A3E9F07A017B00900763E0F9A2
:1058D40012124C125A307003025A0D125A3B7003C2
:1058E400025A0D851082851183E0FC79010259E387
:1058F400125A307003025A0D125A3B7003025A0DA9
:10590400851082851183E0FC79020259E37C007DD5
:1059140000EE2404FAE43FFB850882850983E0F95C
:10592400121024E9F8C3940A4003025A0DAC0CADDA
:105934000D7A0475F006E8A42425F9121324025AFA
:105944000D12614F900778E06007900C8BE0F980AE
:1059540069900C88E070047905805F1209FA8A0C5A
:105964008B0DA80CA90DE82404F50CE439F50D8E73
:10597400828F83A3A3A3A3A3A3A3E0A2E05040E840
:10598400497003025A0D850C82850D83E0FE602F59
:10599400850A82850B83E054107024740E12180655
:1059A400E82405FAE439FBEEF9121024E9701079C1
:1059B400038508828509831261551205AA804AACC1
:1059C4000EAD0F850C82850D83E0F912614F121024
:1059D400A2125A306033125A3B602E7C00790012B6
:1059E400614F8E828F8312180E801E120676E97024
:1059F4001890080CE06401700812107E90080CE402
:105A0400F0795012133012107274141217987F0E1A
:105A14000218E2E0F50AA3E0F50B22A3A3A3A3A3D3
:105A2400E0FCA3E0FD22E0F8A3E0F92290077DE08A
:105A3400F8A3E0F9E84922E0F5838882A3A3E0F81B
:105A4400A3E0F9E8FEE9FFEE4F2274F41218107493
:105A5400F2121782EAFE8C0B75F006E9A42420F5F5
:105A640008AC18AD197A0EF912132AE970487C06AD
:105A740079FFAA18AB19121270E9703A740C121754
:105A8400EC125A2AE8F509E50B6005EE4209800498
:105A9400EEF45209AA09E86A7001E96015740C125F
:105AA40017ECEAF0A3E4F0AC18AD197A0EA90812C9
:105AB400132479018002790002527174F2121810D1
:105AC40074E6121782890A8A088B09ECFEEDFF74CA
:105AD4000C1218067A0E75F006E9A42420F91213A4
:105AE4002AE96003025BA47C0679FF740C1217FE9A
:105AF400121270E96003025BA47470250AF50BAC02
:105B040018AD197A0CF912132AE96003025BA0AAF2
:105B140018AB1912105AE5084509701D7C0C790060
:105B2400AA18AB19121270E970727C0C7D0079000E
