:020000040000FA
:06000000020107021DB61B
:03002B000222248A
:03003300022206A0
:03003B0002223E60
:030043000221BADD
:03005300021E2C5E
:03006B000221E08F
:10008300021CA7E5C754F84401F5C7790122000013
:100093000080FB120086B900030200F1E4792178A5
:1000A30008B800028004F709D8FCE479297802B87B
:1000B30000028004F709D8FCE4900281785F790993
:1000C3008002F0A3D8FCD9FA7ADF7B0A9001377853
:1000D300F479038015E493A3AD82AE838A828B8384
:1000E300F0A3AA82AB838D828E83D8E9D9E7758288
:1000F300A775837F7400120119758291758300744B
:100103000012011975D00075813F751881751902A8
:10011300759F00020096C09FF59FE473D09F22D085
:1001230083D082C09FE493C0E0740193C0E0740263
:1001330093F59F22FF0000B4000028002800283018
:1001430075A000A000A000A00000080008E001F0D6
:10015300001000100010001000100010005000509C
:1001630000500010001000D0070000000000000F36
:100173000001000500307507001000010081FF0039
:1001830000FF280646062E06FF0202020802500060
:10019300A0000000E803026A910100005191026689
:1001A30091010000340B026091010000B20202666B
:1001B30091010000350B025E91010000C802026646
:1001C30091010000360B025C91010000CA02026635
:1001D30091010000370B025A91080000CB0202661E
:1001E30091010000380B026C91010000390BFF01F3
:1001F30000FF20026A910100005491026691010000
:10020300009D0B0278910000000000026291030040
:10021300001803580C580C580C580C580C580C5810
:100223000C580C580C580C580C580C580C280F40F0
:100233000F220F020202020202020202010D00005B
:10024300001001026A9101000057910266910100BA
:1002530000DE0B0272910100005B07026691010050
:1002630000DF0B0274910100000890026691010007
:1002730000E00B027691010000EC8F026691010011
:1002830000E10B027C91010000148F0266910100D2
:1002930000E20B027E910100005C8F026691010077
:1002A30000E30B0280910100004A8F026691010076
:1002B30000E40B028291010000268F026691010087
:1002C30000E50B029491010000FA8F026691010090
:1002D30000E60B028691010000E70B01E803053FEE
:1002E30010FFFFFF0001307503020106000000004C
:1002F30000000000000000000000000000000000FB
:100303000000000000000000FFFF0600800CE8036F
:100313000509544A4751051220032003020A00022B
:1003230001050302F0FF544A4751206261636B7079
:1003330061636B000000000000000090130000A246
:10034300139C1396130A436861726163746572693F
:100353007374696320310002436861726163746579
:100363007269737469632032000843686172616360
:100373007465726973746963203300104368617232
:10038300616374657269737469632034000243683E
:100393006172616374657269737469632035000205
:1003A3006A910100008D90026691010000F00C0239
:1003B3008A91030000D00A026491010000F10C024B
:1003C3006691010000020D028C91010000D10A0226
:1003D3006491010000030D026691010000140D02F7
:1003E3008E91020000D20A026491010000150D02F1
:1003F3006691010000260D029091000000D30A02CD
:100403006291030000D40A026491010000270D02E7
:100413006691010000380D029291040000DA0A028D
:100423006491010000390D120122D38B03120122C2
:10043300EA8B03120122198C03120122528C03123C
:1004430001227A8C03120122A88C03120122BF8C91
:1004530003120122D68C03120122EC8C0312012217
:10046300138D03120122268D031201223C8D0312E8
:1004730001224F8D03120122748D0312012269752B
:10048300001201226876001201229D7600120122D9
:10049300BE7600120122CE7600120122EF76001200
:1004A3000122FB7700120122C878001201223B7956
:1004B30000120122C17900120122047A00120122E2
:1004C3003B7A00120122C17A00120122937B0012AF
:1004D3000122F17B00120122097C00120122837C9C
:1004E30000120122867C00120122897C0012012263
:1004F300307D00120122487D00120122787D001216
:100503000122987D00120122867E001201223C7F87
:100513000012012258DA0212012280DA02120122A9
:10052300AEDA02120122E5DA021201224DDB0212D7
:10053300012296DB02120122E1DB021201221FDCFF
:10054300021201225CDC021201228ADC0212012265
:1005530031DD021201223BDD0212012248DD0212CB
:1005630001227BDD021201223DDE0212012249DE5D
:100573000212012261DE021201226BDE021201224B
:100583007D96031201228B9603120122A396031276
:100593000122BB96031201221CB001120122BAB040
:1005A3000112012232B10112012247B201120122CA
:1005B30081B2011201222AB301120122FFB30112F7
:1005C300012263B501120122BAB50112012241B61B
:1005D3000112012228B70112012275B7011201226B
:1005E30003B80112012227B801120122FCB901123A
:1005F30001223DBA011201225FBA01120122E0BABF
:1006030001120122CABB0112012290BC0112012274
:1006130077BE0212012249BF02120122F2BF021267
:10062300012235C002120122C2C0021201224EC1B0
:10063300021201222FC2021201225EC20212012201
:100643005AC302120122A2C302120122A4C402123B
:100653000122E8C4021201220EC5021201229D9852
:100663000312012255EF021201226BEF0212012243
:1006730091EF02120122B9F002120122C3F0021219
:1006830001221CF2021201221CF302120122C6CB28
:1006930002120122FBCC021201222ECD02120122F0
:1006A30078CD0212012236CF021201229791011254
:1006B3000122FA91011201223F93011201224F9369
:1006C30001120122729301120122BD930112012230
:1006D30062940112012258950112012222960112FD
:1006E30001229A9701120122DC97011201227A98C2
:1006F30001120122C79801120122ED980112012271
:10070300DB9A01120122E09A01120122C19C01121B
:100713000122159D01120122779D011201229F9D45
:1007230001120122439E01120122059F011201229F
:10073300369F01120122399F01120122819F01126A
:100743000122C39F011201222AA001120122A7FD47
:1007530002120122BAFD02120122D3FD021201226A
:100763001EFE02120122F9FE0212012288FF02126A
:100773000122D3FF02120122B02200120122BC2265
:1007830000120122F522001201223A230012012253
:10079300F12300120122772400120122DC2400122B
:1007A30001220825001201224125001201225527AA
:1007B300001201223129001201221C2B00120122F6
:1007C300532C00120122B32E001201229F2F00127C
:1007D3000122E53000120122F231001201220F3210
:1007E300001201224732001201226132001201225B
:1007F300C9320012012263370012012204380012A9
:1008030001225538001201227C3800120122CA3815
:1008130000120122E838001201223C3900120122A1
:10082300153A001201229C3B00120122243C0012C3
:100833000122AED502120122B8D50212012283D6BB
:10084300021201229ED602120122C4D602120122F2
:1008530008D70212012240D70212012269D70212DD
:100863000122E2D702120122F7D7021201220CD889
:100873000212012243D80212012257D80212012286
:1008830088D802120122C2D802120122EED8021223
:10089300012244D90212012298D902120122E1D97C
:1008A300021201220BDA0212012230DA02120122B1
:1008B30069EB0212012233EC0212012216ED02123D
:1008C30001228CED02120122CEED02120122FBEE77
:1008D3000212012200800212012229800212012247
:1008E30042800212012287810212012265820212D2
:1008F30001228482021201221183021201225483F3
:1009030002120122A1840212012240850212012255
:10091300BF87021201225688021201222A8902127B
:1009230001220C8A02120122788B021201220B8C03
:10093300021201226C9303120122D59303120122A6
:1009430029940312012250940312012200DF0212A0
:1009530001226DDF02120122B8DF02120122ADE093
:1009630002120122A9E10212012293E202120122E0
:10097300269F02120122689F0212012242A0021244
:1009830001221BA10212012216A202120122F5A2C8
:100993000212012261A30212012228A402120122DF
:1009A30093A402120122FAA40212012225A5021223
:1009B300012296A50212012229A60212012292A661
:1009C30002120122A7A602120122EFA6021201229D
:1009D30008A7021201226DA70212012270A70212B8
:1009E3000122008003120122288003120122668063
:1009F300031201222481031201228F810312012297
:100A0300AB8103120122D381031201220382031259
:100A130001221282031201228C8203120122B2826A
:100A230003120122F4A00112012291A20112012258
:100A330077A40112012241A50112012288A5011206
:100A43000122CFA501120122E1A50112012221A653
:100A53000112012250A6011201229CA601120122B9
:100A6300D4A60112012202A70112012253A70112E7
:100A73000122E2A701120122D0AA01120122AAAC8B
:100A830001120122E6AC0112012240AE0112012241
:100A930087AE01120122FCAE011201224AAF0112FC
:100AA300012281AF011201222396021201224096F4
:100AB30002120122DA9B02120122DC9C02120122A1
:100AC300569E02120122049F021201228B3C001245
:100AD3000122D43C00120122013D00120122343DC7
:100AE30000120122413D001201224D3D001201225C
:100AF3005F3D00120122343E00120122923E001299
:100B03000122C73E00120122634000120122B040BD
:100B130000120122D440001201224141001201229D
:100B2300E64100120122A2420012012221430012D7
:100B33000122E54300120122F4430012012275440D
:100B4300001201221445001201224645001201221F
:100B5300E145001201223F460012012279460012AC
:100B63000122FA4600120122C347001201226C48F7
:100B730000120122F348001201224B490012012204
:100B8300AC4900120122D549001201228B4A0012FE
:100B93000122D54B00120122184C00120122354CC0
:100BA30000120122544C001201229F4C0012012218
:100BB300C44C00120122ED4C001201225C4D0012C4
:100BC30001229E4D00120122A24E001201223C4F2F
:100BD30000120122085000120122215000120122AA
:100BE300828C02120122D58C02120122E18C0212A4
:100BF3000122B68D02120122DD8D02120122188E0E
:100C030002120122848E02120122B88E02120122E4
:100C1300F18E02120122098F02120122628F021247
:100C230001227B8F02120122C48F02120122D78F6D
:100C330002120122F18F02120122079002120122F5
:100C43002391021201223492021201228193021291
:100C53000122669402120122FA7F00120122FAE7AE
:100C6300011201222EE80112012299EB0112012245
:100C7300E3EC01120122ADED0112012237EF011263
:100C8300012212F0011201224CF0011201226FF035
:100C930001120122B1F001120122BAF00112012264
:100CA30004F1011201220EF101120122BAF1011223
:100CB30001228EF201120122E2F20112012244F317
:100CC3000112012297F301120122C6F3011201223C
:100CD30005F401120122196300120122736B001241
:100CE3000122796B001201223471001201221A755C
:100CF3000012012259FA02120122CFFA0212012232
:100D0300E5FA0212012222FB021201225AFB02120D
:100D13000122D7FB0212012212FC021201228DFCD6
:100D230002120122C9FC02120122D2FC0212012288
:100D3300DEFC02120122F8FC021201221DFD021246
:100D4300012233FD0212012277FD02120122ECD0AF
:100D530002120122FFD00212012219D10212012232
:100D630042D10212012285D102120122C4D1021200
:100D7300012202D20212012267D2021201227CD284
:100D83000212012287D20212012294D202120122FC
:100D9300ABD202120122B9D202120122C4D2021230
:100DA3000122D0D202120122E3D202120122EED298
:100DB3000212012211D302120122BAD3021201221A
:100DC300CAD302120122E4D30212012201D4021275
:100DD30001221DD40212012242D4021201224CD458
:100DE3000212012260D4021201227FD402120122D4
:100DF300E0D402120122E6D402120122ECD4021240
:100E03000122F2D402120122FED40212012231D5B0
:100E13000212012248CD01120122CACD0112012280
:100E230073CE01120122BBCF01120122C9D10112DB
:100E33000122AFD201120122E4D20112012206D310
:100E430001120122AFD3011201227FD50112012227
:100E5300A8D50112012220D60112012252D6011275
:100E630001225FD601120122AAD601120122CED697
:100E7300011201221FD90112012229DA01120122D2
:100E830085DA01120122C5BE01120122D6BF011269
:100E93000122BAC001120122C4C001120122E6C01C
:100EA30001120122F2C00112012296C20112012293
:100EB300C3C201120122D9C3011201222EC401129D
:100EC30001227DC50112012252C601120122AEC6C2
:100ED3000112012219C7011201224EC70112012278
:100EE30091C7011201225BCA0112012273CA0112C6
:100EF300012204CB0112012212CB011201225FCB8A
:100F0300011201226DCB01120122D9CB0112012260
:100F130054CC01120122ABCC01120122E0F40112E4
:100F2300012202F50112012213F701120122D2F963
:100F330001120122FCFA01120122BAFB0112012261
:100F4300A6FC011201221A8A031201223F8A03120C
:100F53000122B58A031201225AB70212012263B792
:100F6300021201226CB70212012244B802120122BA
:100F7300F5B90212012225BA0212012250BA021255
:100F8300012280BA02120122ABBA02120122DFBA95
:100F9300021201220BBB021201224EBB02120122DA
:100FA30079BB02120122C0BB0212012215BC02123C
:100FB300012257BC02120122B1BC02120122DCBC85
:100FC300021201222BBD021201225BBD0212012279
:100FD30086BD02120122B4BD02120122D7BD021244
:100FE30001222699031201225299031201227F99A9
:100FF30003120122899903120122999903120122F2
:10100300FA82031201221F83031201224A8303126D
:101013000122B59A031201225350001201223452C5
:1010230000120122F05300120122ED54001201229A
:10103300755500120122F655001201221F560012A7
:1010430001226F5600120122025A00120122735A22
:1010530000120122645B001201229E5B0012012236
:10106300DE5B00120122115D00120122645D001299
:101073000122AD5D001201221B5E001201224D5EB2
:1010830000120122675E00120122595F0012012241
:10109300695F001201220F61001201222661001212
:1010A3000122586100120122DA62001201225497D0
:1010B300031201226597031201226C9A0312012283
:1010C300AB9A03120122A69B031201220398031277
:1010D30001221398031201222B98031201229398E1
:1010E30003120122819403120122059503120122A6
:1010F3006D9503120122A09003120122C6900312E0
:101103000122309103120122839103120122DC9107
:101113000312012226F30212012240F302120122DA
:10112300B9F3021201228EF40212012260F60212B6
:10113300012255E302120122E5E30212012263E4D4
:1011430002120122E7E40212012279E502120122CE
:1011530035E60212012202E7021201220CE7021213
:1011630001221BE70212012231E70212012244E7A6
:10117300021201224EE70212012261E7021201224A
:10118300158F031201223E8F03120122678F031270
:1011930001220190031201221990031201225B9094
:1011A3000312012278AF0212012282AF021201223E
:1011B300C2AF021201220BB00212012245B0021289
:1011C30001229BB002120122BAB00212012242B3E1
:1011D300021201224BB3021201229CB3021201221A
:1011E300C5B302120122CFB30212012240B402128C
:1011F3000122CEB40212012223B50212012252B5FA
:1012030002120122CEB5021201220BB602120122F2
:1012130042B60212012254B60212012273B602121E
:1012230001227CB6021201222EB702120122868D00
:1012330003120122D68D03120122488E03120122CA
:10124300B08E03120122DE850312012208860312E7
:101253000122CF8603120122AB8703120122869556
:10126300031201221E880312012254880312012251
:10127300878803120122E08903120122A399031232
:101283000122B99903120122C399031201220D9A73
:101293000312012294A70212012251A80212012271
:1012A3008CA802120122BDA8021201221FA9021258
:1012B30001226BA902120122D6A90212012250AA0D
:1012C300021201224FAB02120122D6AC02120122FA
:1012D30059AD02120122BFAD02120122D2AD021298
:1012E3000122CDAE021201221AAF0212012264E7DB
:1012F300021201227AE7021201221EE802120122DF
:101303005DE8021201227AE802120122ABE802121E
:101313000122F8E8021201222CE90212012267E9F4
:10132300021201225CEB02120122D2DA0112012223
:1013330009DE0112012285DF01120122DCDF011225
:101343000122F9DF0112012277E001120122F4E107
:1013530001120122D8E20112012287E601120122C1
:1013630057E7011201221792031201222592031259
:101373000122909203120122CE9203120122EC92D7
:101383000312012283C502120122CCC702120122D9
:101393001CC90212012292CA0212012202CB0212BA
:1013A30001226BCB02120122C5F6021201220AF7B7
:1013B3000212012227F702120122DDF70212012293
:1013C30030F80212012207F90212012220FA021256
:1013D3000122339B03120122FC9A031201225F9B19
:1013E30003120122889B03E066701008A3E0667075
:1013F3000A08A3E066700408A3E06622C3E7960820
:1014030009E7960809E7960809E79622C3E09608D4
:10141300A3E09608A3E09608A3E09622C008C3E0E1
:1014230096F50808A3E096420808A3E09642080848
:10143300A3E09645087001D3D00822080808EAC043
:10144300E0EBC0E086F0E7A4FA180986F0E7A42AE7
:10145300FA180986F0E7A42AFA180986F0E7A42AFD
:10146300FA1986F0E7A4FBE5F02AFA190886F0E7F3
:10147300A42BFBE5F03AFA190886F0E7A42BFBE569
:10148300F03AFA18180986F0E7A4C5F02BFBE43A02
:10149300FA1908E7C5F0C6A426F6E5F03BFBE43AE3
:1014A300FA1886F0E7A4F6E5F00826F6E43B08F61A
:1014B300E43A08F6D0E0FBD0E0FA22E4CFC0E0E45F
:1014C300CEC0E0E4CDC0E0E4CCC0E075F020E62679
:1014D300F608E633F608E633F608E633F618181886
:1014E300EC33FCED33FDEE33FEEF33FFC3EC970932
:1014F300ED9709EE9709EF97191919400FFFEC972C
:10150300FC09ED97FD09EE97FE191906D5F0BFEC1E
:10151300F709EDF709EEF709EFF7191919D0E0FC10
:10152300D0E0FDD0E0FED0E0FF226016080808C638
:10153300C313C618C613C618C613C618C613C6D512
:10154300E0EA227009080808226016181818C6C3B2
:1015530033C608C633C608C633C608C633C6D5E085
:10156300EA22E627F60809E637F60809E637F60819
:1015730009E637F622E026F608A3E036F608A3E0EC
:1015830036F608A3E036F622E026F008A3E036F0AC
:1015930008A3E036F008A3E036F022C3E697F60886
:1015A30009E697F60809E697F60809E697F622C3CF
:1015B300E096F008A3E096F008A3E096F008A3E015
:1015C30096F022E056F608A3E056F608A3E056F696
:1015D30008A3E056F622E056F008A3E056F008A36D
:1015E300E056F008A3E056F022E0F608A3E0F60880
:1015F300A3E0F608A3E0F622E6F008A3E6F008A3CA
:10160300E6F008A3E6F022E0FAA3E0FBA3E0FCA3E4
:10161300E0FD22EAF0A3EBF0A3ECF0A3EDF022E06F
:10162300F8A3E0F9A3E0FAA3E0FB22E8F0A3E9F0D2
:10163300A3EAF0A3EBF022CAC0E0E6F0A308DAFACB
:10164300D0E0FA22CAC0E0E0A3C582CCC582C5833C
:10165300CDC583F0A3C582CCC582C583CDC583DA4E
:10166300E6D0E0CA22C3E498F8E499F91216A980F7
:1016730026C3E49AFAE49BFBE920E7E91216A9E4FE
:1016830098F8E499F922C3E498F8E499F91216A9B1
:10169300E498F8E499F9C3E49AFAE49BFB22EB207B
:1016A300E7CFE920E7E0B90010BB0008E88AF0843F
:1016B300F8AAF022E4FBC8FA22EB70227B10C833AD
:1016C300C8C933C9335007C39AC3DBF280069A50A3
:1016D300012ADBEAC833F4C8C933F4C9FA2275F026
:1016E30008E4C833C8C933C933C99AC99B5004C96C
:1016F3002AC93BD5F0ECFBC833F4C8E4C9FA22602D
:101703000D08C6A2E713C618C613C6D5E0F32260B8
:101713000C08C6C313C618C613C6D5E0F42270045A
:1017230022600D18C6C333C608C633C6D5E0F41805
:1017330022251810AF08F518400C15198008F51864
:1017430040021519D2AF2200C0D0251810AF08F5FA
:1017530018500C05198008F51850020519D2AFD09E
:10176300D0222518F58210AF08F518400C15198002
:1017730008F51840021519D2AF85198322C58225B1
:1017830018C582C583351910AF07F51985821880EE
:1017930007F519858218D2AFC583222518F582E48F
:1017A3003519F583222518F8E43519F9222518FA95
:1017B300E43519FB222518FCE43519FD22E47325D1
:1017C30018C582C0E0E51934FFC583C0E0E518C33E
:1017D300958224F810AF08858319858218800885BF
:1017E3008319858218D2AFCEF0A3E520F0A3780841
:1017F300E608F0A3DEFAEFF0A3E58124FAF8E608A1
:10180300F0A3E608F0A3E608F0A30808E608F0A3AF
:10181300E608F0A315811581D0E0FED0E0F815812C
:1018230015811581E8C0E0EEC0E0222518C582C00D
:10183300E0E51934FFC583C0E0E518C3958224F9B8
:1018430010AF0885831985821880088583198582DE
:1018530018D2AFCEF0A3E520F0A37808E608F0A3F2
:10186300DEFAEFF0A3E58124FBF8E608F0A3E6082F
:10187300F0A30808E608F0A3E608F0A31581158194
:10188300D0E0FED0E0F815811581E8C0E0EEC0E0BD
:1018930022851983851882E0A3FEE0A3F52078084A
:1018A300E0A3F608DFFAE0A3FFE0A3C0E0E0A3C0F3
:1018B300E0E0A3C0E0E0A3C0E0E0A3C0E010AF0815
:1018C3008582188583198008858218858319D2AF8C
:1018D300D083D08202011F851983851882E0A3FE7D
:1018E300E0A3F5207808E0A3F608DFFAE0A3FFE021
:1018F300A3C0E0E0A3C0E0E0A3C0E0E0A3C0E01029
:10190300AF08858218858319800885821885831915
:10191300D2AFD083D08222C0D02518C582C0E0E5E3
:101923001934FFC583C0E0E518C3958224F310AFD3
:10193300088583198582188008858319858218D2C2
:10194300AFC8F0A3E9F0A3EAF0A3EBF0A37908E7AB
:1019530009F0A3D8FAECF0A3EDF0A3EEF0A3EFF0B7
:10196300A3D0E0F0A3D0E0F0A3D0E0F0A3E520F013
:10197300A3E5F0F0A322851983851882E0C0E0A3D4
:10198300E0F9A3E0FAA3E0FBA37808E0F608A3DFFD
:10199300FAE0FCA3E0FDA3E0FEA3E0FFA3E0C0E0C8
:1019A300A3E0C0E0A3E0F5D0A3E0F520A3E0A3F516
:1019B300F010AF08858319858218800885831985FF
:1019C3008218D2AFD082D083D0E0F8D0E032740452
:1019D3008006740280027401C0E0F404121765D01B
:1019E300E012163A227404800474028000CCC0E032
:1019F300EDC0E0E518C39CCCAD1950011D10AF0636
:101A03008C188D1980068C188D19D2AF121647D0F9
:101A1300E0FDD0E0FC22D083D082E9C0E0E493A3D0
:101A2300C386F0C5F095F0F908E493A386F0C5F0FA
:101A330095F0700BE493A3C3994005E9048002A3D6
:101A4300E475F002A42582F582E5F03583F583D0B1
:101A5300E0F9E493A3C0E0E493C0E022D083D08212
:101A6300ECC0E0EDC0E0E493A3FCE493A3FDED4CF4
:101A7300600D121AABEC24FFFCED34FFFD80EFE4A4
:101A830093A3FCE493A3FDED4C600D121AEAEC243E
:101A9300FFFCED34FFFD80EFD0E0FDD0E0FCE493EC
:101AA300A3C0E0E493C0E022C0E0C3E493960874CB
:101AB30001939618400FE4936670080874019366C7
:101AC3001870007019A3A3C3E49396087401939646
:101AD30018A3A3400DD0E0D0E0D0E0021A9BA3A34B
:101AE300A3A3A3A3D0E022C0E0C0F088F0E49366F0
:101AF30070080874019366187000A8F0A3A3700B14
:101B0300D0F0D0E0D0E0D0E0021A9BA3A3D0F0D075
:021B1300E022CE
:101B180074F512182EEAFEEBFFEE2434F8EF3400C9
:101B2800F988088909EE2435121C50F8EE2437127A
:101B38001C50F50AEC850AF0A4FCAAF0850AF0ED21
:101B4800A42AFDE82CF8E43DF97A257B001216A9B1
:101B5800EA850882850983F05407F87401B8000201
:101B68008004C333D8FCC0E0E0131313541FF8EE0D
:101B780028F8EF3400F9E8245DF582E93400F583AC
:101B8800D0E0F8E0586008850882850983801DEE5A
:101B98002436121C50F5F0EA84A8F0EE28F8EF3449
:101BA80000F9E82438F582E93400F583E0F97F0488
:101BB8000218DA74F512182EEAFEEBFFEE2434123E
:101BC8001C50C0E0EE2435F582EF3400F583D0E0F8
:101BD800F08E828F83A3A3A3A3A3E0FAA3E0FB8ED6
:101BE800828F83A3A3A3A3A3A3A3E0FCA3E0FDEC9C
:101BF800C39AF50AED9BF50BEE2480F508EF340047
:101C0800F509850882F583E06401702BEE2481F5DF
:101C180082EF3400F5831219EC121C597402121762
:101C28004AE960137CFD7D04EEFAEFFB120B868512
:101C38000882850983E4F0AC0AAD0BEEFAEFFB12DB
:101C48001B181221AC021BB6F582EF3400F583E0B5
:101C580022C082C083851882851983E0F8A3E0F941
:101C6800C3EA9CEB9D5012C3EC98ED994019C3EA66
:101C780098EB99501279018010C3EA98EB9940F5D6
:101C8800C3EC98ED9950EE7900D083D08222EAC354
:101C98009CFAEB9DFB2200008521878522C622C085
:101CA800E074EF12191A759B00906182E0A2E64079
:101CB80003021D68E591A2E64003021D687591BF05
:101CC8009003C2E064057008120D24120D308003E1
:101CD800120D2A752100120D96E99003C3F07900C0
:101CE800120D8A120AF07A017B009003C1E0F91202
:101CF8001204907803E064426003021DB190055F0E
:101D0800E014F06003021DB1C2AF121D1500782A5D
:101D1800D0E0F618D0E0F6E59F5407F970059091E9
:101D28000D800390911178081215ECE9C4C0E07891
:101D380029E65508F50808E65509F509740B7808E9
:101D4800121712D0E02508F8906270E0A2E740F878
:101D5800E8C333906272F0906270E0D2E0F080499C
:101D6800E0A2E55024E591A2E5501E7591DF9003AD
:101D7800C2E0640D70139003E4E004F0642870027C
:101D8800E4F07A00E0F9120E08906181E0A2E350D5
:101D980009E5E9A2E3500375E9F7A3E0A2E75009D2
:101DA800E591A2E7500375917F7F04021979C0E09D
:101DB800C0D0C082C083906183E0A2E05009E5BF33
:101DC800A2E0500375BFFEE0A2E15009E5BFA2E121
:101DD800500375BFFDE0A2E25009E5BFA2E250033F
:101DE80075BFFBE0A2E35009E5BFA2E3500375BF4E
:101DF800F7E0A2E45009E5BFA2E4500375BFEFE0A5
:101E0800A2E55009E5BFA2E5500375BFDFE0A2E6F1
:101E18005009E5BFA2E6500375BFBFD083D082D07A
:101E2800D0D0E032C0E074F212191AE5A7A2E4504B
:101E38000FE5A1A2E4500953A7EF75A1EF121E8088
:101E4800E5A7A2E5500CE5A1A2E5500653A7DF756A
:101E5800A1DFE5A7A2E15009E5A1A2E1500375A120
:101E6800FDE5A7A2E2500CE5A1A2E2500653A7FBAC
:101E780075A1FB7F0102197974F812182E752101DA
:101E88009003C2E0640670077A007B00120D0CA272
:101E9800AFE433FED2AF9003C8E0640170187A2033
:101EA8007B009003C1E0F91213127A207B009003A3
:101EB800C1E0F912120A906182E0D2E6F090055E64
:101EC800E0602185C62280169003C7E0640170088F
:101ED800E5C654F84405F5C653BEFC121CA07401AF
:101EE800652160E4EEA2E092AF7F010218DA0000FB
:101EF8008E238F24858228858327851882851983D8
:101F0800E0CEA3E0CF852882852783EBC9EAC8ED18
:101F1800CBECCA75F010C3E833C8E933C9EA33CA51
:101F2800EB33CBC3EA9EF526EB9FF525B35004AB04
:101F380025AA26EC33CCED33CDD5F0DAAE23AF2489
:101F48002274F112182E8A088B098C0A8D0B740FD3
:101F580012179E780C1215EC9090ED78081215C6A1
:101F68009090ED780C1215C67808790C1213FF5072
:101F7800157808790C12159E909135780812141F5F
:101F8800401579018013780C790812159E909135C7
:101F9800780C12141F40EB79007F080218DA74EDF0
:101FA80012182E8A088B098C0A8D0B741312179E2F
:101FB800780C1215EC9090ED78081215C69090EDFB
:101FC800780C1215C6780C79081213FF401178089E
:101FD800790C12159EAA08AB09AC0AAD0B802275C4
:101FE80010007511007512007513017810790C1224
:101FF800159E78107908121565AA10AB11AC12ADB0
:10200800137F0C0218DA9090ED78081215EC8A828A
:102018008B8378081215D97F040218DA74F5121820
:102028002E8C828D8378081215EC8A828B8378082F
:102038001215B2122078C3E098F0A3E09912206A32
:10204800401E90912978081215EC8A828B837808B3
:1020580012158B8E828F83E02420F0A3E0344EF09B
:1020680080A4F08E828F83C3E09420A3E0944E2254
:10207800EA2404F8EB3400F9E8FEE9FF8C828D834A
:10208800A3A3A3A3E0F8A3E0F98E828F832274F5BB
:1020980012182EE9FE900514E0FAA3E0FBEEC33314
:1020A800F8E433F974B128F582748F39F583E02A9E
:1020B800F508A3E03BF50978081219D5909121128B
:1020C800160A121EF8740212174A8A088B098C0A1B
:1020D8008D0B7410780812152DAA08AB097F04021D
:1020E80018DA74F112182E8A0C8B0D8C0E8D0F7461
:1020F8000F12179EE0FAA3E0FB741112179EE0F589
:1021080008A3E0F509741312179EE0FEA3E0FF7818
:10211800081219D5EA2401F508EB3400F509E4F5AD
:102128000AF50B780C790812143E9090F57808128D
:1021380015EC780C790812143EAA0CAB0DAC0EAD58
:102148000F121EF8740212174A8B09EA4509600437
:102158007A0180027A00EC2AFCED3400FDECF8EDFF
:10216800F97A717B021216A988088909E4F50AF53B
:102178000B8E828F8378081215FBECF8EDF97A71D3
:102188007B021216A98A088B097405780812172190
:102198008E828F83A3A3A3A3E508F0A3E509F07FAC
:1021A800080218DAC082C083E9906000F0D083D0BA
:1021B8008222C0E074F212191AA2AFE433FED2AF41
:1021C800C2C0E5D1A2E4500653D1EF12117AEEA2B3
:1021D800E092AF7F01021979C0E074F212191AA2D5
:1021E800AFE433FED2AFE589A2E1500312110E75B8
:1021F8008900C2C5EEA2E092AF7F01021979C0E062
:1022080074F212191AA2AFE433FED2AFE58BA2E042
:10221800500312110E758B00C2E880D8C0E0C0D000
:10222800E8C0E0A8A8D2AFC2C7E8A2E792AFD0E062
:10223800F8D0D0D0E032C0E0C0D0E8C0E0E9C0E0DB
:10224800EAC0E0EBC0E0C082C083A2AFE433F9D2B9
:10225800AF9009E7E0F8A3E0687008539AFBA3740D
:10226800018022C2E99009E7E0F8740128F0746758
:1022780028F582E43409F583E0F5C19009E7E0C365
:1022880094804002E4F0E9A2E092AFD083D082D0FB
:10229800E0FBD0E0FAD0E0F9D0E0F8D0D0D0E032DE
:1022A800FFFFFFFFFFFFFFFFC082C083E9900B9C89
:1022B800F002253474F71217C2E99002E0F07C1896
:1022C8007D037AFF7BFF1208089002E174FFF0A3F8
:1022D800F0A3E4F0A3F079051207909002E0E0F98A
:1022E8001206B87A267B081209E802324274F41200
:1022F80017C28A088B09EB548060309002E0E0F93D
:102308001211EC8A0A8B0BAE0AAF0BEE4F60138EDC
:10231800828F83E064B070031207A8EEFAEFFB1215
:1023280011DAAA08E5096480FB80047A007B0002C0
:10233800250374F21217C274FC121734EAFEEBFF7D
:10234800741212179E123729EE4F70030223DD74A0
:102358000212179EEEF0A3EF12273EECF0A3ED1247
:10236800273EAA82AB831206B2E9F50A706AE5082D
:10237800450960648E828F8312370FEE4F60567A5C
:10238800067B001212708A0C8B0DA80CA90DE84967
:102398007005750A13804188828983E41223EAEE66
:1023A800F0A3EF12373AE508F0A3E509F09002E64A
:1023B8001224719002E670051231EC801B1231DA9A
:1023C8008003EAFCEBFD8C828D8312247170F38C00
:1023D800828D8380E3750A02A90A740412174A02DF
:1023E8003929F0A31236E0A32274F21217C2890A1F
:1023F800E975F017A4FEAFF09002E5E4F09002E36F
:10240800122471600A1212769002E3E4F0A3F0EE4F
:10241800FAEFFB1212708A088B09EA4509602FEE61
:10242800FCEFFD79001211C29002E3E508F0A3E584
:1024380009F07B00800812245BE4F0A3F00BEBC3E7
:10244800950A40F2E50A9002E5F0790080027913D6
:10245800023929EB75F017A4F8A9F09002E3E028F7
:10246800FAA3E0398A82F58322122E7EEA4B22747F
:10247800F41217C2740C12179E123704FEE9FF7586
:102488000800750900800CE5082401F508E5093401
:1024980000F509C3E5089CE5099D503285080A85C1
:1024A800090B7403780A121721EA250AF8EB350B91
:1024B800F988828983A3A3A3A3A3A31232C1EE65DB
:1024C8000A7003EF650B70BFE8FAE9FB80047A0035
:1024D8007B00802774F41217C27900EAA2E0501B2F
:1024E8007508B275099078081219D57C047D007AB0
:1024F8009E7B0B12078A740212174A7F04021894F3
:10250800C082C0839002E612253B601C88828983C2
:10251800A3A3E06A7003A3E06B8882898370E8A3B1
:10252800A3A3A3122E7A80047A007B00D083D082E2
:1025380002011F123A0FE8492274EE1217C274FC06
:10254800121734EAFEEBFF851882851983E4F0A39D
:10255800F0EE24021231CCEE24051236E7EE240404
:10256800F50EEF122AF3E024FE603924FC604624BD
:10257800FE605224FE605E24FE700302265424FE90
:1025880070030226B824FE70030226C724FE7003D7
:102598000226D624FC70030226E524FE70030226D8
:1025A800F40227319002FF7417F0A3E412274612B1
:1025B8000430022731851882851983AC82AD8312D5
:1025C80007AE022701851882851983AC82AD831274
:1025D80007B4022701850C08850D09740212179E9D
:1025E800AC82AD83850882850983122E7A1206D6BD
:1025F8008A0C8B0DAC0CAD0DEC4D603BE4F50CF585
:102608000D780C1219D5750CFF750D02780C12197E
:10261800D5750C00750D03780C1219D574081217AE
:102628009E1219EC123B8B12174AE9F50C700B122B
:102638002E70120448800F750C0185088285098365
:102648001227341231EC850C080227047402121781
:102658009EAC82AD83850C82850D83122C45603C2F
:10266800850C82850D83A3A31219EC7510FF7511D3
:102678000278101219D57510007511037810121907
:10268800D5740812179E1219EC123B8B12174AE9DF
:10269800F509700B122E7012044E800F7509018512
:1026A8000C82850D831227341231EC850908804C81
:1026B800851882851983AC82AD831207BA803A8562
:1026C8001882851983AC82AD831207C0802B8518C8
:1026D80082851983AC82AD831207C6801C85188257
:1026E800851983AC82AD831207CC800D851882854D
:1026F8001983AC82AD831207D2E9F508E508602991
:102708008E828F83A3E06414601F850E82850F83F9
:10271800E09002FF12273E123A0B9003001231ECB0
:10272800E508A312274612042A0230DB123A0F8565
:10273800188285198322F085188285198322F07CF6
:10274800FF7D02850A82850B83122E7E2274EE128B
:1027580017C274FC1217348A0A8B0B8C0E8D0FEA81
:102768002405F508EB3400F5097C157D0079007A1D
:10277800FF7B021211C2E5082402F50CE5091236A6
:10278800EA8518828519838582108583117810124D
:1027980019D5850882850983A3A3A3A3122C3C120B
:1027A80019D5E5082405F510E5093400F511781068
:1027B8001219D5850C82850D83122F911206D074BB
:1027C8000612174A8A108B11AE10AF11E50A2402BF
:1027D800F50AE50B1231CFEE4F700302291380176B
:1027E800740212179E122E7A88828983EAF0A3EB6C
:1027F800F09002FFE004F09002FFE0C3940540036C
:10280800022913E4F510F51178101219D57510E89E
:1028180075110278101219D57510E9751102781022
:102828001219D5740612179E1219EC7910EEFCEFE6
:10283800FD123B8D12174AE9705E8508828509836F
:10284800A3A3A3A3A3A3A3E0F89002E8E0687048B9
:10285800122C3C1219D57CE97D02E5082408FAE51A
:10286800093400FB1211BC740212174AE960298E60
:10287800828F83A3A3A3A3122E7A9002FFE0F51000
:102888007402781012172174002510F5827403352C
:1028980011F583EAF0A3EBF0740212179E858210FB
:1028A80085831178101219D5740212179E1219EC2B
:1028B800850C82850D83122EA012174A8A108B115F
:1028C800AE10AF119002FFE0F51075110074027898
:1028D8001012172174FF2510F874023511F9888237
:1028E8008983A312247170030227DFE824030808F0
:1028F80008E93400F9EE4F60030227E888828983EB
:1029080074FFF0A3F09002FFE004F09002FFE06093
:102918000A122E7012043C7900800B850882850902
:10292800831231E3790A0230DB74EA1217C274FEAB
:102938001217348C128D13EA2405F50CEB123B7533
:10294800123713750800750900EA2402F510EB34F4
:1029580000F51185188285198385820A85830B788D
:102968000A1219D5850C82850D83A3A3A3A3122B64
:10297800091219D5E50C2405F50AE50D1231CF78B1
:102988000A1219D5850C82850D83122B0D1206D0DB
:10299800740612174A8A0A8B0BEA450B7003022A3F
:1029A800AEEA2404F50EEB122AF31237138A828B4F
:1029B80083A3A3A3E0F9851082851183122E846076
:1029C80003022AAEE4F514F51578141219D5751416
:1029D800E875150278141219D57514E97515027879
:1029E800141219D5740612179E1219EC7913AC0A31
:1029F800AD0B851082851183123B9312174AE9F5B6
:102A0800096003022AAE9002E8E0F8E5087009E0E0
:102A18002402900300F08014900300E0FCE82402F4
:102A2800FAE43400FBEA6C7001EB707E850882AA38
:102A380082122C339414122C2B506B850E82850F26
:102A480083E0C0E074012A122AEAD0E0F005088584
:102A58000E82850F83A3E0C0E085080A7401250A69
:102A6800122AEAD0E0F005089002E8122B091219A0
:102A7800D57CE97D0285080A7401250A122AFD120F
:102A8800174A9002E8E02508F50874FF6E70037491
:102A9800FF6F6012EE24010EEF3400FFE508C394C7
:102AA80014500302295BE5086013122E8E851082EC
:102AB800851183122E7A12044279008014E5097078
:102AC8000375090A851282851383EEF0A3EFF0A936
:102AD80009740212174A7F0E02189485080C7401B3
:102AE800250CF58274033400F583223400F50F8534
:102AF8000E82F58322FA74033400FB1211AA7402C1
:102B08002212374922A3A3122B13221231DAFDEE27
:102B1800FAEFFB2274EE1217C274FE1217348C0EF1
:102B28008D0FEA2405F50CEB1236EA750B009002BE
:102B3800FFE4F0F50AEA2402F508EB3400F5098011
:102B4800449002FFE0FA9002E8E0F8122C33941760
:102B5800122C2B400D9002FFE0F87416C3989002D7
:102B6800E8F0122C3C1219D57CE97D0274002AFA8F
:102B78007403122B0012174A9002E8E0F89002FF43
:102B8800E028F0050AE50C2416F582E50D122AEE78
:102B9800E0F8E50AC39850749002FFE0C394165019
:102BA8006BE50AC333F8E433F9E50C28FEE50D3983
:102BB800FF851882851983AC82AD838E828F83123C
:102BC8002C457008750B011231DF8050E4F510F5C3
:102BD8001178101219D57510E875110278101219AC
:102BE800D57510E975110278101219D574061217E7
:102BF8009E1219EC7916850882850983123B931277
:102C0800174AE9F50B7003022B4980BB7CFF7D0254
:102C1800850882850983122E7A120454A90B74023E
:102C28000230DDE99400C365D03322EA28F8E434A1
:102C380000F9E822E0F5107511007810221230D260
:102C48008A108B11AC10AD11EC4D2274EA1217C228
:102C580074FC1217348A0C8B0D8C128D13EA240520
:102C6800F50AEB1231CF750800750900E50A240250
:102C7800F510E50B3400F511740212179E85820ECB
:102C880085830F780E1219D5850A82850B83A3A335
:102C9800A3A31236EF1219D5E50A2405F50EE50BA4
:102CA8003400F50F780E1219D5851082851183121C
:102CB80031D5122E741206D0740612174A8A0E8B5A
:102CC8000FAE0EAF0FE50C2402F50EE50D3400F53E
:102CD8000F80388882898374FFF00508122AE3740C
:102CE800FFF005089002E8E0F50C750D00780C126D
:102CF80019D57CE97D0285080C7401250C122AFD82
:102D080012174A9002E8E02508F508EE4F60278E72
:102D1800828F83A3A3A3E0F9850E82850F83122EE9
:102D280084EE24041236E7E96027850C82850D833A
:102D3800122E661231ECE5087003022E4C122E8E0C
:102D4800850E82850F83122E7A12045A7900022E7C
:102D580061E4F514F51578141219D57514E875158C
:102D68000278141219D57514E97515027814121918
:102D7800D5740812179E1219EC7911EEFCEFFD8537
:102D88000E82850F83123B9312174AE9F509709A50
:102D9800850882AA82EA9002E87009E02404900378
:102DA80000F08025E0F8900300E0F514E82404FC26
:102DB800E43400FDEC65147001ED7081122C33943D
:102DC80012122C2B4003022D45850C82850D83E0C1
:102DD800C0E074012A122AEAD0E0F00508850C82C6
:102DE800850D83A3E0C0E0122AE3D0E0122EA98566
:102DF800820C85830D780C1219D5740412179E1253
:102E080019EC851082851183122EA012174A8A0C9C
:102E18008B0DAE0CAF0D85080C7401250CF87403EE
:102E28003400F9EE4F7003022CDB85188285198374
:102E3800E088828983122EA9A3E0C0E0122AE3D099
:102E4800E0022CE9E509700375090A850A82850BF9
:102E580083122E661231ECA9097404022ADB123A95
:102E68000F851282851383227CFF7D02850A828565
:102E78000B83122E7E22E0FAA3E0FB22122E7E1292
:102E880006BEE9F50922900300E0F5F0E508849014
:102E980002FFF07CFF7D0222122B131206DC740461
:102EA80022F005088518828519832274EC1217C24E
:102EB80074FE1217348A088B098C0E8D0FEA2405CC
:102EC800FEEB3400FF1230BCEE24181236E7EA4558
:102ED8000B7003022F5F1230A55029122F848A101D
:102EE8008B11EA4511606B7912AC0AAD0B8508822B
:102EF800850983122E7A8510828511831217C0E9FD
:102F0800F50A7058E4F50AF50B780A1219D58E827D
:102F18008F83A3A3E0F50A780A1219D5EE240312C9
:102F280031CC780A1219D58E828F83122F9112070D
:102F3800F6740612174AE9F50A7021850C82850D88
:102F480083E0701F850882850983122E7A12046037
:102F58008011750A0E8009750A018004E50A60036C
:102F68001231DF850C82850D83E0600479008002D0
:102F7800A90A740212174A7F0C02189485188285D0
:102F88001983122E7E1207E4221231DAFD85088297
:102F9800850983122E7E2274EE1217C274FE121750
:102FA800348A088B098C0C8D0DEA2405FEEB34005D
:102FB800FF750E001230BCEA450B70030230831215
:102FC80030A5502C122F848A0E8B0FEA450F604AC9
:102FD8007912AC0AAD0B850882850983122E7A8591
:102FE8000E82850F831217C0E9F50E600302308642
:102FF8008508828509831232C1AA0AFB12309770AC
:10300800147AFF7BFF123097606C88828983E50A07
:10301800F0A3E50BF0750A008007750E0E805F05BA
:103028000A9002E5E0FAE50AC39A504AE50A75F003
:1030380017A4FAABF088828983A3A3E02AFAA3E055
:103048003BFB8A828B831231D5EC4D70D2750A17FF
:10305800750B00780A1219D5EEFCEFFD1211AA744F
:103068000212174AEEFCEFFD850882850983122EAD
:103078007A1204668014750E098003750E01123ADF
:1030880007850C82850D831231ECA90E022C2612BD
:1030980007D88A108B11A810A911E84922E508243D
:1030A80002F508E5093400F5098A828B83A3A3A3F6
:1030B800E0A2E522851882851983AC82AD838E82D1
:1030C8008F831230D28A0A8B0B22E0FAA3E0FB121C
:1030D80006D622740412174A7F0A02189474EC1256
:1030E80017C28C108D11EA2405F50CEB1236EA751F
:1030F8000F00EA2402F50AEB1231CF850A82F58324
:10310800122E7A123C1970030231C1750E008071BB
:10311800850C82850D83E06401704F8E828F83A3B6
:10312800A31219EC8E828F83A3A3A3A3E0F51275D3
:10313800130078121219D5EE2405F512EF3400F5B4
:103148001378121219D5122E741207F67406121774
:103158004AE9F50F6014850C82850D83E4F0123A74
:10316800078510828511831231EC7C177D00790068
:10317800EEFAEFFB1211C28E828F83E4F0A3F00502
:103188000E9002E5E0F8E50EC398501EE50E75F0C6
:1031980017A4F8A9F0850882850983A3A3123B7FA9
:1031A8001231D5EC4D6003023118850882850983F8
:1031B80074FFF0A3F0E50F7006122E7412046CA9C8
:1031C8000F022F7FF50AEF3400F50B22A31231DA34
:1031D800FD22E0FCA3E0228E828F83123A0F850E37
:1031E80082850F83E8F0A3E9F022C082C0839002B1
:1031F800E1E06A7003A3E06B70067AE17B02800469
:103208007A007B0002253474F71217C27F00EF752D
:10321800F003A4F8A9F0EC28F8ED39F9888289833D
:10322800E06A7003A3E06B7006E8FAE9FB800B0F15
:10323800EFC3940240D87A007B007F01021894748F
:10324800F61217C21237F870067A007B008007A3BF
:10325800A3A3A3122E7A0238B974F21217C2E9FE98
:10326800740E12179E1232C1741012179E1237294B
:103278008C828D83E06402703BA3123A0B888289AA
:1032880083E0F50CA3E0F9A80C74026870037429B4
:10329800697021750C02750D00780C1219D5780823
:1032A8001219D5780A1219D5EEF912081A740612ED
:1032B800174A80027901023929E0F50AA3E0F50BE3
:1032C8002274E81217C274FB121734E98518828534
:1032D8001983F08A168B178C0E8D0F741F12179E88
:1032E800123729742112179E1232C1742312179EA5
:1032F8001237137510008C828D83A3A3A3E0A2E478
:10330800502A741D12179E122F8A8A828B83E58297
:10331800458370030233D5790AAC0EAD0FAA16ABFC
:10332800171217C0E9F51060030233D8850E82859D
:103338000F83E06402600302368EA3123A0B8508FD
:1033480082850983A3858212858313E50E2406F5F9
:103358000CE50F1236EA88828983E0FAA3E0F9EADD
:103368002400F514E439F5157814121A5F010000E9
:103378002801289D330700022874340328E4330009
:10338800299E350129C63502296D3503299E350444
:10339800292F368E36EE4F703E850C82850D8312AE
:1033A8003704FAE9FB8A828B83E0850A82850B83DE
:1033B8001237401219D58A828B83A31231DAFDAAFB
:1033C80008AB091211AA740212174A800375100E6D
:1033D800A9107405023B6D75100B80F4EE4F70F761
:1033E800850A82850B837401F01237198508828556
:1033F8000983F07C007D00850E82850F83A3A3A33B
:10340800A3E02401FAA3E03400FB1206D6EA4B60DD
:10341800418A828B83E02402F8850A82850B83E047
:1034280028F0EA2404F8EB3400F988828983E085DF
:1034380012828513831237521237401219D58A82A5
:103448008B831231D4E5082403FAE5093400FB0222
:1034580033CB850A82850B83E02404F07C047D004D
:103468007900AA12AB131211C20233D8EE4F6003CF
:103478000233DF123719FEA3E0FF850A82850B832A
:103488007404F0EE850882850983F0EF8512828541
:103498001383F0740312179EAC82AD83EEFAEFFB30
:1034A8001237E6700302354A8A828B83A3A3123748
:1034B8000F740112179E85820E85830F780E1219DC
:1034C800D5740512179E1219EC7CFF7DFF1206DCDD
:1034D800740412174A8B0FEA450F7033850C8285E6
:1034E8000D831236EF1219D5850C82850D83A31230
:1034F80019EC7C027D007A687B911205087404122D
:10350800174AE9700A740112179E74FFF0A3F08E2F
:10351800828F83E064027034750C02750D00780C9C
:103528001219D58E828F831231D4E5082404FAE566
:1035380009122B0012174A850A82850B83E02402A0
:103548008009740112179EEEF0A3EFF074011217B0
:103558009E123700F0740112179EA31236F8A3A327
:10356800A3F00233D8EE4F60030233DF850C828567
:103578000D831231D5AA16AB1712080E850A82855B
:103588000B837402F0EA850882850983F08512822C
:10359800851383EB80CBEE4F60030233DF123719BC
:1035A800F8A3E0F9850A82850B837402F0E88508A0
:1035B80082850983F0E985128285138380A3850CAF
:1035C80082850D83122E7A1211A4EAFC8C82A882BD
:1035D800C39EE49F404BE86E7001EF70047C00804E
:1035E8001F851882851983E0FAEE2AFAEF3400FB6A
:1035F800C3EA98EB94005003E08004EECCC39CFC33
:10360800EC850A82850B83F08C0A750B00780A1208
:1036180019D5850C82850D83E02EFCA3E03F02338B
:10362800C67510070233D8EE4F60030233DF850CEE
:1036380082850D83123A0B850A82850B837407F005
:10364800888289831236F81236E0E0851282851363
:1036580083F0E82402FAE93400FB8A828B8312366D
:10366800F8123731123700A312373A123709F0E847
:103678002405F8E93400F988828983123709A312EE
:103688003752A3023566741D12179E1237F1700364
:103698000233D5123A0B880C890DE8450D700302E8
:1036A80033D58E108F1178101219D5780A1219D5C2
:1036B80078081219D5740612179EE0F9AC0EAD0FF2
:1036C800AA16AB17850C82850D831217C0740612D3
:1036D800174AE9F5100233D8F088828983A322F5C6
:1036E8000CEF3400F50D22E0F50E750F00780E2270
:1036F800E08508828509832212375922123A0FE899
:1037080022123759A3A322A3A3A3A3E0FEA3E0FF99
:1037180022850C82850D83E0F8A3E0F5838882E09A
:1037280022E0F508A3E0F50922A3A3F08A828B839F
:10373800A3221223ECA3A322F08A828B8312374997
:1037480022E0F50A750B00780A221236E012375982
:1037580022E0850882850983A3A32274EE1217C28A
:1037680074FE1217348A0A8B0BECFAEDFB741412F0
:10377800179EE0F510A3E0F511741612179EE0FEEF
:10378800741812179EE0F50EA3E0F50F85188285D0
:103798001983AC82AD831237E6603E85188285199D
:1037A800831237F1602FA3A3123729E50845096072
:1037B80024780E1219D578101219D5EEF9AC0CAD83
:1037C8000DAA0AAB0B8508828509831217C07404F9
:1037D80012174A8006790E80027901022C261206F9
:1037E800D68A0C8B0DEA450D22122E7E1237F8224E
:1037F8001207A28A828B83E58245832274F6121708
:10380800C274FE121734740C12179E1237048518EE
:1038180082851983F0740112179EE9F0E4F508F522
:103828000978081219D575080278081219D5740490
:1038380012179E85820885830978081219D5120700
:10384800F6740612174A740212174A806474F71243
:1038580017C2EAFEEBFF89087C187D0312080EEAFE
:103868005402600BA908EEFAEFFB1206CA8002792F
:103878000102324274F61217C274FF6A700374FFB1
:103888006B701C7B00EB75F003A4F8A9F0EC28F82A
:10389800ED39F91238BE0BEBC39402501480E612CE
:1038A80007DE8A088B09A808A909E84960031238C5
:1038B800BE7F020218948882898374FF1223EAE487
:1038C800F02274F61217C21207DE8A828B83E58211
:1038D80045836006A3A3E0FA80027A007B0080D1CA
:1038E80074F21217C28A088B09ECFEEDFF740E12EF
:1038F800179EE0F50A12392E701CEEFCEFFD7AFFD8
:103908007BFF12392E70047911801688828983E52D
:1039180008F0A3E509F088828983A3A3E50AF07972
:10392800007F060218941207DE8A0C8B0DA80CA9DA
:103938000DE8492274EE1217C2EAFEEBFF8C088DDF
:1039480009890C741212179E123A0B741412179EDE
:103958001231D5741612179E122E7A750D00EC4D81
:1039680060030239FF7402650C60030239FA888229
:1039780089831231DAF9EC2400F50EE439F50FEAFF
:10398800F4F8EBF4F9EC58F8E50F59F9E849705DEB
:10399800E5082406F8E5093400F9880A890B8882C5
:1039A800F583122B0F12080E8A108B11E50E651085
:1039B8007004E50F65116042780E1219D5850A82E8
:1039C800850B83122B0F120814740212174AE9F59B
:1039D8000D7027780E1219D5850882850983A3A34F
:1039E800122B0D12082C740212174A800D750D80C7
:1039F8008008750D0D8003750D0BA90D0230E08E42
:103A0800828F83123A0F22E0F8A3E0F92274E812B9
:103A180017C274E7121734851882851983EAF0A350
:103A2800EBF08C168D17890E743112179EE0F51283
:103A3800A3E0F513743312179EE0F514A3E0F5150F
:103A4800743512179EE0F50F750800750900E50931
:103A580075F003A4F8A9F0851882851983123B7FB5
:103A6800E0F47003A3E0F47003023B5DEE2402F57A
:103A78000CEF123B75E07003023B5D85160A851753
:103A88000B780A1219D5AC14AD15AA12AB1312078C
:103A980096740212174A8A0A8B0BEA450B700302C6
:103AA8003B5DE4F510F51178101219D5740612175C
:103AB8009E85821085831178101219D57409121702
:103AC8009E85821085831178101219D585128285FA
:103AD8001383A3A3A3A31219EC7914AC0AAD0B8E1C
:103AE800828F83123B9312174AE97069850A82858F
:103AF8000B83A3A3A3A3123A0B740212179E1231CD
:103B0800EC850C82850D83E0A2E05018A90E7402A2
:103B180012179EAC82AD838E828F83122E7A120684
:103B2800EEE94208850C82850D83E0A2E15026E586
:103B38000FF50A780A1219D9A90E740312179EAC48
:103B480082AD838E828F83122E7A1206E874011258
:103B5800174AE942080509E509C394025003023AE5
:103B680056A908741912174A7F100218943400F5E0
:103B78000D850C82F58322E028FEA3E039FF8E82B2
:103B88008F83227916850A82850B83122E7E12076F
:103B9800F074082274F21217C2EAFEEBFF890B7464
:103BA80001650B600E7402650B70637901120A06D9
:103BB800E9705BEEFAEFFB123C196047750A00806A
:103BC8000B7C177D0079001211C2050A9002E5E00E
:103BD800F8E50AC3985021E50A75F017A4F8A9F08A
:103BE800850882850983A3A3E028FAA3E039FB8A24
:103BF800828B8312253B70C985088285098374FFEF
:103C0800F0A3F07C187D03EEFAEFFB1208080239E6
:103C1800291207D88A088B09EA45092274F2121773
:103C2800C28A088B09ECFEEDFF740E12179E123241
:103C3800C1900B9CE0F4603D7A097B001211D4EA34
:103C48004B60328A828B8374B1F0A3E4123733A3BA
:103C5800123731A3E508F0A3E509123C80EEF0A382
:103C6800EF123C80A3A3E50AF0A3E50BF0900B9CB0
:103C7800E0F91211E0023929F08A828B83A3A3A309
:103C8800A3A322C082C0839061907404F0A37448F7
:103C9800F0A3E4F09061807440F09061BC7407F088
:103CA8009061877469F09061B67416F07900120A11
:103CB800F67902120AFC9022A8E493F46006E493D1
:103CC800F9120AD27905120DEA0240CDC082C083EA
:103CD800E9540FF9906185E0696012E5C6548044A3
:103CE80049F5C6E59E547F644970F8E9F053C680EB
:103CF800E59E547F70FA0240CD74F71217C2E5A80A
:103D0800FE53A87E120ADEC2BA539AFEC289759B78
:103D180000C2C2120AE475A91175B905120AEAD2DD
:103D2800BA439A0174805E42A802465AC082C08390
:103D3800906181E4F0A30240CA75E90075910075AD
:103D4800BF0002011FC082C083906181E4F0A374A8
:103D5800C0F0A3E40240CCC082C08374F8121734C8
:103D68009003C412453CE8497003023E169003C410
:103D7800E0544060237908851882851983AA82ABAC
:103D880083120BEC851882851983AA82AB831208EB
:103D9800989003C4E054BFF0E054806010790C7A26
:103DA800807B05120BEC9003C4E0547FF0E0A2E0A6
:103DB80050087900123E1E54FEF0E0540260087963
:103DC80001123E1E54FDF0E0540460087900123ED2
:103DD8002954FBF0E0540860087901123E2954F791
:103DE800F0E0541060087902123E2954EFF0E054D4
:103DF8002060087903123E2954DFF0A3E0540160E3
:103E08000D120B081208AA9003C5E054FEF07408BE
:103E180012174A0240CD120AF612089E9003C4E017
:103E280022120AFC1208A49003C4E022C082C083B4
:103E3800E9600514602A804F90619A7433F0A37486
:103E480055F09061A0743AF090055CE06401700947
:103E5800C2919003C67467802D9003C67461802652
:103E680090619A743FF0A3745AF09061A0747FF047
:103E780090055CE064017009D2919003C67471806A
:103E8800059003C6746AF00240CDC082C083E96021
:103E98000B14600D14600F14601180209022AC8008
:103EA800159022AD80109022AE800B90055CE064E6
:103EB8000160F39022AFE493906186F00240CD74E4
:103EC800EE1217C274F4121734851882851983AC60
:103ED80082AD837583907582FD7404121647902213
:103EE800AC93F46003024059907808E0C394025000
:103EF80003024039740412179EAC82AD8375839017
:103F08007582967408121647F97AFF7BFF7FFF7E49
:103F1800008982858210801874086E7003023FEE53
:103F280074096E7003023FEE740A6E7003023FEE6E
:103F3800E510C333FCE433FD740412179EE5822CAC
:103F4800F582E5833DF583E0F50EA3E0F50F8E08D5
:103F58007509007402780812172174482508FC7442
:103F6800783509FD8C828D8378081215EC740878F1
:103F78000812152D85080C85090D8C828D8378080B
:103F88001215EC7418780812152DE50C4508F5087B
:103F9800E50DF509C3E50E9508E50F95098C828DA9
:103FA8008378081215EC8C828D8378081215EC74CE
:103FB800187808401412152DE50C4508FCAD0DE5E0
:103FC8000EC39CFCE50F9D800F12152DE50C4508CE
:103FD800C3950EFCE50D950FFDC3EC9AED9B5006BD
:103FE800ECFAEDFBEEFF0EEEC394135003023F20F4
:103FF80074FF6A700374FF6B602D8F087402780871
:104008001217217448124CE874783509F58378083A
:104018001215EC851882851983E5822510F582E54D
:1040280083124A75E508F009E9C394045003023F76
:104038001175080175090078081219D5740212174C
:104048009EAC82AD837AAB7B081210EA7402121719
:104058004A740C12174A7F0A021894C082C08390CF
:104068006186E0F89022AFE4936870099022AEE48C
:1040780093906186F09061AE7468F0A3746AF090D2
:10408800624574FBF0A304F053F4FD43FE0290056F
:104098005C7401F09061A0E0643A700479008002D9
:1040A8007901120AF60240CDC082C08390050EE065
:1040B8006401700A900513E06004790C80027900AD
:1040C8008003F0A3F0D083D08202011FC082C08396
:1040D80075E1F1900511E0604D1460081460511409
:1040E80060498051120B1A900507E0F97A087B05A0
:1040F800120D6C90910112160A120DA29090E51201
:10410800160A120D78900512E0F9120D8479011241
:104118000DDE900505E024161242627432F0A37495
:104128000BF07900809F120B2080BC120B2680B701
:10413800120B2C80B2791280EB74F41217C275D965
:104148000D9004F6E0A2E0E4331313F81241CE48D0
:104158004401F5D9780012424C40FB780088087475
:10416800F7124CE8740412425640F275E195900437
:10417800F6E0F97AF77B04120D72900BBE74A8F082
:10418800A3740A1242711242911242881243C91250
:1041980041D878081215EC90910578081215789096
:1041A80090ED78081215C612425C78081215FB903B
:1041B8000505E024141242627413F09003C27402DD
:1041C800F07F04021894900507E0C4333354C022EA
:1041D800900505E0F8A3E0F5838882A3A32274F68E
:1041E8001217C212439A8AD9780012424C40FB78BF
:1041F80000800612430012444CE8C39940F512436C
:104208008C12424C40FB78008008124CE474051272
:10421800444CE8C39940F375E195900BBE74B4F033
:10422800A3740A12427112427B12160A12425C12DD
:104238001616900505E024141242627412F09003D9
:10424800C2024637880874082508F58274051245A5
:10425800A8940622900505E0240EF8A3E01242690E
:10426800223400F988828983221243B274AEF0A303
:10427800740A221242911242881243CD9091292247
:10428800F0A374C6F0A3740A22124295221242992E
:1042980022F0A37458F0A3740C2274F61217C212F9
:1042A80042F51241CE4402F5D9780012424C40FB47
:1042B8007800800612430012444CE8C39940F57513
:1042C800E195900BBE12430BF0A312430B12427EF2
:1042D80012160A12425C121616900505E0241412F2
:1042E80042627414F09003C27404024639900517B0
:1042F800E0F9740729F5D922880874182508F58289
:1043080074052274C0124318124318F0A3740A22C9
:10431800F0A3740AF0A374C02274F61217C21243F1
:104328009A74064AF5D9780012424C40FB7800800E
:104338000612430012444CE8C39940F512438C120C
:10434800424C40FB78008008124CE4740512444C3F
:10435800E8C39940F375E195900BBE74BAF0A37465
:104368000A1243A812427B12160A12425C1216164F
:10437800900505E024141242627415F09003C2748B
:10438800030246399005371242F874044AF5D97881
:1043980000221242F5900507E0C4333354C0FA22D4
:1043A8001243B27458F0A3740C221243B62212437B
:1043B800C37458F0A3740C1243C322124299F0A399
:1043C800221243CD22F0900BCC7458F0A3740C1237
:1043D80043B67458F0A3740C124295F022C082C000
:1043E800831241D8A3A3A3A3E40240CA74F7121707
:1043F800C2124F2AF8740339F9E82405FAE934009F
:10440800FB8A828B83124C9988828983A3A3A3A3F6
:10441800A3A3A3A3A3ECF0A3EDF088828983A3A3AD
:10442800A3A3A3A3A3E024FFF8A3E034FFF98A829F
:104438008B83E8F0A3E9F002465A880874602508DF
:10444800F5827405124BC0F5D90822EAFEEBFF90FD
:1044580061D0E0F87480C398FAEE24832212446B8A
:10446800940422124A83E0F5D90AEAC32274F612A8
:1044780017C2EAFEEBFF9061D0E0707575D90E7532
:10448800D90375D9047A008A08EE2508124FF82452
:104498008C12450E40F17A008A08EE2508124FF872
:1044A800248412446540F175E1957908EE248C1254
:1044B800450724841244FE7C008C82AA82C3E49AB5
:1044C800F895E0F9EE28F8EF39F9E8248BF582E958
:1044D800124BBCC0E0EE2A124FF824ABF582E91269
:1044E8004A75D0E0F00CECC3940840CD1245C48066
:1044F80002790002463AFAEF3400FB120BE022126E
:1045080044FE7904EE2212446B940822C082C083D0
:1045180075D90275D90375D90575E195EA2470F541
:1045280082EB124539EA2472F582EB1245D6024035
:10453800CD124A8612454022E0F8A3E0F92274F62B
:104548001217C2EAFEEBFF90056074061245B2121C
:1045580019D57C0179031248DE12174A75D90675F8
:10456800D903780012459840FB75E1959003C2E0A5
:1045780064087017EE2470F582EF124539EE247244
:10458800F582EF124A75E8F0A3E9F0790102463A9C
:10459800880874602508F58274051245A8940522D8
:1045A800124A86E0F5D908E8C322F0750860750953
:1045B8000578082275E1957904120DA8EE2470F5A6
:1045C80082EF124A86124540EE2472F582EF124AB3
:1045D80086E8F0A3E9F079012274F61217C2EAFE20
:1045E800EBFF9061D0E070437901900560740BF0A7
:1045F8009003C2E0640770177508607509057808AC
:104608001219D57C0109091248DE12174A79057476
:104618000129F5D975D90378008003124442E8C30B
:104628009940F875E1951245C480027900800374B9
:1046380001F07F0202189474F71217C2EAFEEBFF2A
:1046480075D90375D90375D90DEE24DE12465F12AC
:1046580045BC7F01021894F582EF124BC0F5D922B0
:104668007F030218947401250AF5D975D9037800D7
:104678002274F51217C21246EE600478048002789C
:1046880000E8240BF8EAC3984041750A09900560D0
:104698007409F079081246D7601475086075090521
:1046A80078081219D51248D612174A750A0D1246FB
:1046B8006D8003124442E8C3950A40F775E1957985
:1046C80004120DA81248537901800279008091EEF6
:1046D80024E3FCEF3400FD7A617B05120BDA8508D0
:1046E80082850983E022124453F8EF124C8DF5833A
:1046F800E02274F31217C28A088B091248E9FAE516
:10470800082483F50AEB1247B8600478048002781D
:1047180000E82408F8EAC39850030247B1750C066C
:10472800900560740CF09003DFE0900561F074026E
:10473800C0E0F97CE07D037A627B05120BDAD0E0F9
:10474800F97CE27D03120BDA850A82850B83E0602F
:104758001C750A60750B05780A1219D57C06790351
:10476800AA08AB091248DE12174A750C0A7401250B
:104778000CF5D975D90378008009880A7460250A70
:10478800124448E8C3950C40F175E1957904120D7F
:10479800A8E5082470F582E509124539E508247270
:1047A800F582E5091245D6800279007F0502189442
:1047B8003400F50B850A82F583E02274F61217C2DD
:1047C800EAFEEBFF1248E9FCEE2483F8EF1248E416
:1047D80060047A0480027A00EA2404FAECC39A405E
:1047E8005E7A02900560EAF0EE24F5F582EF124851
:1047F8005F601975086075090578081219D57C027B
:104808007903EEFA1248DE12174A7A0674012AF57D
:10481800D975D90378008003124442E8C39A40F856
:1048280075E195EE247412484CEE248012484C121F
:1048380048537904120DA8EE240D1245C780027959
:104848000002463AF582EF1249CF22EE241DF58286
:10485800EF1249CFA3F022124BC0900561F0888275
:104868008983E02274F61217C21248E9FEEA24830B
:10487800F8EB1248E460047C0480027C00EC240419
:10488800FCEEC39C40437C029005607407F0EA2468
:10489800F6F582EB12485F601575086075090578B2
:1048A800081219D579031248DE12174A7C067401DA
:1048B8002CF5D975D90378008003124442E8C39CCB
:1048C80040F875E19579018002790002463A7C0941
:1048D8007903EEFAEFFB120C4C740222124269E0E3
:1048E800229061D0E0F87480C3982274F51217C240
:1048F800E9FEA2AFE433F50AC2AF7F00EA246FF8FD
:10490800EB3400F980010F88828983E0FCEFC39CB7
:1049180050188F08EA2508FCEB3400FDEC246BF5F1
:1049280082ED124BBC6E70DE8010EA2CFAEB34007C
:10493800FB124A6FEE12486504F0E50AA2E092AF56
:1049480002466874F61217C2A2AFE433FFC2AFEA98
:10495800246FF8EB124FFAFCE9FD8C828D83E0148A
:10496800F07E0080218E08EA2508F8EB124FFA2421
:104978006CF582E9124BBCC0E0E8246BF582E912C1
:104988004A75D0E0F00E8C828D83E0F8EEC3984033
:10499800D4EA246E124A7274FF1249C4EFA2E0925C
:1049A800AF02463AC082C083E5A8F8C2AF124A6F88
:1049B800E91249C4E8A2E792AF0240CDF0EA246ABE
:1049C800F582EB1249CF22124A86E4F02274F212E1
:1049D80017C28C828D83A3A3A3A3E0541FF0EA24FB
:1049E80036124D318E828F83E4F0F50C850C82856A
:1049F800820AEC250AF8ED124C89F583E0C0E0EA5A
:104A0800250AF8EB124A79D0E0F0750D0085088286
:104A1800850983E0F50A750B00E50D780A1217027F
:104A2800E50AA2E0502AE50C33333354F8250DC0CB
:104A3800E08E828F83E0F8EA28F8EB124FFA2438E8
:104A4800F582E9124A75D0E0F08E828F83E004F097
:104A5800050DE50DC3940840B4050CE50CC3940599
:104A6800408A7F06021894EA246BF582EB124A8684
:104A7800223400F9E8245D124A8322F582E93400E1
:104A8800F5832274F61217C29003EEE064017007F2
:104A98007A007B00024BB67E009003F4E070F1745C
:104AA80001F0A3E4F0A3F090045404F0900457E458
:104AB800F0A3F090045A04F09003F7E4124BCD9061
:104AC800040104F0900427E4F09090D512160A909F
:104AD800040A12161690040EE4F0A3F0A3F0900452
:104AE80072F0900466F090045B7480F0A3E4F09098
:104AF8000461F0900459F09004DD124BC59004E66F
:104B0800F0900475F09004C5F0A3F09090D51216BB
:104B18000A9004C71216169090D512160A9004CB64
:104B28001216169004D1E4F09004D3F09004CFF05C
:104B38009004E9124BC58E08745D124CE874041297
:104B48004A7574FFF00EEEC3940440EA7E008E822C
:104B5800A88274FD28F5827404124BBCC0E0744F1F
:104B680028F5827404124A75D0E0F00EEEC394055D
:104B780040DC7E008E82A88274D628F582740312E7
:104B88004BBCC0E074D528F5827404124A75D0E095
:104B9800F00EEEC3940840DC9003EEE004F06401EC
:104BA80070089003F6E09003F0F07AF27B03024677
:104BB8003AF582EF124BC022124A86E022124BCD00
:104BC800A3124BCD22F0A3F0A3F0A3F022C082C021
:104BD80083EA2403F582EB124BBC6008E4F09003EF
:104BE800EFE014F09003EEE014F070069003F07418
:104BF800FFF08A828B83A3A3E4F0900502E0700D96
:104C08009003EFE0640170057900120D8A0240CD2F
:104C1800C082C0839003F5E4F09003F4F09003EEB3
:104C2800F0A3F0A374FFF075E1F10240CDC082C09B
:104C380083780079009003F5E0600478F2790388BE
:104C4800828983A3A3A3A3E0F90240CD74F61217C7
:104C5800C2EAFEEBFF120B92EE2465F8EF124C89C4
:104C6800124C97EC4D60109003F0124F2285088289
:104C7800850983E4F0A3F0EEFAEFFB120C820246FA
:104C88003A124C8D223400F988088909888222F565
:104C980083E0FCA3E0FD2274F71217C2EAFEEBFFE3
:104CA8008E828F83A3A3A3A3E0FA7B00120910EEE0
:104CB800FAEFFB120BA4120C6402465A74F6121790
:104CC800C27800880874D6124CE8740312484F085A
:104CD800E8C3940840ED9003D60246378808743834
:104CE8002508F5822274F61217C2EA240D124D31F6
:104CF800EC2403F8ED3400F988088909EC2407F856
:104D0800ED124FFAFCE9FD124D3B1216A98E828F67
:104D180083E8F0A3E9F0124D3B1216A98B09EA4586
:104D2800096003124D4E02463AF8EB3400F9E8FEEA
:104D3800E9FF228C828D831245408508828509838C
:104D4800E0FAA3E0FB228E828F83E02401F0A3E047
:104D58003400F02274F61217C2EA242EF582EB34DE
:104D680000124C97EA2470124D31780079FAECFA67
:104D7800EDFB1216A98E828F83E8F0A3E9F0780084
:104D880079FAECFAEDFB1216A98B09EA45096003DA
:104D9800124D4E02463A74F01217C2EAFEEBFF7447
:104DA8001012179E78081215EC120D3C8A0C8B0D08
:104DB8008C0E8D0F909109780C1215789090ED78E3
:104DC8000C1215C6780C1219D18E828F831241DB12
:104DD80012160A121F49740412174AE96003024E98
:104DE800868E828F83E02402F8A3E0124FFAFAE954
:104DF800FB8A828B83780812158B9090ED780812C5
:104E080015EC8A828B8378081215D9EE240BF5826B
:104E1800EF124A75C082C0838E828F83A3A3A3A397
:104E2800A3E02401F8A3E03400F9D083D082E0683D
:104E38007003A3E069700479018045EE2407F8EF58
:104E4800124269124D52EE2474124FFF7014EE2470
:104E580075124E8D7003A3E06D70078A828B8312E2
:104E68004D52EE2480124FFF7014EE2481124E8DA5
:104E78007003A3E06D70078A828B83124D5279000C
:104E88007F08021894FAEF3400FB8A828B83E0FCD7
:104E9800A3E0FD88828983E06C2274F31217C212A2
:104EA8004F2AFE740339FFEE2404F50AEF3400F5A7
:104EB8000BEE2465F508EF3400F5098010124C99C3
:104EC800850882850983E4F0A3F0124F1C850882C7
:104ED800850983124C99EC4D6030EE2464124BB96D
:104EE800F50C780C1219D9EE2463124BB9F9EEFAC5
:104EF800EFFB120BCE740112174AE9850882850967
:104F08008360BA12453CE84970077C007D00124F67
:104F18001C0247B3850A82850B83E0FA7B001208DE
:104F2800CE229003F0E0F875F004A4C8AAF02AF99C
:104F380074F2282274F21217C2EAFEEBFF890A748F
:104F48000E12179EE0FAEE2462124FFF6003024F22
:104F5800F31248E9F50CEE2483124BB9FB60047890
:104F680004800278008908E928F8E4124FFA24023C
:104F78000808E93400F9E50C98E499A2D265D03321
:104F88004065EA7005750B028003750B01EB603311
:104F980075090078081219D57A607B05120C167409
:104FA8000212174A75086075090578081219D5ACF8
:104FB8000AA90B1248DA12174A7404250AF50A7C62
:104FC800607D057401250AF5D9850BD97800800A1A
:104FD8008808EC124CE8ED12444CE8C3950A40F0FE
:104FE80075E195790080067907800279FF024A6A9F
:104FF800F8EF3400F9E822F582EF124BC064012281
:10500800C082C0838003125036E9F874FF2819045F
:1050180070F4ECFAEDFB0240CDC082C0838003122D
:105028005036E9F874FF28190470F40240CD8C82D8
:105038008D83E08A828B83F08C828D83A3AC82ADD2
:10504800838A828B83A3AA82AB832274F41217C249
:10505800E9FF7E008A088B097808121A1900040DE6
:10506800F9518650A350BC50D350F05007512851E5
:105078003F5152517B519551A551BB51D5517401A6
:105088006F60030251F58C828D83E0F8C39403406E
:10509800030251F5E8900C860251D274026F600346
:1050A8000251F58C828D831259DE900C87E8F0A3AB
:1050B800E90251D274016F60030251F512521B408C
:1050C800030251F5E89007640251D274016F60033E
:1050D8000251F58C828D83E0F8C394054003025198
:1050E800F5E89007650251D274016F60030251F52B
:1050F80012521B40030251F5E89007660251D27420
:10510800106F60030251F57508108E09780812199E
:10511800D57A677B071211AA740212174A0252172E
:1051280074016F60030251F512521B40030251F5DE
:10513800E89007770251D274016F60030251F58C31
:10514800828D83E0900C8A0251D274046F6003024E
:1051580051F58C828D8378081215EC90912178088E
:1051680012141F50030251F590077978081215FBA5
:10517800025217EF7077120676E9700A12107E79DC
:10518800501212E8806290080C7401803D74016F1F
:10519800705B12521B5056E8900778802D74016F8F
:1051A800704B8C828D83E0F8C3940A5040E8900CD1
:1051B80089801774016F70358C828D83E0F874F9DB
:1051C80028C3940A5027E8900C8BF0804274016F32
:1051D800701B90080BE0F88C828D83E090080BF030
:1051E800E8702CE06401702712107280227E18800B
:1051F8001EC3EA9426EB9400501374026F700E8C51
:10520800828D831259D8120514E9FE80027E02EEBF
:10521800F9800F8C828D83E0F8C3940222740E12F9
:10522800174A7F04021894A90802522A74F0121728
:10523800C274B11217348C0A8D0B9090AC74201282
:1052480017B8740612164774201217B8121024E9FA
:10525800FF745F12179EE0F509EFC3940A4003023A
:1052680053B675F006EFA4F50874411217B87A0E14
:1052780074202508F91212E2E97009744D12179E7C
:10528800E0FE80027E00900C86E064027005750ED8
:10529800018003750E007408650970047422800289
:1052A80074212508F50D7C1B7D00790074261217E2
:1052B800B01211C274261217B87A1BA90D1212E285
:1052C800E9702D744012179EE024F9C3940A502007
:1052D800E50EF50D780D1219D974271217B8EEA23C
:1052E800E0E433F9AA0AAB0B1205B6740112174AA7
:1052F8007C147D007900740C1217B01211C2740C62
:105308001217B87A1074242508F91212E2E97034D9
:105318007C1079FF740C1217B0121228E9702574EA
:105328001C12179EAC82AD837A0474252508F912E5
:1053380012E2740C1217B8EEA2E0E433F9AA0AAB31
:105348000B12059EAC18AD197A0C74702FF9121255
:10535800E2E97049AA18AB1912105A7F00EF75F0EC
:1053680003A4F8A9F0851882851983E58228F8E551
:1053780083125B97125D09601D88828983A3A3E06D
:10538800F50E750F00780E1219D5AA0AAB0B120785
:10539800FC740212174A0FEFC3940440C0EEA2E156
:1053A800500C900763E0F9AA0AAB0B1208027404C8
:1053B80065097028900C86E0640270207A009007D6
:1053C80077E060027A01900764E060047804800264
:1053D8007800E84AF9AA0AAB0B12065E7900744F06
:1053E80012174A7F0802189474F01217C274F01248
:1053F8001734EAFEEBFF8C088D09750A0AE9600C80
:1054080014600914603B14607D0254E612106CE9C4
:10541800F50AC3940A40030254E6E50845097003F7
:105428000254E6750C06750D00780C1219D5EEFCC1
:10543800EFFDAA08AB091211AA740212174A025406
:10544800E6750C00750E06750F00780E1219D5EE6C
:10545800FCEFFDE50C75F00EA4F8A9F0748528FAA8
:10546800740739FB1211BC740212174AE9700B0554
:105478000CE50CC3940A506680CA850C0AE50AC379
:10548800940A505A8049750C00AC18AD197A1075F9
:10549800F006E50CA42423F91212E2E9701C7C1032
:1054A80079FFAA18AB19121228E9700EEEFCEFFD6D
:1054B800AA18AB19120580E9600B050CE50CC3941A
:1054C8000A501B80C4850C0AE50AC3940A500FE5EC
:1054D8000845096009AA08AB09A90A121066A90AB1
:1054E80074100253E874F41217C289097508157408
:1054F800FF6A700374FF6B70277E00AC097A027B29
:1055080000EEF9121048E960037508000EEEC39426
:105518000A40E8E50960537A967B10120A18804A17
:105528001209FA8A0A8B0BAE0AAF0BEE4F60387C71
:10553800007D00EE2405FAE43FFB8E828F83A3A34F
:10554800A3A3E0F9121024E9F9C3940A500CAC099A
:105558007A027B00121048750800E509600CEEFA23
:10556800EFFB121096800375081402522F74F21282
:1055780017C2ECFEEDFF750815740E12179E12592E
:10558800CB74FF6A700374FF6B7021750900AC0A55
:10559800AD0BEEFAEFFBA90912104EE9600375088E
:1055A800000509E509C3940A503F80E21209FA8A06
:1055B800828B83E5824583602D7C007D00E5822413
:1055C80005FAE43583FBA3A3A3A3E0F9121024E9A9
:1055D800F9C3940A5013AC0AAD0BEEFAEFFB1210A4
:1055E8004E7508008003750814A908025B5FC08225
:1055F800C08390077DEAF0A3EBF0900763E0FC7DA1
:10560800007A257B00120514900763E0F9120778E9
:10561800D083D08202011F74EC1217C28A088B094A
:10562800E97E00703878081219D5741612179E781A
:105638000C1215EC90912178101215EC780C791059
:105648001214BEAA10AB11AC12AD131205B074023D
:1056580012174AE9FE60097901AA08AB091205AADE
:10566800EEF97F0C02189474EA1217C274EC121740
:1056780034EAFEEBFFEE240CF514E43FF5158E82B8
:105688008F83A3858210858311EE240AF50CE43FED
:10569800F50DEE2405F50EE43FF50FEE2409F50AA5
:1056A800E43FF50BEE2403F508E43FF5098E828FFD
:1056B80083A3A3E024FA70030259A324FD70030214
:1056C80058C514700302575914601024FD70030262
:1056D80058A81470030258F90259C11259E46049D4
:1056E800E0F58388821259DE880C890DE8450D6043
:1056F80038851482851583E0F50E780E1219D9EED7
:10570800240BF582E43FF583E0F9850A82850B8353
:105718001259D80A0A0AAB09850C82850D8312171B
:10572800C0740112174A0259C1850A82850B831277
:1057380019EC90077912160A1205B0740212174A6A
:10574800E970030259C17901850A82850B830259E0
:105758006F851082851183E0600302588B850E8265
:10576800850F83E0A2E0400302588B7C0E7D007910
:1057780000AA18AB191211C2EE2408F512E43FF57D
:1057880013851282F583126109EA4B6010750A06C7
:10579800750B00780A1219D5EA2410801B126103D0
:1057A8001209FAEA4B70030259C1750A06750B0013
:1057B800780A1219D5EA2405FCE43BFD7402121795
:1057C800B01211AA740212174A850E82850F83E05F
:1057D800A2E25004D2F08002C2F0A2F0E433F874DE
:1057E8000C12179EE048F0850C82850D831259CB68
:1057F800E50A450B6012E50A2410F582E4350BF53D
:1058080083780C1215EC800C750CFF750DFF750E66
:10581800FF750FFFE50A450B7006750A00750B004A
:10582800851282851383E0F512A3E0F513E512458E
:10583800137006751200751300780C1219D1780AC6
:105848001219D578121219D5851482851583121963
:10585800EC8E828F83A31259D3740A1217B01210D8
:1058680060740A12174A8508828509831259DE90E6
:10587800080DE8F0A3E9F07A017B00900763E0F9EE
:105888001212041259E470030259C11259EF70033D
:105898000259C1851082851183E0FC79010259976C
:1058A8001259E470030259C11259EF70030259C129
:1058B800851082851183E0FC79020259977C007D6E
:1058C80000EE2404FAE43FFB850882850983E0F9A9
:1058D800121024E9F8C3940A40030259C1AC0CAD74
:1058E8000D7A0475F006E8A42425F91212DC025991
:1058F800C1126103900778E06007900C89E0F98095
:1059080069900C86E070047905805F1209FA8A0CA8
:105918008B0DA80CA90DE82404F50CE439F50D8EBF
:10592800828F83A3A3A3A3A3A3A3E0A2E05040E88C
:105938004970030259C1850C82850D83E0FE602FF2
:10594800850A82850B83E054107024740E1217B8F0
:10595800E82405FAE439FBEEF9121024E97010790D
:10596800038508828509831261091205AA804AAC59
:105978000EAD0F850C82850D83E0F91261031210BC
:10598800A21259E460331259EF602E7C007900129C
:1059980061038E828F831217C0801E120676E9700B
:1059A8001890080CE06401700812107E90080CE44E
:1059B800F079501212E8121072741412174A7F0EFE
:1059C800021894E0F50AA3E0F50B22A3A3A3A3A36E
:1059D800E0FCA3E0FD22E0F8A3E0F92290077DE0D7
:1059E800F8A3E0F9E84922E0F5838882A3A3E0F868
:1059F800A3E0F9E8FEE9FFEE4F2274F41217C2742F
:105A0800F2121734EAFE8C0B75F006E9A42420F58F
:105A180008AC18AD197A0EF91212E2E970487C0642
:105A280079FFAA18AB19121228E9703A740C1217E8
:105A38009E1259DEE8F509E50B6005EE420980047F
:105A4800EEF45209AA09E86A7001E96015740C12AB
:105A5800179EEAF0A3E4F0AC18AD197A0EA9081263
:105A680012DC79018002790002522574F21217C201
:105A780074E6121734890A8A088B09ECFEEDFF7464
:105A88000C1217B87A0E75F006E9A42420F9121240
:105A9800E2E96003025B587C0679FF740C1217B0C8
:105AA800121228E96003025B587470250AF50BACE2
:105AB80018AD197A0CF91212E2E96003025B54AAD4
:105AC80018AB1912105AE5084509701D7C0C7900AD
:105AD800AA18AB19121228E970727C0C7D007900A3
:105AE800AA18AB191211C28051AC18AD19AA08AB8B
:105AF800091210548A0C8B0DA80CA90DE8497022C4
:105B0800EE4F604CAC18AD197A007B00121054EAC5
:105B1800F8EBF9EA4B603988828983E508F0A3E558
